S012000041546D656761333238502E73726563F6
S11300000C9441110C9490110C9469110C94691185
S11300100C9469110C9469110C9469110C94B61127
S11300200C9469110C9469110C9469110C949F112E
S11300300C9469110C9469110C9469110C94691154
S11300400C9469110C9469110C9469110C94691144
S11300500C9469110C9469110C9469110C94691134
S11300600C9469110C946911FFFFFFFFFFFFFFFF60
S1130070FFFFFFFFFFFFFFFFFFFFFFFFFFFFFFFF8C
S11300805555555555555555FFFFFFFFFFFFFFFFCC
S1130090555555555555555555555555555555550C
S11300A0FFFFFFFFFFFFFFFF5555555555555555AC
S11300B055555555555555555555555555555555EC
S11300C055555555555555555555555555555555DC
S11300D05555555555555555055150145515051437
S11300E05155545551554551000000000000000081
S11300F015154554554554510000000000000000FA
S113010051515151545515150000000000000000D4
S1130110451451451451451400000000000000002E
S113012000000000000000000000000000000000CB
S113013000000000000000000000000000000000BB
S113014000000000000000000000000000000000AB
S1130150000000000000000020000000000000007B
S1130160000000000000000000000000000000008B
S1130170000000000000000000000000000000007B
S11301800000020000000000000000000000000069
S1130190000000000000000000000000000000005B
S11301A0000000000000004000000000000000000B
S11301B00000020000000000000000000000000039
S11301C0000080000000000000000000015000005A
S11301D0000000000000000000000000000000001B
S11301E000000040000000000000000100000000CA
S11301F000000040000000000000000000000000BB
S113020000000000000000000000000000000000EA
S113021000000000000000000000000000000100D9
S113022000000000000000000000000000000000CA
S113023000000000000005000000000000000000B5
S113024000000000000000000000000000000000AA
S11302500100000000000000000000000500000094
S1130260000000000000000000000000000000008A
S11302700000000000000640000000000000000034
S1130280000000000000000000000000000000006A
S11302900000000001000000000000000100000058
S11302A0000000000000000000000000000000004A
S11302B00000000000000000000004000000000036
S11302C0000000000000000000000000000000002A
S11302D0000000000000000000000000000000001A
S11302E010000000000000000000000000000000FA
S11302F000000000020000000000040000000000F4
S11303000000000000008000000000000000000069
S113031000000000000000000000000000000000D9
S113032000000000000000000000000000000000C9
S113033000000000000000000000001000000000A9
S113034000000000000000000000000000000100A8
S11303500000000000000000000000000000000099
S11303600010000000000000000000000000000079
S11303700000000006400000000000000000000033
S11303800000000000000165000000000000000003
S11303900000000000000000000001000000000058
S11303A00000000000000000000000000010000039
S11303B00000000000000000000000000000000039
S11303C00000000000000000000000000000000029
S11303D00000001000000000000000000000000009
S11303E00000000000000000000000000000000009
S11303F000000000000000000000000000000000F9
S113040000100000000000000000000000000000D8
S11304100000000000500000000000000000000088
S11304200400000000000064000000000000000060
S11304300000000000000000000000500000000068
S11304400000000000001500000000000010000083
S11304500000800000000000000000000000000018
S11304600000000200000000000000000400000082
S11304700000000000000000000000000000000078
S11304800000000000000000000000000000000068
S113049000000000000000000000000000000080D8
S11304A00000000000000000000000000000000048
S11304B00000000000000000000000000000000038
S11304C000000000000000000000004000000008E0
S11304D000000000000000000000000040000000D8
S11304E00000000000000000000000000000000008
S11304F000000000000000000000000000000000F8
S113050000000000000000000000000000000000E7
S113051000000000000000000000000000000000D7
S113052000000000000000000000000000000000C7
S113053000000000000000000000000000000000B7
S113054000000000000000000000000000000000A7
S11305500000000400000000000000000000000093
S11305601000000000000000000000400000000037
S11305700000000000000000000000000000000077
S11305800000000000000000000000000000000067
S11305900010000000001000000000000000000037
S11305A00000000000000000000000000000010046
S11305B00000000000000000000000000400000033
S11305C00000000000000000000000000000555082
S11305D00000000000400000040000400001000092
S11305E000000100001000010000000000000000F5
S11305F000000005555500055000001000000100E2
S113060000000000400040000040000400004000E2
S1130610000000000000000000155555405555002D
S1130620000404000040000000001000100100104D
S11306301001100000000000000000000000005540
S113064055555155554000010100000000000000BF
S1130650040404000004040044000400000000003A
S113066000000000005555555555554000004040C8
S11306704000000000000101110010010100110000
S113068001000010000000000000015555555555AB
S113069055500000101010000000040400404440B5
S11306A00400400004400044000400000000000076
S11306B0015555555555555000004404040042AAAF
S11306C0010101101110110110100111101100018C
S11306D01000000000000155555555555550154062
S11306E0111101002AAAA0404044044404404404D7
S11306F004444404404040000000000001555555A6
S113070055555551555444444440AAAAA8011011C2
S1130710111101101101011111011010000000004C
S1130720000014555555555555455555111111127F
S1130730AAAAAA0444044444444404444444444403
S11307404444400000000000555555555555555535
S1130750555514444AA6AAAAAA91111111111111AE
S11307601111111111111111000000000000555553
S113077055555555555AA95555512AAAAAAAAA8478
S1130780444444544444544444444444444440004D
S11307900000000055555555555555AAAA95555470
S11307A055AAAAAAAAA115111115511515111111AD
S11307B011111111100000000000405555555555F8
S11307C056AAAAA55555555AAAAAAAA445445445B9
S11307D05445454444444444446AAA00000000008B
S11307E000055555555556AAAAA555555556956A09
S11307F0AAA511511511551151511111111112AA16
S1130800AAA0000000000001555555555AAAAAA9EE
S113081055555556555AAAA544544544554454541F
S1130820544444444AAAA8000000000000005405AF
S113083055555AAAAAA9A95555555556AA9551557B
S1130840115555551555155511111AAAA00000003A
S113085000000000400055555AAAAAAAAA55AA5554
S11308605556AAAA945544555554455555154444CE
S11308706AAAA000000000000000000055555AAA12
S1130880AAAAAA9AAAA5555655AAA9155515555501
S11308905155555551112AA40000000000000000D4
S11308A0000015555A55AAAAAAAAAAA95555556AC7
S11308B0AA55554555555455556A94446A900000B7
S11308C0000002AA40000554155555555AA956AAC8
S11308D0AAAA5555555AAA5155555555551556AAAE
S11308E0A91A9550000000002AAA500055555555E4
S11308F055555695556AAAAA55555556AA94555410
S1130900555555555AAAAA69554000000000AAAA8F
S113091054015555555555555655555AAAAA9555E8
S11309205555AA951555155555515AAAAAA9554074
S113093000000000AAAA55055555555000155555F7
S11309405556AAAA9555AA95AA95555555955554FF
S11309506AAAAAA5554000000AA8AAAA55001555D6
S1130960550000015555555655AA955AAAA9AA9558
S11309705555556555552AAAAAA555400000AAAA59
S1130980AAAA554001555400000055555555556ABD
S1130990956AAAAAAA555555555995AA6AAAAAA507
S11309A055500002AAAAAAAA554154555400000061
S11309B015015555556A556AAAAAAAA555565556FC
S11309C06AAAAAAAAAA555500002AAAAAAAA554583
S11309D055555000000010005555555AA56AAAAA4D
S11309E0AAA555559556AAAAAAAAAAA55554000A75
S11309F0AAAAAAAA5555550050000000001555553D
S1130A0055AAAA6AAAAAAAAAA95555AAAAAAAAAA82
S1130A10AAA95540015AAAAAAAAA555550000000ED
S1130A2000000155555556AAAA9AAA000AAAAA95E1
S1130A30595AAAAAAAAAAAAA5500155AAAAAAAAA97
S1130A40555540000000015405555555556AAAAA4C
S1130A508000002AAAA55655666AAAAAAAAA540022
S1130A60555AAAAAAAAA50050000000005554555E2
S1130A7055555555AAAA00000002AAA95595999959
S1130A809999AAA95550555AAAAAAAA540010000A5
S1130A90000000055555555555555AA8000000004D
S1130AA0AAA959656666666AAAA55554555AAAAA9A
S1130AB0AA950000000000000000555555555555F5
S1130AC056A8000000002A55559999AAA9AAAA95E2
S1130AD055555556AAAAAA5500000000000000006A
S1130AE014055555555555A000000000255555567B
S1130AF066AAAAAAAA9555555555AAAAAA550000A8
S1130B00000000000000000055555555002000006D
S1130B100000055555559AAAAAAAAA55555555AA8D
S1130B20AAAAAA55000000000000000000005555C4
S1130B305550000000000000055555555AAAAAAAB0
S1130B40AA5555555AAAAAAAAA55000000000000A1
S1130B500000000015555550000000000000055528
S1130B60555556AAAAAAAA5555556AAAAAAAAA5573
S1130B7000000000000000005540155555540000C9
S1130B80000000000015555556AAFFFAAA55555500
S1130B90AAAAAAAAAA9500000000000000055554BC
S1130BA0155555550000000000400001555555AF3E
S1130BB0FFFFAA555555AAAAAAAAAAA50000000093
S1130BC000015415555515555555000000000500F4
S1130BD00000155555BFFFFFEA955556AAAAAAAAC3
S1130BE0955A000000000015555555555555555555
S1130BF04000005514000000155555FFFFFFFA95FD
S1130C0056AAAAAAAAA95555000000000055555590
S1130C10555555555555400005555400000005558A
S1130C2055FFFFFFFAA56AAAAAAAAAA5555500006E
S1130C3000000055555550001555015505501555E2
S1130C4050000000055555FFFFFFFEBFAAAAAAA544
S1130C505A955555000000000155555500000550A2
S1130C6000151554555550000000040154FFFFFFB2
S1130C70FEFFAAAAAA555695555500000000015535
S1130C805554000000400000555455501000000019
S1130C90000057FFFFFFFFFFAAAAA9555555555558
S1130CA0000000000140055400000000000015553C
S1130CB0550000000000000055553FFFFFFFAAAAA1
S1130CC0AAA555555555000000000000005000002D
S1130CD0000000554555550000000000005515550D
S1130CE053FFFFFFEAAAAAA9555555550000000075
S1130CF000000010000000000555555554555000E3
S1130D0000000005555554FFFFFAAAAAAAAA555592
S1130D10556A0000000000000000000000001555A6
S1130D20555555555500000000015005553FFFEA43
S1130D30AAAAAAAA555556AA00000000000000005D
S1130D40000000001555555555555540000000014B
S1130D500000557FFFEAAAAAAAAA555556AA00552B
S1130D6000000000000000000015155555555555AC
S1130D705550000000000000554C556AAAAAAAA9C3
S1130D8055555AAA05555000000000000000000007
S1130D905555555555555550000000000000155542
S1130DA055556AAAAAAAA5555AAA55555400000031
S1130DB000000000000005555555555555540000D8
S1130DC00000000010055555555AAAAAAA555AAA5A
S1130DD000155500554000000015400001555555BB
S1130DE0555555540540000000000000015555AA12
S1130DF0AAA955555AAA00000041555400000155AE
S1130E00540001555555555555545554000000008E
S1130E1000002AAAAAAAAA555555AAAA00000000A9
S1130E201555000005555500005555555555555552
S1130E3055550000556AAAAAAAAAAAAAA955555A9C
S1130E40AAAA000000000055155005555540004061
S1130E5015555555555555555555555AA556AAAA7E
S1130E60AAAAA555556AAAAA00000000000555556E
S1130E701555554540000555555555555555555528
S1130E80555A55556AAAAAAAA55555A556A50000AE
S1130E90000000001555155555555400015555557C
S1130EA0555555555555555955555AAAAAAA9555A6
S1130EB055955595000000000000005555555555B1
S1130EC05505515555555555555555555555555522
S1130ED056AAAAAA9555555555550000000000007C
S1130EE00000155000015515545555555555555587
S1130EF05555555555555556AAAA955555555555B3
S1130F0000000000000000000000000001555555DD
S1130F1055555555555555555555555555556AA518
S1130F2055555555555500000000000000000000BF
S1130F300000000555555555555401555555555501
S1130F40555555555A55555555555555000000009C
S1130F500000000000000000000005555555550034
S1130F600000155550155555555559555555555558
S1130F7055550000000000000000000000000000C3
S1130F800001555500000000000540015555555518
S1130F9055555555555555555555555555555555FD
S1130FA0555555555555555555555556AAAAAAAA98
S1130FB0AAAAAAAAAAAAAAA555555555555555553A
S1130FC055555555555555555555555555555555CD
S1130FD055555A556AAAAAABFAAAAAAAA5555555AF
S1130FE055555555555555555555555555555555AD
S1130FF05555555555555AAAAAAAAAAAABFFFEAAF1
S1131000AAAAAAAAAAA9555555555555555555558F
S11310105555555555555555AAAAAAAAAAAAAAAAD4
S1131020AAAAAAAAAAAAAAAAAAAAAA955555555585
S1131030555555555555555555555555555555565B
S1131040AAAAAAAAAAAAAAAAABFFAAAAAAAAAAAAA6
S1131050AAAAAAAAAAAA555555555555555555553E
S113106055555555555556AAAAAAAAAAABFFFFFF2E
S1131070FFEAAAAAAAAAAAAAAAAAA95555555555E1
S1131080555555555555555AA556AAAAAAAAAAAAB8
S1131090AAAAAAAAFFFFFEAAAAAAAAAAAAAAAAA9AF
S11310A0555555555555555555555AAAAAAAAAAA3E
S11310B0AAAAAAAAAAAAAAAAAAFFFFFFFFFFABFA92
S11310C0AAAAAAAAAAAAAAAA555555555555555524
S11310D05556AAAAAAAAAAAAAAAAAAAAAAAAAAAA15
S11310E0AAAAAAAAAAAAAAAAAAAAAAAAAAAA555506
S11310F0555555AAAA9555AAAAAAAAAAAAAAAAAAB5
S1131100AAAAAABFFFFFFFFFFAAAAAAAAAAAAAAA82
S1131110AAAAAAAA555556AAAAAAAAAAAAAAAAAA29
S1131120AAAAAAAAAAAAAFEBFFFFFFFFFFFFFFFF2D
S1131130EAAAAAAAAAAAAAAAAAAAAA555556AAAAC9
S1131140AAAAAAAAAAAAAAAAAAAAAAAAAAAAABFFA5
S1131150FFFFEAAAAAAAAAAAAAAAAAAAAAAAAAAA01
S1131160AAA95555569556AAAAAAAAAAAAAAAAAA43
S1131170AAAAAAAAAAAABFFFFFFAAAAAAAAAAAAABC
S1131180AAAAAAAAAAAA5955555AAAAAAAAAAAAA06
S1131190AAAAAAAAAAAAAAAAAAAAAAAAAABFFFFFEC
S11311A0FFFEAAAAAAAAAAAAAAAAAAAAAAAAAAAAF2
S11311B0AAAAAAAAAAAAAAAAAAAAAAAAAAAABFFF21
S11311C0FFFFFFFFFFFFFEAAAAAAAAAAAAAAAAAA29
S11311D0AAAAAAAAAAAAAAAAAAAAAAAAAAAAAAAA6B
S11311E0AAFFFFFFFFFFFFFFFFFFFFFEAAAABFFF4B
S11311F0FFFFAFAAAAAAAAAA0030000010000000AC
S1131200000000000000000000786C283C662030DC
S113121018305418000000060078247C600C50102C
S1131220301838180000000C0078002838183400F2
S11312303018107E007E00180030007C0C3048000E
S11312403018381800000030000000287866340098
S11312501830541800000060003000001000000036
S1131260000000003000300000000000000000001A
S113127000000000100000003818FCFC06FE7CFE94
S11312807C7C00000000007C4C380606C6C0C0060A
S1131290C6C60000180030C6C618063CC6FCFC06CC
S11312A07CC63030307C1806C6187C06C606C60CD0
S11312B0C6C6000060000C06C618C006C606C618DE
S11312C0C67E0000307C183C6418C006FE06C6309A
S11312D0C606303018003000383CFEFC06FC7C307A
S11312E07C7C0010000000300000000000000000C2
S11312F000000000000000007C7CFC7EFCFEFE7C04
S1131300C63C1EC6C0C6C67CC6C6C6C0C6C0C0C60D
S1131310C61806C6C0EEE6C6C6C6C6C0C6C0C0C0AD
S1131320C61806CCC0FEF6C6D6C6FCC0C6F8FCDE9F
S1131330FE1806F8C0D6DEC6DCFEC6C0C6C0C0C6EF
S1131340C61806CCC0C6CEC6C0C6C6C0C6C0C0C6B7
S1131350C618C6C6C0C6C6C67CC6FC7EFCFEC07E19
S1131360C63C7CC6FEC6C67C00000000000000002F
S11313700000000000000000FC7CFC7E7EC6C6C6A7
S1131380C666FE0000000000C6C6C6C018C6C6C6B3
S1131390C666063860381000C6C6C6C018C6C6C6BB
S11313A06C660C3030183800C6C6C67C18C6C6D663
S11313B0383C383018186C00FCDEFC0618C66CFE8D
S11313C06C1860300C184400C0CCC60618C638EE41
S11313D0C618C03806380000C076C6FC187C10C693
S11313E0C618FE00000000FE00000000000000001F
S11313F000000000000000000000C00006003E00E5
S1131400C0180CC038000000607CFC7E7E7C607ECE
S1131410C00000C618FCFC7C2006C6C0C6C660C658
S1131420FC381CCC18D6C6C6007EC6C0C6C6FCC6D0
S1131430C6180CF818D6C6C600C6C6C0C6FC60C618
S1131440C6180CCC18D6C6C600C6C6C0C6C0607EB8
S1131450C6180CC618D6C6C6007EFC7E7E7C600606
S1131460C6180CC618D6C67C000000000000007C1C
S113147000007800000000000000000018000000D8
S11314800000000000000000FC7EFC7C18C6C6D6EC
S1131490C6C6FE3810380000C6C6C6C07EC6C6D64C
S11314A06CC60C3010183000C6C6C07C18C6C6D630
S11314B038C63860100C5A00C6C6C00618C66CD6AA
S11314C06CC6603010180C00C6C6C00618C638D6E4
S11314D0C67EC03810380000FC7EC07C187E107EAA
S11314E0C606FE0000000000C00600000000000068
S11314F0007C000000000000FFFFFFFFFFFFFFFF74
S1131500FFFFFFFFFFFFFFFFFFFFFFFFFFFFFFFFE7
S1131510FFFFFFFFFFFFFFFFFFFFFFFFFFFFFFFFD7
S1131520FFFFD55FF57FFFFFFFFFFFFFFFFFFFFF1B
S1131530FFFFD5FF7FFFFFFFFFFFFFFFFFFFFFFF61
S1131540FFFFFFFFFFFFFFFFD55FF57FFFFFFFFFFB
S1131550FFFFFFFFFFFFFFFFD5FDFFFFFFFFFFFFC3
S1131560FFFFFFFFFFFFFFFFFFFFFFFFFFFF555FD1
S1131570F57FFFFFFFFFFFFFFFFFFFFFFFFFD5FF2B
S1131580FFFFFFFFFFFFFFFFFFFFFFFFFFFFFFFF67
S1131590FFFFFFFD555FF57FFFFFFFFFFFFFFFFF2D
S11315A0FFFFFFFFD5FFFFFFFFFFFFFFFFFFFFFF71
S11315B0FFFFFFFFFFFFFFFFFFF55D5FF57FFFFF0D
S11315C0FFFFFFFFFFFFFFFFFFFFD5FFFFFFFFFF51
S11315D0FFFFFFFFFFFFFFFFFFFFFFFFFFFFFFD541
S11315E07D5FF55FFFFFF57FFFD5FFFFFFD55FFF51
S11315F0D5FFFFFFFFFFFFFFFFFFFFFFFFFFFFFF21
S1131600FFFFFFFFFF55FD5F55555FFF5557F5552C
S11316105FFFF55555FFD5FFFFFFFFFFFFFFFFFFFE
S1131620FFFFFFFFFFFFFFFFFFFFFF57FD5F555564
S11316305FFD5555555557FFD555557FD5FFFFFFD0
S1131640FFFFFFFFFFFFFFFFFFFFFFFFFFFFFFFFA6
S1131650FD57FD5F55555FF55555555555FF555F7C
S1131660D55FD5FFFFFFFFFFFFFFFFFFFFFFFFFF7A
S1131670FFFFFFFFFFFFF55FFD5FF57FFFD55FF520
S113168055FF55FF55FFF55FD5FFFFFFFFFFFFFF38
S1131690FFFFFFFFFFFFFFFFFFFFFFFFD57FFD5FA2
S11316A0F57FFFD57FFD57FFD5FD57FFFD57D5FFCC
S11316B0FFFFFFFFFFFFFFFFFFFFFFFFFFFFFFFF36
S11316C0FFFF55FFFD5FF57FFFD5FFFD5FFFD57D74
S11316D057FFFD57D5FFFFFFFFFFFFFFFFFFFFFF92
S11316E0FFFFFFFFFFFFFFFD5555FD5FF57FFFD5B2
S11316F0FFFD5FFFD57D55555557D5FFFFFFFFFF14
S1131700FFFFFFFFFFFFFFFFFFFFFFFFFFF5555543
S1131710FD5FF57FFFD5FFFD5FFFD57D555555571F
S1131720D5FFFFFFFFFFFFFFFFFFFFFFFFFFFFFFEF
S1131730FFFFFFF55557FD5FF57FFFD5FFFD5FFF09
S1131740D57D55555557D5FFFFFFFFFFFFFFFFFF21
S1131750FFFFFFFFFFFFFFFFFFD57FFFFD5FF57F6B
S1131760FFD5FFFD5FFFD57D5FFFFFFFD57FFFFF47
S1131770FFFFFFFFFFFFFFFFFFFFFFFFFFFFFF551F
S1131780FFFFFD5FF55FFFD5FFFD5FFFD57D57FFD1
S1131790FFFFD57FFFFFFFFFFFFFFFFFFFFFFFFFFF
S11317A0FFFFFFFFFD57FFFFFD5FFD57FFD5FFFD67
S11317B05FFFD57F55FFFD5FF55FFFFFFFFFFFFF75
S11317C0FFFFFFFFFFFFFFFFFFFFF55FFFFFFD5F71
S11317D0FD555FD5FFFD5FFFD57F557FD55FF5557F
S11317E07FFFFFFFFFFFFFFFFFFFFFFFFFFFFFFF85
S11317F0D57FFFFFFD5FFF555FD5FFFD5FFFD57F01
S1131800D555557FFD557FFFFFFFFFFFFFFFFFFF0E
S1131810FFFFFFFFFFFF55FFFFFFFD5FFFD55FD514
S1131820FFFD5FFFD57FF55555FFFF557FFFFFFF98
S1131830FFFFFFFFFFFFFFFFFFFFFFFF57FFFFFF5C
S1131840FFFFFFFFFFFFFFFFFFFFFFFFFFD55FFF6E
S1131850FFFFFFFFFFFFFFFFFFFFFFFFFFFFFFFF94
S1131860FFFFFFFFFFFFFFFFFFFFFEAAAABFFFFF6F
S1131870FFFFFFFFFFFFFFFFFFFFFFFFFFFFFFFF74
S1131880FFFFFFFFFFFFFFFFFFFFFFFFFFFFFFFF64
S1131890EAAAAAAFAFFFFFFFFFFFFFFFFFFFFFFFB3
S11318A0FFFFFFFFFFFFFFFFFFFFFFFFFFFFFFFF44
S11318B0FFFFFFFFFFFFAAAAAAABFFFFFFFFFFFF87
S11318C0FFFFFFFFFFFFFFFFFFFFFFFFFFFFFFFF24
S11318D0FFFFFFFFFFFFFFFFFFFFFFFEAAAAAAAA69
S11318E0FFFFFFFFFFFFFFFFFFFFFFFFFFFFFFFF04
S11318F0FFFFFFFFFFFFFFFFFFFFFFFFFFFFFFFFF4
S1131900FFFAAAAAAAAAFFFFFF0FFFF0FFFFFFFF3B
S1131910FFFFFFFFFFFFFFFFFFFFFFFFFFFFFFFFD3
S1131920FFFFFFFFFFFFFFEAABEAAAFABFFFFC03DA
S1131930FFC03FFFFFFFFFFFFFFFFFFFFFFFFFFFB2
S1131940FFFFFFFFFFFFFFFFFFFFFFFFFFAAAFFA4D
S1131950ABFEBFFFFC03FFC03FFFFFFFFFFFFFFF26
S1131960FFFFFFFFFFFFFFFFFFFFFFFFFFFFFFFF83
S1131970FFFFFFAABFFAAFFEAFFFFC03FFC03FFFAC
S1131980FFFFFFFFFFFFFFFFFFFFFFFFFFFFFFFF63
S1131990FFFFFFFFFFFFFFFFFEAAFFFEAFFFABFF4E
S11319A0FC00FF003F0FC0003F0000FF0000FF00ED
S11319B0003C3FF0F0FC0003FFFFFFFFFFFFFEAA27
S11319C0BFFEAFFFEBFFF000FF003F0F00000F0072
S11319D0003F0000FC00003C3FF0F0F00000FFFF7F
S11319E0FFFFFFFFFEAABFFFABFFEAFFF0003C00D2
S11319F03F0F00000F00003C00003C00003C3FF0A3
S1131A00F0F00000FFFFFFFFFFFFFEAFAFFFEBFFB3
S1131A10FABFF0303C0C0F0F03FFFF0FFC3C0FF03C
S1131A203C0FFFFC3FF0F0F03FF0FFFFFFFFFFFF34
S1131A30FEAFABFFEAFFFEBFF0303C0C0F0F0FFF11
S1131A40FF0FFC3C3FFC3C3FFFFC0000F0F03FF08C
S1131A50FFFFFFFFFFFFFEBFEBFFFAFFFEAFF03C0F
S1131A60003C0F0F0FFFFF0FFC3C3FFC3C3FFFFC13
S1131A700000F0F03FF0FFFFFFFFFFFFFEFFFAFF63
S1131A80FEBFFFAFF03C003C0F0F0FFFFF00003C18
S1131A903FFC3C3FFFFC0000F0F00000FFFFFFFFB5
S1131AA0FFFFFFFFFAFFFEAFFFEFF03C003C0F0F1C
S1131AB00FFFFF00003C3FFC3C3FFFFC3FF0F0F019
S1131AC00003FFFFFFFFFFFFFFFFFABFFFAFFFFFB2
S1131AD0F03F00FC0F0F03FFFF0FFC3C0FF03C0F27
S1131AE0FFFC3FF0F0F03FFFFFFFFFFFFFFFFFFFB2
S1131AF0EAAFFEABFFFFF03F00FC0F0F00000F0F3B
S1131B00FC3C00003C00003C3FF0F0F03FFFFFFFD6
S1131B10FFFFFFFFFFFFAAAFFEAAFFFFF03FC3FCDA
S1131B200F0FC0000F0FFC3F0000FF00003C3FF010
S1131B30F0F03FFFFFFFFFFFFFFFFFFFAAABFAAA92
S1131B40FFFFFCFFFFFF3FFFFFFFFFFFFFFFFFFF64
S1131B50FFFFFFFFFFFFFFFCFFFFFFFFFFFFFFFF94
S1131B60FFFEAAAAEAAABFFFFFFFFFFFFFFFFFFFD6
S1131B70FFFFFFFFFFFFFFFFFFFFFFFFFFFFFFFF71
S1131B80FFFFFFFFFFFFFFFAAAAAAAAABFFFFFFFFA
S1131B90FFFFFFFFFFFFFFFFFFFFFFFFFFFFFFFF51
S1131BA0FFFFFFFFFFFFFFFFFFFFFFFFFFFEAAAAEC
S1131BB0AAAABFFFFFFFFFFFFFFFFFFFFFFFFFFF1B
S1131BC0FFFFFFFFFFFFFFFFFFFFFFFFFFFFFFFF21
S1131BD0FFFFFFFFEAAAAAAAFFFFFFFFFFFFFFFF25
S1131BE0FFFFFFFFFFFFFFFFFFFFFFFFFFFFFFFF01
S1131BF0FFFFFFFFFFFFFFFFFFFFFEAAAAAFFFFFEC
S1131C00FFFFFFFFFFFFFFFFFFFFFFFFFFFFFFFFE0
S1131C10FFFFFFFFFFFFFFFF0000000000000000C8
S1131C200000003C00000000FFC0000000FABC00FF
S1131C3000003AAB0000003AAAC00000EAAAB000D3
S1131C4000EAAAB00003AAAFAC0003AABFAC000329
S1131C506ABFDC00035AFFDC000357CF1C0003D724
S1131C60CF3C000EA4FFD7003AA9005700EAA950C0
S1131C7055C0EAA95055C0DAA98055C0E6A98057D5
S1131C80003956005C000EA800F00003F000C0000C
S1131C90000C00C0000003C0C0000000C30000002E
S1131CA000C300000000C300000000CC00000000DE
S1131CB0CC0000000030000000000000000003C061
S1131CC00000000FFC0000000FAB00000003AAC0DE
S1131CD000000EAAC000003AAAB00000EAAAB000B0
S1131CE003AAAAAC0003AAAFAC00035AAFEC0003EA
S1131CF05ABFEC0000D7FFDC000037CF1C0000D730
S1131D00CF3C000FA4FFD7003AA90055C0EAA95060
S1131D1055C0EAAA505700DAAA605C00E555805C19
S1131D20003AAA0070000FF000C000003000C000AC
S1131D30000C00C0000003C0C0000000C30000008D
S1131D4000C300000000C300000000CC000000003D
S1131D50CC000000003000000000F000000003FC94
S1131D6000000003BC0000000EAC0000003AAB0011
S1131D700000EAAAC00000EAAAC00003AAAAC000A0
S1131D8003AAABB000036AAFB00000DAAFAC000046
S1131D90D6FF6C0000D7FFDC000037CF1C000FD744
S1131DA0CF3FC03AA4FFD570EAA9005570EAA95004
S1131DB05570DAAA5055C0E6AA6057003955A07C80
S1131DC0000EAA00C00003F000C000003000C000F4
S1131DD0000C00C0000003C0C0000000C3000000ED
S1131DE000C300000000C300000000CC000000009D
S1131DF0CC000000003000000003C00000000FF021
S1131E000000000FB00000000EB00000003AAC006B
S1131E100000EAAB000000EAAB000000EAAAC00040
S1131E2000EAAEB00000EAAFAC0000EABFAC0000CC
S1131E30DAFFAC0000DAFFDC000357CF1C0003D745
S1131E40CF3C000EA4FFD7003AA90055C0EAA95020
S1131E505570DAAA505570E6AA6055C0396A6057C1
S1131E60000E9580FC0003EA00C000003000C000B2
S1131E70000C00C0000003C0C0000000C30000004C
S1131E8000C300000000C300000000CC00000000FC
S1131E90CC00000000300000003FF00000EAAF007A
S1131EA003ABFEC003AFFFB00EAF3CB00EAF3CF0CF
S1131EB00E7FFFF00D7FFFF00D73FCF00D7400F04A
S1131EC03DB541F0F5B901F0FEBA02F03E9A006C5E
S1131ED00EAA00AC0EAA006C0EAA00300EAA0030A6
S1131EE00EAA00700DAA10700E68117003943DC004
S1131EF000E83300003CF00000030000000FFC0089
S1131F0000FAAB0003ABFEC00EAFFFB00EAF3CB0A7
S1131F100EBF3CF00E7FFFF00D7FFFF00D73FCF061
S1131F200D7400F00DB540F00DB501F03DB902F0AF
S1131F303E9A02700EAA00B00EAA00AC0EAA002CA3
S1131F400EAA002C0EAA005C0EAA10700D68317047
S1131F500E943DC003E83300003CF0000003000091
S1131F60003FFC0000EAAB0003ABFEC003AFFFB0D0
S1131F700EBF3CF03ABF3CF03A7FFFF03A7FFFF0EF
S1131F800D73FCF00D7400F00D7400F00DB541F00C
S1131F900EB901F00EBA02F00E9A00B00EAA00B00B
S1131FA00EAA00300EAA00300DAA00700E6A205C42
S1131FB00E68115C03943F7000E830C0003CF000F0
S1131FC000030000003FF00000EAAF0003ABFEC0D6
S1131FD003AFFFB00EAF3CF00EAF3CF03A7FFFF022
S1131FE03A7FFFF03A73FCF03A7400F03DB500F02C
S1131FF03EB541F00EBA02F00E9A02700EAA00B07D
S11320000EAA00B00EAA00300EAA00300EAA00706C
S11320100DAA20700E68117003983F7000E430C060
S11320200038F000000F0000000000000000000F66
S1132030FC0000F0FAABC003FFAAAAB003EAAAAA04
S1132040AC00FAAAAAFC000D6AAFFF000D5D5FFFA9
S11320500003D7FF3C000035573C0000F557FC0057
S113206003AA57F0003EAA607000EAA9807003AA90
S1132070A980C00EAA9602C00E95680700396A802E
S113208003000EB550030003CD400C00000000FF18
S1132090C000000FAAB000003AAAAC00F3EAAAFC00
S11320A003FEAAAAFF03EAAAABFF00F5AA9FFC005D
S11320B00D555F3C0003F75F3C000039F7F000006A
S11320C0E954700003AA9870000EAA60C0003AAAEE
S11320D060C000EAA980C003AAA980C00EAA960025
S11320E0C0395568C3000EAA833C0003FC0C0000F1
S11320F000000FFFF000003AAAAC0000EAAAFF00BB
S113210003AAABFF003FAAABFF00FEAAAF3C00FA54
S1132110AAB73C003D55D7FC0003D5D7F00003A96E
S11321205470000EAA60B0003AA980B0003AA6022A
S1132130B000EAA602C000EA9800C000EA9800C015
S1132140039558F0C000EAA30CC0003C0C03000047
S1132150033000000000FFFFC00003AAAAB0000E75
S1132160AAAAAC003AAAAAFF00EAAAAFFF03E6AB08
S1132170FFFC03FD9F573C00FF57573C000FA5573A
S1132180FC003AA953F000EAA680C003AA9800C054
S113219003AA6002B00EA98002B00DA9800AB00E95
S11321A0698002C0039580030000EA0000C0003F7C
S11321B00170C00000FFCC300003FFFC00003EAA09
S11321C0ABC003EAAAAAB00FAAAAAAAC0FF6AAAB9C
S11321D0FF03CDAFAFFF000375FFFC0000D5573CF4
S11321E00000D5573C0003E557FC003EA963F0030B
S11321F0EAA680C00EAA9800C03AAA6002C036A916
S11322008002C039A6000AC00E56400AC003AB5073
S1132210030000FCC0030000003A8300000000003B
S11322200000000FFC0000F0FAABC003FFAAAAB044
S113223003EAAAAAAC00D6AAABFC003D6ABFFF0021
S11322400D5D5FFF0003D7FCFC0000355CFC000063
S1132250F55FFC0003A94FF0003EA9807000EAA6D8
S1132260007003AAA600700EAA5802C00E55A00A58
S1132270C039AA0003000EB550030003CD4C0C0076
S1132280DB1111241FBECFEFD8E0DEBFCDBF11E0BC
S1132290A0E0B1E0E4E1F8E302C005900D92A830BB
S11322A0B107D9F721E0A8E0B1E001C01D92AC313B
S11322B0B207E1F711E1C1E4D1E104C02197FE01C5
S11322C00E94021CC034D107C9F70E946B110C9400
S11322D0081C0C94000061E080E00E949F1666E0F8
S11322E082E00E94721661E080E00E94AF1661E015
S11322F081E00E94CA1661E082E00E94CA1661E091
S113230083E00E9421170E94B917789415BC88E0D5
S113231091E00E94B41388E091E00E948F14FBCFF7
S11323201F920F920FB60F9211248F9381E0809326
S11323301B018F910F900FBE0F901F9018951F9245
S11323400F920FB60F9211248F939F9380911901CE
S113235090911A01019690931A01809319019F910B
S11323608F910F900FBE0F901F9018951F920F9290
S11323700FB60F9211248F939F93AF93BF938091C5
S1132380150190911601A0911701B09118010196C1
S1132390A11DB11D8093150190931601A0931701FF
S11323A0B0931801BF91AF919F918F910F900FBE81
S11323B00F901F901895E8E0F1E080EF90E0918392
S11323C0808380E491E09383828308958F929F9227
S11323D0AF92BF92CF92DF92EF92FF920F931F932F
S11323E0CF93DF93EC01822F90E080979C0112F44D
S11323F0215F3F4F490195948794959487949594D0
S11324008794959487949694982C88249794879489
S11324108F709078992324F40197806F9F6F0196B1
S1132420880E991E8A01015F1F4F9B01215F3F4F58
S1132430CE010E945F18540180E8880E911C6894B4
S1132440CC24C1F8D12CEC81FD81EA0DFB1D149143
S11324506894EE24E3F8F12C11235CF46885798503
S1132460CE010E94CF1768857985CE010E94CF17CF
S11324700AC06E817F81CE010E94CF176E817F8159
S1132480CE010E94CF17110F81E0E81AF10821F75D
S113249081E0C81AD108B9F680E1A80EB11CA814CD
S11324A0B90469F6DF91CF911F910F91FF90EF90DE
S11324B0DF90CF90BF90AF909F908F900895CF9270
S11324C0DF92EF92FF920F931F93CF93DF937C01E0
S11324D0EB016A01F9012081222371F08F010F5F62
S11324E01F4FA601BE01C7010E94E6116096F801C4
S11324F021918F012111F5CFDF91CF911F910F9180
S1132500FF90EF90DF90CF9008952F923F924F92DB
S11325105F926F927F928F929F92AF92BF92CF926F
S1132520DF92EF92FF920F931F93CF93DF93CDB778
S1132530DEB727970FB6F894DEBF0FBECDBF9A83E0
S11325408983B62EA72E5C834B83680179010A30F8
S113255011052105310588F191E09D83412C512C11
S11325603201439409C09D81892F90E09F838E831B
S11325701816190654F157C08D818F5F8D83440C52
S1132580551C661C771CD301C201880F991FAA1F12
S1132590BB1F880F991FAA1FBB1F480E591E6A1E16
S11325A07B1EC701B601A30192010E94CC1B2A30F5
S11325B031054105510500F7D6CF81E090E09F83B6
S11325C08E83412C512C320143940B2D1A2DA12CB6
S11325D0B12CC701B601A30192010E94CC1B262E87
S11325E0372E882E992E205D4B815C81B80189811C
S11325F09A810E94E611C22CD32CE82CF92CC30139
S1132600B2012AE030E040E050E00E94CC1B2901F6
S11326103A019FEFA91AB90A005F1F4F8E819F816B
S1132620A816B906B4F227960FB6F894DEBF0FBE0B
S1132630CDBFDF91CF911F910F91FF90EF90DF906D
S1132640CF90BF90AF909F908F907F906F905F904E
S11326504F903F902F900895FC01409115015091A7
S11326601601609117017091180180819181A281F6
S1132670B3810596A11DB11D481759076A077B0749
S113268070F04083518362837383809114018F5F60
S1132690823019F08093140102C0109214018091C9
S11326A0150190911601A0911701B0911801448170
S11326B05581668177814C595F4F6F4F7F4F8417E7
S11326C09507A607B707B0F084839583A683B783DD
S11326D0309113013F5F30931301209112012F5F5A
S11326E020931201343011F410921301263011F4A6
S11326F010921201408551856285738543585F4F5E
S11327006F4F7F4F84179507A607B70770F0808730
S11327109187A287B387809100018F5F823019F07F
S1132720809300010895109200010895FC018091A6
S1132730150190911601A0911701B09118018083A1
S11327409183A283B3838091150190911601A09186
S11327501701B091180184839583A683B78380877A
S11327609187A287B38708955F926F927F928F9229
S11327709F92AF92BF92CF92DF92EF92FF920F930C
S11327801F93CF93DF933C010E94E21760E0C301E3
S11327900E9437186FEF7FEFC3010E9493182FEF49
S11327A039E688E1215030408040E1F700C0000064
S11327B0CFEFCF93CF931F928FE18F930F2E812C66
S11327C0F8EF9F2EF02DA12CB12C6894CC24C1F8E5
S11327D00F2EF8EFEF2EF4E1FF2EF02D00E610E0BF
S11327E020E331E046E450E068E070E0C3010E9479
S11327F011199FEFEBE7F2E99150E040F040E1F767
S113280000C0000060E070E0C3010E949318CF9301
S1132810CF9388EF8F931F920F2E812CF8E79F2E72
S1132820F02D0F2EF8E5EF2EF1E0FF2EF02D00EE47
S113283010E020E331E040E150E068E070E0C301E3
S11328400E9411192FEF3CE281E391E021503040C6
S113285080409040D9F700C0000060E070E0C30100
S11328600E94931888EF91E1F30195838483178282
S113287016828FEF9FEF9187808721E031E040E15E
S113288050E060E170E0C3010E945F122DB73EB7D3
S1132890285F3F4F0FB6F8943EBF0FBE2DBFC0E078
S11328A0D0E0DD24DA940F2EF8EF5F2EF02DDF92C6
S11328B0DF925F921F920F2E812CF8E79F2EF02D4E
S11328C0A12CB12C6894CC24C1F80F2EF8E6EF2E7D
S11328D0F0E0FF2EF02D0CE310E020E430E044EBB8
S11328E050E0BE01C3010E941119C05CDF4F0F907C
S11328F00F900F900F90C03431E0D307C1F6DF91F1
S1132900CF911F910F91FF90EF90DF90CF90BF90E8
S1132910AF909F908F907F906F905F900895CF932A
S1132920DF93CDB7DEB766970FB6F894DEBF0FBE60
S1132930CDBF7C012FEF81EE94E021508040904088
S1132940E1F700C0000080EF90E09E878D8780E46F
S113295091E0988B8F871E8A1D8A1C8A10921A0117
S113296010921901CE0101960E949613CE01019690
S11329700E942C13CE010D960E943F16009119015E
S113298010911A0120E030E040E150E064E670E08C
S1132990C7010E948512EACF5F926F927F928F9255
S11329A09F92AF92BF92CF92DF92EF92FF920F93DA
S11329B01F93CF93DF933C01C0E0D0E0DD24DA9491
S11329C00F2EF8EF5F2EF02D0F2EF8E7BF2EF02D0F
S11329D080911201082E000C990B8C179D0719F594
S11329E0DF92DF925F921F92BF921F92812C912CF3
S11329F06894AA24A1F8CC2E0F2EF8E2EF2EF0E270
S1132A00FF2EF02D08E210E028E230E04CE850E020
S1132A106CE370E0C3010E94F0190F900F900F90C7
S1132A200F900F900F902196C630D10589F6DF9153
S1132A30CF911F910F91FF90EF90DF90CF90BF90B7
S1132A40AF909F908F907F906F905F9008952F929A
S1132A503F924F925F926F927F928F929F92AF922A
S1132A60BF92CF92DF92EF92FF920F931F93CF9377
S1132A70DF933C0180911401813009F0E7C0F30138
S1132A80868182335CF095819F5F9583943019F041
S1132A908650868303C0F301118608C0F301818543
S1132AA0882321F086818A5F86832CC0F301868186
S1132AB08650868318169CF0E12CF12C09E110E075
S1132AC028E230E043E750E06CE370E0C3010E9489
S1132AD0D81810921B01F30110861782BDC0C0E004
S1132AE0D0E00F2EFAE74F2E512CF02DDD24DA948E
S1132AF00F2EF8EFBF2EF02D0F2EF2E72F2E312CD4
S1132B00F02D5BC0C0E0D0E00F2EFAE74F2E512C21
S1132B10F02DDD24DA940F2EF8EFBF2EF02D0F2EBA
S1132B20FCEA2F2E312CF02D80911301082E000C7D
S1132B30990B8C179D07D9F5F3018681A201481BD7
S1132B40510987FD5395DF92DF92BF921F92F8E7F8
S1132B50FF931F92812C912C6894AA24A1F8CC2E67
S1132B600F2EF8E9EF2EFEE1FF2EF02D02E310E028
S1132B7020E230E06CE370E0C3010E94F019F3013D
S1132B808681A101481B510987FD5395E12CF12C45
S1132B9008E010E020E230E06CE370E0C3010E9442
S1132BA0D8180F900F900F900F900F900F902196C0
S1132BB0C430D10509F0B8CF4FC080911301082E5D
S1132BC0000C990B8C179D07D9F5F3018681A2019E
S1132BD0481B510987FD5395DF92DF92BF921F92E4
S1132BE0F8E7FF931F92812C912C6894AA24A1F8F2
S1132BF0CC2E0F2EF8E1EF2EFCE1FF2EF02D00E499
S1132C0010E028E230E06CE370E0C3010E94D41AC3
S1132C10F3018681A101481B510987FD5395E12CDD
S1132C20F12C08E010E028E230E06CE370E0C3012E
S1132C300E94D8180F900F900F900F900F900F9044
S1132C402196C430D10509F0B8CF06C0F3018185BF
S1132C50882309F444CF56CFDF91CF911F910F9170
S1132C60FF90EF90DF90CF90BF90AF909F908F90A8
S1132C707F906F905F904F903F902F900895EF92C8
S1132C80FF920F931F93CF93DF93EC0180911B016D
S1132C908823B9F08F81811114C0E12CF12C08E252
S1132CA010E028E230E04CE850E06CE370E0CE0144
S1132CB00E94D8181D821E8281E0898788878F83AD
S1132CC007C08885811104C0CE010E94CC1403C0C2
S1132CD0CE010E942715DF91CF911F910F91FF9094
S1132CE0EF900895813089F08230E1F0811126C09F
S1132CF024B181E090E002C0880F991F6A95E2F741
S1132D00822B84B985B185B9089527B181E090E01B
S1132D1002C0880F991F6A95E2F7822B87B988B1A0
S1132D2088B908952AB181E090E002C0880F991F04
S1132D306A95E2F7822B8AB98BB18BB908956195B4
S1132D40813039F0823041F0811108C064B915B87E
S1132D50089567B918B808956AB91BB808959DB362
S1132D6021E030E002C0220F331F8A95E2F7292BBD
S1132D702DBB613039F0623049F061110AC0109204
S1132D80690008958AE08093690008958FE0809334
S1132D9069000895813099F18230B1F0811150C0F9
S1132DA0611108C081E080936E0014BC85E085BD8C
S1132DB016BC089582E080936E0084BD85E085BDD5
S1132DC016BC8FEF87BD089561110BC081E080931D
S1132DD070001092B00084E08093B1001092B200B1
S1132DE0089582E0809370008093B00084E0809323
S1132DF0B1001092B20089EF8093B300089561117D
S1132E000DC081E080936F001092800085E0809374
S1132E1081001092850010928400089582E08093CE
S1132E206F00109280008DE08093810010928500E5
S1132E30109284008DE38093890088E08093880059
S1132E400895853009F45DC02CF4833051F084304A
S1132E50C1F00895873029F10CF46FC08830C9F1AE
S1132E600895611107C084B5816484BD8CE085BD7B
S1132E7016BC089584B5836484BD8CE085BD16BCFE
S1132E800895611107C084B5816184BD8CE085BD5E
S1132E9016BC089584B5836184BD8CE085BD16BCE1
S1132EA0089561110BC0E0EBF0E0808181688083BC
S1132EB086E08093B1001092B2000895E0EBF0E058
S1132EC080818368808386E08093B1001092B20091
S1132ED0089561110BC0E0EBF0E080818162808392
S1132EE086E08093B1001092B2000895E0EBF0E028
S1132EF080818362808386E08093B1001092B20067
S1132F00089561110DC0E0E8F0E08081836880835A
S1132F1084E08093810010928500109284000895CB
S1132F20E0E8F0E08081836880838CE08093810016
S1132F301092850010928400089561110DC0E0E89C
S1132F40F0E080818362808384E08093810010922A
S1132F508500109284000895E0E8F0E080818362A7
S1132F6080838CE08093810010928500109284000D
S1132F70089580E58CBD81E08DBD08956EBD0DB4CE
S1132F8007FEFDCF08952A9828980E94BE17289A14
S1132F9008952A9A28980E94BE17289A08951F9384
S1132FA0CF93DF93EC01162F672F2A9A28980E945B
S1132FB0BE17612FCE010E94BE17289ADF91CF91D0
S1132FC01F910895CF93DF93EC01289A29982FEF4E
S1132FD089EF90E0215080409040E1F700C000006C
S1132FE0299A2FEF89E698E1215080409040E1F73B
S1132FF000C0000061E0CE010E94C3172FEF89EFEB
S113300090E0215080409040E1F700C0000060EC67
S1133010CE010E94C3176BE2CE010E94C91766E37A
S1133020CE010E94C31768E4CE010E94C9176AE367
S1133030CE010E94C31765E5CE010E94C91760E264
S1133040CE010E94C31761E1CE010E94C3172FEF86
S11330508DEE92E0215080409040E1F700C00000E6
S113306069E2CE010E94C317DF91CF9108951F93A7
S1133070CF93DF93EC01162F66E30E94C317113040
S113308089F01230A1F0111116C068E2CE010E943D
S1133090C917888199812A813B81398328839B833D
S11330A08A8309C068E4CE010E94C91704C068E895
S11330B0CE010E94C917DF91CF911F910895AF925D
S11330C0BF92CF92DF92EF92FF920F931F93CF9311
S11330D0DF93EC015B017A0169016AE20E94C31784
S11330E0B501CE010E94CF17B601CE010E94CF17C1
S11330F06BE2CE010E94C317B701CE010E94CF1725
S1133100B801CE010E94CF176CE2CE010E94C31712
S1133110DF91CF911F910F91FF90EF90DF90CF90AF
S1133120BF90AF900895CF92DF92EF92FF920F93EA
S11331301F93CF93DF937C016B01FC010281138108
S113314001501109208131812150310940E050E0C2
S113315060E070E00E945F18F70182819381181685
S11331601906ECF400E010E0F70180819181181653
S113317019066CF4C0E0D0E0B601C7010E94CF1775
S11331802196F70180819181C817D907ACF30F5FAD
S11331901F4FF70182819381081719072CF3DF91E0
S11331A0CF911F910F91FF90EF90DF90CF900895F2
S11331B08F929F92AF92BF92CF92DF92EF92FF9243
S11331C00F931F93CF93DF936C01490158018A0138
S11331D00A0D1B1D015011099B01280D391D215099
S11331E031090E945F181A141B0474F4181419048A
S11331F03CF4E401B701C6010E94CF172197D1F72F
S113320081E0A81AB10891F7DF91CF911F910F9136
S1133210FF90EF90DF90CF90BF90AF909F908F90F2
S113322008952F923F924F925F926F927F928F9266
S11332309F92AF92BF92CF92DF92EF92FF920F9341
S11332401F93CF93DF93CDB7DEB762970FB6F89491
S1133250DEBF0FBECDBF3C01388B2F871801FC8623
S1133260EB868A01020D131D01501109260F371F29
S1133270215031090E945F184C2CCC0C5508C10117
S1133280B2010E94B81B7E876D87161617060CF0D4
S11332908EC09201220F331F220F331F3A8B298BCA
S11332A01E821D829A828982141415040CF073C044
S11332B08F85988969897A890E94B81B7A8769877A
S11332C0ED81FE816E9FC0016F9F900D7E9F900DDA
S11332D0112498878F831C821B821B01280E391EA0
S11332E02B853C85220E331E89859A85181619066E
S11332F00CF048C0EB84FC84EF81F885EE0EFF1ED1
S1133300F70194906894CC24C2F8D12C892C86942B
S11333108694869486948694869400E010E08110C6
S113332005C0B501C3010E94CF171AC0F1E08F1286
S113333006C069817A81C3010E94CF1711C022E0BF
S1133340821206C06FA178A5C3010E94CF1708C0DE
S113335033E0831205C069A57AA5C3010E94CF1783
S11333600F5F1F4F04151505D1F6990C990C81E0D8
S1133370C81AD10859F69FEFE91AF90A2E143F0426
S113338009F0BECFEB81FC813196FC83EB83E4151D
S1133390F50509F0A9CF2D813E812F5F3F4F3E8374
S11333A02D838D859E852817390709F07DCF629678
S11333B00FB6F894DEBF0FBECDBFDF91CF911F9142
S11333C00F91FF90EF90DF90CF90BF90AF909F90C0
S11333D08F907F906F905F904F903F902F900895C3
S11333E02F923F924F925F926F927F928F929F9211
S11333F0AF92BF92CF92DF92EF92FF920F931F93FF
S1133400CF93DF93CDB7DEB760970FB6F894DEBFE6
S11334100FBECDBF3C013E872D8718018A01020DE6
S1133420131D01501109260F371F215031090E9425
S11334305F184A2CAA0C5508C101B2010E94B81B9E
S11334407C876B87161617060CF095C09201220F25
S1133450331F220F331F388B2F87C701EC2DF4E65F
S1133460EF02800D911D11249E838D831C821B828B
S1133470141415040CF073C08D859E856F857889AE
S11334800E94B81B7A8769878B819C81689F900111
S1133490699F300D789F300D112438872F831A824D
S11334A019825B01A20EB31EED81FE81AE0EBF1E1A
S11334B029853A85121613060CF048C0ED80FE806B
S11334C08F819885E80EF91EF70134906894CC2416
S11334D0C2F8D12C232C2694269426942694269440
S11334E0269400E010E0211005C0B401C3010E943D
S11334F0CF171AC0F1E02F1206C06DA17EA1C3013F
S11335000E94CF1711C022E0221206C06FA178A535
S1133510C3010E94CF1708C033E0231205C069A578
S11335207AA5C3010E94CF170F5F1F4F041515051D
S1133530D1F6330C330C81E0C81AD10859F69FEF49
S1133540E91AF90AAE14BF0409F0BECFE981FA8181
S11335503196FA83E983E415F50509F0A9CF2B81A7
S11335603C812F5F3F4F3C832B838B859C852817A1
S1133570390709F07DCF60960FB6F894DEBF0FBE11
S1133580CDBFDF91CF911F910F91FF90EF90DF900E
S1133590CF90BF90AF909F908F907F906F905F90EF
S11335A04F903F902F9008952F923F924F925F92A9
S11335B06F927F928F929F92AF92BF92CF92DF923F
S11335C0EF92FF920F931F93CF93DF93CDB7DEB7A4
S11335D060970FB6F894DEBF0FBECDBF3C013E87A7
S11335E02D8718018A01020D131D01501109260FA0
S11335F0371F215031090E945F184A2CAA0C550824
S1133600C101B2010E94B81B7C876B87161617068E
S11336100CF095C09201220F331F220F331F388BF9
S11336202F87C7012C2D30EA2303800D911D11240F
S11336309E838D831C821B82141415040CF073C0AA
S11336408D859E856F8578890E94B81B7A876987E6
S1133650EB81FC816E9FC0016F9F900D7E9F900D4A
S1133660112498878F831A8219825B01A80EB91ED0
S11336702D813E81A20EB31E89859A8518161906DE
S11336800CF048C0ED80FE80EF81F885EE0EFF1E41
S1133690F70134906894CC24C2F8D12C232C2694BE
S11336A02694269426942694269400E010E0211073
S11336B005C0B401C3010E94CF171AC0F1E02F1254
S11336C006C06DA17EA1C3010E94CF1711C022E0E4
S11336D0221206C06FA178A5C3010E94CF1708C0AB
S11336E033E0231205C069A57AA5C3010E94CF1750
S11336F00F5F1F4F04151505D1F6330C330C81E011
S1133700C81AD10859F69FEFE91AF90AAE14BF0492
S113371009F0BECFE981FA813196FA83E983E41591
S1133720F50509F0A9CF2B813C812F5F3F4F3C83E6
S11337302B838B859C852817390709F07DCF6096EC
S11337400FB6F894DEBF0FBECDBFDF91CF911F91AE
S11337500F91FF90EF90DF90CF90BF90AF909F902C
S11337608F907F906F905F904F903F902F9008952F
S113377097FB072E16F4009407D077FD09D00E941A
S1133780EE1B07FC05D03EF4909581959F4F08955C
S1133790709561957F4F0895A1E21A2EAA1BBB1B59
S11337A0FD010DC0AA1FBB1FEE1FFF1FA217B30709
S11337B0E407F50720F0A21BB30BE40BF50B661F1F
S11337C0771F881F991F1A9469F7609570958095E3
S11337D090959B01AC01BD01CF010895AA1BBB1BB1
S11337E051E107C0AA1FBB1FA617B70710F0A61BFD
S11337F0B70B881F991F5A95A9F780959095BC011E
S1133800CD010895EE0FFF1F0590F491E02D09946A
S1073810F894FFCF56
S10B38140154696D653A0000DE
S9030000FC
