:100000000C94FB110C94BD120C9423120C9423122B
:100010000C9423120C9423120C9423120C94981217
:100020000C9423120C9423120C9423120C9423127C
:100030000C9423120C9423120C9423120C9423126C
:100040000C9449120C9423120C9423120C94231236
:100050000C9423120C9423120C9423120C9423124C
:100060000C9423120C9423120020000000000000C6
:100070000000000000000000000000000000000080
:100080000000000000000000000000000000000070
:10009000000000000002000000000000000000005E
:1000A0000000000000000000000000000000000050
:1000B0000000000000000000000000004000000000
:1000C000000000000000000200000000000000002E
:1000D00000000000000000800000000000000000A0
:1000E00000000001500000000000000000000000BF
:1000F00000000000000000000000400000000000C0
:1001000000000100000000000000000040000000AE
:1001100000000000000000000000000000000000DF
:1001200000000000000000000000000000000000CF
:1001300000000000000000000001000000000000BE
:1001400000000000000000000000000000000000AF
:10015000000500000000000000000000000000009A
:10016000000000000000000000000000000100008E
:10017000000000000000000000050000000000007A
:10018000000000000000000000000000000000006F
:100190000000000000064000000000000000000019
:1001A000000000000000000000000000000000004F
:1001B000000000000001000000000000000100003D
:1001C000000000000000000000000000000020000F
:1001D000000000000000000000000000000400001B
:1001E000000000000000000000000000000000000F
:1001F00000000000000000000000000000000000FF
:1002000000000000001000000000000000000000DE
:1002100000000000000000000002000000000000DC
:10022000000400000000000000000000008000004A
:1002300000000000000000000000000000000000BE
:1002400000000000000000000000000000000000AE
:10025000000000000000000000000000000000009E
:10026000000000001000000000000000000000007E
:10027000000000000000000000010000000000007D
:10028000000000000000000000000000100000005E
:10029000000000000000000000000000000000005E
:1002A0000006400000000000000000000000000008
:1002B00000000001650000000000000000000000D8
:1002C000000000000000000000010000000000002D
:1002D000000000000000000000000000100000000E
:1002E000000000000000000000000000000FFFFF01
:1002F000F00FFFFFFF0FFFFFF000003FC003FC0304
:10030000FFFFC003FFFFC03FFFFFC0000000000071
:1003100000000000000FFFFFF00FFFFFFF0FFFFFC7
:10032000F000003FC003FC03FFFFC003FFFFC03F1E
:10033000FFFFC0001000000000000000000FF000F0
:10034000FF0FF000000FF000FF00503FC003FC3F24
:10035000C003FC3FC007FC3FC003FC00640000007A
:1003600000000000000FF000FF0FF000000FF00091
:10037000FF00503FC003FC3FC003FC3FC017FC3FE1
:10038000C003FC001000000000000080000FF0001F
:10039000FF0FF000000FF000FF00003FC203FC3F22
:1003A000C003FC3FC007FC3FC003FC00000000008E
:1003B00000000000000FF000FF0FF000000FF00041
:1003C000FF00003FC003FC3FC003FC3FC003FC3FF5
:1003D000C003FC000000000000000000800FF000DF
:1003E000FF0FFFFF000FF000FF00003FFFFFFC3F8B
:1003F000C003FC3FC003FC3FC003FC000000000042
:1004000000000000000FF000FF0FFFFF000FF800DA
:10041000FF00003FFFFFFC3FC003FC7FC003FC3F29
:10042000C003FC000000000000000000000FFFFF00
:10043000F00FF000000FF000FF00003FC003FC3F92
:10044000C003FC3FC003FC3FC003FC0000000000F1
:1004500000000000000FFFFFF00FF000000FF000A1
:10046000FF00003FC003FC3FC003FC3FC003FC3F54
:10047000C003FC000000000000000000000FF000BE
:10048000FF0FF000000FF000FF00003FC003FC3F33
:10049000C003FC3FC003FC3FC403FC00000000009D
:1004A00000000000000FF010FF0FF000000FF00040
:1004B000FF00403FC003FC3FC003FC3FC003FC3FC4
:1004C000C003FC000000000000000000000FF0006E
:1004D000FF0FFFFFFF0FFFFFF000103FC003FC13F3
:1004E000FFFFC003FFFFC03FFFFFC0000000000090
:1004F00000000000000FF000FF0FFFFFFF0FFFFFE5
:10050000F000003FC003FC07FFFFC003FFFFC03F38
:10051000FFFFC00000000010000000555000000068
:100520000000400000040000400001000000000145
:1005300000001000010000000000000000000000AA
:100540000000055555000550000010000001000096
:100550000000004000400000400004000040000097
:1005600000000000000000000000155555405555E2
:100570000000040400004000000000100010010012
:10058000101001100000000000000000000000003A
:10059000000055555551555540000101000000001F
:1005A00000000004040400000404004400040000EF
:1005B000000000000000000000005555555555553D
:1005C0004000004040400000000000010111001008
:1005D00001010011000100001000000000000000F7
:1005E000000155555555555550000010103FFC0061
:1005F00000040400404F4004004000044000440058
:1006000004000000000000000001555555555555E7
:1006100050000044043C0F7EAF3FFD3FFC111FFF24
:1006200003FFD001111011000110000000000000B4
:10063000500155555555555550154011113D0F3E1A
:10064000AFBC4F7C4F3F4F07CF47C40444440440E6
:1006500040400000000000005401555555555555C7
:1006600051555444447C4FBEAFBC0F3C1F1F1F0369
:10067000DF13C10111110110100000000000000083
:10068000551455555555555545555511113FFEBEF7
:10069000AFBE0F7C0F4F4F47CF07C4444444444480
:1006A000444000000000000055555555555555551E
:1006B00055555514447EAFBEAFBE9F3D1F1F1F133F
:1006C000D3FFD11111111111110000000000000021
:1006D00055555555555555555AA95555513EAFAFD8
:1006E000FFBE8F7C4F4F5F47C457C44444444444CB
:1006F00044400000000000005555555555555555CE
:10070000AAAA95555455AAAAAAAAA115111115511C
:1007100017FF11111111111111100000000000003C
:100720005540555555555556AAAAA55555555AAA39
:10073000AAAAA44544544554454544444444444429
:100740006AAA000000000000550005555555555691
:10075000AAAAA555555556956AAAA5115115115520
:100760001151511111111112AAAAA000000000008C
:10077000540001555555555AAAAAA95555555655CF
:100780005AAAA54454454455445454544444444AF4
:10079000AAA8000000000000500000540555555A5A
:1007A000AAAAA9A95555555556AA95515511555559
:1007B000551555155511111AAAA00000000000008A
:1007C000400000400055555AAAAAAAAA55AA555554
:1007D00056AAAA9455445555544555551544446A4E
:1007E000AAA0000000000000500000000055555A6B
:1007F000AAAAAAAA9AAAA5555655AAA91555155541
:10080000555155555551112AA40000000000000013
:10081000550000000015555A55AAAAAAAAAAA9551A
:1008200055556AAA55554555555455556A94446AC7
:10083000900000000002AAA8554000055415555527
:10084000555AA956AAAAAA5555555AAA51555555A9
:1008500055551556AAA91A9550000000002AAAAAB3
:100860005550005555555555555695556AAAAA5592
:10087000555556AA945554555555555AAAAA6955D1
:100880004000000000AAAAAA5554015555555555D7
:10089000555655555AAAAA95555555AA9515551503
:1008A0005555515AAAAAA9554000000000AAAAAA63
:1008B00055550555555550001555555556AAAA95E7
:1008C00055AA95AA955555559555546AAAAAA55560
:1008D0004000000AA8AAAAAA5555001555550000BF
:1008E000015555555655AA955AAAA9AA9555555533
:1008F0006555552AAAAAA555400000AAAAAAAAAADF
:1009000055554001555400000055555555556A95AB
:100910006AAAAAAA555555555995AA6AAAAAA555CB
:10092000500002AAAAAAAAAA55554154555400003B
:100930000015015555556A556AAAAAAAA5555655D6
:10094000566AAAAAAAAAA555500002AAAAAAAAAAA1
:1009500055554555555000000010005555555AA5A0
:100960006AAAAAAAA555559556AAAAAAAAAAA55599
:1009700054000AAAAAAAAAAA555555550050000023
:10098000000015555555AAAA6AAAAAAAAAA955559A
:10099000AAAAAAAAAAAAA95540015AAAAAAAAAAA70
:1009A0005555555000000000000155555556AAAA4E
:1009B0009AAA000AAAAA95595AAAAAAAAAAAAA55FC
:1009C00000155AAAAAAAAAAA555555400000000126
:1009D0005405555555556AAAAA8000002AAAA5565D
:1009E00055666AAAAAAAAA5400555AAAAAAAAAAAE5
:1009F000555005000000000555455555555555AA5B
:100A0000AA00000002AAA9559599999999AAA955F1
:100A100050555AAAAAAAA556554001000000000048
:100A2000055555555555555AA800000000AAA95915
:100A3000656666666AAAA55554555AAAAAAA955526
:100A400055000000000000000055555555555556FD
:100A5000A8000000002A55559999AAA9AAAA955557
:100A6000555556AAAAAA55550500000000000000D9
:100A70000014055555555555A00000000025555545
:100A80005666AAAAAAAA9555555555AAAAAA555571
:100A90000000000000000000000000555555550002
:100AA0002000000000055555559AAAAAAAAA555536
:100AB0005555AAAAAAAA555500000000000000003A
:100AC0000000005555555000000000000005555528
:100AD000555AAAAAAAAA5555555AAAAAAAAA555514
:100AE00000000000000000000000001555555000F7
:100AF00000000000000555555556AAAAAAAA55554A
:100B0000556AAAAAAAAA55550000000000000000D4
:100B100000554015555554000000000000001555C3
:100B20005556AAFFFAAA555555AAAAAAAAAA955592
:100B300000000000000000000555541555555500F3
:100B400000000000400001555555AFFFFFAA555564
:100B500055AAAAAAAAAA55550000000000000154EF
:100B60001555551555555500000000050000001598
:100B70005555BFFFFFEA955556AAAAAAAA955555FD
:100B8000FFC00000000015555555555555555540A9
:100B900000005514000000155555FFFFFFFA95564B
:100BA000AAAAAAAAA9555555FFC03FFC03C055558E
:100BB000555557D55555554000055554000000056D
:100BC0005555FFFFFFFAA56AAAAAAAAAA555555529
:100BD000FFC0F00003C07FF5FFF003D555015505B8
:100BE00050155550000000055555FFFFFFFEBFAAE8
:100BF000AAAAA55A95555555FFC0F0003FFD557D51
:100C0000F53C3FFD500015155455555000000004AB
:100C10000154FFFFFFFEFFAAAAAA55569555555548
:100C2000FFC03FF003C17FFDF40003C0400000554A
:100C300054555010000000000057FFFFFFFFFFAAAF
:100C4000AAA9555555555555FFC0003C03C1F03D67
:100C5000F40003C00000001555550000000000001E
:100C60000055553FFFFFFFAAAAAAA5555555555552
:100C7000FFC0003C03C0F03CF00003C0000055453D
:100C8000555500000000000055155553FFFFFFEAC1
:100C9000AAAAA955555555AAFFC0FFF003C03FFCAD
:100CA000F00003C000055555555455500000000094
:100CB00005555554FFFFFAAAAAAAAA5555556AAA7E
:100CC000FFC00000000000000000000000155555A6
:100CD0005555555500000000015005553FFFEAAA43
:100CE000AAAAAA555556AAAA0000000000000000B2
:100CF00000000000001555555555555540000000A1
:100D0000010000557FFFEAAAAAAAAA555556AAAA29
:100D100000005500000000000000000015155555AA
:100D20005555555550000000000000554C556AAA15
:100D3000AAAAA955555AAAAA005555500000000064
:100D40000000000000555555555555555000000000
:100D5000000000155555556AAAAAAAA5555AAAAA6F
:100D6000FFD5555400000000000000000005555557
:100D700055555555540000000000001005555555B7
:100D80005AAAAAAA555AAAAAFFC03FFD0055400078
:100D90000000154000015555555555555405400066
:100DA0000000000000015555AAAAA955555AAAAA43
:100DB000FFC0F0007FFD7FF0FFF17FF4000155558B
:100DC000555555555455540000000000002AAAAA54
:100DD000AAAA555555AAAAAAFFC0F000F015F53CDD
:100DE000F03DF57D00005555555555555555550067
:100DF00000556AAAAAAAAAAAAAA955555AAAAAAA8D
:100E0000FFC03FF0F000F53DF005F57D40004015D6
:100E1000555555555555555555555AA556AAAAAA2D
:100E2000AAA555556AAAAAAAFFC0003CF000F57D04
:100E3000F515FFF545400005555555555555555582
:100E400055555A55556AAAAAAAA55555A555A95545
:100E5000FFC0003CF000F03DF515F555555400017C
:100E6000555555555555555555555955555AAAAA7F
:100E7000AA95555595556555FFC0FFF03FFC3FF0CD
:100E8000F5557FF5555505515555555555555555FC
:100E9000555555555556AAAAAA95555555555555C2
:100EA000FFC000000000000000155000015515545F
:100EB000555555555555555555555555555556AA8C
:100EC000AA955555555555550000000000000000E5
:100ED00000000000000155555555555555555555BF
:100EE000555555555555556AA5555555555555554D
:100EF0000000000000000000000000000000055598
:100F00005555555554015555555555555555555AE1
:100F10005555555555555555000000000000000029
:100F20000000000000000005555555550000001553
:100F300055501555555555595555555555555555A2
:100F4000FFC00000000000000000000000000000E2
:100F500001555500000000000540015555555555F7
:100F60005555555555555555FFD57FFD5555555535
:100F7000557D57D557D555555555555556AAAAAAF5
:100F8000AAAAAAAAAAAAAAAAA55555555555555519
:100F9000FFD5F555FFF57FF57FFD555557D55555CF
:100FA00055555555555A556AAAAAABFAAAAAAAA5E3
:100FB0005555555555555555FFD5F555F57DF57D87
:100FC000F57D5FD57FFD55555555555AAAAAAAAA54
:100FD000AAABFFFEAAAAAAAAAAAAA9555555555571
:100FE000FFD5F555F555F57DF57D57D557D555AA5E
:100FF000AAAAAAAAAAAAAAAAAAAAAAAAAAAAAAAA51
:10100000AAAA955555555555FFD5F555F555FFF5F2
:10101000F57D57D557D5555556AAAAAAAAAAAAAA60
:10102000AAABFFAAAAAAAAAAAAAAAAAAAAAAAAAACA
:10103000FFD5F555F555F555F57D57D557D555558A
:101040005556AAAAAAAAAAABFFFFFFFFEAAAAAAA14
:10105000AAAAAAAAAAA95555FFD57FFDF5557FF5DD
:101060007FFD57D55BE556AAAAAAAAAAAAAAAAAA48
:10107000AAFFFFFEAAAAAAAAAAAAAAAAA9555555D2
:10108000FFD5555555555555555AAAAAAAAAAAAAE3
:10109000AAAAAAAAAAAAAAAAFFFFFFFFFFABFAAAB6
:1010A000AAAAAAAAAAAAAAAA555555555555555548
:1010B000555556AAAAAAAAAAAAAAAAAAAAAAAAAA8E
:1010C000AAAAAAAAAAAAAAAAAAAAAAAAAAAAAAAA80
:1010D000555555555555AAAA9555AAAAAAAAAAAAD8
:1010E000AAAAAAAAAAAABFFFFFFFFFFAAAAAAAAAA7
:1010F000AAAAAAAAAAAAAAAA55555556AAAAAAAAA3
:10110000AAAAAAAAAAAAAAAAAAAAAAAFEBFFFFFFFA
:10111000FFFFFFFFFFEAAAAAAAAAAAAAAAAAAAAA46
:10112000AAAA555556AAAAAAAAAAAAAAAAAAAAAA1D
:10113000AAAAAAAAAAABFFFFFFEAAAAAAAAAAAAACF
:10114000AAAAAAAAAAAAAAAAAAAAA9555556955667
:10115000AAAAAAAAAAAAAAAAAAAAAAAAAAAAAABFDA
:10116000FFFFFAAAAAAAAAAAAAAAAAAAAAAAAAAAE5
:10117000A55955555AAAAAAAAAAAAAAAAAAAAAAA1F
:10118000AAAAAAAAAAAAAAAABFFFFFFFFEAAAAAA57
:10119000AAAAAAAAAAAAAAAAAAAAAAAAAAAAAAAAAF
:1011A000AAAAAAAAAAAAAAAAAAAAAABFFFFFFFFF36
:1011B000FFFFFFFEAAAAAAAAAAAAAAAAAAAAAAAA3C
:1011C000AAAAAAAAAAAAAAAAAAAAAAAAAAAAAAAA7F
:1011D000FFFFFFFFFFFFFFFFFFFFFEAAAABFFFFF0A
:1011E000FFAFAAAAAAAAAAAAFFFFFFFFFFFFFFFF5D
:1011F000FFFFFFFFFFFFFFFFFFFFFFFFFFFFFFFFFF
:10120000FFFFFFFFFFFFFFFFFFFFFFFFFFFFFFFFEE
:10121000FFFFD55FF57FFFFFFFFFFFFFFFFFFFFF32
:10122000FFFFD5FF7FFFFFFFFFFFFFFFFFFFFFFF78
:10123000FFFFFFFFFFFFFFFFD55FF57FFFFFFFFF12
:10124000FFFFFFFFFFFFFFFFD5FDFFFFFFFFFFFFDA
:10125000FFFFFFFFFFFFFFFFFFFFFFFFFFFF555FE8
:10126000F57FFFFFFFFFFFFFFFFFFFFFFFFFD5FF42
:10127000FFFFFFFFFFFFFFFFFFFFFFFFFFFFFFFF7E
:10128000FFFFFFFD555FF57FFFFFFFFFFFFFFFFF44
:10129000FFFFFFFFD5FFFFFFFFFFFFFFFFFFFFFF88
:1012A000FFFFFFFFFFFFFFFFFFF55D5FF57FFFFF24
:1012B000FFFFFFFFFFFFFFFFFFFFD5FFFFFFFFFF68
:1012C000FFFFFFFFFFFFFFFFFFFFFFFFFFFFFFD558
:1012D0007D5FF55FFFFFF57FFFD5FFFFFFD55FFF68
:1012E000D5FFFFFFFFFFFFFFFFFFFFFFFFFFFFFF38
:1012F000FFFFFFFFFF55FD5F55555FFF5557F55544
:101300005FFFF55555FFD5FFFFFFFFFFFFFFFFFF15
:10131000FFFFFFFFFFFFFFFFFFFFFF57FD5F55557B
:101320005FFD5555555557FFD555557FD5FFFFFFE7
:10133000FFFFFFFFFFFFFFFFFFFFFFFFFFFFFFFFBD
:10134000FD57FD5F55555FF55555555555FF555F93
:10135000D55FD5FFFFFFFFFFFFFFFFFFFFFFFFFF91
:10136000FFFFFFFFFFFFF55FFD5FF57FFFD55FF537
:1013700055FF55FF55FFF55FD5FFFFFFFFFFFFFF4F
:10138000FFFFFFFFFFFFFFFFFFFFFFFFD57FFD5FB9
:10139000F57FFFD57FFD57FFD5FD57FFFD57D5FFE3
:1013A000FFFFFFFFFFFFFFFFFFFFFFFFFFFFFFFF4D
:1013B000FFFF55FFFD5FF57FFFD5FFFD5FFFD57D8B
:1013C00057FFFD57D5FFFFFFFFFFFFFFFFFFFFFFA9
:1013D000FFFFFFFFFFFFFFFD5555FD5FF57FFFD5C9
:1013E000FFFD5FFFD57D55555557D5FFFFFFFFFF2B
:1013F000FFFFFFFFFFFFFFFFFFFFFFFFFFF555555B
:10140000FD5FF57FFFD5FFFD5FFFD57D5555555736
:10141000D5FFFFFFFFFFFFFFFFFFFFFFFFFFFFFF06
:10142000FFFFFFF55557FD5FF57FFFD5FFFD5FFF20
:10143000D57D55555557D5FFFFFFFFFFFFFFFFFF38
:10144000FFFFFFFFFFFFFFFFFFD57FFFFD5FF57F82
:10145000FFD5FFFD5FFFD57D5FFFFFFFD57FFFFF5E
:10146000FFFFFFFFFFFFFFFFFFFFFFFFFFFFFF5536
:10147000FFFFFD5FF55FFFD5FFFD5FFFD57D57FFE8
:10148000FFFFD57FFFFFFFFFFFFFFFFFFFFFFFFF16
:10149000FFFFFFFFFD57FFFFFD5FFD57FFD5FFFD7E
:1014A0005FFFD57F55FFFD5FF55FFFFFFFFFFFFF8C
:1014B000FFFFFFFFFFFFFFFFFFFFF55FFFFFFD5F88
:1014C000FD555FD5FFFD5FFFD57F557FD55FF55596
:1014D0007FFFFFFFFFFFFFFFFFFFFFFFFFFFFFFF9C
:1014E000D57FFFFFFD5FFF555FD5FFFD5FFFD57F18
:1014F000D555557FFD557FFFFFFFFFFFFFFFFFFF26
:10150000FFFFFFFFFFFF55FFFFFFFD5FFFD55FD52B
:10151000FFFD5FFFD57FF55555FFFF557FFFFFFFAF
:10152000FFFFFFFFFFFFFFFFFFFFFFFF57FFFFFF73
:10153000FFFFFFFFFFFFFFFFFFFFFFFFFFD55FFF85
:10154000FFFFFFFFFFFFFFFFFFFFFFFFFFFFFFFFAB
:10155000FFFFFFFFFFFFFFFFFFFFFEAAAABFFFFF86
:10156000FFFFFFFFFFFFFFFFFFFFFFFFFFFFFFFF8B
:10157000FFFFFFFFFFFFFFFFFFFFFFFFFFFFFFFF7B
:10158000EAAAAAAFAFFFFFFFFFFFFFFFFFFFFFFFCA
:10159000FFFFFFFFFFFFFFFFFFFFFFFFFFFFFFFF5B
:1015A000FFFFFFFFFFFFAAAAAAABFFFFFFFFFFFF9E
:1015B000FFFFFFFFFFFFFFFFFFFFFFFFFFFFFFFF3B
:1015C000FFFFFFFFFFFFFFFFFFFFFFFEAAAAAAAA80
:1015D000FFFFFFFFFFFFFFFFFFFFFFFFFFFFFFFF1B
:1015E000FFFFFFFFFFFFFFFFFFFFFFFFFFFFFFFF0B
:1015F000FFFAAAAAAAAAFFFFFF0FFFF0FFFFFFFF53
:10160000FFFFFFFFFFFFFFFFFFFFFFFFFFFFFFFFEA
:10161000FFFFFFFFFFFFFFEAABEAAAFABFFFFC03F1
:10162000FFC03FFFFFFFFFFFFFFFFFFFFFFFFFFFC9
:10163000FFFFFFFFFFFFFFFFFFFFFFFFFFAAAFFA64
:10164000ABFEBFFFFC03FFC03FFFFFFFFFFFFFFF3D
:10165000FFFFFFFFFFFFFFFFFFFFFFFFFFFFFFFF9A
:10166000FFFFFFAABFFAAFFEAFFFFC03FFC03FFFC3
:10167000FFFFFFFFFFFFFFFFFFFFFFFFFFFFFFFF7A
:10168000FFFFFFFFFFFFFFFFFEAAFFFEAFFFABFF65
:10169000FC00FF003F0FC0003F0000FF0000FF0004
:1016A000003C3FF0F0FC0003FFFFFFFFFFFFFEAA3E
:1016B000BFFEAFFFEBFFF000FF003F0F00000F0089
:1016C000003F0000FC00003C3FF0F0F00000FFFF96
:1016D000FFFFFFFFFEAABFFFABFFEAFFF0003C00E9
:1016E0003F0F00000F00003C00003C00003C3FF0BA
:1016F000F0F00000FFFFFFFFFFFFFEAFAFFFEBFFCB
:10170000FABFF0303C0C0F0F03FFFF0FFC3C0FF053
:101710003C0FFFFC3FF0F0F03FF0FFFFFFFFFFFF4B
:10172000FEAFABFFEAFFFEBFF0303C0C0F0F0FFF28
:10173000FF0FFC3C3FFC3C3FFFFC0000F0F03FF0A3
:10174000FFFFFFFFFFFFFEBFEBFFFAFFFEAFF03C26
:10175000003C0F0F0FFFFF0FFC3C3FFC3C3FFFFC2A
:101760000000F0F03FF0FFFFFFFFFFFFFEFFFAFF7A
:10177000FEBFFFAFF03C003C0F0F0FFFFF00003C2F
:101780003FFC3C3FFFFC0000F0F00000FFFFFFFFCC
:10179000FFFFFFFFFAFFFEAFFFEFF03C003C0F0F33
:1017A0000FFFFF00003C3FFC3C3FFFFC3FF0F0F030
:1017B0000003FFFFFFFFFFFFFFFFFABFFFAFFFFFC9
:1017C000F03F00FC0F0F03FFFF0FFC3C0FF03C0F3E
:1017D000FFFC3FF0F0F03FFFFFFFFFFFFFFFFFFFC9
:1017E000EAAFFEABFFFFF03F00FC0F0F00000F0F52
:1017F000FC3C00003C00003C3FF0F0F03FFFFFFFEE
:10180000FFFFFFFFFFFFAAAFFEAAFFFFF03FC3FCF1
:101810000F0FC0000F0FFC3F0000FF00003C3FF027
:10182000F0F03FFFFFFFFFFFFFFFFFFFAAABFAAAA9
:10183000FFFFFCFFFFFF3FFFFFFFFFFFFFFFFFFF7B
:10184000FFFFFFFFFFFFFFFCFFFFFFFFFFFFFFFFAB
:10185000FFFEAAAAEAAABFFFFFFFFFFFFFFFFFFFED
:10186000FFFFFFFFFFFFFFFFFFFFFFFFFFFFFFFF88
:10187000FFFFFFFFFFFFFFFAAAAAAAAABFFFFFFF11
:10188000FFFFFFFFFFFFFFFFFFFFFFFFFFFFFFFF68
:10189000FFFFFFFFFFFFFFFFFFFFFFFFFFFEAAAA03
:1018A000AAAABFFFFFFFFFFFFFFFFFFFFFFFFFFF32
:1018B000FFFFFFFFFFFFFFFFFFFFFFFFFFFFFFFF38
:1018C000FFFFFFFFEAAAAAAAFFFFFFFFFFFFFFFF3C
:1018D000FFFFFFFFFFFFFFFFFFFFFFFFFFFFFFFF18
:1018E000FFFFFFFFFFFFFFFFFFFFFEAAAAAFFFFF03
:1018F000FFFFFFFFFFFFFFFFFFFFFFFFFFFFFFFFF8
:10190000FFFFFFFFFFFFFFFFFFFFFFFFFFFFFFFFE7
:10191000FFFFFFFFFFFFFFFFFFFFFFFFFFFFFFFFD7
:10192000AAAAAAAAAAAAAAAAFFFFFFFFFFFFFFFF6F
:10193000AAAAAAAAAAAAAAAAAAAAAAAAAAAAAAAA07
:10194000FFFFFFFFFFFFFFFFAAAAAAAAAAAAAAAA4F
:10195000AAAAAAAAAAAAAAAAAAAAAAAAAAAAAAAAE7
:10196000AAAAAAAAAAAAAAAA6666666666666666F7
:10197000999999999999999966666666666666666F
:1019800099999999999999995555555555555555E7
:1019900055555555555555555555555555555555F7
:1019A000555555555555555544444444444444446F
:1019B000111111111111111144444444444444447F
:1019C000111111111111111100300000100000004F
:1019D000000000000000000000786C283C66203009
:1019E00018305418000000060078247C600C501059
:1019F000301838180000000C00780028381834001F
:101A00003018107E007E00180030007C0C3048003A
:101A100030183818000000300000002878663400C4
:101A20001830541800000060003000001000000062
:101A30000000000030003000000000000000000046
:101A400000000000100000003818FCFC06FE7CFEC0
:101A50007C7C00000000007C4C380606C6C0C00636
:101A6000C6C60000180030C6C618063CC6FCFC06F8
:101A70007CC63030307C1806C6187C06C606C60CFC
:101A8000C6C6000060000C06C618C006C606C6180A
:101A9000C67E0000307C183C6418C006FE06C630C6
:101AA000C606303018003000383CFEFC06FC7C30A6
:101AB0007C7C0010000000300000000000000000EE
:101AC00000000000000000007C7CFC7EFCFEFE7C30
:101AD000C63C1EC6C0C6C67CC6C6C6C0C6C0C0C63A
:101AE000C61806C6C0EEE6C6C6C6C6C0C6C0C0C0DA
:101AF000C61806CCC0FEF6C6D6C6FCC0C6F8FCDECC
:101B0000FE1806F8C0D6DEC6DCFEC6C0C6C0C0C61B
:101B1000C61806CCC0C6CEC6C0C6C6C0C6C0C0C6E3
:101B2000C618C6C6C0C6C6C67CC6FC7EFCFEC07E45
:101B3000C63C7CC6FEC6C67C00000000000000005B
:101B40000000000000000000FC7CFC7E7EC6C6C6D3
:101B5000C666FE0000000000C6C6C6C018C6C6C6DF
:101B6000C666063860381000C6C6C6C018C6C6C6E7
:101B70006C660C3030183800C6C6C67C18C6C6D68F
:101B8000383C383018186C00FCDEFC0618C66CFEB9
:101B90006C1860300C184400C0CCC60618C638EE6D
:101BA000C618C03806380000C076C6FC187C10C6BF
:101BB000C618FE00000000FE00000000000000004B
:101BC00000000000000000000000C00006003E0011
:101BD000C0180CC038000000607CFC7E7E7C607EFB
:101BE000C00000C618FCFC7C2006C6C0C6C660C685
:101BF000FC381CCC18D6C6C6007EC6C0C6C6FCC6FD
:101C0000C6180CF818D6C6C600C6C6C0C6FC60C644
:101C1000C6180CCC18D6C6C600C6C6C0C6C0607EE4
:101C2000C6180CC618D6C6C6007EFC7E7E7C600632
:101C3000C6180CC618D6C67C000000000000007C48
:101C40000000780000000000000000001800000004
:101C50000000000000000000FC7EFC7C18C6C6D618
:101C6000C6C6FE3810380000C6C6C6C07EC6C6D678
:101C70006CC60C3010183000C6C6C07C18C6C6D65C
:101C800038C63860100C5A00C6C6C00618C66CD6D6
:101C90006CC6603010180C00C6C6C00618C638D610
:101CA000C67EC03810380000FC7EC07C187E107ED6
:101CB000C606FE0000000000C00600000000000094
:101CC000007C000000000000000000000000000F89
:101CD000FF000000FAAAC00003AAAAB0000EAAFFE3
:101CE000AC000EABFFEC0035AFFFFC00355FCF3C26
:101CF00000355FCF3C00F55FFFFC00FF5CFF3C0060
:101D00003FED003C0003AD507C0003AE507C000E64
:101D1000A6609C000EAA60AC000EAA60AC00FAA5FA
:101D2000802C03555A002B0EAAA0000B07001C00A4
:101D3000380078007000F000F000F000F801F801C1
:101D4000FC037F0E7FFE3FFC1FF807E0A00AA82AD5
:101D50001554FE7F3E7C2A683E7C3E7C01000100DB
:101D6000051016545AA55BE55BE5169400FB0F6B56
:101D7000351CD947D55CD55C35700FC00EB03FFC23
:101D8000BEBEFAAFB05E68691AA40AA000000000E7
:101D9000000000000000003C00000000FFC0000048
:101DA00000FABC0000003AAB0000003AAAC00000F4
:101DB000EAAAB00000EAAAB00003AAAFAC0003AAE6
:101DC000BFAC00036ABFDC00035AFFDC000357CF3F
:101DD0001C0003D7CF3C000EA4FFD7003AA9005740
:101DE00000EAA95055C0EAA95055C0DAA98055C0EB
:101DF000E6A98057003956005C000EA800F00003E9
:101E0000F000C000000C00C0000003C0C0000000D3
:101E1000C300000000C300000000C300000000CCAD
:101E200000000000CC0000000030000000000000B6
:101E3000000003C00000000FFC0000000FAB00001A
:101E40000003AAC000000EAAC000003AAAB0000019
:101E5000EAAAB00003AAAAAC0003AAAFAC00035AD6
:101E6000AFEC00035ABFEC0000D7FFDC000037CF17
:101E70001C0000D7CF3C000FA4FFD7003AA90055A3
:101E8000C0EAA95055C0EAAA505700DAAA605C001F
:101E9000E555805C003AAA0070000FF000C0000019
:101EA0003000C000000C00C0000003C0C0000000F3
:101EB000C300000000C300000000C300000000CC0D
:101EC00000000000CC000000003000000000F00026
:101ED000000003FC00000003BC0000000EAC00008A
:101EE000003AAB000000EAAAC00000EAAAC0000362
:101EF000AAAAC00003AAABB000036AAFB00000DA20
:101F0000AFAC0000D6FF6C0000D7FFDC000037CF7D
:101F10001C000FD7CF3FC03AA4FFD570EAA90055E7
:101F200070EAA9505570DAAA5055C0E6AA60570069
:101F30003955A07C000EAA00C00003F000C00000CC
:101F40003000C000000C00C0000003C0C000000052
:101F5000C300000000C300000000C300000000CC6C
:101F600000000000CC000000003000000003C000B2
:101F700000000FF00000000FB00000000EB00000E5
:101F8000003AAC000000EAAB000000EAAB00000041
:101F9000EAAAC00000EAAEB00000EAAFAC0000EA76
:101FA000BFAC0000DAFFAC0000DAFFDC000357CF63
:101FB0001C0003D7CF3C000EA4FFD7003AA9005560
:101FC000C0EAA9505570DAAA505570E6AA6055C00B
:101FD000396A6057000E9580FC0003EA00C00000DB
:101FE0003000C000000C00C0000003C0C0000000B2
:101FF000C300000000C300000000C300000000CCCC
:1020000000000000CC00000000300000003FF000A5
:1020100000EAAF0003ABFEC003AFFFB00EAF3CB0B1
:102020000EAF3CF00E7FFFF00D7FFFF00D73FCF064
:102030000D7400F03DB541F0F5B901F0FEBA02F0C3
:102040003E9A006C0EAA00AC0EAA006C0EAA0030DC
:102050000EAA00300EAA00700DAA10700E68117042
:1020600003943DC000E83300003CF0000003000092
:10207000000FFC0000FAAB0003ABFEC00EAFFFB0D8
:102080000EAF3CB00EBF3CF00E7FFFF00D7FFFF0B7
:102090000D73FCF00D7400F00DB540F00DB501F0BE
:1020A0003DB902F03E9A02700EAA00B00EAA00AC32
:1020B0000EAA002C0EAA002C0EAA005C0EAA10700C
:1020C0000D6831700E943DC003E83300003CF00011
:1020D00000030000003FFC0000EAAB0003ABFEC0C1
:1020E00003AFFFB00EBF3CF03ABF3CF03A7FFFF0C9
:1020F0003A7FFFF00D73FCF00D7400F00D7400F0EA
:102100000DB541F00EB901F00EBA02F00E9A00B012
:102110000EAA00B00EAA00300EAA00300DAA007060
:102120000E6A205C0E68115C03943F7000E830C0BA
:10213000003CF00000030000003FF00000EAAF00A8
:1021400003ABFEC003AFFFB00EAF3CF00EAF3CF0F0
:102150003A7FFFF03A7FFFF03A73FCF03A7400F0F8
:102160003DB500F03EB541F00EBA02F00E9A027095
:102170000EAA00B00EAA00B00EAA00300EAA0030BF
:102180000EAA00700DAA20700E68117003983F709F
:1021900000E430C00038F000000F00000000000034
:1021A0000000000FFC0000F0FAABC003FFAAAAB0C9
:1021B00003EAAAAAAC00FAAAAAFC000D6AAFFF00C3
:1021C0000D5D5FFF0003D7FF3C000035573C00006A
:1021D000F557FC0003AA57F0003EAA607000EAA978
:1021E000807003AAA980C00EAA9602C00E95680747
:1021F00000396A8003000EB550030003CD400C0087
:10220000000000FFC000000FAAB000003AAAAC0016
:10221000F3EAAAFC03FEAAAAFF03EAAAABFF00F5B1
:10222000AA9FFC000D555F3C0003F75F3C0000399E
:10223000F7F00000E954700003AA9870000EAA603D
:10224000C0003AAA60C000EAA980C003AAA980C061
:102250000EAA9600C0395568C3000EAA833C00033D
:10226000FC0C000000000FFFF000003AAAAC0000D8
:10227000EAAAFF0003AAABFF003FAAABFF00FEAA39
:10228000AF3C00FAAAB73C003D55D7FC0003D5D7B8
:10229000F00003A95470000EAA60B0003AA980B003
:1022A000003AA602B000EAA602C000EA9800C00008
:1022B000EA9800C0039558F0C000EAA30CC0003CA7
:1022C0000C030000033000000000FFFFC00003AA61
:1022D000AAB0000EAAAAAC003AAAAAFF00EAAAAFC6
:1022E000FF03E6ABFFFC03FD9F573C00FF57573C45
:1022F000000FA557FC003AA953F000EAA680C003DE
:10230000AA9800C003AA6002B00EA98002B00DA96D
:10231000800AB00E698002C0039580030000EA00C5
:1023200000C0003F0170C00000FFCC300003FFFC84
:1023300000003EAAABC003EAAAAAB00FAAAAAAACA0
:102340000FF6AAABFF03CDAFAFFF000375FFFC0094
:1023500000D5573C0000D5573C0003E557FC003E34
:10236000A963F003EAA680C00EAA9800C03AAA604A
:1023700002C036A98002C039A6000AC00E56400A23
:10238000C003AB50030000FCC0030000003A830010
:10239000000000000000000FFC0000F0FAABC003DA
:1023A000FFAAAAB003EAAAAAAC00D6AAABFC003DD9
:1023B0006ABFFF000D5D5FFF0003D7FCFC00003526
:1023C0005CFC0000F55FFC0003A94FF0003EA98013
:1023D0007000EAA6007003AAA600700EAA5802C0F8
:1023E0000E55A00AC039AA0003000EB55003000321
:1023F000CD4C0C00CC1211241FBECFEFD8E0DEBFB5
:10240000CDBF11E0A0E0B1E0E0E0F4E402C005904F
:102410000D92A032B107D9F721E0A0E2B1E001C0EE
:102420001D92A135B207E1F711E1CBEFD1E104C074
:102430002197FE010E94DE21CA3FD107C9F70E9401
:1024400025120C94FE210C94000061E080E00E94B3
:10245000931C60E081E00E94931C66E082E00E9491
:10246000661C61E080E00E94A31C60E080E00E94A6
:10247000BE1C61E082E00E94BE1C0E94141D789484
:1024800080E291E00E943F1780E291E00E94D6171F
:10249000F7CF1F920F920FB60F9211242F933F93F5
:1024A0004F935F936F937F938F939F93AF93BF935C
:1024B000EF93FF930E94191D80915001882339F1F9
:1024C000809150018430C1F028F4813089F082304D
:1024D00059F01DC08031A1F08032B1F08830B9F4DC
:1024E00081E080934B0113C081E080934A010FC0CB
:1024F00081E0809349010BC081E08093480107C0CF
:1025000081E08093470103C081E080934601FF9101
:10251000EF91BF91AF919F918F917F916F915F915B
:102520004F913F912F910F900FBE0F901F901895D4
:102530001F920F920FB60F9211248F939F93AF9318
:10254000BF938091400190914101A0914201B091CF
:1025500043010196A11DB11D80934001909341015B
:10256000A0934201B0934301BF91AF919F918F918E
:102570000F900FBE0F901F9018951F920F920FB6DD
:102580000F9211248F9381E080934D018F910F90D2
:102590000FBE0F901F901895E0E2F1E080EF90E001
:1025A0009183808380E491E09383828312861486F2
:1025B0001386178608958F929F92AF92BF92CF9203
:1025C000DF92EF92FF920F931F93CF93DF93EC0173
:1025D000822F90E080979C0112F4215F3F4F4901C8
:1025E00095948794959487949594879495948794DB
:1025F0009694982C8824979487948F709078992338
:1026000024F40197806F9F6F0196880E991E8A01AE
:10261000015F1F4F9B01215F3F4FCE010E94DC1DD8
:10262000540180E8880E911C6894CC24C1F8D12C08
:10263000EC81FD81EA0DFB1D14916894EE24E3F812
:10264000F12C11235CF468857985CE010E944C1D24
:1026500068857985CE010E944C1D0AC06E817F81FC
:10266000CE010E944C1D6E817F81CE010E944C1DC7
:10267000110F81E0E81AF10821F781E0C81AD108AA
:10268000B9F680E1A80EB11CA814B90469F6DF916F
:10269000CF911F910F91FF90EF90DF90CF90BF905F
:1026A000AF909F908F900895CF92DF92EF92FF921C
:1026B0000F931F93CF93DF937C01EB016A01F90124
:1026C0002081222371F08F010F5F1F4FA601BE01F1
:1026D000C7010E94DB126096F80121918F01211140
:1026E000F5CFDF91CF911F910F91FF90EF90DF9089
:1026F000CF9008952F923F924F925F926F927F9268
:102700008F929F92AF92BF92CF92DF92EF92FF9201
:102710000F931F93CF93DF93CDB7DEB727970FB6F5
:10272000F894DEBF0FBECDBF9A838983B62EA72E45
:102730005C834B83680179010A301105210531055D
:1027400088F191E09D83412C512C3201439409C0C2
:102750009D81892F90E09F838E831816190654F16E
:1027600057C08D818F5F8D83440C551C661C771C70
:10277000D301C201880F991FAA1FBB1F880F991F81
:10278000AA1FBB1F480E591E6A1E7B1EC701B60139
:10279000A30192010E94B4212A303105410551055F
:1027A00000F7D6CF81E090E09F838E83412C512C9F
:1027B000320143940B2D1A2DA12CB12CC701B60167
:1027C000A30192010E94B421262E372E882E992E25
:1027D000205D4B815C81B80189819A810E94DB1266
:1027E000C22CD32CE82CF92CC301B2012AE030E032
:1027F00040E050E00E94B42129013A019FEFA91A5C
:10280000B90A005F1F4F8E819F81A816B906B4F2E6
:1028100027960FB6F894DEBF0FBECDBFDF91CF91E4
:102820001F910F91FF90EF90DF90CF90BF90AF90EE
:102830009F908F907F906F905F904F903F902F90E0
:1028400008958091400190914101A0914201B09181
:10285000430140913C0150913D0160913E017091D6
:102860003F014B5F5F4F6F4F7F4F84179507A60760
:10287000B707D0F080933C0190933D01A0933E01B7
:10288000B0933F01309133013F5F3093330120918A
:1028900001012F5F20930101323011F410923301B6
:1028A000223011F410920101409138015091390108
:1028B00060913A0170913B014C595F4F6F4F7F4FD0
:1028C00084179507A607B70718F1809338019093EE
:1028D0003901A0933A01B0933B01409132014F5F1F
:1028E00040933201309131013F5F309331012091AB
:1028F00030012F5F209330014A3011F410923201E1
:10290000343011F410923101263011F4109230015C
:102910004091340150913501609136017091370139
:1029200043585F4F6F4F7F4F84179507A607B70730
:10293000D8F08093340190933501A0933601B09381
:102940003701809144019091450101969093450192
:1029500080934401809100018F5F823019F0809351
:102960000001089510920001089580914001909116
:102970004101A0914201B091430180933C019093A9
:102980003D01A0933E01B0933F01809338019093A5
:102990003901A0933A01B0933B01809334019093A5
:1029A0003501A0933601B09337010895DF92EF927D
:1029B000FF920F931F93CF93DF93EC016894DD2474
:1029C000D1F80E94211480914B01882309F485C01D
:1029D0008A8581508A87882314F41A8607C081303B
:1029E00041F120F0823009F44AC06BC0E12CF12C97
:1029F0000EE010E026E030E040EA50E062E070E0F7
:102A0000CE010E94551EEE24EA94FE2C26E030E012
:102A100048EB50E062E070E0CE010E94551E26E0D7
:102A200030E040ED50E062E070E0CE010E94551EC3
:102A300048C0EE24EA94FE2C0EE010E026E030E0E0
:102A400040EA50E062E070E0CE010E94551EE12CA9
:102A5000F12C26E030E048EB50E062E070E0CE017F
:102A60000E94551EEE24EA94FE2C26E030E040ED54
:102A700050E062E070E0CE010E94551E22C0EE24BC
:102A8000EA94FE2C0EE010E026E030E040EA50E050
:102A900062E070E0CE010E94551E26E030E048EB77
:102AA00050E062E070E0CE010E94551EE12CF12C56
:102AB00026E030E040ED50E062E070E0CE010E94A0
:102AC000551E2FEF81EE94E0215080409040E1F7B9
:102AD00000C0000010924B0189C080914A018823F8
:102AE00009F484C08A858F5F8A87833014F0DA8680
:102AF00050C0813041F120F0823009F06CC049C0F3
:102B0000E12CF12C0EE010E026E030E040EA50E04D
:102B100062E070E0CE010E94551EEE24EA94FE2C85
:102B200026E030E048EB50E062E070E0CE010E9429
:102B3000551E26E030E040ED50E062E070E0CE014E
:102B40000E94551E48C0EE24EA94FE2C0EE010E0D0
:102B500026E030E040EA50E062E070E0CE010E9402
:102B6000551EE12CF12C26E030E048EB50E062E00D
:102B700070E0CE010E94551EEE24EA94FE2C26E061
:102B800030E040ED50E062E070E0CE010E94551E62
:102B900022C0EE24EA94FE2C0EE010E026E030E0A5
:102BA00040EA50E062E070E0CE010E94551E26E04F
:102BB00030E048EB50E062E070E0CE010E94551E2C
:102BC000E12CF12C26E030E040ED50E062E070E0D6
:102BD000CE010E94551E2FEF81EE94E021508040DF
:102BE0009040E1F700C0000010924A018A858130D0
:102BF00009F442C0823009F47CC08111E2CE809198
:102C00004D01882319F010924D01B0C08091300120
:102C100081110EC0E12CF12C0EE010E026E030E036
:102C200040EA50E062E070E0CE010E94551EC9CE3D
:102C3000843009F0C6CEEE24EA94FE2C0EE010E0BB
:102C400026E030E040EA50E062E070E0CE010E9411
:102C5000551E26E030E048EB50E062E070E0CE0127
:102C60000E94551E26E030E040ED50E062E070E04A
:102C7000CE010E94551EA5CE80914D01882319F0EA
:102C800010924D019ECE8091300181110EC0E12C39
:102C9000F12C0EE010E026E030E048EB50E062E07E
:102CA00070E0CE010E94551E8CCE843009F089CE92
:102CB000EE24EA94FE2C0EE010E026E030E040EA3C
:102CC00050E062E070E0CE010E94551E26E030E048
:102CD00048EB50E062E070E0CE010E94551E26E015
:102CE00030E040ED50E062E070E0CE010E94551E01
:102CF00068CE80914D01882319F010924D0161CE6C
:102D00008091300181110EC0E12CF12C0EE010E019
:102D100026E030E040ED50E062E070E0CE010E943D
:102D2000551E4FCE843009F04CCEEE24EA94FE2C92
:102D30000EE010E026E030E040EA50E062E070E0B3
:102D4000CE010E94551E26E030E048EB50E062E0E4
:102D500070E0CE010E94551E26E030E040ED50E0CC
:102D600062E070E0CE010E94551E2BCEDF91CF9124
:102D70001F910F91FF90EF90DF900895CF92DF9217
:102D8000EF92FF920F931F93CF93DF93CDB7DEB7F0
:102D9000A2970FB6F894DEBF0FBECDBF7C0120EF27
:102DA00030E03A83298380E491E09C838B8318860A
:102DB00019861B863D872C879F878E8784E08E8BA4
:102DC0001C8E1D8E1092450110924401CE2CDF2CDA
:102DD00022E031E040E150E060E170E0C7010E9494
:102DE00054130E942114CE0101960E94331CCE017F
:102DF0000C960E94901A0091440110914501F70130
:102E0000838594858017910789F020E030E040E1C8
:102E100050E068E770E08C2D9D2D0E947A13809120
:102E2000440190914501F701948783878B85811137
:102E3000D8CF8F8D98A14F97C19798F629E031E0B0
:102E400044E650E060E670E0C7010E945413FFEFD3
:102E500021E18AE7F15020408040E1F700C0000006
:102E6000A2960FB6F894DEBF0FBECDBFDF91CF9113
:102E70001F910F91FF90EF90DF90CF9008958F9268
:102E80009F92AF92BF92CF92DF92EF92FF920F93F9
:102E90001F93CF93DF93EC018F85811143C0CE0147
:102EA0000E945F1D60E0CE010E94B41D6FEF7FEFB6
:102EB000CE010E94101E8FEF8F938F930F2EFFE194
:102EC0008F2E912CF02D0F2EA12CF8EFBF2EF02D70
:102ED000C12CD12C0F2EF8EEEF2EF1E1FF2EF02DAC
:102EE00000E610E020E331E046E450E068E070E006
:102EF000CE010E94381F2FEF8BE792E921508040CE
:102F00009040E1F700C0000088EC99E19D838C833C
:102F10001F821E828FEF9FEF9987888781E08F87BE
:102F20000F900F9060E070E0CE010E94101E8FEFB6
:102F30008F938F930F2E812CF8EF9F2EF02D0F2E55
:102F4000A12CF8E7BF2EF02DC12CD12C0F2EF8E6C6
:102F5000EF2EF0E0FF2EF02D00EE10E020E431E047
:102F600040E150E060E070E0CE010E94381F2FEF9A
:102F700081EE94E0215080409040E1F700C00000D5
:102F80000E942A1D0E94B514CE010E94D6140F90F3
:102F90000F90DF91CF911F910F91FF90EF90DF90F5
:102FA000CF90BF90AF909F908F9008953F924F9297
:102FB0005F926F927F928F929F92AF92BF92CF92C9
:102FC000DF92EF92FF920F931F93CF93DF93382EF0
:102FD000492E782E692E60E070E00E94101E8FEF5F
:102FE0008F938F930F2E812CF8EF9F2EF02D0F2EA5
:102FF000A12CF8E7BF2EF02DC12CD12C0F2EF8EC10
:10300000EF2EFCE1FF2EF02D08E210E028E230E088
:103010004CE850E068E270E0832D942D0E94381F48
:1030200023E131E044E650E068E770E0832D942D21
:103030000E9454132FEF8DE399E42150804090407B
:10304000E1F700C000000F900F90C5E0D0E029E14B
:1030500031E044E650E068E770E0872D962D0E944D
:1030600054132FEF81EE94E0215080409040E1F71F
:1030700000C00000E12CF12C00E110E020E530E080
:1030800044E650E068E770E0872D962D0E94551EBB
:103090002FEF81EE94E0215080409040E1F700C096
:1030A00000002197A1F655245A945F925F920F2E4B
:1030B000812CF8E79F2EF02D0F2EA12CF8E3BF2EC8
:1030C000F02DC12CD12C0F2EF8E0EF2EF9E1FF2EC0
:1030D000F02D00E310E020E430E044EB50E0BE01CE
:1030E000872D962D0E94381FC05CDF4F0F900F90E8
:1030F000C03421E0D207C9F60E942A1D0E94B514EF
:10310000832D942D0E94BE16DF91CF911F910F91B8
:10311000FF90EF90DF90CF90BF90AF909F908F90F7
:103120007F906F905F904F903F9008958F929F9205
:10313000AF92BF92CF92DF92EF92FF920F931F93C5
:10314000CF93DF93EC018C859D85803321E092073E
:103150000CF040C060E371E0681B790B7C8B6B8BDB
:1031600084EA90E09E8B8D8B8FEF8F938F930F2E41
:10317000FFEE8F2EFBE79F2EF02D0F2EF7EEAF2EDA
:10318000F9E3BF2EF02DC12CD12C0F2EFCE7EF2E32
:10319000FDE1FF2EF02D00E110E020E130E044EAF7
:1031A00050E0CE010E94381F2A85022E000C330BFE
:1031B0002E5F3F4F8C859D8560E471E0681B790B25
:1031C000E12CF12C44EA50E0CE010E94551E0F90F4
:1031D0000F900EC0E12CF12C00E110E028E130E06E
:1031E00044EA50E060E070E0CE010E94551E198A6A
:1031F000DF91CF911F910F91FF90EF90DF90CF90D3
:10320000BF90AF909F908F9008958F929F92AF92B2
:10321000BF92CF92DF92EF92FF920F931F93CF93C3
:10322000DF93EC018C859D85803321E092070CF0C3
:1032300040C060E371E0681B790B7C8B6B8B84EA88
:1032400090E09E8B8D8B8FEF8F938F930F2EFFEEE1
:103250008F2EFBE79F2EF02D0F2EF7EEAF2EF9E30A
:10326000BF2EF02DC12CD12C0F2EFCE6EF2EFDE150
:10327000FF2EF02D00E110E020E130E044EA50E0C4
:10328000CE010E94381F2A85022E000C330B2E5FC0
:103290003F4F8C859D8560E471E0681B790BE12CC4
:1032A000F12C44EA50E0CE010E94551E0F900F9081
:1032B00041C08FEF8F938F930F2EF0EE8F2E9924B6
:1032C0009A94F02D0F2EA12CF8EFBF2EF02DC12CCB
:1032D000D12C0F2EFCE5EF2EFDE1FF2EF02D00E1AD
:1032E00010E020E130E044EA50E060E070E0CE0120
:1032F0000E94381FE12CF12C24E030E044EA50E039
:1033000060E170E0CE010E94551E80E391E09D8750
:103310008C878B858F5F8B870F900F90853154F052
:1033200028E130E044EA50E060E070E0CE010E9425
:10333000551E198ADF91CF911F910F91FF90EF9049
:10334000DF90CF90BF90AF909F908F9008958F9215
:103350009F92AF92BF92CF92DF92EF92FF920F9324
:103360001F93CF93DF93EC018C859D85803321E003
:103370009207F4F560E371E0681B790B7C8B6B8B33
:1033800084EA90E09E8B8D8B8FEF8F938F930F2E1F
:10339000812CF8EF9F2EF02D0F2EA12CF8E7BF2ED9
:1033A000F02DC12CD12C0F2EFCE4EF2EFDE1FF2ED1
:1033B000F02D00E110E020E130E044EA50E0CE01E1
:1033C0000E94381F2A85022E000C330B2E5F3F4FC0
:1033D0008C859D8560E471E0681B790BE12CF12CF4
:1033E00044EA50E0CE010E94551E0F900F900EC08F
:1033F000E12CF12C00E110E028E130E044EA50E05B
:1034000060E070E0CE010E94551E198ADF91CF91D5
:103410001F910F91FF90EF90DF90CF90BF90AF90F2
:103420009F908F900895CF93DF93FC0180910101CD
:10343000813051F4228584859585820F911D27FD69
:103440009A9595878487128A81898823C1F0EF0134
:103450008685843024F4CF010E9496180DC09BEF1E
:10346000980F933020F4CF010E94051905C08930D0
:103470001CF0CF010E94A71981E08A8B06C09685B7
:1034800080913201981301C01786DF91CF91089582
:103490008F929F92AF92BF92CF92DF92EF92FF9264
:1034A000CF93DF93EC011B861D861C861C8A1B8A2A
:1034B0001E8A1D8AC0904001D0904101E0904201D7
:1034C000F0904301D701C601880F991FAA1FBB1FA7
:1034D000BC01CD016C0D7D1D8E1D9F1D0F2EFAE0D0
:1034E0008F2E912CA12CB12CF02DA50194010E94BE
:1034F000B421A62F660FBB0BA70196010E94D6210F
:10350000A50194010E94B4216E87DF91CF91FF90B5
:10351000EF90DF90CF90BF90AF909F908F900895E5
:10352000AF92BF92CF92DF92EF92FF920F931F93D1
:10353000CF93DF93EC01888981110DC08F858111B4
:1035400006C0CE010E94481A81E08F87898BCE0188
:103550000E94131A21C0AA24AA94BA2CC12CD12CDF
:103560000F2EFCE2EF2EFDE1FF2EF02D00E210E029
:1035700020E230E048E250E064E071E0CE010E94D9
:103580008E1EE12CF12C20E230E048E250E064E0B5
:1035900071E0CE010E94551EDF91CF911F910F91D6
:1035A000FF90EF90DF90CF90BF90AF9008954F9233
:1035B0005F926F927F928F929F92AF92BF92CF92C3
:1035C000DF92EF92FF920F931F93CF93DF9320919F
:1035D00033012130E9F5FC0111863C01C0E0D0E067
:1035E000DD24DA940F2EF8EF4F2EF02D552453944E
:1035F00020913001022E000C330B2C173D0719F5DA
:10360000DF92DF924F921F920F2E812CF8E79F2EB0
:10361000F02DA12CB12CCC2E0F2EFCE9EF2EF1E2D7
:10362000FF2EF02D08E210E028E230E04CE850E0F8
:1036300068E270E0C3010E940A20F30151860F90F6
:103640000F900F900F902196C630D10589F604C0D7
:10365000FC012185222309F2DF91CF911F910F9167
:10366000FF90EF90DF90CF90BF90AF909F908F90A2
:103670007F906F905F904F9008952F923F924F925E
:103680005F926F927F928F929F92AF92BF92CF92F2
:10369000DF92EF92FF920F931F93CF93DF933C0142
:1036A00080913301813009F0C6C0F3018085882301
:1036B00081F0968186E0890F868382331CF18581B3
:1036C0008F5F8583863011F096831CC0F3011086CE
:1036D00019C0F30186818650868318169CF0E12C70
:1036E000F12C09E110E028E230E043E750E068E225
:1036F00070E0C3010E94551E10924D01F301178224
:1037000012869EC0F3011186C0E0D0E00F2EFAE7CA
:103710004F2E512CF02DDD24DA940F2EF2E72F2EB0
:10372000312CF02D80913101082E000C990B8C1753
:103730009D0709F07AC0F30180858823D1F1868145
:10374000A201481B510987FD5395DF92DF92F8EFE4
:10375000FF931F920F2E812CF8E79F2EF02DA12CA6
:10376000B12CCC2E0F2EFCE0EF2EF0E2FF2EF02D30
:1037700002E310E020E230E068E270E0C3010E9462
:103780000A20F30186814CEA50E0481B510987FD6D
:103790005395E12CF12C08E010E020E230E068E2E3
:1037A00070E0C3010E94551E0F900F900F900F9074
:1037B00039C0F3018681A201481B510987FD539549
:1037C000DF92DF92F8EFFF931F920F2E812CF8E724
:1037D0009F2EF02DA12CB12CCC2E0F2EFCE8EF2E1D
:1037E000FDE1FF2EF02D00E410E028E230E068E279
:1037F00070E0C3010E94DF20F3018681A101481B14
:10380000510987FD5395E12CF12C08E010E028E2E6
:1038100030E068E270E0C3010E94551E0F900F90E7
:103820000F900F9081E0F30181872196C430D1057C
:1038300009F078CF05C0F3018185882309F464CFAE
:10384000DF91CF911F910F91FF90EF90DF90CF907C
:10385000BF90AF909F908F907F906F905F904F90B0
:103860003F902F900895EF92FF920F931F93CF9365
:10387000DF93EC0180914D018823B9F08F81811194
:1038800014C0E12CF12C08E210E028E230E04CE812
:1038900050E068E270E0CE010E94551E1D821E823B
:1038A00081E08F8388878A8707C08A85811104C059
:1038B000CE010E94D71A03C0CE010E943D1BDF91AA
:1038C000CF911F910F91FF90EF900895813089F073
:1038D0008230E1F0811126C024B181E090E002C085
:1038E000880F991F6A95E2F7822B84B985B185B953
:1038F000089527B181E090E002C0880F991F6A9572
:10390000E2F7822B87B988B188B908952AB181E09E
:1039100090E002C0880F991F6A95E2F7822B8AB95E
:103920008BB18BB908956195813039F0823041F0C7
:10393000811108C064B915B8089567B918B8089519
:103940006AB91BB808959DB321E030E002C0220F90
:10395000331F8A95E2F7292B2DBB613039F0623095
:1039600049F061110AC01092690008958AE08093BD
:10397000690008958FE0809369000895813099F17E
:103980008230B1F081114FC0611108C081E0809395
:103990006E0014BC85E085BD16BC089582E080935E
:1039A0006E0084BD85E085BD16BC8FEF87BD089590
:1039B00061110BC081E0809370001092B00084E030
:1039C0008093B1001092B200089582E0809370005D
:1039D0008093B00084E08093B1001092B20089EF30
:1039E0008093B300089561110DC081E080936F0052
:1039F0001092800085E080938100109285001092E3
:103A00008400089582E080936F00109280008DE022
:103A1000809381001092850010928400109289009A
:103A20008FEF80938800089580E58CBD81E08DBD87
:103A3000089586B1806C80934F0180914F019091E1
:103A40004E01809589238093500180914F0180938E
:103A50004E01089510924D0110924C0110924B01AD
:103A600010924A01109249011092480110924701A8
:103A70001092460108956EBD0DB407FEFDCF089566
:103A80002A9828980E943B1D289A08952A9A2898D7
:103A90000E943B1D289A08951F93CF93DF93EC015A
:103AA000162F672F2A9A28980E943B1D612FCE015E
:103AB0000E943B1D289ADF91CF911F910895CF93CB
:103AC000DF93EC01289A29982FEF89EF90E021509D
:103AD00080409040E1F700C00000299A2FEF89E66E
:103AE00098E1215080409040E1F700C0000061E083
:103AF000CE010E94401D2FEF89EF90E021508040C1
:103B00009040E1F700C0000060ECCE010E94401D33
:103B10006BE2CE010E94461D66E3CE010E94401D6D
:103B200068E4CE010E94461D6AE3CE010E94401D5A
:103B300065E5CE010E94461D60E2CE010E94401D57
:103B400061E1CE010E94401D2FEF8DEE92E02150E9
:103B500080409040E1F700C0000069E2CE010E9481
:103B6000401DDF91CF9108951F93CF93DF93EC0118
:103B7000162F66E30E94401D113089F01230A1F02B
:103B8000111116C068E2CE010E94461D88819981FC
:103B90002A813B81398328839B838A8309C068E417
:103BA000CE010E94461D04C068E8CE010E94461D59
:103BB000DF91CF911F910895AF92BF92CF92DF9284
:103BC000EF92FF920F931F93CF93DF93EC015B0172
:103BD0007A0169016AE20E94401DB501CE010E948E
:103BE0004C1DB601CE010E944C1D6BE2CE010E941D
:103BF000401DB701CE010E944C1DB801CE010E94AC
:103C00004C1D6CE2CE010E94401DDF91CF911F91AF
:103C10000F91FF90EF90DF90CF90BF90AF900895FD
:103C2000CF92DF92EF92FF920F931F93CF93DF9388
:103C30007C016B01FC01028113810150110920817B
:103C400031812150310940E050E060E070E00E9495
:103C5000DC1DF7018281938118161906ECF400E04F
:103C600010E0F70180819181181619066CF4C0E00C
:103C7000D0E0B601C7010E944C1D2196F70180815A
:103C80009181C817D907ACF30F5F1F4FF7018281ED
:103C90009381081719072CF3DF91CF911F910F9192
:103CA000FF90EF90DF90CF9008958F929F92AF9208
:103CB000BF92CF92DF92EF92FF920F931F93CF9319
:103CC000DF936C01490158018A010A0D1B1D015047
:103CD00011099B01280D391D215031090E94DC1D5D
:103CE0001A141B0474F4181419043CF4E401B70109
:103CF000C6010E944C1D2197D1F781E0A81AB10896
:103D000091F7DF91CF911F910F91FF90EF90DF908E
:103D1000CF90BF90AF909F908F9008953F924F9219
:103D20005F926F927F928F929F92AF92BF92CF924B
:103D3000DF92EF92FF920F931F93CF93DF93CDB754
:103D4000DEB72A970FB6F894DEBF0FBECDBF4C0189
:103D500039011A830983040F151F015011099B01B2
:103D6000260D371D215031090E94DC1D89819A8161
:103D700099230CF401969C013595279538872F835C
:103D8000121613060CF05CC0C30199230CF40F96B5
:103D9000FC01F595E795F595E795F595E795F5958A
:103DA000E795FC83EB83FE83ED836E2C7F2C1A82D8
:103DB00019826894EE24E1F8F12C4D805E80460C67
:103DC000571C2B813C81121613063CF58301F80128
:103DD000349028E030E03A87298733204CF4B5014D
:103DE000C4010E944C1DB501C4010E944C1D08C0B5
:103DF000B601C4010E944C1DB601C4010E944C1DB5
:103E0000330C89859A8501979A878987892B29F7A9
:103E10000F5F1F4F04151505D1F691E0E91AF1085F
:103E200081F6E981FA813196FA83E9832D813E8119
:103E3000620E731E8F819885E817F90709F0B9CFD4
:103E40002A960FB6F894DEBF0FBECDBFDF91CF919B
:103E50001F910F91FF90EF90DF90CF90BF90AF90A8
:103E60009F908F907F906F905F904F903F900895BC
:103E70002F923F924F925F926F927F928F929F927A
:103E8000AF92BF92CF92DF92EF92FF920F931F9368
:103E9000CF93DF93CDB7DEB760970FB6F894DEBF50
:103EA0000FBECDBF988B8F8729013801DA82C98276
:103EB000BA86A9869C868B868A01060D171D01503D
:103EC00011099B01240D351D215031090E94DC1D73
:103ED000C30199230CF401969C01359527953E87E3
:103EE0002D87121613060CF07CC0C20199230CF426
:103EF0000796FC01F595E795F595E795F595E79516
:103F0000FE83ED83F887EF836E2C7F2C212C312CE0
:103F10006894AA24A1F8B12C8F809884860C971CF1
:103F20007C826B824F8458882D813E811216130645
:103F30000CF043C0EB80FC80F701C49068946624C9
:103F400062F8712CDC2CD694D694D694D694D69460
:103F5000D69402E010E0D11006C069817A81C201D6
:103F60000E944C1D1AC0F1E0DF1206C069857A85F7
:103F7000C2010E944C1D11C022E0D21206C06B8506
:103F80007C85C2010E944C1D08C033E0D31205C0DD
:103F90006DA17EA1C2010E944C1D01501109D9F6EC
:103FA000CC0CCC0C81E0681A710861F69FEFE91A1D
:103FB000F90AE814F90409F0BFCFE1E0AE1AB1083C
:103FC00009F0B2CF6B807C80FFEF2F1A3F0A2F8160
:103FD0003885620E731E8D859E852816390609F078
:103FE00097CF60960FB6F894DEBF0FBECDBFDF91BE
:103FF000CF911F910F91FF90EF90DF90CF90BF90E6
:10400000AF909F908F907F906F905F904F903F9078
:104010002F9008952F923F924F925F926F927F92CE
:104020008F929F92AF92BF92CF92DF92EF92FF92C8
:104030000F931F93CF93DF93CDB7DEB72E970FB6B5
:10404000F894DEBF0FBECDBF9E878D872901380152
:10405000BA82A9829A8689868A01060D171D0150A7
:1040600011099B01240D351D215031090E94DC1DD1
:10407000C30199230CF401969C01359527953C8743
:104080002B87121613060CF081C0C20199230CF481
:104090000796FC01F595E795F595E795F595E79574
:1040A000FE83ED83F887EF833701FC2D24E6F202CF
:1040B000600C711C1124212C312C6894AA24A1F8C5
:1040C000B12C8F809884860C971C7C826B824D84E7
:1040D0005E848D819E81181619060CF043C0EB801A
:1040E000FC80F701C4906894662462F8712CDC2C83
:1040F000D694D694D694D694D694D69402E010E072
:10410000D11006C069817A81C2010E944C1D1AC07B
:10411000F1E0DF1206C069857A85C2010E944C1D5C
:1041200011C022E0D21206C06BA17CA1C2010E9484
:104130004C1D08C033E0D31205C06DA17EA1C201A1
:104140000E944C1D01501109D9F6CC0CCC0C81E019
:10415000681A710861F69FEFE91AF90A8E149F0434
:1041600009F0BFCFE1E0AE1AB10809F0B2CF6B8021
:104170007C80FFEF2F1A3F0A2F813885620E731E55
:104180008B859C852816390609F097CF2E960FB699
:10419000F894DEBF0FBECDBFDF91CF911F910F917D
:1041A000FF90EF90DF90CF90BF90AF909F908F9057
:1041B0007F906F905F904F903F902F9008952F9237
:1041C0003F924F925F926F927F928F929F92AF92A7
:1041D000BF92CF92DF92EF92FF920F931F93CF93F4
:1041E000DF93CDB7DEB72E970FB6F894DEBF0FBEC4
:1041F000CDBF9E878D8729013801BA82A9829A8610
:1042000089868A01060D171D015011099B01240D95
:10421000351D215031090E94DC1DC30199230CF486
:1042200001969C01359527953C872B87121613061E
:104230000CF081C0C20199230CF40796FC01F5959E
:10424000E795F595E795F595E795FE83ED83F88776
:10425000EF8337012C2D30EA2303600C711C1124ED
:10426000212C312C6894AA24A1F8B12C8F80988439
:10427000860C971C7C826B824D845E848D819E812E
:10428000181619060CF043C0EB80FC80F701C490AF
:104290006894662462F8712CDC2CD694D694D6945B
:1042A000D694D694D69402E010E0D11006C069816D
:1042B0007A81C2010E944C1D1AC0F1E0DF1206C0D3
:1042C00069857A85C2010E944C1D11C022E0D2127C
:1042D00006C06BA17CA1C2010E944C1D08C033E046
:1042E000D31205C06DA17EA1C2010E944C1D0150D8
:1042F0001109D9F6CC0CCC0C81E0681A710861F672
:104300009FEFE91AF90A8E149F0409F0BFCFE1E08C
:10431000AE1AB10809F0B2CF6B807C80FFEF2F1A84
:104320003F0A2F813885620E731E8B859C85281667
:10433000390609F097CF2E960FB6F894DEBF0FBE60
:10434000CDBFDF91CF911F910F91FF90EF90DF9044
:10435000CF90BF90AF909F908F907F906F905F9025
:104360004F903F902F900895A1E21A2EAA1BBB1BDD
:10437000FD010DC0AA1FBB1FEE1FFF1FA217B30731
:10438000E407F50720F0A21BB30BE40BF50B661F47
:10439000771F881F991F1A9469F76095709580950B
:1043A00090959B01AC01BD01CF010895B7FF0C941E
:1043B000E4210E94E421821B930B0895EE0FFF1F5E
:1043C0000590F491E02D09940E94EF21A59F900D96
:1043D000B49F900DA49F800D911D11240895A29F5C
:1043E000B001B39FC001A39F700D811D1124911DC9
:1043F000B29F700D811D1124911D0895F894FFCF77
:10440000010153636F72653A0047414D45204F5695
:104410004552005265616479005374617274000002
:00000001FF
