S012000041546D656761333238502E73726563F6
S11300000C94B3110C947D120C948C120C94DB118F
S11300100C94DB110C94DB110C94DB110C9458122E
S11300200C94DB110C94DB110C94DB110C94DB119C
S11300300C94DB110C94DB110C94DB110C94DB118C
S11300400C9409120C94DB110C94DB110C94DB114D
S11300500C94DB110C94DB110C94DB110C94DB116C
S11300600C94DB110C94DB11000000000000000F65
S1130070FF000000FAAAC00003AAAAB0000EAAFF5B
S1130080AC000EABFFEC0035AFFFFC00355FCF3C9E
S113009000355FCF3C00F55FFFFC00FF5CFF3C00D8
S11300A03FED003C0003AD507C0003AE507C000EDD
S11300B0A6609C000EAA60AC000EAA60AC00FAA573
S11300C0802C03555A002B0EAAA0000B2020D82008
S11300D02040E0400000C0C000000007001C0038C1
S11300E00078007000F000F000F000F801F801FC66
S11300F0037F0E7FFE3FFC1FF807E0002000000096
S113010000000000000000000000000000000000EB
S113011000000000000000000000000000000000DB
S113012000000000000000000200000000000000C9
S113013000000000000000000000000000000000BB
S1130140000000000000000000000000000000406B
S11301500000000000000000000002000000000099
S1130160000000000000000000008000000000000B
S1130170000000000000015000000000000000002A
S1130180000000000000000000000000004000002B
S1130190000000000001000000000000000000401A
S11301A0000000000000000000000000000000004B
S11301B0000000000000000000000000000000003B
S11301C0000000000000000000000000010000002A
S11301D0000000000000000000000000000000001B
S11301E00000000005000000000000000000000006
S11301F000000000000000000000000000000000FB
S113020001000000000000000000000005000000E4
S113021000000000000000000000000000000000DA
S11302200000000000000000064000000000000084
S113023000000000000000000000000000000000BA
S113024000000000000000000100000000000000A9
S11302500100000000000000000000000000000099
S1130260002000000000000000000000000000006A
S11302700400000000000000000000000000000076
S1130280000000000000000000000000000000006A
S1130290000000000000000010000000000000004A
S11302A00000000000000000000000000200000048
S11302B00000000004000000000000000000000036
S11302C080000000000000000000000000000000AA
S11302D0000000000000000000000000000000001A
S11302E0000000000000000000000000000000000A
S11302F000000000000000100000000000000000EA
S113030000000000000000000000000001000000E8
S113031000000000000000000000000000000010C9
S113032000000000000000000000000000000000C9
S11303300000000006400000000000000000000073
S11303400000000000000165000000000000000043
S11303500000000000000000000000000100000098
S11303600000000000000000000000000000001079
S11303700000000000000000000000000000000079
S11303800FFFFFF00FFFFFFF0FFFFFF000003FC064
S113039003FC03FFFFC003FFFFC03FFFFFC00000DB
S11303A000000000000000000FFFFFF00FFFFFFF40
S11303B00FFFFFF000003FC003FC03FFFFC003FF7B
S11303C0FFC03FFFFFC0001000000000000000005D
S11303D00FF000FF0FF000000FF000FF00503FC0CF
S11303E003FC3FC003FC3FC007FC3FC003FC0064A8
S11303F000000000000000000FF000FF0FF00000FC
S11304000FF000FF00503FC003FC3FC003FC3FC09F
S113041017FC3FC003FC0010000000000000800037
S11304200FF000FF0FF000000FF000FF00003FC2CC
S113043003FC3FC003FC3FC007FC3FC003FC0000BB
S113044000000000000000000FF000FF0FF00000AB
S11304500FF000FF00003FC003FC3FC003FC3FC09F
S113046003FC3FC003FC000000000000000000800B
S11304700FF000FF0FFFFF000FF000FF00003FFF31
S1130480FFFC3FC003FC3FC003FC3FC003FC000073
S113049000000000000000000FF000FF0FFFFF004D
S11304A00FF800FF00003FFFFFFC3FC003FC7FC0CC
S11304B003FC3FC003FC000000000000000000003B
S11304C00FFFFFF00FF000000FF000FF00003FC02F
S11304D003FC3FC003FC3FC003FC3FC003FC00001F
S11304E000000000000000000FFFFFF00FF000000C
S11304F00FF000FF00003FC003FC3FC003FC3FC0FF
S113050003FC3FC003FC00000000000000000000EA
S11305100FF000FF0FF000000FF000FF00003FC0DD
S113052003FC3FC003FC3FC003FC3FC403FC0000CA
S113053000000000000000000FF010FF0FF00000AA
S11305400FF000FF00403FC003FC3FC003FC3FC06E
S113055003FC3FC003FC000000000000000000009A
S11305600FF000FF0FFFFFFF0FFFFFF000103FC071
S113057003FC13FFFFC003FFFFC03FFFFFC00000E9
S113058000000000000000000FF000FF0FFFFFFF5D
S11305900FFFFFF000003FC003FC07FFFFC003FF95
S11305A0FFC03FFFFFC000000000100000005550D6
S11305B000000000004000000400004000010000B2
S11305C00000010000100001000000000000000015
S11305D00000000000055555000550000010000003
S11305E00100000000004000400000400004000042
S11305F040000000000000000000000000155555F8
S113060040555500000404000040000000001000A4
S11306101001001010011000000000000000000094
S1130620000000000055555551555540000101008A
S1130630000000000000040404000004040044005E
S113064004000000000000000000000000555555A3
S11306505555554000004040400000000000010195
S11306601100100101001100010000100000000041
S11306700000000001555555555555500000101007
S11306803FFC0000040400404F40040040000440CC
S1130690004400040000000000000000015555550E
S11306A055555550000044043C0F7EAF3FFD3FFCC0
S11306B0111FFF03FFD001111011000110000000F1
S11306C00000005001555555555555501540111110
S11306D03D0F3EAFBC4F7C4F3F4F07CF47C4044450
S11306E044044040400000000000005401555555AA
S11306F055555551555444447C4FBEAFBC0F3C1F17
S11307001F1F03DF13C101111101101000000000AD
S1130710000000551455555555555545555511115D
S11307203FFEBEAFBE0F7C0F4F4F47CF07C44444BC
S113073044444444400000000000005555555555BC
S113074055555555555514447EAFBEAFBE9F3D1FFC
S11307501F1F13D3FFD1111111111111000000003B
S113076000000055555555555555555AA9555551DF
S11307703EAFAFFFBE8F7C4F4F5F47C457C4444466
S1130780444444444000000000000055555555556C
S1130790555555AAAA95555455AAAAAAAAA1151100
S11307A011155117FF111111111111111000000031
S11307B00000005540555555555556AAAAA55555FE
S11307C0555AAAAAAAA44544544554454544444408
S11307D04444446AAA000000000000550005555531
S11307E0555556AAAAA555555556956AAAA5115107
S11307F01511551151511111111112AAAAA000007D
S1130800000000540001555555555AAAAAA955553A
S11308105556555AAAA54454454455445454544431
S113082044444AAAA80000000000005000005405F7
S113083055555AAAAAA9A95555555556AA9551557B
S1130840115555551555155511111AAAA00000003A
S1130850000000400000400055555AAAAAAAAA5513
S1130860AA555556AAAA9455445555544555551557
S113087044446AAAA00000000000005000000000E8
S113088055555AAAAAAAAA9AAAA5555655AAA91567
S1130890551555555155555551112AA400000000C0
S11308A0000000550000000015555A55AAAAAAAA2E
S11308B0AAA95555556AAA55554555555455556ACD
S11308C094446A900000000002AAA8554000055410
S11308D0155555555AA956AAAAAA5555555AAA5155
S11308E055555555551556AAA91A9550000000009E
S11308F02AAAAA5550005555555555555695556A29
S1130900AAAA55555556AA945554555555555AAAFB
S1130910AA69554000000000AAAAAA5554015555D9
S1130920555555555655555AAAAA95555555AA95EE
S11309301555155555515AAAAAA95540000000004D
S1130940AAAAAA555505555555500015555555563D
S1130950AAAA9555AA95AA955555559555546AAA86
S1130960AAA5554000000AA8AAAAAA5555001555DB
S1130970550000015555555655AA955AAAA9AA9548
S11309805555556555552AAAAAA555400000AAAA49
S1130990AAAAAA555540015554000000555555556D
S11309A0556A956AAAAAAA555555555995AA6AAA87
S11309B0AAA555500002AAAAAAAAAA555541545557
S11309C05400000015015555556A556AAAAAAAA5EE
S11309D0555655566AAAAAAAAAA555500002AAAA0B
S11309E0AAAAAA5555455555500000001000555562
S11309F0555AA56AAAAAAAA555559556AAAAAAAA55
S1130A00AAA55554000AAAAAAAAAAA55555555003A
S1130A10500000000015555555AAAA6AAAAAAAAA08
S1130A20A95555AAAAAAAAAAAAA95540015AAAAA86
S1130A30AAAAAA5555555000000000000155555565
S1130A4056AAAA9AAA000AAAAA95595AAAAAAAAA66
S1130A50AAAA5500155AAAAAAAAAAA5555554000E9
S1130A600000015405555555556AAAAA8000002A6C
S1130A70AAA55655666AAAAAAAAA5400555AAAAAA9
S1130A80AAAAAA555005000000000555455555551C
S1130A905555AAAA00000002AAA9559599999999B1
S1130AA0AAA95550555AAAAAAAA55655400100000C
S1130AB0000000055555555555555AA8000000002D
S1130AC0AAA959656666666AAAA55554555AAAAA7A
S1130AD0AA955555000000000000000055555555D5
S1130AE0555556A8000000002A55559999AAA9AA57
S1130AF0AA9555555556AAAAAA55550500000000B1
S1130B000000000014055555555555A0000000007F
S1130B102555555666AAAAAAAA9555555555AAAA61
S1130B20AA555500000000000000000000005555C3
S1130B305555002000000000055555559AAAAAAA4B
S1130B40AA55555555AAAAAAAA5555000000000051
S1130B500000000000005555555000000000000042
S1130B60055555555AAAAAAAAA5555555AAAAAAA24
S1130B70AA555500000000000000000000001555B3
S1130B8055500000000000000555555556AAAAAA64
S1130B90AA5555556AAAAAAAAA55550000000000EC
S1130BA00000000055401555555400000000000099
S1130BB00015555556AAFFFAAA555555AAAAAAAA28
S1130BC0AA95550000000000000000055554155575
S1130BD055550000000000400001555555AFFFFF7A
S1130BE0AA555555AAAAAAAAAA555500000000005C
S1130BF000015415555515555555000000000500C4
S1130C000000155555BFFFFFEA955556AAAAAAAA92
S1130C10955555FFC00000000015555555555555BF
S1130C2055554000005514000000155555FFFFFFB1
S1130C30FA9556AAAAAAAAA9555555FFC03FFC037E
S1130C40C05555555557D555555540000555540073
S1130C500000055555FFFFFFFAA56AAAAAAAAAA58E
S1130C60555555FFC0F00003C07FF5FFF003D5557F
S1130C7001550550155550000000055555FFFFFF5F
S1130C80FEBFAAAAAAA55A95555555FFC0F0003F24
S1130C90FD557DF53C3FFD5000151554555550004C
S1130CA00000040154FFFFFFFEFFAAAAAA555695AF
S1130CB0555555FFC03FF003C17FFDF40003C0400C
S1130CC000005554555010000000000057FFFFFF6E
S1130CD0FFFFAAAAA9555555555555FFC0003C0319
S1130CE0C1F03DF40003C00000001555550000009C
S1130CF00000000055553FFFFFFFAAAAAAA55555BD
S1130D00555555FFC0003C03C0F03CF00003C00043
S1130D10005545555500000000000055155553FF7A
S1130D20FFFFEAAAAAA955555555AAFFC0FFF0032B
S1130D30C03FFCF00003C000055555555455500004
S1130D4000000005555554FFFFFAAAAAAAAA555552
S1130D50556AAAFFC0000000000000000000000067
S1130D601555555555555500000000015005553F82
S1130D70FFEAAAAAAAAA555556AAAA00000000008A
S1130D80000000000000000015555555555555400C
S1130D90000000010000557FFFEAAAAAAAAA55553F
S1130DA056AAAA000055000000000000000000152B
S1130DB01555555555555550000000000000554C2B
S1130DC0556AAAAAAAA955555AAAAA005555500067
S1130DD0000000000000000055555555555555506C
S1130DE0000000000000155555556AAAAAAAA55589
S1130DF05AAAAAFFD55554000000000000000000C4
S1130E000555555555555554000000000000100572
S1130E105555555AAAAAAA555AAAAAFFC03FFD0079
S1130E205540000000154000015555555555555481
S1130E300540000000000000015555AAAAA9555517
S1130E405AAAAAFFC0F0007FFD7FF0FFF17FF400F3
S1130E500155555555555554555400000000000092
S1130E602AAAAAAAAA555555AAAAAAFFC0F000F010
S1130E7015F53CF03DF57D00005555555555555536
S1130E8055550000556AAAAAAAAAAAAAA955555A4C
S1130E90AAAAAAFFC03FF0F000F53DF005F57D4099
S1130EA0004015555555555555555555555AA55642
S1130EB0AAAAAAAAA555556AAAAAAAFFC0003CF0E4
S1130EC000F57DF515FFF54540000555555555557B
S1130ED055555555555A55556AAAAAAAA55555A505
S1130EE055A955FFC0003CF000F03DF515F55555EA
S1130EF05400015555555555555555555559555544
S1130F005AAAAAAA95555595556555FFC0FFF03FB5
S1130F10FC3FF0F5557FF55555055155555555553B
S1130F20555555555555555556AAAAAA955555552D
S1130F30555555FFC0000000000000001550000189
S1130F40551554555555555555555555555555558E
S1130F505556AAAA955555555555550000000000FB
S1130F600000000000000000015555555555555529
S1130F70555555555555555555556AA555555555B8
S1130F80555555000000000000000000000000005E
S1130F9000055555555555540155555555555555F7
S1130FA055555A5555555555555555000000000091
S1130FB000000000000000000000055555555500D4
S1130FC000001555501555555555595555555555F8
S1130FD0555555FFC000000000000000000000004F
S1130FE00000000155550000000000054001555562
S1130FF05555555555555555555555FFD57FFD55A1
S1131000555555557D57D557D5555555555555565F
S1131010AAAAAAAAAAAAAAAAAAAAAAA55555555585
S1131020555555FFD5F555FFF57FF57FFD555557BA
S1131030D5555555555555555A556AAAAAABFAAAC8
S1131040AAAAA55555555555555555FFD5F555F5E8
S11310507DF57DF57D5FD57FFD55555555555AAACE
S1131060AAAAAAAAABFFFEAAAAAAAAAAAAA95555DD
S1131070555555FFD5F555F555F57DF57D57D5579E
S1131080D555AAAAAAAAAAAAAAAAAAAAAAAAAAAAE6
S1131090AAAAAAAAAA955555555555FFD5F555F5A9
S11310A055FFF5F57D57D557D5555556AAAAAAAA81
S11310B0AAAAAAAAABFFAAAAAAAAAAAAAAAAAAAA36
S11310C0AAAAAAFFD5F555F555F555F57D57D55777
S11310D0D555555556AAAAAAAAAAABFFFFFFFFEAFF
S11310E0AAAAAAAAAAAAAAAAA95555FFD57FFDF514
S11310F0557FF57FFD57D55BE556AAAAAAAAAAAAE9
S1131100AAAAAAAAFFFFFEAAAAAAAAAAAAAAAAA93E
S1131110555555FFD5555555555555555AAAAAAA4D
S1131120AAAAAAAAAAAAAAAAAAAAAAFFFFFFFFFF72
S1131130ABFAAAAAAAAAAAAAAAAAAA555555555563
S1131140555555555556AAAAAAAAAAAAAAAAAAAAF8
S1131150AAAAAAAAAAAAAAAAAAAAAAAAAAAAAAAAEB
S1131160AAAAAA555555555555AAAA9555AAAAAA43
S1131170AAAAAAAAAAAAAAAAAABFFFFFFFFFFAAA12
S1131180AAAAAAAAAAAAAAAAAAAAAA55555556AA0E
S1131190AAAAAAAAAAAAAAAAAAAAAAAAAAAAAFEB65
S11311A0FFFFFFFFFFFFFFFFEAAAAAAAAAAAAAAAB3
S11311B0AAAAAAAAAA555556AAAAAAAAAAAAAAAA89
S11311C0AAAAAAAAAAAAAAAAABFFFFFFEAAAAAAA3B
S11311D0AAAAAAAAAAAAAAAAAAAAAAAAAAA9555516
S11311E0569556AAAAAAAAAAAAAAAAAAAAAAAAAA18
S11311F0AAAABFFFFFFAAAAAAAAAAAAAAAAAAAAA3C
S1131200AAAAAAA55955555AAAAAAAAAAAAAAAAA8A
S1131210AAAAAAAAAAAAAAAAAAAAAABFFFFFFFFEC2
S1131220AAAAAAAAAAAAAAAAAAAAAAAAAAAAAAAA1A
S1131230AAAAAAAAAAAAAAAAAAAAAAAAAAAABFFFA0
S1131240FFFFFFFFFFFFFEAAAAAAAAAAAAAAAAAAA8
S1131250AAAAAAAAAAAAAAAAAAAAAAAAAAAAAAAAEA
S1131260AAAAAAFFFFFFFFFFFFFFFFFFFFFEAAAA34
S1131270BFFFFFFFAFAAAAAAAAAAAAFFFFFFFFFF08
S1131280FFFFFFFFFFFFFFFFFFFFFFFFFFFFFFFF6A
S1131290FFFFFFFFFFFFFFFFFFFFFFFFFFFFFFFF5A
S11312A0FFFFFFFFFFD55FF57FFFFFFFFFFFFFFF9E
S11312B0FFFFFFFFFFD5FF7FFFFFFFFFFFFFFFFFE4
S11312C0FFFFFFFFFFFFFFFFFFFFFFD55FF57FFF7E
S11312D0FFFFFFFFFFFFFFFFFFFFFFD5FDFFFFFF46
S11312E0FFFFFFFFFFFFFFFFFFFFFFFFFFFFFFFF0A
S11312F0FF555FF57FFFFFFFFFFFFFFFFFFFFFFFCE
S1131300FFD5FFFFFFFFFFFFFFFFFFFFFFFFFFFF13
S1131310FFFFFFFFFFFFFD555FF57FFFFFFFFFFFAF
S1131320FFFFFFFFFFFFFFD5FFFFFFFFFFFFFFFFF3
S1131330FFFFFFFFFFFFFFFFFFFFFFFFF55D5FF50F
S11313407FFFFFFFFFFFFFFFFFFFFFFFFFD5FFFF53
S1131350FFFFFFFFFFFFFFFFFFFFFFFFFFFFFFFF99
S1131360FFFFD57D5FF55FFFFFF57FFFD5FFFFFF33
S1131370D55FFFD5FFFFFFFFFFFFFFFFFFFFFFFF6D
S1131380FFFFFFFFFFFFFFFF55FD5F55555FFF5553
S113139057F5555FFFF55555FFD5FFFFFFFFFFFFDD
S11313A0FFFFFFFFFFFFFFFFFFFFFFFFFFFF57FDF3
S11313B05F55555FFD5555555557FFD555557FD547
S11313C0FFFFFFFFFFFFFFFFFFFFFFFFFFFFFFFF29
S11313D0FFFFFFFD57FD5F55555FF55555555555B5
S11313E0FF555FD55FD5FFFFFFFFFFFFFFFFFFFF47
S11313F0FFFFFFFFFFFFFFFFFFF55FFD5FF57FFFCF
S1131400D55FF555FF55FF55FFF55FD5FFFFFFFF8E
S1131410FFFFFFFFFFFFFFFFFFFFFFFFFFFFFFD502
S11314207FFD5FF57FFFD57FFD57FFD5FD57FFFD9E
S113143057D5FFFFFFFFFFFFFFFFFFFFFFFFFFFF8A
S1131440FFFFFFFFFF55FFFD5FF57FFFD5FFFD5F4A
S1131450FFD57D57FFFD57D5FFFFFFFFFFFFFFFFC0
S1131460FFFFFFFFFFFFFFFFFFFFFD5555FD5FF58A
S11314707FFFD5FFFD5FFFD57D55555557D5FFFF40
S1131480FFFFFFFFFFFFFFFFFFFFFFFFFFFFFFFF68
S1131490F55555FD5FF57FFFD5FFFD5FFFD57D5504
S11314A0555557D5FFFFFFFFFFFFFFFFFFFFFFFF6E
S11314B0FFFFFFFFFFFFF55557FD5FF57FFFD5FFEA
S11314C0FD5FFFD57D55555557D5FFFFFFFFFFFF46
S11314D0FFFFFFFFFFFFFFFFFFFFFFFFD57FFFFDC4
S11314E05FF57FFFD5FFFD5FFFD57D5FFFFFFFD574
S11314F07FFFFFFFFFFFFFFFFFFFFFFFFFFFFFFF78
S1131500FFFF55FFFFFD5FF55FFFD5FFFD5FFFD5D3
S11315107D57FFFFFFD57FFFFFFFFFFFFFFFFFFFAB
S1131520FFFFFFFFFFFFFFFD57FFFFFD5FFD57FFBD
S1131530D5FFFD5FFFD57F55FFFD5FF55FFFFFFF23
S1131540FFFFFFFFFFFFFFFFFFFFFFFFFFF55FFF51
S1131550FFFD5FFD555FD5FFFD5FFFD57F557FD54F
S11315605FF5557FFFFFFFFFFFFFFFFFFFFFFFFF5B
S1131570FFFFFFD57FFFFFFD5FFF555FD5FFFD5FD9
S1131580FFD57FD555557FFD557FFFFFFFFFFFFF3B
S1131590FFFFFFFFFFFFFFFFFF55FFFFFFFD5FFFA3
S11315A0D55FD5FFFD5FFFD57FF55555FFFF557F0F
S11315B0FFFFFFFFFFFFFFFFFFFFFFFFFFFFFF57DF
S11315C0FFFFFFFFFFFFFFFFFFFFFFFFFFFFFFFF27
S11315D0D55FFFFFFFFFFFFFFFFFFFFFFFFFFFFFE1
S11315E0FFFFFFFFFFFFFFFFFFFFFFFFFFFEAAAAB2
S11315F0BFFFFFFFFFFFFFFFFFFFFFFFFFFFFFFF37
S1131600FFFFFFFFFFFFFFFFFFFFFFFFFFFFFFFFE6
S1131610FFFFFFEAAAAAAFAFFFFFFFFFFFFFFFFF35
S1131620FFFFFFFFFFFFFFFFFFFFFFFFFFFFFFFFC6
S1131630FFFFFFFFFFFFFFFFFFAAAAAAABFFFFFF09
S1131640FFFFFFFFFFFFFFFFFFFFFFFFFFFFFFFFA6
S1131650FFFFFFFFFFFFFFFFFFFFFFFFFFFFFEAAEC
S1131660AAAAAAFFFFFFFFFFFFFFFFFFFFFFFFFF85
S1131670FFFFFFFFFFFFFFFFFFFFFFFFFFFFFFFF76
S1131680FFFFFFFFFAAAAAAAAAFFFFFF0FFFF0FFBE
S1131690FFFFFFFFFFFFFFFFFFFFFFFFFFFFFFFF56
S11316A0FFFFFFFFFFFFFFFFFFFFEAABEAAAFABF5E
S11316B0FFFC03FFC03FFFFFFFFFFFFFFFFFFFFF34
S11316C0FFFFFFFFFFFFFFFFFFFFFFFFFFFFFFFF26
S11316D0AAAFFAABFEBFFFFC03FFC03FFFFFFFFF53
S11316E0FFFFFFFFFFFFFFFFFFFFFFFFFFFFFFFF06
S11316F0FFFFFFFFFFFFAABFFAAFFEAFFFFC03FF30
S1131700C03FFFFFFFFFFFFFFFFFFFFFFFFFFFFFE4
S1131710FFFFFFFFFFFFFFFFFFFFFFFEAAFFFEAF7C
S1131720FFABFFFC00FF003F0FC0003F0000FF00C5
S113173000FF00003C3FF0F0FC0003FFFFFFFFFF51
S1131740FFFEAABFFEAFFFEBFFF000FF003F0F005C
S1131750000F00003F0000FC00003C3FF0F0F000F0
S113176000FFFFFFFFFFFFFEAABFFFABFFEAFFF092
S1131770003C003F0F00000F00003C00003C000054
S11317803C3FF0F0F00000FFFFFFFFFFFFFEAFAFB4
S1131790FFEBFFFABFF0303C0C0F0F03FFFF0FFC11
S11317A03C0FF03C0FFFFC3FF0F0F03FF0FFFFFF79
S11317B0FFFFFFFEAFABFFEAFFFEBFF0303C0C0FB4
S11317C00F0FFFFF0FFC3C3FFC3C3FFFFC0000F011
S11317D0F03FF0FFFFFFFFFFFFFEBFEBFFFAFFFE4E
S11317E0AFF03C003C0F0F0FFFFF0FFC3C3FFC3CF5
S11317F03FFFFC0000F0F03FF0FFFFFFFFFFFFFEA4
S1131800FFFAFFFEBFFFAFF03C003C0F0F0FFFFFDE
S113181000003C3FFC3C3FFFFC0000F0F00000FFF8
S1131820FFFFFFFFFFFFFFFAFFFEAFFFEFF03C00FB
S11318303C0F0F0FFFFF00003C3FFC3C3FFFFC3F11
S1131840F0F0F00003FFFFFFFFFFFFFFFFFABFFF11
S1131850AFFFFFF03F00FC0F0F03FFFF0FFC3C0F37
S1131860F03C0FFFFC3FF0F0F03FFFFFFFFFFFFFF6
S1131870FFFFFFEAAFFEABFFFFF03F00FC0F0F00DE
S1131880000F0FFC3C00003C00003C3FF0F0F03F38
S1131890FFFFFFFFFFFFFFFFFFAAAFFEAAFFFFF05E
S11318A03FC3FC0F0FC0000F0FFC3F0000FF000000
S11318B03C3FF0F0F03FFFFFFFFFFFFFFFFFFFAAF9
S11318C0ABFAAAFFFFFCFFFFFF3FFFFFFFFFFFFF95
S11318D0FFFFFFFFFFFFFFFFFFFFFCFFFFFFFFFF17
S11318E0FFFFFFFFFEAAAAEAAABFFFFFFFFFFFFF59
S11318F0FFFFFFFFFFFFFFFFFFFFFFFFFFFFFFFFF4
S1131900FFFFFFFFFFFFFFFFFFFFFAAAAAAAAABF7C
S1131910FFFFFFFFFFFFFFFFFFFFFFFFFFFFFFFFD3
S1131920FFFFFFFFFFFFFFFFFFFFFFFFFFFFFFFFC3
S1131930FEAAAAAAAABFFFFFFFFFFFFFFFFFFFFF48
S1131940FFFFFFFFFFFFFFFFFFFFFFFFFFFFFFFFA3
S1131950FFFFFFFFFFFFFFEAAAAAAAFFFFFFFFFFA7
S1131960FFFFFFFFFFFFFFFFFFFFFFFFFFFFFFFF83
S1131970FFFFFFFFFFFFFFFFFFFFFFFFFFFEAAAA1E
S1131980AFFFFFFFFFFFFFFFFFFFFFFFFFFFFFFFB3
S1131990FFFFFFFFFFFFFFFFFFFFFFFFFFFFFFFF53
S11319A0FFFFFFFFFFFFFFFFFFFFFFFFFFFFFFFF43
S11319B0FFFFFFAAAAAAAAAAAAAAAAFFFFFFFFFFDB
S11319C0FFFFFFAAAAAAAAAAAAAAAAAAAAAAAAAA74
S11319D0AAAAAAFFFFFFFFFFFFFFFFAAAAAAAAAABB
S11319E0AAAAAAAAAAAAAAAAAAAAAAAAAAAAAAAA53
S11319F0AAAAAAAAAAAAAAAAAAAAAA666666666697
S1131A0066666699999999999999996666666666DA
S1131A10666666999999999999999955555555551F
S1131A205555555555555555555555555555555562
S1131A3055555555555555555555554444444444A7
S1131A4044444411111111111111114444444444EA
S1131A5044444411111111111111110030000010EE
S1131A60000000000000000000000000786C283C2A
S1131A7066203018305418000000060078247C607A
S1131A800C5010301838180000000C00780028386A
S1131A901834003018107E007E00180030007C0CD2
S1131AA03048003018381800000030000000287852
S1131AB06634001830541800000060003000001034
S1131AC000000000000000300030000000000000B2
S1131AD000000000000000100000003818FCFC06A4
S1131AE0FE7CFE7C7C00000000007C4C380606C6B0
S1131AF0C0C006C6C60000180030C6C618063CC6DC
S1131B00FCFC067CC63030307C1806C6187C06C641
S1131B1006C60CC6C6000060000C06C618C006C681
S1131B2006C618C67E0000307C183C6418C006FE49
S1131B3006C630C606303018003000383CFEFC06BD
S1131B40FC7C307C7C0010000000300000000000B1
S1131B5000000000000000000000007C7CFC7EFC13
S1131B60FEFE7CC63C1EC6C0C6C67CC6C6C6C0C673
S1131B70C0C0C6C61806C6C0EEE6C6C6C6C6C0C63F
S1131B80C0C0C0C61806CCC0FEF6C6D6C6FCC0C6C9
S1131B90F8FCDEFE1806F8C0D6DEC6DCFEC6C0C6FB
S1131BA0C0C0C6C61806CCC0C6CEC6C0C6C6C0C64F
S1131BB0C0C0C6C618C6C6C0C6C6C67CC6FC7EFCA7
S1131BC0FEC07EC63C7CC6FEC6C67C00000000008B
S1131BD00000000000000000000000FC7CFC7E7E91
S1131BE0C6C6C6C666FE0000000000C6C6C6C0184B
S1131BF0C6C6C6C666063860381000C6C6C6C01853
S1131C00C6C6C66C660C3030183800C6C6C67C180A
S1131C10C6C6D6383C383018186C00FCDEFC0618F2
S1131C20C66CFE6C1860300C184400C0CCC6061894
S1131C30C638EEC618C03806380000C076C6FC1890
S1131C407C10C6C618FE00000000FE000000000064
S1131C5000000000000000000000000000C00006BA
S1131C60003E00C0180CC038000000607CFC7E7E82
S1131C707C607EC00000C618FCFC7C2006C6C0C682
S1131C80C660C6FC381CCC18D6C6C6007EC6C0C604
S1131C90C6FCC6C6180CF818D6C6C600C6C6C0C64A
S1131CA0FC60C6C6180CCC18D6C6C600C6C6C0C6CC
S1131CB0C0607EC6180CC618D6C6C6007EFC7E7EE2
S1131CC07C6006C6180CC618D6C67C00000000004E
S1131CD000007C00007800000000000000000018F4
S1131CE00000000000000000000000FC7EFC7C18E6
S1131CF0C6C6D6C6C6FE3810380000C6C6C6C07EE4
S1131D00C6C6D66CC60C3010183000C6C6C07C18C7
S1131D10C6C6D638C63860100C5A00C6C6C00618E7
S1131D20C66CD66CC6603010180C00C6C6C0061847
S1131D30C638D6C67EC03810380000FC7EC07C1879
S1131D407E107EC606FE0000000000C006000000F3
S1131D50000000007C000000000000A00AA82A1572
S1131D6054FE7F3E7C2A683E7C3E7C0100010005D7
S1131D701016545AA55BE55BE5169400FB0F6B3512
S1131D801CD947D55CD55C35700FC00EB03FFCBE86
S1131D90BEFAAFB05E68691AA40AA0003FF0000062
S1131DA0EAAF0003ABFEC003AFFFB00EAF3CB00E12
S1131DB0AF3CF00E7FFFF00D7FFFF00D73FCF00DD4
S1131DC07400F03DB541F0F5B901F0FEBA02F03E01
S1131DD09A006C0EAA00AC0EAA006C0EAA00300E7B
S1131DE0AA00300EAA00700DAA10700E68117003BC
S1131DF0943DC000E83300003CF000000300000004
S1131E000FFC0000FAAB0003ABFEC00EAFFFB00E38
S1131E10AF3CB00EBF3CF00E7FFFF00D7FFFF00D26
S1131E2073FCF00D7400F00DB540F00DB501F03DFC
S1131E30B902F03E9A02700EAA00B00EAA00AC0ECF
S1131E40AA002C0EAA002C0EAA005C0EAA10700D7B
S1131E506831700E943DC003E83300003CF000008C
S1131E60030000003FFC0000EAAB0003ABFEC0032C
S1131E70AFFFB00EBF3CF03ABF3CF03A7FFFF03A00
S1131E807FFFF00D73FCF00D7400F00D7400F00D85
S1131E90B541F00EB901F00EBA02F00E9A00B00E80
S1131EA0AA00B00EAA00300EAA00300DAA00700ECF
S1131EB06A205C0E68115C03943F7000E830C00037
S1131EC03CF00000030000003FF00000EAAF000314
S1131ED0ABFEC003AFFFB00EAF3CF00EAF3CF03A28
S1131EE07FFFF03A7FFFF03A73FCF03A7400F03D64
S1131EF0B500F03EB541F00EBA02F00E9A02700E33
S1131F00AA00B00EAA00B00EAA00300EAA00300E2D
S1131F10AA00700DAA20700E68117003983F70001B
S1131F20E430C00038F000000F00000000000000A2
S1131F3000000FFC0000F0FAABC003FFAAAAB00334
S1131F40EAAAAAAC00FAAAAAFC000D6AAFFF000D27
S1131F505D5FFF0003D7FF3C000035573C0000F5F0
S1131F6057FC0003AA57F0003EAA607000EAA9805B
S1131F707003AAA980C00EAA9602C00E9568070035
S1131F80396A8003000EB550030003CD400C0000F5
S1131F900000FFC000000FAAB000003AAAAC00F392
S1131FA0EAAAFC03FEAAAAFF03EAAAABFF00F5AA69
S1131FB09FFC000D555F3C0003F75F3C000039F7C0
S1131FC0F00000E954700003AA9870000EAA60C0E3
S1131FD0003AAA60C000EAA980C003AAA980C00E82
S1131FE0AA9600C0395568C3000EAA833C0003FCBE
S1131FF00C000000000FFFF000003AAAAC0000EA59
S1132000AAFF0003AAABFF003FAAABFF00FEAAAFE2
S11320103C00FAAAB73C003D55D7FC0003D5D7F0E5
S11320200003A95470000EAA60B0003AA980B00061
S11320303AA602B000EAA602C000EA9800C000EA8C
S11320409800C0039558F0C000EAA30CC0003C0CF3
S1132050030000033000000000FFFFC00003AAAA31
S1132060B0000EAAAAAC003AAAAAFF00EAAAAFFFDF
S113207003E6ABFFFC03FD9F573C00FF57573C00B2
S11320800FA557FC003AA953F000EAA680C003AAA2
S11320909800C003AA6002B00EA98002B00DA98006
S11320A00AB00E698002C0039580030000EA0000B4
S11320B0C0003F0170C00000FFCC300003FFFC00F3
S11320C0003EAAABC003EAAAAAB00FAAAAAAAC0F00
S11320D0F6AAABFF03CDAFAFFF000375FFFC000012
S11320E0D5573C0000D5573C0003E557FC003EA9FA
S11320F063F003EAA680C00EAA9800C03AAA600260
S1132100C036A98002C039A6000AC00E56400AC0D3
S113211003AB50030000FCC0030000003A8300003E
S11321200000000000000FFC0000F0FAABC003FF49
S1132130AAAAB003EAAAAAAC00D6AAABFC003D6ADC
S1132140BFFF000D5D5FFF0003D7FCFC0000355CA2
S1132150FC0000F55FFC0003A94FF0003EA980706D
S113216000EAA6007003AAA600700EAA5802C00EC8
S113217055A00AC039AA0003000EB550030003CDD0
S11321804C0C0000000000003C000000FFC00000F8
S1132190FABC00003AAB00003AAAC000EAAAB000B8
S11321A0EAAAB003AAAFAC03AABFAC036ABFDC03BC
S11321B05AFFDC0357CF1C03D7CF3C0EA4FFD73AFA
S11321C0A90057EAA95055EAA95055DAA98055E65D
S11321D0A980573956005C0EA800F003F000C00037
S11321E00C00C00003C0C00000C3000000C3000016
S11321F000CC000000CC0000003000000000000013
S113220003C000000FFF00000FABC00003AAC00012
S11322103EAAB000FAAAB003EAAAAC03AAAFAC0380
S11322205AAFEC035ABFEC00D7FFDC0037CF1C00D9
S1132230D7CF3C0FA4FFD73AA90055EAA95055EAD5
S1132240AA5057DAAA605CE555805C3AAA00700F80
S1132250F000C0003000C0000C00C00003C0C0008B
S113226000C3000000C3000000CF000000CC000049
S11322700030000000F0000003FC00000FBC000070
S11322803EAB0000FAAAC000EAAAC003EAAAC0034F
S1132290AAABB0036AAFB000DAAFAC00D6FF6C00F3
S11322A0D7FFDC0037CF1C0FD7CF3F3AA4FFD5EAC6
S11322B0A90055EAA95055DAAA5055E6AA6057393B
S11322C055A07C0EAA00C003F000C0003000C0007E
S11322D00C00C00003C0C00000C3000000C3000025
S11322E000CC000000CC00000030000003C000005F
S11322F00FF000000FB000003EAC0000FAAB00008D
S1132300EAAB0000EAAAC000EAAEB000EAAFAC0053
S1132310EABFAC00DAFFAC00DAFFDC0357CF1C03E2
S1132320D7CF3C0EA4FFD73AA90055EAA95055DAF5
S1132330AA5055E6AA6055396A60570E9580FC0389
S1132340EA00C0003000C0000C00C00003C0C000A0
S113235000C3000000C3000000CC000000CC00005B
S1132360003000009B1211241FBECFEFD8E0DEBF67
S1132370CDBF11E0A0E0B1E0E2E7F4E502C00590D2
S11323800D92A635B107D9F721E0A6E5B1E001C069
S11323901D92AE3AB207E1F711E1C3EBD1E104C0FB
S11323A02197FE010E94EC29C23BD107C9F70E9484
S11323B0DD110C94372A0C94000061E080E00E9447
S11323C09E2460E081E00E949E2466E082E00E94F8
S11323D0712461E080E00E94AE2461E081E00E940B
S11323E0AE2460E080E00E94C92461E082E00E94A3
S11323F0C9240E941F25789486E591E00E94A11FBC
S113240086E591E00E94DC1C86E591E00E94A41D13
S1132410F3CF1F920F920FB60F9211242F933F9375
S11324204F935F936F937F938F939F93AF93BF93D8
S1132430EF93FF930E9424258091AD01882339F105
S11324408091AD018430C1F028F4813089F082306C
S113245059F01DC08031A1F08032B1F08830B9F458
S113246081E08093A80113C081E08093A7010FC08D
S113247081E08093A6010BC081E08093A50107C091
S113248081E08093A40103C081E08093A301FF91C4
S1132490EF91BF91AF919F918F917F916F915F91D8
S11324A04F913F912F910F900FBE0F901F90189551
S11324B01F920F920FB60F9211248F939F93AF9395
S11324C0BF9380919D0190919E01A0919F01B09135
S11324D0A0010196A11DB11D80939D0190939E01C1
S11324E0A0939F01B093A001BF91AF919F918F9151
S11324F00F900FBE0F901F9018951F920F920FB65A
S11325000F9211248F9381E08093AA018F910F90F1
S11325100FBE0F901F9018951F920F920FB60F9237
S113252011248F9381E08093A9018F910F900FBEA6
S11325300F901F901895E6E5F1E080EF90E091830D
S1132540808380E491E093838283118A08958F923B
S11325509F92AF92BF92CF92DF92EF92FF920F932E
S11325601F93CF93DF93EC01822F90E080979C011F
S113257012F4215F3F4F4901959487949594879471
S113258095948794959487949694982C88249794FA
S113259087948F709078992324F40197806F9F6FAC
S11325A00196880E991E8A01015F1F4F9B01215FCE
S11325B03F4FCE010E94E725540180E8880E911C0C
S11325C06894CC24C1F8D12CEC81FD81EA0DFB1D6B
S11325D014916894EE24E3F8F12C11235CF46885DB
S11325E07985CE010E94572568857985CE010E94A0
S11325F057250AC06E817F81CE010E9457256E81C6
S11326007F81CE010E945725110F81E0E81AF1085D
S113261021F781E0C81AD108B9F680E1A80EB11CEF
S1132620A814B90469F6DF91CF911F910F91FF901F
S1132630EF90DF90CF90BF90AF909F908F900895D0
S1132640CF92DF92EF92FF920F931F93CF93DF937A
S11326507C01EB016A01F9012081222371F08F01D1
S11326600F5F1F4FA601BE01C7010E94A71260960B
S1132670F80121918F012111F5CFDF91CF911F91A5
S11326800F91FF90EF90DF90CF9008952F923F929B
S11326904F925F926F927F928F929F92AF92BF926E
S11326A0CF92DF92EF92FF920F931F93CF93DF931A
S11326B0CDB7DEB727970FB6F894DEBF0FBECDBFF8
S11326C09A838983B62EA72E5C834B836801790194
S11326D00A3011052105310588F191E09D83412CD3
S11326E0512C3201439409C09D81892F90E09F832E
S11326F08E831816190654F157C08D818F5F8D8310
S1132700440C551C661C771CD301C201880F991F09
S1132710AA1FBB1F880F991FAA1FBB1F480E591E53
S11327206A1E7B1EC701B601A30192010E94BF2944
S11327302A3031054105510500F7D6CF81E090E0FC
S11327409F838E83412C512C320143940B2D1A2DDF
S1132750A12CB12CC701B601A30192010E94BF298B
S1132760262E372E882E992E205D4B815C81B80150
S113277089819A810E94A712C22CD32CE82CF92CAF
S1132780C301B2012AE030E040E050E00E94BF29DA
S113279029013A019FEFA91AB90A005F1F4F8E81E0
S11327A09F81A816B906B4F227960FB6F894DEBF37
S11327B00FBECDBFDF91CF911F910F91FF90EF908E
S11327C0DF90CF90BF90AF909F908F907F906F904D
S11327D05F904F903F902F90089580919D0190912C
S11327E09E01A0919F01B091A00140919901509147
S11327F09A0160919B0170919C014B5F5F4F6F4FF9
S11328007F4F84179507A607B70790F08093990127
S113281090939A01A0939B01B0939C012091900105
S11328202F5F233019F02093900102C01092900181
S11328304091950150919601609197017091980192
S11328404C595F4F6F4F7F4F84179507A607B70703
S113285018F18093950190939601A0939701B093FA
S1132860980140918F014F5F40938F0130918E0109
S11328703F5F30938E0120918D012F5F20938D0156
S11328804A3011F410928F01343011F410928E01F9
S1132890263011F410928D014091910150919201D2
S11328A0609193017091940143585F4F6F4F7F4F34
S11328B084179507A607B707D8F0809391019093E2
S11328C09201A0939301B09394018091A1019091FE
S11328D0A20101969093A2018093A101809100012D
S11328E08F5F823019F080930001089510920001E7
S11328F0089580919D0190919E01A0919F01B091B6
S1132900A0018093990190939A01A0939B01B093A5
S11329109C018093950190939601A0939701B093A5
S113292098018093910190939201A0939301B093A5
S1132930940108955F926F927F928F929F92AF92CB
S1132940BF92CF92DF92EF92FF920F931F93CF9398
S1132950DF93EC01662463946894552451F877243A
S11329607A940E94ED138E85882309F41BC18F8508
S11329708111F7CF25E431E04EE150E068E770E0E3
S1132980CE010E94201321E031E041E450E066E4EE
S113299070E0CE010E9420132C8941E450E066E6E9
S11329A070E0CE010E94A7122D8941E450E066E751
S11329B070E0CE010E94A7122E8941E450E066E83F
S11329C070E0CE010E94A712088D198D20E030E03E
S11329D041E450E066EA70E0CE010E94461323E031
S11329E031E04FE550E066E470E0CE010E94201330
S11329F02A8D4FE550E066E670E0CE010E94A712F2
S1132A002B8D4FE550E066E770E0CE010E94A712DF
S1132A102C8D4FE550E066E870E0CE010E94A712CD
S1132A200E8D1F8D20E030E04FE550E066EA70E047
S1132A30CE010E94461325E031E04DE750E066E404
S1132A4070E0CE010E94201328A14DE750E066E615
S1132A5070E0CE010E94A71229A14DE750E066E77D
S1132A6070E0CE010E94A7122AA14DE750E066E86B
S1132A7070E0CE010E94A7120CA11DA120E030E05D
S1132A804DE750E066EA70E0CE010E94461327E06D
S1132A9031E04BE950E066E470E0CE010E9420137F
S1132AA02EA14BE950E066E670E0CE010E94A71229
S1132AB02FA14BE950E066E770E0CE010E94A71217
S1132AC028A54BE950E066E870E0CE010E94A71209
S1132AD00AA51BA520E030E04BE950E066EA70E06F
S1132AE0CE010E94461329E031E049EB50E066E450
S1132AF070E0CE010E9420132CA549EB50E066E65D
S1132B0070E0CE010E94A7122DA549EB50E066E7C4
S1132B1070E0CE010E94A7122EA549EB50E066E8B2
S1132B2070E0CE010E94A71208A919A920E030E0A4
S1132B3049EB50E066EA70E0CE010E9446132FEFA5
S1132B4081EE94E0215080409040E1F700C0000005
S1132B508091AA01882309F404CF7F927F920F2EDB
S1132B60812CF8EF9F2EF02D0F2EA12CF8E7BF2E0D
S1132B70F02DC12CD12C0F2EFBEFEF2EF0E0FF2E09
S1132B80F02D00EE10E020E431E040E150E060E0A0
S1132B9070E0CE010E9443271092AA011E860F9076
S1132BA00F90DFCE8F85882399F12FEF81EE94E08B
S1132BB0215080409040E1F700C000008091AA01BC
S1132BC0882309F4CECE7F927F920F2E812CF8EFCA
S1132BD09F2EF02D0F2EA12CF8E7BF2EF02DC12C27
S1132BE0D12C0F2EFBEFEF2EF0E0FF2EF02D00EE98
S1132BF010E020E431E040E150E060E070E0CE011C
S1132C000E9443271092AA011F860F900F90A9CE0D
S1132C108091A801882309F473C08A8581508A872A
S1132C20882314F41A8607C08130F9F020F082302A
S1132C3009F441C059C0E12CF12C0EE010E026E06B
S1132C4030E040EA50E062E070E0CE010E9460268D
S1132C50EE24EA94FE2C26E030E048EB50E062E0FB
S1132C6070E0CE010E9460263FC0EE24EA94FE2C60
S1132C700EE010E026E030E040EA50E062E070E070
S1132C80CE010E946026E12CF12C26E030E048EBD6
S1132C9050E062E070E0CE010E946026EE24EA94E7
S1132CA0FE2C26E030E040ED50E062E070E0CE0122
S1132CB00E94602619C0EE24EA94FE2C0EE010E077
S1132CC026E030E048EB50E062E070E0CE010E9484
S1132CD06026E12CF12C26E030E040ED50E062E08B
S1132CE070E0CE010E9460262FEF81EE94E0215027
S1132CF080409040E1F700C000001092A80177C026
S1132D008091A701882309F472C08A858F5F8A871E
S1132D10833014F05A8647C08130F9F020F08230B5
S1132D2009F05AC040C0E12CF12C0EE010E026E07E
S1132D3030E040EA50E062E070E0CE010E9460269C
S1132D40EE24EA94FE2C26E030E048EB50E062E00A
S1132D5070E0CE010E9460263FC0EE24EA94FE2C6F
S1132D600EE010E026E030E040EA50E062E070E07F
S1132D70CE010E946026E12CF12C26E030E048EBE5
S1132D8050E062E070E0CE010E946026EE24EA94F6
S1132D90FE2C26E030E040ED50E062E070E0CE0131
S1132DA00E94602619C0EE24EA94FE2C0EE010E086
S1132DB026E030E048EB50E062E070E0CE010E9493
S1132DC06026E12CF12C26E030E040ED50E062E09A
S1132DD070E0CE010E9460262FEF81EE94E0215036
S1132DE080409040E1F700C000001092A7018A855E
S1132DF0813081F1823009F465C08111B2CD8091B6
S1132E00AA01882319F01092AA0194C080918D011F
S1132E1081110EC0E12CF12C0EE010E026E030E030
S1132E2040EA50E062E070E0CE010E94602699CD55
S1132E30843009F096CDEE24EA94FE2C0EE010E0E6
S1132E4026E030E040EA50E062E070E0CE010E940B
S1132E50602687CD8091AA01882381F0E12CF12C92
S1132E6008EC10E022ED30E044E150E067E370E06C
S1132E70CE010E9460261092AA016E8680918D0177
S1132E8081110EC0E12CF12C0EE010E026E030E0C0
S1132E9048EB50E062E070E0CE010E94602661CD14
S1132EA0843009F05ECDEE24EA94FE2C0EE010E0AE
S1132EB026E030E048EB50E062E070E0CE010E9492
S1132EC060264FCD8091AA01882381F0E12CF12C5A
S1132ED008EC10E022ED30E044E150E067E370E0FC
S1132EE0CE010E9460261092AA016F8680918D0106
S1132EF081110EC0E12CF12C0EE010E026E030E050
S1132F0040ED50E062E070E0CE010E94602629CDE1
S1132F10843009F026CDEE24EA94FE2C0EE010E075
S1132F2026E030E040ED50E062E070E0CE010E9427
S1132F30602617CDDF91CF911F910F91FF90EF90F5
S1132F40DF90CF90BF90AF909F908F907F906F90C5
S1132F505F9008956F927F928F929F92AF92BF92EB
S1132F60CF92DF92EF92FF920F931F93CF93DF9351
S1132F70CDB7DEB7CC59D1090FB6F894DEBF0FBE7A
S1132F80CDBF4C010F2EF0EFCF2ED12CF02DDA82D5
S1132F90C98200E411E01C830B8386E08F831986C9
S1132FA01A861C86DE86CD86188B0F870F2EF3E0DB
S1132FB0BF2EF02DBA8EAA24A394AE8E1F8E1BA210
S1132FC01CA2CE010D960E947922DEA2CDA218A7E2
S1132FD00FA3BAAAAEAA1FAA1BAE1CAECE01859639
S1132FE00E947922DEAECDAE21961FAF0EAF21979F
S1132FF02B96BFAE2B972F96AFAE2F9760961FAE32
S1133000609764961FAE649765961FAE6597CE0170
S1133010CD960E9479226796DFAECEAE6797699609
S11330201FAF0EAF69978EE1A3968FAFA397A796B4
S11330301FAEA797A8961FAEA897AC961FAEAC97E5
S11330408CEC90E06B969FAF8EAF6B9782E390E031
S11330506D969FAF8EAF6D9786E490E06F969FAFAD
S11330608EAF6F97AF96DFAECEAEAF97E1961FAF40
S11330700EAFE1978AE0EB968FAFEB97EF961FAE1A
S1133080EF97C158DF4F1882CF57D040CD57DF4F4D
S11330901882C358D04081ED90E0E3969FAF8EAF85
S11330A0E3978AEF90E0E5969FAF8EAFE59780E5D2
S11330B090E0E7969FAF8EAFE797CB57DF4FD9826B
S11330C0C882C558D040C957DF4F19830883C758F1
S11330D0D040CE56DF4FB882C259D040CA56DF4FD7
S11330E01882C659D040C956DF4F1882C759D040FC
S11330F0C556DF4F1882CB59D04086ED90E0C757B4
S1133100DF4F99838883C958D04086E990E0C5573A
S1133110DF4F99838883CB58D0408EE690E0C35725
S1133120DF4F99838883CD58D040682C792C2BE0CD
S113313031E040E150E060E170E0C4010E942013FE
S1133140AA24AA94BA2CC12CD12C0F2EFBEDEF2E5D
S1133150F0E0FF2EF02D00E210E020E230E040E24B
S113316050E060E071E0C4010E9499260F2EF7E060
S1133170BF2EF02D6894AA24A3F8CE018B5A9F4F3A
S11331800E94BA22CE0183599F4F0E94BA22CE01D7
S11331908B579F4F0E94BA22F4018289811114C077
S11331A08091A1019091A201059728F4CE010D967A
S11331B00E94BA2215C0CE010D960E94BA22CE01F9
S11331C085960E94BA220CC0CE010D960E94BA22A6
S11331D0CE0185960E94BA22CE01CD960E94BA22D3
S11331E0F4018089811163C0848595859C01285CE4
S11331F031092B30310590F422E131E048E250E00E
S113320068E770E0862D972D0E94201384E08A8F52
S11332108AAB81E0F401808B838B49C09C012059E7
S113322031402B30310590F422E131E048E250E0A6
S113323068E770E0862D972D0E94201385E08A8F21
S11332408AAB81E0F401808B838B31C09C012855CB
S113325032402B30310590F422E131E048E250E075
S113326068E770E0862D972D0E94201386E08A8FF0
S11332708AAB81E0F401808B838B19C0885E934014
S11332800B97A8F429E131E048E250E068E770E0E8
S1133290862D972D0E942013BA8EBAAA2B96BFAE04
S11332A02B97AF8281E0F401808B828B838B00911A
S11332B0A1011091A201F4018485958580179107DD
S11332C009F441C01587048720E030E040E150E074
S11332D068E770E0862D972D0E9446131092A40192
S11332E0F4018389882379F183858F5F83879089AB
S11332F0911114C086303CF11386E12CF12C00E1CD
S113330010E020E630E048E250E068E770E0862D07
S1133310972D0E946026F401138A15C08B309CF00F
S1133320F4011386E12CF12C00E110E020E630E0FA
S113333048E250E068E770E0862D972D0E946026F1
S1133340F401108A138A8C8581110AC189A19AA17A
S11333508997829708F050C08CA18823B9F1E12C99
S1133360F12C04E110E024E130E040EA50E060E5B3
S113337070E0862D972D0E94602600E110E020E683
S113338030E048E250E068E770E0862D972D0E9417
S1133390602620E231E048E250E068E770E0862DE4
S11333A0972D0E9420138091A1019091A2010A9669
S11333B09093A2018093A10181E0F401838B1BA26D
S11333C01CA2CE010D960E94792216C024E231E09F
S11333D044E650E06AE570E0C4010E942013FFEF68
S11333E027EA81E6F15020408040E1F700C0000068
S11333F081E0F401808B17C189AD9AAD89978297DA
S113340008F050C08CAD8823B9F1E12CF12C04E113
S113341010E024E130E040EA50E060E570E0862D01
S1133420972D0E94602600E110E020E630E048E29B
S113343050E068E770E0862D972D0E94602620E218
S113344031E048E250E068E770E0862D972D0E9455
S113345020138091A1019091A2010A969093A20158
S11334608093A10181E0F401838B1BAE1CAECE01DD
S113347085960E94792216C024E231E044E650E0A9
S11334806AE570E0C4010E942013FFEF27EA81E699
S1133490F15020408040E1F700C0000081E0F401D9
S11334A0808BC1C063968EAD9FAD639789978297D9
S11334B008F056C065968FAD65978823D9F1E12C45
S11334C0F12C04E110E024E130E040EA50E060E552
S11334D070E0862D972D0E94602600E110E020E622
S11334E030E048E250E068E770E0862D972D0E94B6
S11334F0602620E231E048E250E068E770E0862D83
S1133500972D0E9420138091A1019091A2010A9607
S11335109093A2018093A10181E0F401838B6496CE
S11335201FAE649765961FAE6597CE01CD960E9437
S1133530792216C024E231E044E650E06AE570E006
S1133540C4010E942013FFEF27EA81E6F1502040D6
S11335508040E1F700C0000081E0F401808B63C08B
S11335608091A301811107C00E94ED13CE01019641
S11335700E94522402CE2EE231E044E650E068E795
S113358070E0862D972D0E9420138091A40188233A
S113359009F4F3CD24E331E044E650E068E770E059
S11335A0862D972D0E942013FFEF2DE389E4F1501F
S11335B020408040E1F700C000000F2EF5E0CF2E40
S11335C0D12CF02D2AE331E044E650E068E770E0C6
S11335D0862D972D0E9420139FEFE1EEF4E0915089
S11335E0E040F040E1F700C00000E12CF12C00E1E4
S11335F010E020E530E044E650E068E770E0862D16
S1133600972D0E9460262FEF81EE94E02150804098
S11336109040E1F700C00000E1E0CE1AD10891F635
S11336200E943525AACDC456DF4F0FB6F894DEBFED
S11336300FBECDBFDF91CF911F910F91FF90EF90FF
S1133640DF90CF90BF90AF909F908F907F906F90BE
S113365008959F92AF92BF92CF92DF92EF92FF9222
S11336600F931F93CF93DF93EC01C82EDD2EE12C33
S1133670F12C08EC10E022ED30E044E150E067E387
S113368070E00E94602620E431E042E350E060E50F
S113369070E0CE010E9420130C851D8520E030E0EF
S11336A044E650E066EA70E0CE010E94461381E4ED
S11336B08AAB8BAB8CAB8B870F2EF1E4AF2EF02D46
S11336C00F2EF3E09F2EF02D0F2EFAE5BF2EF02DD6
S11336D00E94ED132AA944E650E066E670E08C2DC2
S11336E09D2D0E94A7122BA944E650E066E770E0E6
S11336F08C2D9D2D0E94A7122CA944E650E066E86B
S113370070E08C2D9D2D0E94A7128091A601882324
S113371099F08B858150813414F08B8701C0BB866E
S11337202FEF81EE94E0215080409040E1F700C0FB
S113373000001092A601A9C08091A501882399F0E8
S11337408B858F5F8B3514F48B8701C0AB862FEF8D
S113375081EE94E0215080409040E1F700C00000E9
S11337601092A50192C08091A301882309F48DC011
S1133770AB868A858F5F8A87843014F09A866AC004
S1133780813021F138F0823009F448C0833009F0E7
S11337906FC060C0EE24EA94FE2C08E010E020E143
S11337A030E048E750E066E670E08C2D9D2D0E94E5
S11337B06026E12CF12C20E130E048E750E066E798
S11337C070E08C2D9D2D0E94602652C0E12CF12CBE
S11337D008E010E020E130E048E750E066E670E001
S11337E08C2D9D2D0E946026EE24EA94FE2C20E16F
S11337F030E048E750E066E770E08C2D9D2D0E9494
S11338006026E12CF12C20E130E048E750E066E846
S113381070E08C2D9D2D0E9460262AC0E12CF12C95
S113382008E010E020E130E048E750E066E770E0AF
S11338308C2D9D2D0E946026EE24EA94FE2C20E11E
S113384030E048E750E066E870E08C2D9D2D0E9442
S113385060260EC0E12CF12C08E010E020E130E0FD
S113386048E750E066E870E08C2D9D2D0E946026AC
S11338702FEF81EE94E0215080409040E1F700C0AA
S113388000001092A4011092A3018A85813099F15D
S11338901CF4882341F01CCF823009F454C08330D7
S11338A009F479C015CF8B858AAB80918D01811184
S11338B00FC0E12CF12C08E010E020E130E048E7F3
S11338C050E066E670E08C2D9D2D0E94602600CFAE
S11338D0843009F0FDCEEE24EA94FE2C08E010E0DA
S11338E020E130E048E750E066E670E08C2D9D2D45
S11338F00E946026EDCE8B858BAB80918D0181116A
S11339000FC0E12CF12C08E010E020E130E048E7A2
S113391050E066E770E08C2D9D2D0E946026D8CE85
S1133920843009F0D5CEEE24EA94FE2C08E010E0B1
S113393020E130E048E750E066E770E08C2D9D2DF3
S11339400E946026C5CE8B858CAB80918D01811140
S11339500FC0E12CF12C08E010E020E130E048E752
S113396050E066E870E08C2D9D2D0E946026B0CE5C
S1133970843009F0ADCEEE24EA94FE2C08E010E089
S113398020E130E048E750E066E870E08C2D9D2DA2
S11339900E9460269DCE8091A401882309F498CECC
S11339A0DF91CF911F910F91FF90EF90DF90CF9017
S11339B0BF90AF909F9008953F924F925F926F9205
S11339C07F928F929F92AF92BF92CF92DF92EF92AB
S11339D0FF920F931F93CF93DF932C01782E652CC6
S11339E060E070E00E941B268FEF8F938F930F2E61
S11339F0812CF8EF9F2EF02D0F2EA12CF8E7BF2E6F
S1133A00F02DC12CD12C0F2EF8E6EF2EF0E0FF2E76
S1133A10F02D08E210E028E230E04CE850E068E2E3
S1133A2070E0C2010E94432724E331E044E650E001
S1133A3068E770E0C2010E9420132FEF8DE399E440
S1133A40215080409040E1F700C000000F900F909B
S1133A50C5E0D0E02AE331E044E650E068E770E0F6
S1133A60872D962D0E942013EFEFF1EE24E0E15014
S1133A70F0402040E1F700C00000E12CF12C00E10F
S1133A8010E020E530E044E650E068E770E0872D80
S1133A90962D0E9460268FEF91EEE4E081509040D5
S1133AA0E040E1F700C000002197A1F633243A94E6
S1133AB03F923F920F2E812CF8E79F2EF02D0F2E70
S1133AC0A12CF8E3BF2EF02DC12CD12C0F2EFBE935
S1133AD0EF2EF9E1FF2EF02D00E310E020E430E0BA
S1133AE044EB50E0BE01872D962D0E944327C05C15
S1133AF0DF4F0F900F90C034F1E0DF07C9F60E944A
S1133B0035250E947914F2011286138615861486CF
S1133B10108A128A138A1092A2011092A101C20182
S1133B200E94AA17DF91CF911F910F91FF90EF9000
S1133B30DF90CF90BF90AF909F908F907F906F90C9
S1133B405F904F903F900895CF92DF92EF92FF9253
S1133B500F931F93CF93DF93EC012C853D8588A9A8
S1133B6099A98217930708F0CEC06894CC24C2F8B0
S1133B70D12C2BE431E044E650E06AE570E0CE015C
S1133B800E9420132FEF84E39CE02150804090405A
S1133B90E1F700C00000E12CF12C00E110E020E985
S1133BA030E044E650E06AE570E0CE010E94602611
S1133BB02FEF84E39CE0215080409040E1F700C067
S1133BC0000021E0C21AD108A1F60E9435250E9406
S1133BD07914CE010E94291B6C857D85888D998D71
S1133BE086179707C8F48AE090E00E94212A6AA900
S1133BF08EE690E00E940F2A6BA98FE690E00E9467
S1133C000F2A6CA980E790E00E940F2A60E081E708
S1133C1090E00E940F2A77C08E8D9F8D861797079C
S1133C20C8F484E190E00E94212A6AA988E790E020
S1133C300E940F2A6BA989E790E00E940F2A6CA9C1
S1133C408AE790E00E940F2A60E08BE790E00E94F0
S1133C500F2A59C08CA19DA186179707C8F48EE13D
S1133C6090E00E94212A6AA982E890E00E940F2A2B
S1133C706BA983E890E00E940F2A6CA984E890E085
S1133C800E940F2A60E085E890E00E940F2A3BC062
S1133C908AA59BA586179707C8F488E290E00E943E
S1133CA0212A6AA98CE890E00E940F2A6BA98DE86A
S1133CB090E00E940F2A6CA98EE890E00E940F2ADF
S1133CC060E08FE890E00E940F2A1DC088A999A99E
S1133CD086179707C0F482E390E00E94212A6AA91C
S1133CE086E990E00E940F2A6BA987E990E00E9480
S1133CF00F2A6CA988E990E00E940F2A60E089E904
S1133D0090E00E940F2ADF91CF911F910F91FF90B5
S1133D10EF90DF90CF90089560ED77E08AE090E037
S1133D200E94212A68EE73E084E190E00E94212A37
S1133D3060E273E08EE190E00E94212A68E572E07F
S1133D4088E290E00E94212A60E971E082E390E039
S1133D500E94212A6BE48EE690E00E940F2A60E51F
S1133D608FE690E00E940F2A6FE480E790E00E94C3
S1133D700F2A60E081E790E00E940F2A61E488E75F
S1133D8090E00E940F2A62E489E790E00E940F2AE3
S1133D9063E48AE790E00E940F2A60E08BE790E0FA
S1133DA00E940F2A64E482E890E00E940F2A65E4EE
S1133DB083E890E00E940F2A66E484E890E00E9481
S1133DC00F2A60E085E890E00E940F2A67E48CE8FF
S1133DD090E00E940F2A68E48DE890E00E940F2A88
S1133DE069E48EE890E00E940F2A60E08FE890E09A
S1133DF00E940F2A6AE486E990E00E940F2A6BE48D
S1133E0087E990E00E940F2A6CE488E990E00E9420
S1133E100F2A60E089E990E00E940F2A61E088ECB3
S1133E2090E00E940F2A0895CF93DF93EC018AE07B
S1133E3090E00E94092A998F888F84E190E00E9483
S1133E40092A9F8F8E8F8EE190E00E94092A9DA3FC
S1133E508CA388E290E00E94092A9BA78AA782E3A8
S1133E6090E00E94092A99AB88AB8EE690E00E940C
S1133E70012A8C8B8FE690E00E94012A8D8B80E7CB
S1133E8090E00E94012A8E8B81E790E00E94012A33
S1133E908F8B88E790E00E94012A8A8F89E790E05F
S1133EA00E94012A8B8F8AE790E00E94012A8C8F5E
S1133EB08BE790E00E94012A8D8F82E890E00E94B7
S1133EC0012A88A383E890E00E94012A89A384E858
S1133ED090E00E94012A8AA385E890E00E94012ACA
S1133EE08BA38CE890E00E94012A8EA38DE890E0D9
S1133EF00E94012A8FA38EE890E00E94012A88A7DD
S1133F008FE890E00E94012A89A786E990E00E9448
S1133F10012A8CA787E990E00E94012A8DA788E9ED
S1133F2090E00E94012A8EA789E990E00E94012A6C
S1133F308FA788EC90E00E94012A8EABDF91CF918D
S1133F4008958F929F92AF92BF92CF92DF92EF9299
S1133F50FF920F931F93CF93DF93EC018889811114
S1133F6043C0CE010E946A2560E0CE010E94BF25B5
S1133F706FEF7FEFCE010E941B268FEF8F938F93FD
S1133F800F2EFFE18F2E912CF02D0F2EA12CF8EF88
S1133F90BF2EF02DC12CD12C0F2EFBE7EF2EF2E11A
S1133FA0FF2EF02D00E610E020E331E046E450E07F
S1133FB068E070E0CE010E9443272FEF8BE792E97F
S1133FC0215080409040E1F700C000008BE59AE169
S1133FD09D838C831F821E828FEF9FEF9987888732
S1133FE081E0888B0F900F90CE010E94141F8EA940
S1133FF0813031F0CE010E948C1ECE010E94141F2C
S113400060E070E0CE010E941B268FEF8F938F93A8
S11340100F2E812CF8EF9F2EF02D0F2EA12CF8E7F8
S1134020BF2EF02DC12CD12C0F2EFBEFEF2EF0E084
S1134030FF2EF02D00EE10E020E431E040E150E0EE
S113404060E070E0CE010E9443272FEF81EE94E000
S1134050215080409040E1F700C000000E943525C7
S11340600E9479141A861B861D861C86188A1A8A51
S11340701B8A1092A2011092A101CE010E949A14EF
S11340800F900F90DF91CF911F910F91FF90EF90C0
S1134090DF90CF90BF90AF909F908F9008958F92B4
S11340A09F92AF92BF92CF92DF92EF92FF920F93C3
S11340B01F93CF93DF93EC018E859F85803321E09E
S11340C09207E4F560E371E0681B790B7D8B6C8BE0
S11340D08FEF8F938F930F2EFFEE8F2EFBE79F2E84
S11340E0F02D0F2EF7EEAF2EF9E3BF2EF02DC12CDD
S11340F0D12C0F2EFBE8EF2EFDE1FF2EF02D00E179
S113410010E020E130E044EA50E0CE010E94432771
S11341102D85022E000C330B2E5F3F4F8E859F851D
S113412060E471E0681B790BE12CF12C44EA50E067
S1134130CE010E9460260F900F900EC0E12CF12C4E
S113414000E110E028E130E044EA50E060E070E093
S1134150CE010E9460261E8ADF91CF911F910F919C
S1134160FF90EF90DF90CF90BF90AF909F908F9093
S113417008958F929F92AF92BF92CF92DF92EF9267
S1134180FF920F931F93CF93DF93EC018E859F854E
S1134190803321E09207E4F560E371E0681B790B5A
S11341A07D8B6C8B8FEF8F938F930F2EFFEE8F2E63
S11341B0FBE79F2EF02D0F2EF7EEAF2EF9E3BF2E67
S11341C0F02DC12CD12C0F2EFBE7EF2EFDE1FF2E9D
S11341D0F02D00E110E020E130E044EA50E0CE01AF
S11341E00E9443272D85022E000C330B2E5F3F4F78
S11341F08E859F8560E471E0681B790BE12CF12CBE
S113420044EA50E0CE010E9460260F900F9041C016
S11342108FEF8F938F930F2EF0EE8F2E99249A9415
S1134220F02D0F2EA12CF8EFBF2EF02DC12CD12C88
S11342300F2EFBE6EF2EFDE1FF2EF02D00E110E046
S113424020E130E044EA50E060E070E0CE010E94FA
S11342504327E12CF12C24E030E044EA50E060E113
S113426070E0CE010E94602680E391E09F878E87F4
S11342708C858F5F8C870F900F908A3154F028E1E2
S113428030E044EA50E060E070E0CE010E94602635
S11342901E8ADF91CF911F910F91FF90EF90DF90D5
S11342A0CF90BF90AF909F908F9008958F929F92E0
S11342B0AF92BF92CF92DF92EF92FF920F931F9330
S11342C0CF93DF93EC018E859F85803321E09207A5
S11342D0E4F560E371E0681B790B7D8B6C8B8FEFE9
S11342E08F938F930F2E812CF8EF9F2EF02D0F2E8E
S11342F0A12CF8E7BF2EF02DC12CD12C0F2EFBE5FD
S1134300EF2EFDE1FF2EF02D00E110E020E130E082
S113431044EA50E0CE010E9443272D85022E000C72
S1134320330B2E5F3F4F8E859F8560E471E0681BE1
S1134330790BE12CF12C44EA50E0CE010E94602676
S113434081E08F8B0F900F900FC0E12CF12C00E1D6
S113435010E028E130E044EA50E060E070E0CE0193
S11343600E9460261E8A1F8ADF91CF911F910F91B0
S1134370FF90EF90DF90CF90BF90AF909F908F9081
S11343800895CF93DF93FC01209190018285082E3C
S1134390000C990B422F50E084179507A9F022874F
S11343A0223071F4258586859785820F911D27FD1E
S11343B09A9597878687138A868981110BC022C0B4
S11343C086898823F9F024C086898823D9F08389D3
S11343D081111EC0EF018089843020F4CF010E9436
S11343E04F200DC09CEF980F923020F4CF010E9413
S11343F0562105C0863018F0CF010E94B92081E013
S11344008B8B06C0908980918F01981301C0128A0A
S1134410DF91CF910895AF92BF92CF92DF92EF9246
S1134420FF920F931F93CF93DF93FC012091900190
S11344308285082E000C990B422F50E084179507B3
S1134440B1F0228783858F5F8387213009F046C0CE
S1134450958598170CF042C013868685978501963A
S113446097878687138A8689882399F106C0868967
S1134470882379F18389811131C0EF0166817781C5
S113448086859785681B790B161617068CF4E480CD
S1134490F58040855185AA24AA94BA2CC12CD12C2C
S11344A00AE010E020E130E0CF010E9499260EC01E
S11344B040855185E12CF12C0AE010E024E130E044
S11344C060E070E0CF010E9460261E8A81E08B8B41
S11344D005C080E391E097838683128ADF91CF91B0
S11344E01F910F91FF90EF90DF90CF90BF90AF900E
S11344F008958F929F92AF92BF92CF92DF92EF92E4
S1134500FF92CF93DF93EC011D8A1C8A1A861C86C6
S11345101F861E8680909D0190909E01A0909F0111
S1134520B090A001A0919001B0E0A50194010E9477
S1134530E1290F2EFAE0CF2ED12CE12CF12CF02D15
S1134540A70196010E94BF29A62FB0E0A5019401FE
S11345500E94E129A70196010E94BF29688BDF917F
S1134560CF91FF90EF90DF90CF90BF90AF909F904E
S11345708F900895CF93DF93EC018A89811106C04F
S1134580CE010E94792281E08A8B8E8B89898823CF
S113459021F0CE010E94C12103C0CE010E940B2252
S11345A0DF91CF9108954F925F926F927F928F9295
S11345B09F92AF92BF92CF92DF92EF92FF920F93AE
S11345C01F93CF93DF93FC01209190018481082EE7
S11345D0000C990B422F50E084179507E9F12483CE
S11345E021113DC012863F01C0E0D0E0DD24DA9401
S11345F00F2EF8EF4F2EF02D5524539420918D015A
S113460030E02C173D0719F5DF92DF924F921F928D
S11346100F2E812CF8E79F2EF02DA12CB12CCC2E3F
S11346200F2EFBE2EF2EFFE1FF2EF02D08E210E04B
S113463028E230E04CE850E068E270E0C3010E94F8
S11346401528F30152860F900F900F900F9021962A
S1134650C630D10599F603C08285882321F2DF9103
S1134660CF911F910F91FF90EF90DF90CF90BF906B
S1134670AF909F908F907F906F905F904F90089530
S11346802F923F924F925F926F927F928F929F925E
S1134690AF92BF92CF92DF92EF92FF920F931F934C
S11346A0CF93DF93EC01209190018C81082E000CB4
S11346B0990B422F50E08417950709F4BFC02C834F
S11346C02111C0C08985882361F09F818E81890F63
S11346D08233FCF08D818F5F8D838830D9F4198605
S11346E019C08F819E81891B8F8318169CF0E12C41
S11346F0F12C09E110E028E230E043E750E068E201
S113470070E0CE010E9460261092AA0118861B86D2
S113471099C08F831A86612C712C0F2EFAE74F2EC5
S1134720512CF02DDD24DA940F2EF2E72F2E312CAC
S1134730F02D80918E0190E08615970509F075C0E3
S113474089858823C9F18F81A201481B510987FDFE
S11347505395DF92DF9288EF8F931F920F2E812C57
S1134760F8E79F2EF02DA12CB12CC62C0F2EFBE9BF
S1134770EF2EFDE1FF2EF02D02E310E020E230E009
S113478068E270E0CE010E9415288F814CEA50E067
S1134790481B510987FD5395E12CF12C08E010E0EA
S11347A020E230E068E270E0CE010E9460260F90C3
S11347B00F900F900F9037C08F81A201481B5109B1
S11347C087FD5395DF92DF9288EF8F931F920F2E10
S11347D0812CF8E79F2EF02DA12CB12CC62C0F2E86
S11347E0F3E8EF2EF1E2FF2EF02D0CE310E020E2CF
S11347F030E068E270E0CE010E94EA288F81A101D6
S1134800481B510987FD5395E12CF12C08E010E079
S113481020E230E068E270E0CE010E9460260F9052
S11348200F900F900F9081E08A878FEF681A780AB3
S113483084E06816710409F07CCF04C08A8588235B
S113484009F469CFDF91CF911F910F91FF90EF9001
S1134850DF90CF90BF90AF909F908F907F906F909C
S11348605F904F903F902F900895EF92FF920F9397
S11348701F93CF93DF93EC01E12CF12C08E210E0BD
S113488028E230E04CE850E068E270E00E946026E4
S11348901C821D821F82DF91CF911F910F91FF9087
S11348A0EF900895CF93DF93EC018091AA018823C0
S11348B059F08885811108C0CE010E94352481E019
S11348C0888789878B8707C08B85811104C0CE01B7
S11348D00E94D32203C0CE010E944023DF91CF91D6
S11348E00895813089F08230E1F0811126C024B12D
S11348F081E090E002C0880F991F6A95E2F7822B4D
S113490084B985B185B9089527B181E090E002C0EA
S1134910880F991F6A95E2F7822B87B988B188B905
S113492008952AB181E090E002C0880F991F6A952A
S1134930E2F7822B8AB98BB18BB9089561958130E6
S113494039F0823041F0811108C064B915B8089576
S113495067B918B808956AB91BB808959DB321E0E2
S113496030E002C0220F331F8A95E2F7292B2DBBBA
S1134970613039F0623049F061110AC01092690067
S113498008958AE08093690008958FE08093690018
S11349900895813099F18230B1F081114FC06111D5
S11349A008C081E080936E0014BC85E085BD16BC10
S11349B0089582E080936E0084BD85E085BD16BCB9
S11349C08FEF87BD089561110BC081E08093700063
S11349D01092B00084E08093B1001092B200089568
S11349E082E0809370008093B00084E08093B100F3
S11349F01092B20089EF8093B300089561110DC045
S1134A0081E080936F001092800085E080938100A4
S1134A101092850010928400089582E080936F00C4
S1134A20109280008DE08093810010928500109296
S1134A308400109289008FEF80938800089580E5A8
S1134A408CBD81E08DBD089586B1806C8093AC01EE
S1134A508091AC019091AB01809589238093AD0145
S1134A608091AC018093AB0108951092AA01109239
S1134A70A9011092A8011092A7011092A601109208
S1134A80A5011092A4011092A30108956EBD0DB466
S1134A9007FEFDCF08952A9828980E944625289A53
S1134AA008952A9A28980E944625289A08951F93C3
S1134AB0CF93DF93EC01162F672F2A9A28980E9430
S1134AC04625612FCE010E944625289ADF91CF9179
S1134AD01F910895CF93DF93EC01289A29982FEF23
S1134AE089EF90E0215080409040E1F700C0000041
S1134AF0299A2FEF89E698E1215080409040E1F710
S1134B0000C0000061E0CE010E944B252FEF89EF29
S1134B1090E0215080409040E1F700C0000060EC3C
S1134B20CE010E944B256BE2CE010E94512566E323
S1134B30CE010E944B2568E4CE010E9451256AE310
S1134B40CE010E944B2565E5CE010E94512560E20D
S1134B50CE010E944B2561E1CE010E944B252FEF2F
S1134B608DEE92E0215080409040E1F700C00000BB
S1134B7069E2CE010E944B25DF91CF9108951F93E6
S1134B80CF93DF93EC01162F66E30E944B2511307F
S1134B9089F01230A1F0111116C068E2CE010E9412
S1134BA05125888199812A813B81398328839B837C
S1134BB08A8309C068E4CE010E94512504C068E8D4
S1134BC0CE010E945125DF91CF911F910895AF929C
S1134BD0BF92CF92DF92EF92FF920F931F93CF93E6
S1134BE0DF93EC015B017A0169016AE20E944B25C3
S1134BF0B501CE010E945725B601CE010E9457256A
S1134C006BE2CE010E944B25B701CE010E945725CD
S1134C10B801CE010E9457256CE2CE010E944B25BB
S1134C20DF91CF911F910F91FF90EF90DF90CF9084
S1134C30BF90AF900895CF92DF92EF92FF920F93BF
S1134C401F93CF93DF937C016B01FC0102811381DD
S1134C5001501109208131812150310940E050E097
S1134C6060E070E00E94E725F701828193811816C5
S1134C701906ECF400E010E0F70180819181181628
S1134C8019066CF4C0E0D0E0B601C7010E945725B4
S1134C902196F70180819181C817D907ACF30F5F82
S1134CA01F4FF70182819381081719072CF3DF91B5
S1134CB0CF911F910F91FF90EF90DF90CF900895C7
S1134CC08F929F92AF92BF92CF92DF92EF92FF9218
S1134CD00F931F93CF93DF936C01490158018A010D
S1134CE00A0D1B1D015011099B01280D391D21506E
S1134CF031090E94E7251A141B0474F418141904CA
S1134D003CF4E401B701C6010E9457252197D1F76D
S1134D1081E0A81AB10891F7DF91CF911F910F910B
S1134D20FF90EF90DF90CF90BF90AF909F908F90C7
S1134D3008953F924F925F926F927F928F929F92CB
S1134D40AF92BF92CF92DF92EF92FF920F931F9395
S1134D50CF93DF93CDB7DEB72A970FB6F894DEBFB3
S1134D600FBECDBF4C0139011A830983040F151FEF
S1134D70015011099B01260D371D215031090E9454
S1134D80E72589819A8199230CF401969C01359534
S1134D90279538872F83121613060CF05CC0C301C5
S1134DA099230CF40F96FC01F595E795F595E79595
S1134DB0F595E795F595E795FC83EB83FE83ED8305
S1134DC06E2C7F2C1A8219826894EE24E1F8F12C5F
S1134DD04D805E80460C571C2B813C8112161306B5
S1134DE03CF58301F801349028E030E03A872987C4
S1134DF033204CF4B501C4010E945725B501C40108
S1134E000E94572508C0B601C4010E945725B60167
S1134E10C4010E945725330C89859A8501979A8786
S1134E208987892B29F70F5F1F4F04151505D1F6C4
S1134E3091E0E91AF10881F6E981FA813196FA8361
S1134E40E9832D813E81620E731E8F819885E81758
S1134E50F90709F0B9CF2A960FB6F894DEBF0FBE52
S1134E60CDBFDF91CF911F910F91FF90EF90DF9015
S1134E70CF90BF90AF909F908F907F906F905F90F6
S1134E804F903F9008952F923F924F925F926F926E
S1134E907F928F929F92AF92BF92CF92DF92EF92C6
S1134EA0FF920F931F93CF93DF93CDB7DEB7609735
S1134EB00FB6F894DEBF0FBECDBF988B8F87290144
S1134EC03801DA82C982BA86A9869C868B868A01D1
S1134ED0060D171D015011099B01240D351D21508C
S1134EE031090E94E725C30199230CF401969C0122
S1134EF0359527953E872D87121613060CF07CC036
S1134F00C20199230CF40796FC01F595E795F595F4
S1134F10E795F595E795FE83ED83F887EF836E2C8F
S1134F207F2C212C312C6894AA24A1F8B12C8F80D9
S1134F309884860C971C7C826B824F8458882D81C0
S1134F403E81121613060CF043C0EB80FC80F7017F
S1134F50C4906894662462F8712CDC2CD694D694A0
S1134F60D694D694D694D69402E010E0D11006C01C
S1134F7069817A81C2010E9457251AC0F1E0DF12CB
S1134F8006C069857A85C2010E94572511C022E0B6
S1134F90D21206C06B857C85C2010E94572508C0C9
S1134FA033E0D31205C06DA17EA1C2010E94572532
S1134FB001501109D9F6CC0CCC0C81E0681A7108A7
S1134FC061F69FEFE91AF90AE814F90409F0BFCF72
S1134FD0E1E0AE1AB10809F0B2CF6B807C80FFEF3C
S1134FE02F1A3F0A2F813885620E731E8D859E8588
S1134FF02816390609F097CF60960FB6F894DEBFED
S11350000FBECDBFDF91CF911F910F91FF90EF9015
S1135010DF90CF90BF90AF909F908F907F906F90D4
S11350205F904F903F902F9008952F923F924F9210
S11350305F926F927F928F929F92AF92BF92CF9224
S1135040DF92EF92FF920F931F93CF93DF93CDB72D
S1135050DEB72E970FB6F894DEBF0FBECDBF9E8786
S11350608D8729013801BA82A9829A8689868A01A4
S1135070060D171D015011099B01240D351D2150EA
S113508031090E94E725C30199230CF401969C0180
S1135090359527953C872B87121613060CF081C093
S11350A0C20199230CF40796FC01F595E795F59553
S11350B0E795F595E795FE83ED83F887EF83370150
S11350C0FC2D24E6F202600C711C1124212C312CDD
S11350D06894AA24A1F8B12C8F809884860C971C1C
S11350E07C826B824D845E848D819E8118161906A4
S11350F00CF043C0EB80FC80F701C49068946624F4
S113510062F8712CDC2CD694D694D694D694D6948A
S1135110D69402E010E0D11006C069817A81C20100
S11351200E9457251AC0F1E0DF1206C069857A850E
S1135130C2010E94572511C022E0D21206C06BA101
S11351407CA1C2010E94572508C033E0D31205C0D8
S11351506DA17EA1C2010E94572501501109D9F603
S1135160CC0CCC0C81E0681A710861F69FEFE91A47
S1135170F90A8E149F0409F0BFCFE1E0AE1AB1081A
S113518009F0B2CF6B807C80FFEF2F1A3F0A2F818A
S11351903885620E731E8B859C852816390609F0A6
S11351A097CF2E960FB6F894DEBF0FBECDBFDF911A
S11351B0CF911F910F91FF90EF90DF90CF90BF9010
S11351C0AF909F908F907F906F905F904F903F90A3
S11351D02F9008952F923F924F925F926F927F92F9
S11351E08F929F92AF92BF92CF92DF92EF92FF92F3
S11351F00F931F93CF93DF93CDB7DEB72E970FB6E0
S1135200F894DEBF0FBECDBF9E878D87290138017C
S1135210BA82A9829A8689868A01060D171D0150D1
S113522011099B01240D351D215031090E94E725E8
S1135230C30199230CF401969C01359527953C876D
S11352402B87121613060CF081C0C20199230CF4AB
S11352500796FC01F595E795F595E795F595E7959E
S1135260FE83ED83F887EF833701FC2D28E7F202F4
S1135270600C711C1124212C312C6894AA24A1F8EF
S1135280B12C8F809884860C971C7C826B824D8411
S11352905E848D819E81181619060CF043C0EB8044
S11352A0FC80F701C4906894662462F8712CDC2CAD
S11352B0D694D694D694D694D694D69402E010E09C
S11352C0D11006C069817A81C2010E9457251AC093
S11352D0F1E0DF1206C069857A85C2010E94572574
S11352E011C022E0D21206C06BA17CA1C2010E94AF
S11352F0572508C033E0D31205C06DA17EA1C201B9
S11353000E94572501501109D9F6CC0CCC0C81E030
S1135310681A710861F69FEFE91AF90A8E149F045E
S113532009F0BFCFE1E0AE1AB10809F0B2CF6B804B
S11353307C80FFEF2F1A3F0A2F813885620E731E7F
S11353408B859C852816390609F097CF2E960FB6C3
S1135350F894DEBF0FBECDBFDF91CF911F910F91A7
S1135360FF90EF90DF90CF90BF90AF909F908F9081
S11353707F906F905F904F903F902F900895A1E29F
S11353801A2EAA1BBB1BFD010DC0AA1FBB1FEE1FBB
S1135390FF1FA217B307E407F50720F0A21BB30B06
S11353A0E40BF50B661F771F881F991F1A9469F782
S11353B060957095809590959B01AC01BD01CF01DE
S11353C008950E94F229A59F900DB49F900DA49F6B
S11353D0800D911D11240895EE0FFF1F0590F49187
S11353E0E02D0994A29FB001B39FC001A39F700D4B
S11353F0811D1124911DB29F700D811D1124911DD9
S11354000895F999FECF92BD81BDF89A992780B588
S11354100895A8E1B0E042E050E00C94292A262F38
S1135420F999FECF92BD81BDF89A019700B4021696
S113543039F01FBA20BD0FB6F894FA9AF99A0FBE44
S113544008950196272F0E94102A0C940F2ADC013C
S1135450CB01FC01F999FECF06C0F2BDE1BDF89A7B
S1135460319600B40D9241505040B8F70895F89425
S1055470FFCF68
S1135472013100320033003400350053636F72652A
S11354823A0053706565642B00426C6F636B2B00AA
S11354922B31300047414D45204F56455200506153
S11354A275736500526561647900537461727400A6
S11354B24E616D652053636F7265004E45572053EC
S10954C2434F52450000B7
S9030000FC
