S012000041546D656761333238502E73726563F6
S11300000C9435000C9452000C9452000C94520041
S11300100C9452000C9452000C9452000C94520014
S11300200C9452000C9452000C9452000C94520004
S11300300C9452000C9452000C9452000C945200F4
S11300400C9452000C9452000C9452000C945200E4
S11300500C9452000C9452000C9452000C945200D4
S11300600C9452000C945200EC0011241FBECFEFEC
S1130070D8E0DEBFCDBF23E0A0E0B1E001C01D9217
S1130080AE35B207E1F710E0C5E3D0E004C0219734
S1130090FE010E947002C433D107C9F70E945400C4
S11300A00C9476020C94000061E080E00E94FB0056
S11300B080E091E00E942F0161E080E091E00E94E5
S11300C0840160E070E080E091E00E94F6010F2E70
S11300D0E12CF8EFFF2EF02D0FE110E028E530E0E1
S11300E040E050E066E470E080E091E00E943B0272
S11300F00F2EF0EEEF2EF7E0FF2EF02D2DE230E084
S113010046E450E066E470E080E091E00E943B0247
S11301100F2EFFE1EF2EF12CF02D27E430E04CE818
S113012050E066E470E080E091E00E943B022FEF33
S113013083E294EF215080409040E1F700C000003A
S113014060E078EF80E091E00E94F6012FEF89E60D
S113015098E1215080409040E1F700C0000060E247
S11301607DEF80E091E00E94F6012FEF89E698E1AF
S1130170215080409040E1F700C0000060EE7FEF26
S113018080E091E00E94F6012FEF89E698E121508A
S113019080409040E1F700C0000060EE77E080E02E
S11301A091E00E94F6012FEF89E698E1215080400A
S11301B09040E1F700C000006FE170E080E091E062
S11301C00E94F6012FEF89E698E12150804090408B
S11301D0E1F700C00000B4CF80E58CBD81E08DBDA7
S11301E0E0E0F1E080EF90E09183808380E491E0AF
S11301F09383828308956195813039F0823041F090
S1130200811108C064B915B8089567B918B808957C
S11302106AB91BB808956EBD0DB407FEFDCF0895ED
S11302202A9828980E940B01289A08952A9A2898B7
S11302300E940B01289A08951F93CF93DF93EC013A
S1130240162F672F2A9A28980E940B01612FCE013E
S11302500E940B01289ADF91CF911F910895CF93AB
S1130260DF93EC01289A29982FEF89EF90E0215031
S113027080409040E1F700C00000299A2FEF89E602
S113028098E1215080409040E1F700C0000061E017
S1130290CE010E9410012FEF89EF90E021508040A1
S11302A09040E1F700C0000060ECCE010E94100114
S11302B06BE2CE010E94160166E3CE010E9410019A
S11302C068E4CE010E9416016AE3CE010E94100187
S11302D065E5CE010E94160160E2CE010E94100184
S11302E061E1CE010E9410012FEF89EF90E02150CF
S11302F080409040E1F700C0000069E2CE010E9416
S11303001001DF91CF9108951F93CF93DF93EC01F8
S1130310162F66E30E9410011130C1F01CF4112362
S113032031F02CC01230B9F01330D1F027C068E29C
S1130330CE010E941601888199819D838C832A8134
S11303403B81398328839B838A8318C068E4CE0168
S11303500E94160113C068E8CE010E9416010EC067
S113036068EECE010E941601888199819D838C8359
S11303702A813B81398328839B838A83DF91CF91B0
S11303801F910895AF92BF92CF92DF92EF92FF92A6
S11303900F931F93CF93DF93EC015B017A01690103
S11303A06AE20E941001B501CE010E941C01B6014F
S11303B0CE010E941C016BE2CE010E941001B70124
S11303C0CE010E941C01B801CE010E941C016CE206
S11303D0CE010E941001DF91CF911F910F91FF90E8
S11303E0EF90DF90CF90BF90AF900895CF92DF92BF
S11303F0EF92FF920F931F93CF93DF937C016B01D6
S1130400FC010281138101501109208131812150A5
S1130410310940E050E060E070E00E94C201F70161
S11304208281938118161906ECF400E010E0F701BC
S113043080819181181619066CF4C0E0D0E0B601F1
S1130440C7010E941C012196F70180819181C81780
S1130450D907ACF30F5F1F4FF7018281938108170F
S113046019072CF3DF91CF911F910F91FF90EF901B
S1130470DF90CF900895AF92BF92CF92DF92EF9228
S1130480FF920F931F93CF93DF936C015901E801FF
S11304908A010C0F1D1F015011099B012A0D3B1DE0
S11304A0215031090E94C2011C161D0674F48E01EC
S11304B01A141B043CF4E501B701C6010E941C0197
S11304C02197D1F70150110999F7DF91CF911F912D
S11304D00F91FF90EF90DF90CF90BF90AF90089571
S11304E0EE0FFF1F0590F491E02D0994F894FFCFCF
S9030000FC
