:100000000C9471060C9499060C9499060C9499061C
:100010000C9499060C9499060C9499060C94D306AA
:100020000C9499060C9499060C9499060C94BC06B1
:100030000C9499060C9499060C9499060C949906C4
:100040000C9499060C9499060C9499060C949906B4
:100050000C9499060C9499060C9499060C949906A4
:100060000C9499060C9499060030000010000000D2
:10007000000000000000000000786C283C66203082
:1000800018305418000000060078247C600C5010D2
:10009000301838180000000C007800283818340098
:1000A0003018107E007E00180030007C0C304800B4
:1000B000301838180000003000000028786634003E
:1000C00018305418000000600030000010000000DC
:1000D00000000000300030000000000000000000C0
:1000E00000000000100000003818FCFC06FE7CFE3A
:1000F0007C7C00000000007C4C380606C6C0C006B0
:10010000C6C60000180030C6C618063CC6FCFC0671
:100110007CC63030307C1806C6187C06C606C60C75
:10012000C6C6000060000C06C618C006C606C61883
:10013000C67E0000307C183C6418C006FE06C6303F
:10014000C606303018003000383CFEFC06FC7C301F
:100150007C7C001000000030000000000000000067
:1001600000000000000000007C7CFC7EFCFEFE7CA9
:10017000C63C1EC6C0C6C67CC6C6C6C0C6C0C0C6B3
:10018000C61806C6C0EEE6C6C6C6C6C0C6C0C0C053
:10019000C61806CCC0FEF6C6D6C6FCC0C6F8FCDE45
:1001A000FE1806F8C0D6DEC6DCFEC6C0C6C0C0C695
:1001B000C61806CCC0C6CEC6C0C6C6C0C6C0C0C65D
:1001C000C618C6C6C0C6C6C67CC6FC7EFCFEC07EBF
:1001D000C63C7CC6FEC6C67C0000000000000000D5
:1001E0000000000000000000FC7CFC7E7EC6C6C64D
:1001F000C666FE0000000000C6C6C6C018C6C6C659
:10020000C666063860381000C6C6C6C018C6C6C660
:100210006C660C3030183800C6C6C67C18C6C6D608
:10022000383C383018186C00FCDEFC0618C66CFE32
:100230006C1860300C184400C0CCC60618C638EEE6
:10024000C618C03806380000C076C6FC187C10C638
:10025000C618FE00000000FE0000000000000000C4
:1002600000000000000000000000C00006003E008A
:10027000C0180CC038000000607CFC7E7E7C607E74
:10028000C00000C618FCFC7C2006C6C0C6C660C6FE
:10029000FC381CCC18D6C6C6007EC6C0C6C6FCC676
:1002A000C6180CF818D6C6C600C6C6C0C6FC60C6BE
:1002B000C6180CCC18D6C6C600C6C6C0C6C0607E5E
:1002C000C6180CC618D6C6C6007EFC7E7E7C6006AC
:1002D000C6180CC618D6C67C000000000000007CC2
:1002E000000078000000000000000000180000007E
:1002F0000000000000000000FC7EFC7C18C6C6D692
:10030000C6C6FE3810380000C6C6C6C07EC6C6D6F1
:100310006CC60C3010183000C6C6C07C18C6C6D6D5
:1003200038C63860100C5A00C6C6C00618C66CD64F
:100330006CC6603010180C00C6C6C00618C638D689
:10034000C67EC03810380000FC7EC07C187E107E4F
:10035000C606FE0000000000C0060000000000000D
:10036000007C000000000000FFFFFFFFFFFFFFFF19
:10037000FFFFFFFFFFFFFFFFFFFFFFFFFFFFFFFF8D
:10038000FFFFFFFFFFFFFFFFFFFFFFFFFFFFFFFF7D
:10039000FFFFD55FF57FFFFFFFFFFFFFFFFFFFFFC1
:1003A000FFFFD5FF7FFFFFFFFFFFFFFFFFFFFFFF07
:1003B000FFFFFFFFFFFFFFFFD55FF57FFFFFFFFFA1
:1003C000FFFFFFFFFFFFFFFFD5FDFFFFFFFFFFFF69
:1003D000FFFFFFFFFFFFFFFFFFFFFFFFFFFF555F77
:1003E000F57FFFFFFFFFFFFFFFFFFFFFFFFFD5FFD1
:1003F000FFFFFFFFFFFFFFFFFFFFFFFFFFFFFFFF0D
:10040000FFFFFFFD555FF57FFFFFFFFFFFFFFFFFD2
:10041000FFFFFFFFD5FFFFFFFFFFFFFFFFFFFFFF16
:10042000FFFFFFFFFFFFFFFFFFF55D5FF57FFFFFB2
:10043000FFFFFFFFFFFFFFFFFFFFD5FFFFFFFFFFF6
:10044000FFFFFFFFFFFFFFFFFFFFFFFFFFFFFFD5E6
:100450007D5FF55FFFFFF57FFFD5FFFFFFD55FFFF6
:10046000D5FFFFFFFFFFFFFFFFFFFFFFFFFFFFFFC6
:10047000FFFFFFFFFF55FD5F55555FFF5557F555D2
:100480005FFFF55555FFD5FFFFFFFFFFFFFFFFFFA4
:10049000FFFFFFFFFFFFFFFFFFFFFF57FD5F55550A
:1004A0005FFD5555555557FFD555557FD5FFFFFF76
:1004B000FFFFFFFFFFFFFFFFFFFFFFFFFFFFFFFF4C
:1004C000FD57FD5F55555FF55555555555FF555F22
:1004D000D55FD5FFFFFFFFFFFFFFFFFFFFFFFFFF20
:1004E000FFFFFFFFFFFFF55FFD5FF57FFFD55FF5C6
:1004F00055FF55FF55FFF55FD5FFFFFFFFFFFFFFDE
:10050000FFFFFFFFFFFFFFFFFFFFFFFFD57FFD5F47
:10051000F57FFFD57FFD57FFD5FD57FFFD57D5FF71
:10052000FFFFFFFFFFFFFFFFFFFFFFFFFFFFFFFFDB
:10053000FFFF55FFFD5FF57FFFD5FFFD5FFFD57D19
:1005400057FFFD57D5FFFFFFFFFFFFFFFFFFFFFF37
:10055000FFFFFFFFFFFFFFFD5555FD5FF57FFFD557
:10056000FFFD5FFFD57D55555557D5FFFFFFFFFFB9
:10057000FFFFFFFFFFFFFFFFFFFFFFFFFFF55555E9
:10058000FD5FF57FFFD5FFFD5FFFD57D55555557C5
:10059000D5FFFFFFFFFFFFFFFFFFFFFFFFFFFFFF95
:1005A000FFFFFFF55557FD5FF57FFFD5FFFD5FFFAF
:1005B000D57D55555557D5FFFFFFFFFFFFFFFFFFC7
:1005C000FFFFFFFFFFFFFFFFFFD57FFFFD5FF57F11
:1005D000FFD5FFFD5FFFD57D5FFFFFFFD57FFFFFED
:1005E000FFFFFFFFFFFFFFFFFFFFFFFFFFFFFF55C5
:1005F000FFFFFD5FF55FFFD5FFFD5FFFD57D57FF77
:10060000FFFFD57FFFFFFFFFFFFFFFFFFFFFFFFFA4
:10061000FFFFFFFFFD57FFFFFD5FFD57FFD5FFFD0C
:100620005FFFD57F55FFFD5FF55FFFFFFFFFFFFF1A
:10063000FFFFFFFFFFFFFFFFFFFFF55FFFFFFD5F16
:10064000FD555FD5FFFD5FFFD57F557FD55FF55524
:100650007FFFFFFFFFFFFFFFFFFFFFFFFFFFFFFF2A
:10066000D57FFFFFFD5FFF555FD5FFFD5FFFD57FA6
:10067000D555557FFD557FFFFFFFFFFFFFFFFFFFB4
:10068000FFFFFFFFFFFF55FFFFFFFD5FFFD55FD5BA
:10069000FFFD5FFFD57FF55555FFFF557FFFFFFF3E
:1006A000FFFFFFFFFFFFFFFFFFFFFFFF57FFFFFF02
:1006B000FFFFFFFFFFFFFFFFFFFFFFFFFFD55FFF14
:1006C000FFFFFFFFFFFFFFFFFFFFFFFFFFFFFFFF3A
:1006D000FFFFFFFFFFFFFFFFFFFFFEAAAABFFFFF15
:1006E000FFFFFFFFFFFFFFFFFFFFFFFFFFFFFFFF1A
:1006F000FFFFFFFFFFFFFFFFFFFFFFFFFFFFFFFF0A
:10070000EAAAAAAFAFFFFFFFFFFFFFFFFFFFFFFF58
:10071000FFFFFFFFFFFFFFFFFFFFFFFFFFFFFFFFE9
:10072000FFFFFFFFFFFFAAAAAAABFFFFFFFFFFFF2C
:10073000FFFFFFFFFFFFFFFFFFFFFFFFFFFFFFFFC9
:10074000FFFFFFFFFFFFFFFFFFFFFFFEAAAAAAAA0E
:10075000FFFFFFFFFFFFFFFFFFFFFFFFFFFFFFFFA9
:10076000FFFFFFFFFFFFFFFFFFFFFFFFFFFFFFFF99
:10077000FFFAAAAAAAAAFFFFFF0FFFF0FFFFFFFFE1
:10078000FFFFFFFFFFFFFFFFFFFFFFFFFFFFFFFF79
:10079000FFFFFFFFFFFFFFEAABEAAAFABFFFFC0380
:1007A000FFC03FFFFFFFFFFFFFFFFFFFFFFFFFFF58
:1007B000FFFFFFFFFFFFFFFFFFFFFFFFFFAAAFFAF3
:1007C000ABFEBFFFFC03FFC03FFFFFFFFFFFFFFFCC
:1007D000FFFFFFFFFFFFFFFFFFFFFFFFFFFFFFFF29
:1007E000FFFFFFAABFFAAFFEAFFFFC03FFC03FFF52
:1007F000FFFFFFFFFFFFFFFFFFFFFFFFFFFFFFFF09
:10080000FFFFFFFFFFFFFFFFFEAAFFFEAFFFABFFF3
:10081000FC00FF003F0FC0003F0000FF0000FF0092
:10082000003C3FF0F0FC0003FFFFFFFFFFFFFEAACC
:10083000BFFEAFFFEBFFF000FF003F0F00000F0017
:10084000003F0000FC00003C3FF0F0F00000FFFF24
:10085000FFFFFFFFFEAABFFFABFFEAFFF0003C0077
:100860003F0F00000F00003C00003C00003C3FF048
:10087000F0F00000FFFFFFFFFFFFFEAFAFFFEBFF59
:10088000FABFF0303C0C0F0F03FFFF0FFC3C0FF0E2
:100890003C0FFFFC3FF0F0F03FF0FFFFFFFFFFFFDA
:1008A000FEAFABFFEAFFFEBFF0303C0C0F0F0FFFB7
:1008B000FF0FFC3C3FFC3C3FFFFC0000F0F03FF032
:1008C000FFFFFFFFFFFFFEBFEBFFFAFFFEAFF03CB5
:1008D000003C0F0F0FFFFF0FFC3C3FFC3C3FFFFCB9
:1008E0000000F0F03FF0FFFFFFFFFFFFFEFFFAFF09
:1008F000FEBFFFAFF03C003C0F0F0FFFFF00003CBE
:100900003FFC3C3FFFFC0000F0F00000FFFFFFFF5A
:10091000FFFFFFFFFAFFFEAFFFEFF03C003C0F0FC1
:100920000FFFFF00003C3FFC3C3FFFFC3FF0F0F0BE
:100930000003FFFFFFFFFFFFFFFFFABFFFAFFFFF57
:10094000F03F00FC0F0F03FFFF0FFC3C0FF03C0FCC
:10095000FFFC3FF0F0F03FFFFFFFFFFFFFFFFFFF57
:10096000EAAFFEABFFFFF03F00FC0F0F00000F0FE0
:10097000FC3C00003C00003C3FF0F0F03FFFFFFF7C
:10098000FFFFFFFFFFFFAAAFFEAAFFFFF03FC3FC80
:100990000F0FC0000F0FFC3F0000FF00003C3FF0B6
:1009A000F0F03FFFFFFFFFFFFFFFFFFFAAABFAAA38
:1009B000FFFFFCFFFFFF3FFFFFFFFFFFFFFFFFFF0A
:1009C000FFFFFFFFFFFFFFFCFFFFFFFFFFFFFFFF3A
:1009D000FFFEAAAAEAAABFFFFFFFFFFFFFFFFFFF7C
:1009E000FFFFFFFFFFFFFFFFFFFFFFFFFFFFFFFF17
:1009F000FFFFFFFFFFFFFFFAAAAAAAAABFFFFFFFA0
:100A0000FFFFFFFFFFFFFFFFFFFFFFFFFFFFFFFFF6
:100A1000FFFFFFFFFFFFFFFFFFFFFFFFFFFEAAAA91
:100A2000AAAABFFFFFFFFFFFFFFFFFFFFFFFFFFFC0
:100A3000FFFFFFFFFFFFFFFFFFFFFFFFFFFFFFFFC6
:100A4000FFFFFFFFEAAAAAAAFFFFFFFFFFFFFFFFCA
:100A5000FFFFFFFFFFFFFFFFFFFFFFFFFFFFFFFFA6
:100A6000FFFFFFFFFFFFFFFFFFFFFEAAAAAFFFFF91
:100A7000FFFFFFFFFFFFFFFFFFFFFFFFFFFFFFFF86
:100A8000FFFFFFFFFFFFFFFF000000000000000F5F
:100A9000FC0000F0FAABC003FFAAAAB003EAAAAABE
:100AA000AC00FAAAAAFC000D6AAFFF000D5D5FFF63
:100AB0000003D7FF3C000035573C0000F557FC0011
:100AC00003AA57F0003EAA607000EAA9807003AA4A
:100AD000A980C00EAA9602C00E95680700396A80E8
:100AE00003000EB550030003CD400C00000000FFD2
:100AF000C000000FAAB000003AAAAC00F3EAAAFCBA
:100B000003FEAAAAFF03EAAAABFF00F5AA9FFC0016
:100B10000D555F3C0003F75F3C000039F7F0000023
:100B2000E954700003AA9870000EAA60C0003AAAA7
:100B300060C000EAA980C003AAA980C00EAA9600DE
:100B4000C0395568C3000EAA833C0003FC0C0000AA
:100B500000000FFFF000003AAAAC0000EAAAFF0074
:100B600003AAABFF003FAAABFF00FEAAAF3C00FA0E
:100B7000AAB73C003D55D7FC0003D5D7F00003A928
:100B80005470000EAA60B0003AA980B0003AA602E4
:100B9000B000EAA602C000EA9800C000EA9800C0CF
:100BA000039558F0C000EAA30CC0003C0C03000001
:100BB000033000000000FFFFC00003AAAAB0000E2F
:100BC000AAAAAC003AAAAAFF00EAAAAFFF03E6ABC2
:100BD000FFFC03FD9F573C00FF57573C000FA557F4
:100BE000FC003AA953F000EAA680C003AA9800C00E
:100BF00003AA6002B00EA98002B00DA9800AB00E4F
:100C0000698002C0039580030000EA0000C0003F35
:100C10000170C00000FFCC300003FFFC00003EAAC2
:100C2000ABC003EAAAAAB00FAAAAAAAC0FF6AAAB55
:100C3000FF03CDAFAFFF000375FFFC0000D5573CAD
:100C40000000D5573C0003E557FC003EA963F003C4
:100C5000EAA680C00EAA9800C03AAA6002C036A9CF
:100C60008002C039A6000AC00E56400AC003AB502D
:100C7000030000FCC0030000003A830000000000F5
:100C80000000000FFC0000F0FAABC003FFAAAAB0FE
:100C900003EAAAAAAC00D6AAABFC003D6ABFFF00DB
:100CA0000D5D5FFF0003D7FCFC0000355CFC00001D
:100CB000F55FFC0003A94FF0003EA9807000EAA692
:100CC000007003AAA600700EAA5802C00E55A00A12
:100CD000C039AA0003000EB550030003CD4C0C0030
:100CE000F80611241FBECFEFD8E0DEBFCDBF11E064
:100CF000A0E0B1E0E6E9FDE102C005900D92A63367
:100D0000B107D9F721E0A6E3B1E001C01D92A535F6
:100D1000B207E1F716E0C1E7D6E004C02197FE0173
:100D20000E94C30EC037D107C9F70E949B060C94DE
:100D3000C90E0C94000061E080E00E94340A61E07A
:100D400082E00E94340A61E081E00E94440A61E08E
:100D500082E00E94440A61E083E00E949B0A0E94B4
:100D6000330B789415BC86E391E00E94E40886E397
:100D700091E00E94A009FBCF1F920F920FB60F9235
:100D800011248F939F938091530190915401019668
:100D900090935401809353019F918F910F900FBEB8
:100DA0000F901F9018951F920F920FB60F9211245B
:100DB0008F939F93AF93BF9380914F019091500178
:100DC000A0915101B09152010196A11DB11D8093D6
:100DD0004F0190935001A0935101B0935201BF91E4
:100DE000AF919F918F910F900FBE0F901F9018950C
:100DF000E6E3F1E080EF90E09183808380E491E08E
:100E00009383828308958F929F92AF92BF92CF92E5
:100E1000DF92EF92FF920F931F93CF93DF93EC013A
:100E2000822F90E080979C0112F4215F3F4F49018F
:100E300095948794959487949594879495948794A2
:100E40009694982C8824979487948F7090789923FF
:100E500024F40197806F9F6F0196880E991E8A0176
:100E6000015F1F4F9B01215F3F4FCE010E94D90BB5
:100E7000540180E8880E911C6894CC24C1F8D12CD0
:100E8000EC81FD81EA0DFB1D14916894EE24E3F8DA
:100E9000F12C11235CF468857985CE010E94490B01
:100EA00068857985CE010E94490B0AC06E817F81D9
:100EB000CE010E94490B6E817F81CE010E94490BB9
:100EC000110F81E0E81AF10821F781E0C81AD10872
:100ED000B9F680E1A80EB11CA814B90469F6DF9137
:100EE000CF911F910F91FF90EF90DF90CF90BF9027
:100EF000AF909F908F900895CF92DF92EF92FF92E4
:100F00000F931F93CF93DF937C01EB016A01F901EB
:100F10002081222371F08F010F5F1F4FA601BE01B8
:100F2000C7010E9403076096F80121918F012111EA
:100F3000F5CFDF91CF911F910F91FF90EF90DF9050
:100F4000CF9008952F923F924F925F926F927F922F
:100F50008F929F92AF92BF92CF92DF92EF92FF92C9
:100F60000F931F93CF93DF93CDB7DEB727970FB6BD
:100F7000F894DEBF0FBECDBF9A838983B62EA72E0D
:100F80005C834B83680179010A3011052105310525
:100F900088F191E09D83412C512C3201439409C08A
:100FA0009D81892F90E09F838E831816190654F136
:100FB00057C08D818F5F8D83440C551C661C771C38
:100FC000D301C201880F991FAA1FBB1F880F991F49
:100FD000AA1FBB1F480E591E6A1E7B1EC701B60101
:100FE000A30192010E94A10E2A303105410551054D
:100FF00000F7D6CF81E090E09F838E83412C512C67
:10100000320143940B2D1A2DA12CB12CC701B6012E
:10101000A30192010E94A10E262E372E882E992E12
:10102000205D4B815C81B80189819A810E94030710
:10103000C22CD32CE82CF92CC301B2012AE030E0F9
:1010400040E050E00E94A10E29013A019FEFA91A49
:10105000B90A005F1F4F8E819F81A816B906B4F2AE
:1010600027960FB6F894DEBF0FBECDBFDF91CF91AC
:101070001F910F91FF90EF90DF90CF90BF90AF90B6
:101080009F908F907F906F905F904F903F902F90A8
:10109000089580914F0190915001A0915101B0911C
:1010A000520140914B0150914C0160914D01709162
:1010B0004E01465F5F4F6F4F7F4F84179507A6071E
:1010C000B70790F080934B0190934C01A0934D0192
:1010D000B0934E01209142012F5F223019F02093EE
:1010E000420102C0109242014091470150914801D3
:1010F0006091490170914A014C595F4F6F4F7F4F8A
:1011000084179507A607B707D0F0809347019093FF
:101110004801A0934901B0934A01309141013F5FDA
:1011200030934101209140012F5F209340013430E2
:1011300011F410924101263011F4109240014091B7
:10114000430150914401609145017091460143581B
:101150005F4F6F4F7F4F84179507A607B70790F033
:101160008093430190934401A0934501B0934601BD
:10117000809100018F5F823019F080930001089503
:1011800010920001089580914F0190915001A0911B
:101190005101B091520180934B0190934C01A09367
:1011A0004D01B0934E018093470190934801A09365
:1011B0004901B0934A018093430190934401A09365
:1011C0004501B093460108957F928F929F92AF920E
:1011D000BF92CF92DF92EF92FF920F931F93CF9324
:1011E000DF93EC010E945C0B60E0CE010E94B10B2A
:1011F0006FEF7FEFCE010E940D0C77247A947F92DF
:101200007F920F2EFFE18F2E912CF02D0F2EA12C0F
:10121000F8EFBF2EF02DC12CD12C0F2EF8E6EF2EBB
:10122000F3E0FF2EF02D00E310E028E930E046E483
:1012300050E068E070E0CE010E94520C2FEF89E68A
:1012400098E1215080409040E1F700C000007F927B
:101250007F9200E610E020E331E046E450E068E0F1
:1012600070E0CE010E94FA0C2FEF8BE792E921503B
:1012700080409040E1F700C0000060E070E0CE01E7
:101280000E940D0C88E690E09D838C831F821E8255
:101290000FEF1FEF1987088721E031E046E450E0A7
:1012A0006EE170E0CE010E947C072FEF83ED90E3AA
:1012B000215080409040E1F700C000001F821E8254
:1012C0008FEF97E0998788872FE031E048E750E07B
:1012D0006EE170E0CE010E947C071F821E8280E0DA
:1012E00098EF998788872EE131E048E850E06EE179
:1012F00070E0CE010E947C072FEF83E294EF215033
:1013000080409040E1F700C0000060E070E0CE0156
:101310000E940D0C1F821E82198708870F900F9064
:101320000F900F90DF91CF911F910F91FF90EF9051
:10133000DF90CF90BF90AF909F908F907F90089557
:10134000CF93DF9300D000D000D0CDB7DEB72FEF22
:1013500031EE44E0215030404040E1F700C0000051
:10136000E82EF92E20E331E048E250E068E270E038
:101370000E947C0780EF90E09A83898380E491E06B
:101380009C838B8383E08D831092540110925301D0
:101390000E94C3080E944908CE0101960E94DF09FD
:1013A000009153011091540120E030E048E250E0F8
:1013B00062E870E08E2D9F2D0E94A207EBCF5F9216
:1013C0006F927F928F929F92AF92BF92CF92DF9255
:1013D000EF92FF920F931F93CF93DF933C01C0E0F6
:1013E000D0E0DD24DA940F2EF8EF5F2EF02D8091FF
:1013F0004001082E000C990B8C179D0709F5DF9210
:10140000DF925F921F920F2E812CF8E79F2EF02D16
:10141000A12CB12CCC2E0F2EF8E8EF2EFAE0FF2EE7
:10142000F02D08E210E028E230E048E750E06CE3FD
:1014300070E0C3010E94CC0D0F900F900F900F90A1
:101440002196C630D10599F6DF91CF911F910F916A
:10145000FF90EF90DF90CF90BF90AF909F908F90D4
:101460007F906F905F9008956195813039F0823060
:1014700041F0811108C064B915B8089567B918B86A
:1014800008956AB91BB80895813099F18230B1F09E
:10149000811150C0611108C081E080936E0014BCBE
:1014A00085E085BD16BC089582E080936E0084BD02
:1014B00085E085BD16BC8FEF87BD089561110BC017
:1014C00081E0809370001092B00084E08093B100BE
:1014D0001092B200089582E0809370008093B00073
:1014E00084E08093B1001092B20089EF8093B30042
:1014F000089561110DC081E080936F00109280000B
:1015000085E08093810010928500109284000895F8
:1015100082E080936F00109280008DE080938100C4
:1015200010928500109284008DE38093890088E0FA
:10153000809388000895853009F45DC02CF48330D1
:1015400051F08430C1F00895873029F10CF46FC058
:101550008830C9F10895611107C084B5816484BDE4
:101560008CE085BD16BC089584B5836484BD8CE091
:1015700085BD16BC0895611107C084B5816184BD25
:101580008CE085BD16BC089584B5836184BD8CE074
:1015900085BD16BC089561110BC0E0EBF0E08081C1
:1015A0008168808386E08093B1001092B200089534
:1015B000E0EBF0E080818368808386E08093B10077
:1015C0001092B200089561110BC0E0EBF0E0808151
:1015D0008162808386E08093B1001092B20008950A
:1015E000E0EBF0E080818362808386E08093B1004D
:1015F0001092B200089561110DC0E0E8F0E0808122
:101600008368808384E0809381001092850010922B
:1016100084000895E0E8F0E08081836880838CE0B6
:1016200080938100109285001092840008956111CA
:101630000DC0E0E8F0E080818362808384E08093E5
:10164000810010928500109284000895E0E8F0E097
:101650008081836280838CE080938100109285007A
:1016600010928400089580E58CBD81E08DBD0895C1
:101670006EBD0DB407FEFDCF08952A9828980E94EC
:10168000380B289A08952A9A28980E94380B289A8D
:1016900008951F93CF93DF93EC01162F672F2A9A9B
:1016A00028980E94380B612FCE010E94380B289A8F
:1016B000DF91CF911F910895CF93DF93EC01289A8A
:1016C00029982FEF89EF90E0215080409040E1F77A
:1016D00000C00000299A2FEF89E698E12150804050
:1016E0009040E1F700C0000061E0CE010E943D0B98
:1016F0002FEF89EF90E0215080409040E1F700C04B
:10170000000060ECCE010E943D0B6BE2CE010E9416
:10171000430B66E3CE010E943D0B68E4CE010E94BC
:10172000430B6AE3CE010E943D0B65E5CE010E94AA
:10173000430B60E2CE010E943D0B61E1CE010E94AD
:101740003D0B2FEF8DEE92E0215080409040E1F76D
:1017500000C0000069E2CE010E943D0BDF91CF91F5
:1017600008951F93CF93DF93EC01162F66E30E9439
:101770003D0B113089F01230A1F0111116C068E252
:10178000CE010E94430B888199812A813B81398354
:1017900028839B838A8309C068E4CE010E94430B9F
:1017A00004C068E8CE010E94430BDF91CF911F91E6
:1017B0000895AF92BF92CF92DF92EF92FF920F9374
:1017C0001F93CF93DF93EC015B017A0169016AE219
:1017D0000E943D0BB501CE010E94490BB601CE011E
:1017E0000E94490B6BE2CE010E943D0BB701CE0176
:1017F0000E94490BB801CE010E94490B6CE2CE0158
:101800000E943D0BDF91CF911F910F91FF90EF90C0
:10181000DF90CF90BF90AF900895CF92DF92EF927C
:10182000FF920F931F93CF93DF937C016B01FC0119
:101830000281138101501109208131812150310928
:1018400040E050E060E070E00E94D90BF701828137
:10185000938118161906ECF400E010E0F70180817E
:101860009181181619066CF4C0E0D0E0B601C701EA
:101870000E94490B2196F70180819181C817D907F1
:10188000ACF30F5F1F4FF70182819381081719078F
:101890002CF3DF91CF911F910F91FF90EF90DF908C
:1018A000CF9008952F923F924F925F926F927F92C6
:1018B0008F929F92AF92BF92CF92DF92EF92FF9260
:1018C0000F931F93CF93DF93CDB7DEB72A970FB651
:1018D000F894DEBF0FBECDBF3C01290118870F83EE
:1018E0001601BA82A9829C828B82040F151F0150B7
:1018F00011099B01240D351D215031090E94D90B7E
:101900002F813885121613060CF05BC0C201992393
:101910000CF40396FC01F595E795F595E795FA87A4
:10192000E987FE83ED83AE2CBF2C412C512C2985F9
:101930003A8512161306C4F5ED80FE80EA0CFB1CF6
:101940008501F80194906894CC24C2F8D12C892D9B
:10195000829586958695837029F4B101C3010E9412
:10196000490B17C0813031F469817A81C3010E942B
:10197000490B0FC0823031F46B817C81C3010E941E
:10198000490B07C0833029F46F8D78A1C3010E94F1
:10199000490B990C990CF1E0CF1AD108C1F60F5FF1
:1019A0001F4FE016F10669F62FEF421A520A8D8199
:1019B0009E81A80EB91EEF81F885E415F50509F0A2
:1019C000B6CF2A960FB6F894DEBF0FBECDBFDF911B
:1019D000CF911F910F91FF90EF90DF90CF90BF902C
:1019E000AF909F908F907F906F905F904F903F90BF
:1019F0002F9008952F923F924F925F926F927F9215
:101A00008F929F92AF92BF92CF92DF92EF92FF920E
:101A10000F931F93CF93DF93CDB7DEB760970FB6C9
:101A2000F894DEBF0FBECDBF988B8F872901380198
:101A3000DA82C982BA86A9869C868B868A01060DBF
:101A4000171D015011099B01240D351D215031092D
:101A50000E94D90BC30199230CF401969C01359582
:101A600027953E872D87121613060CF07CC0C20105
:101A700099230CF40796FC01F595E795F595E79504
:101A8000F595E795FE83ED83F887EF836E2C7F2C29
:101A9000212C312C6894AA24A1F8B12C8F80988431
:101AA000860C971C7C826B824F8458882D813E81E6
:101AB000121613060CF043C0EB80FC80F701C490B3
:101AC0006894662462F8712CDC2CD694D694D69453
:101AD000D694D694D69402E010E0D11006C0698165
:101AE0007A81C2010E94490B1AC0F1E0DF1206C0E0
:101AF00069857A85C2010E94490B11C022E0D21289
:101B000006C06B857C85C2010E94490B08C033E08A
:101B1000D31205C06DA17EA1C2010E94490B0150E4
:101B20001109D9F6CC0CCC0C81E0681A710861F669
:101B30009FEFE91AF90AE814F90409F0BFCFE1E0D0
:101B4000AE1AB10809F0B2CF6B807C80FFEF2F1A7C
:101B50003F0A2F813885620E731E8D859E8528165B
:101B6000390609F097CF60960FB6F894DEBF0FBE26
:101B7000CDBFDF91CF911F910F91FF90EF90DF903C
:101B8000CF90BF90AF909F908F907F906F905F901D
:101B90004F903F902F9008952F923F924F925F92D7
:101BA0006F927F928F929F92AF92BF92CF92DF926D
:101BB000EF92FF920F931F93CF93DF93CDB7DEB7D2
:101BC0002E970FB6F894DEBF0FBECDBF9E878D87D0
:101BD00029013801BA82A9829A8689868A01060D6E
:101BE000171D015011099B01240D351D215031098C
:101BF0000E94D90BC30199230CF401969C013595E1
:101C000027953C872B87121613060CF081C0C20162
:101C100099230CF40796FC01F595E795F595E79562
:101C2000F595E795FE83ED83F887EF833701FC2D6B
:101C300024E6F202600C711C1124212C312C6894D2
:101C4000AA24A1F8B12C8F809884860C971C7C82E2
:101C50006B824D845E848D819E81181619060CF06E
:101C600043C0EB80FC80F701C4906894662462F85E
:101C7000712CDC2CD694D694D694D694D694D69443
:101C800002E010E0D11006C069817A81C2010E9491
:101C9000490B1AC0F1E0DF1206C069857A85C201DE
:101CA0000E94490B11C022E0D21206C06BA17CA198
:101CB000C2010E94490B08C033E0D31205C06DA1D8
:101CC0007EA1C2010E94490B01501109D9F6CC0C2A
:101CD000CC0C81E0681A710861F69FEFE91AF90AE5
:101CE0008E149F0409F0BFCFE1E0AE1AB10809F0ED
:101CF000B2CF6B807C80FFEF2F1A3F0A2F8138858F
:101D0000620E731E8B859C852816390609F097CFC5
:101D10002E960FB6F894DEBF0FBECDBFDF91CF91E8
:101D20001F910F91FF90EF90DF90CF90BF90AF90F9
:101D30009F908F907F906F905F904F903F902F90EB
:101D40000895A1E21A2EAA1BBB1BFD010DC0AA1FFC
:101D5000BB1FEE1FFF1FA217B307E407F50720F014
:101D6000A21BB30BE40BF50B661F771F881F991F8F
:101D70001A9469F760957095809590959B01AC01D8
:101D8000BD01CF010895EE0FFF1F0590F491E02DE6
:061D90000994F894FFCF56
:101D96000148656C6C6F2C20576F726C6421004192
:101DA6006E642057656C636F6D6520746F004174B7
:101DB6006D6567612047616D6520285E4F5E29006D
:061DC60054494D453A00AE
:00000001FF
