:100000000C94050E0C94B00E0C942D0E0C942D0E29
:100010000C942D0E0C942D0E0C942D0E0C948B0E16
:100020000C942D0E0C942D0E0C942D0E0C94580E39
:100030000C942D0E0C942D0E0C942D0E0C942D0E54
:100040000C942D0E0C942D0E0C942D0E0C942D0E44
:100050000C942D0E0C942D0E0C942D0E0C942D0E34
:100060000C942D0E0C942D0E0020000000000000BA
:100070000000000000000000000000000000000080
:100080000000000000000000000000000000000070
:10009000000000000002000000000000000000005E
:1000A0000000000000000000000000000000000050
:1000B0000000000000000000000000004000000000
:1000C000000000000000000200000000000000002E
:1000D00000000000000000800000000000000000A0
:1000E00000000001500000000000000000000000BF
:1000F00000000000000000000000400000000000C0
:1001000000000100000000000000000040000000AE
:1001100000000000000000000000000000000000DF
:1001200000000000000000000000000000000000CF
:1001300000000000000000000001000000000000BE
:1001400000000000000000000000000000000000AF
:10015000000500000000000000000000000000009A
:10016000000000000000000000000000000100008E
:10017000000000000000000000050000000000007A
:10018000000000000000000000000000000000006F
:100190000000000000064000000000000000000019
:1001A000000000000000000000000000000000004F
:1001B000000000000001000000000000000100003D
:1001C000000000000000000000000000000020000F
:1001D000000000000000000000000000000400001B
:1001E000000000000000000000000000000000000F
:1001F00000000000000000000000000000000000FF
:1002000000000000001000000000000000000000DE
:1002100000000000000000000002000000000000DC
:10022000000400000000000000000000008000004A
:1002300000000000000000000000000000000000BE
:1002400000000000000000000000000000000000AE
:10025000000000000000000000000000000000009E
:10026000000000001000000000000000000000007E
:10027000000000000000000000010000000000007D
:10028000000000000000000000000000100000005E
:10029000000000000000000000000000000000005E
:1002A0000006400000000000000000000000000008
:1002B00000000001650000000000000000000000D8
:1002C000000000000000000000010000000000002D
:1002D000000000000000000000000000100000000E
:1002E000000000000000000000000000000FFFFF01
:1002F000F00FFFFFFF0FFFFFF000003FC003FC0304
:10030000FFFFC003FFFFC03FFFFFC0000000000071
:1003100000000000000FFFFFF00FFFFFFF0FFFFFC7
:10032000F000003FC003FC03FFFFC003FFFFC03F1E
:10033000FFFFC0001000000000000000000FF000F0
:10034000FF0FF000000FF000FF00503FC003FC3F24
:10035000C003FC3FC007FC3FC003FC00640000007A
:1003600000000000000FF000FF0FF000000FF00091
:10037000FF00503FC003FC3FC003FC3FC017FC3FE1
:10038000C003FC001000000000000080000FF0001F
:10039000FF0FF000000FF000FF00003FC203FC3F22
:1003A000C003FC3FC007FC3FC003FC00000000008E
:1003B00000000000000FF000FF0FF000000FF00041
:1003C000FF00003FC003FC3FC003FC3FC003FC3FF5
:1003D000C003FC000000000000000000800FF000DF
:1003E000FF0FFFFF000FF000FF00003FFFFFFC3F8B
:1003F000C003FC3FC003FC3FC003FC000000000042
:1004000000000000000FF000FF0FFFFF000FF800DA
:10041000FF00003FFFFFFC3FC003FC7FC003FC3F29
:10042000C003FC000000000000000000000FFFFF00
:10043000F00FF000000FF000FF00003FC003FC3F92
:10044000C003FC3FC003FC3FC003FC0000000000F1
:1004500000000000000FFFFFF00FF000000FF000A1
:10046000FF00003FC003FC3FC003FC3FC003FC3F54
:10047000C003FC000000000000000000000FF000BE
:10048000FF0FF000000FF000FF00003FC003FC3F33
:10049000C003FC3FC003FC3FC403FC00000000009D
:1004A00000000000000FF010FF0FF000000FF00040
:1004B000FF00403FC003FC3FC003FC3FC003FC3FC4
:1004C000C003FC000000000000000000000FF0006E
:1004D000FF0FFFFFFF0FFFFFF000103FC003FC13F3
:1004E000FFFFC003FFFFC03FFFFFC0000000000090
:1004F00000000000000FF000FF0FFFFFFF0FFFFFE5
:10050000F000003FC003FC07FFFFC003FFFFC03F38
:10051000FFFFC00000000010000000555000000068
:100520000000400000040000400001000000000145
:1005300000001000010000000000000000000000AA
:100540000000055555000550000010000001000096
:100550000000004000400000400004000040000097
:1005600000000000000000000000155555405555E2
:100570000000040400004000000000100010010012
:10058000101001100000000000000000000000003A
:10059000000055555551555540000101000000001F
:1005A00000000004040400000404004400040000EF
:1005B000000000000000000000005555555555553D
:1005C0004000004040400000000000010111001008
:1005D00001010011000100001000000000000000F7
:1005E000000155555555555550000010103FFC0061
:1005F00000040400404F4004004000044000440058
:1006000004000000000000000001555555555555E7
:1006100050000044043C0F7EAF3FFD3FFC111FFF24
:1006200003FFD001111011000110000000000000B4
:10063000500155555555555550154011113D0F3E1A
:10064000AFBC4F7C4F3F4F07CF47C40444440440E6
:1006500040400000000000005401555555555555C7
:1006600051555444447C4FBEAFBC0F3C1F1F1F0369
:10067000DF13C10111110110100000000000000083
:10068000551455555555555545555511113FFEBEF7
:10069000AFBE0F7C0F4F4F47CF07C4444444444480
:1006A000444000000000000055555555555555551E
:1006B00055555514447EAFBEAFBE9F3D1F1F1F133F
:1006C000D3FFD11111111111110000000000000021
:1006D00055555555555555555AA95555513EAFAFD8
:1006E000FFBE8F7C4F4F5F47C457C44444444444CB
:1006F00044400000000000005555555555555555CE
:10070000AAAA95555455AAAAAAAAA115111115511C
:1007100017FF11111111111111100000000000003C
:100720005540555555555556AAAAA55555555AAA39
:10073000AAAAA44544544554454544444444444429
:100740006AAA000000000000550005555555555691
:10075000AAAAA555555556956AAAA5115115115520
:100760001151511111111112AAAAA000000000008C
:10077000540001555555555AAAAAA95555555655CF
:100780005AAAA54454454455445454544444444AF4
:10079000AAA8000000000000500000540555555A5A
:1007A000AAAAA9A95555555556AA95515511555559
:1007B000551555155511111AAAA00000000000008A
:1007C000400000400055555AAAAAAAAA55AA555554
:1007D00056AAAA9455445555544555551544446A4E
:1007E000AAA0000000000000500000000055555A6B
:1007F000AAAAAAAA9AAAA5555655AAA91555155541
:10080000555155555551112AA40000000000000013
:10081000550000000015555A55AAAAAAAAAAA9551A
:1008200055556AAA55554555555455556A94446AC7
:10083000900000000002AAA8554000055415555527
:10084000555AA956AAAAAA5555555AAA51555555A9
:1008500055551556AAA91A9550000000002AAAAAB3
:100860005550005555555555555695556AAAAA5592
:10087000555556AA945554555555555AAAAA6955D1
:100880004000000000AAAAAA5554015555555555D7
:10089000555655555AAAAA95555555AA9515551503
:1008A0005555515AAAAAA9554000000000AAAAAA63
:1008B00055550555555550001555555556AAAA95E7
:1008C00055AA95AA955555559555546AAAAAA55560
:1008D0004000000AA8AAAAAA5555001555550000BF
:1008E000015555555655AA955AAAA9AA9555555533
:1008F0006555552AAAAAA555400000AAAAAAAAAADF
:1009000055554001555400000055555555556A95AB
:100910006AAAAAAA555555555995AA6AAAAAA555CB
:10092000500002AAAAAAAAAA55554154555400003B
:100930000015015555556A556AAAAAAAA5555655D6
:10094000566AAAAAAAAAA555500002AAAAAAAAAAA1
:1009500055554555555000000010005555555AA5A0
:100960006AAAAAAAA555559556AAAAAAAAAAA55599
:1009700054000AAAAAAAAAAA555555550050000023
:10098000000015555555AAAA6AAAAAAAAAA955559A
:10099000AAAAAAAAAAAAA95540015AAAAAAAAAAA70
:1009A0005555555000000000000155555556AAAA4E
:1009B0009AAA000AAAAA95595AAAAAAAAAAAAA55FC
:1009C00000155AAAAAAAAAAA555555400000000126
:1009D0005405555555556AAAAA8000002AAAA5565D
:1009E00055666AAAAAAAAA5400555AAAAAAAAAAAE5
:1009F000555005000000000555455555555555AA5B
:100A0000AA00000002AAA9559599999999AAA955F1
:100A100050555AAAAAAAA556554001000000000048
:100A2000055555555555555AA800000000AAA95915
:100A3000656666666AAAA55554555AAAAAAA955526
:100A400055000000000000000055555555555556FD
:100A5000A8000000002A55559999AAA9AAAA955557
:100A6000555556AAAAAA55550500000000000000D9
:100A70000014055555555555A00000000025555545
:100A80005666AAAAAAAA9555555555AAAAAA555571
:100A90000000000000000000000000555555550002
:100AA0002000000000055555559AAAAAAAAA555536
:100AB0005555AAAAAAAA555500000000000000003A
:100AC0000000005555555000000000000005555528
:100AD000555AAAAAAAAA5555555AAAAAAAAA555514
:100AE00000000000000000000000001555555000F7
:100AF00000000000000555555556AAAAAAAA55554A
:100B0000556AAAAAAAAA55550000000000000000D4
:100B100000554015555554000000000000001555C3
:100B20005556AAFFFAAA555555AAAAAAAAAA955592
:100B300000000000000000000555541555555500F3
:100B400000000000400001555555AFFFFFAA555564
:100B500055AAAAAAAAAA55550000000000000154EF
:100B60001555551555555500000000050000001598
:100B70005555BFFFFFEA955556AAAAAAAA955555FD
:100B8000FFC00000000015555555555555555540A9
:100B900000005514000000155555FFFFFFFA95564B
:100BA000AAAAAAAAA9555555FFC03FFC03C055558E
:100BB000555557D55555554000055554000000056D
:100BC0005555FFFFFFFAA56AAAAAAAAAA555555529
:100BD000FFC0F00003C07FF5FFF003D555015505B8
:100BE00050155550000000055555FFFFFFFEBFAAE8
:100BF000AAAAA55A95555555FFC0F0003FFD557D51
:100C0000F53C3FFD500015155455555000000004AB
:100C10000154FFFFFFFEFFAAAAAA55569555555548
:100C2000FFC03FF003C17FFDF40003C0400000554A
:100C300054555010000000000057FFFFFFFFFFAAAF
:100C4000AAA9555555555555FFC0003C03C1F03D67
:100C5000F40003C00000001555550000000000001E
:100C60000055553FFFFFFFAAAAAAA5555555555552
:100C7000FFC0003C03C0F03CF00003C0000055453D
:100C8000555500000000000055155553FFFFFFEAC1
:100C9000AAAAA955555555AAFFC0FFF003C03FFCAD
:100CA000F00003C000055555555455500000000094
:100CB00005555554FFFFFAAAAAAAAA5555556AAA7E
:100CC000FFC00000000000000000000000155555A6
:100CD0005555555500000000015005553FFFEAAA43
:100CE000AAAAAA555556AAAA0000000000000000B2
:100CF00000000000001555555555555540000000A1
:100D0000010000557FFFEAAAAAAAAA555556AAAA29
:100D100000005500000000000000000015155555AA
:100D20005555555550000000000000554C556AAA15
:100D3000AAAAA955555AAAAA005555500000000064
:100D40000000000000555555555555555000000000
:100D5000000000155555556AAAAAAAA5555AAAAA6F
:100D6000FFD5555400000000000000000005555557
:100D700055555555540000000000001005555555B7
:100D80005AAAAAAA555AAAAAFFC03FFD0055400078
:100D90000000154000015555555555555405400066
:100DA0000000000000015555AAAAA955555AAAAA43
:100DB000FFC0F0007FFD7FF0FFF17FF4000155558B
:100DC000555555555455540000000000002AAAAA54
:100DD000AAAA555555AAAAAAFFC0F000F015F53CDD
:100DE000F03DF57D00005555555555555555550067
:100DF00000556AAAAAAAAAAAAAA955555AAAAAAA8D
:100E0000FFC03FF0F000F53DF005F57D40004015D6
:100E1000555555555555555555555AA556AAAAAA2D
:100E2000AAA555556AAAAAAAFFC0003CF000F57D04
:100E3000F515FFF545400005555555555555555582
:100E400055555A55556AAAAAAAA55555A555A95545
:100E5000FFC0003CF000F03DF515F555555400017C
:100E6000555555555555555555555955555AAAAA7F
:100E7000AA95555595556555FFC0FFF03FFC3FF0CD
:100E8000F5557FF5555505515555555555555555FC
:100E9000555555555556AAAAAA95555555555555C2
:100EA000FFC000000000000000155000015515545F
:100EB000555555555555555555555555555556AA8C
:100EC000AA955555555555550000000000000000E5
:100ED00000000000000155555555555555555555BF
:100EE000555555555555556AA5555555555555554D
:100EF0000000000000000000000000000000055598
:100F00005555555554015555555555555555555AE1
:100F10005555555555555555000000000000000029
:100F20000000000000000005555555550000001553
:100F300055501555555555595555555555555555A2
:100F4000FFC00000000000000000000000000000E2
:100F500001555500000000000540015555555555F7
:100F60005555555555555555FFD57FFD5555555535
:100F7000557D57D557D555555555555556AAAAAAF5
:100F8000AAAAAAAAAAAAAAAAA55555555555555519
:100F9000FFD5F555FFF57FF57FFD555557D55555CF
:100FA00055555555555A556AAAAAABFAAAAAAAA5E3
:100FB0005555555555555555FFD5F555F57DF57D87
:100FC000F57D5FD57FFD55555555555AAAAAAAAA54
:100FD000AAABFFFEAAAAAAAAAAAAA9555555555571
:100FE000FFD5F555F555F57DF57D57D557D555AA5E
:100FF000AAAAAAAAAAAAAAAAAAAAAAAAAAAAAAAA51
:10100000AAAA955555555555FFD5F555F555FFF5F2
:10101000F57D57D557D5555556AAAAAAAAAAAAAA60
:10102000AAABFFAAAAAAAAAAAAAAAAAAAAAAAAAACA
:10103000FFD5F555F555F555F57D57D557D555558A
:101040005556AAAAAAAAAAABFFFFFFFFEAAAAAAA14
:10105000AAAAAAAAAAA95555FFD57FFDF5557FF5DD
:101060007FFD57D55BE556AAAAAAAAAAAAAAAAAA48
:10107000AAFFFFFEAAAAAAAAAAAAAAAAA9555555D2
:10108000FFD5555555555555555AAAAAAAAAAAAAE3
:10109000AAAAAAAAAAAAAAAAFFFFFFFFFFABFAAAB6
:1010A000AAAAAAAAAAAAAAAA555555555555555548
:1010B000555556AAAAAAAAAAAAAAAAAAAAAAAAAA8E
:1010C000AAAAAAAAAAAAAAAAAAAAAAAAAAAAAAAA80
:1010D000555555555555AAAA9555AAAAAAAAAAAAD8
:1010E000AAAAAAAAAAAABFFFFFFFFFFAAAAAAAAAA7
:1010F000AAAAAAAAAAAAAAAA55555556AAAAAAAAA3
:10110000AAAAAAAAAAAAAAAAAAAAAAAFEBFFFFFFFA
:10111000FFFFFFFFFFEAAAAAAAAAAAAAAAAAAAAA46
:10112000AAAA555556AAAAAAAAAAAAAAAAAAAAAA1D
:10113000AAAAAAAAAAABFFFFFFEAAAAAAAAAAAAACF
:10114000AAAAAAAAAAAAAAAAAAAAA9555556955667
:10115000AAAAAAAAAAAAAAAAAAAAAAAAAAAAAABFDA
:10116000FFFFFAAAAAAAAAAAAAAAAAAAAAAAAAAAE5
:10117000A55955555AAAAAAAAAAAAAAAAAAAAAAA1F
:10118000AAAAAAAAAAAAAAAABFFFFFFFFEAAAAAA57
:10119000AAAAAAAAAAAAAAAAAAAAAAAAAAAAAAAAAF
:1011A000AAAAAAAAAAAAAAAAAAAAAABFFFFFFFFF36
:1011B000FFFFFFFEAAAAAAAAAAAAAAAAAAAAAAAA3C
:1011C000AAAAAAAAAAAAAAAAAAAAAAAAAAAAAAAA7F
:1011D000FFFFFFFFFFFFFFFFFFFFFEAAAABFFFFF0A
:1011E000FFAFAAAAAAAAAAAA003000001000000015
:1011F000000000000000000000786C283C662030F1
:1012000018305418000000060078247C600C501040
:10121000301838180000000C007800283818340006
:101220003018107E007E00180030007C0C30480022
:1012300030183818000000300000002878663400AC
:10124000183054180000006000300000100000004A
:10125000000000003000300000000000000000002E
:1012600000000000100000003818FCFC06FE7CFEA8
:101270007C7C00000000007C4C380606C6C0C0061E
:10128000C6C60000180030C6C618063CC6FCFC06E0
:101290007CC63030307C1806C6187C06C606C60CE4
:1012A000C6C6000060000C06C618C006C606C618F2
:1012B000C67E0000307C183C6418C006FE06C630AE
:1012C000C606303018003000383CFEFC06FC7C308E
:1012D0007C7C0010000000300000000000000000D6
:1012E00000000000000000007C7CFC7EFCFEFE7C18
:1012F000C63C1EC6C0C6C67CC6C6C6C0C6C0C0C622
:10130000C61806C6C0EEE6C6C6C6C6C0C6C0C0C0C1
:10131000C61806CCC0FEF6C6D6C6FCC0C6F8FCDEB3
:10132000FE1806F8C0D6DEC6DCFEC6C0C6C0C0C603
:10133000C61806CCC0C6CEC6C0C6C6C0C6C0C0C6CB
:10134000C618C6C6C0C6C6C67CC6FC7EFCFEC07E2D
:10135000C63C7CC6FEC6C67C000000000000000043
:101360000000000000000000FC7CFC7E7EC6C6C6BB
:10137000C666FE0000000000C6C6C6C018C6C6C6C7
:10138000C666063860381000C6C6C6C018C6C6C6CF
:101390006C660C3030183800C6C6C67C18C6C6D677
:1013A000383C383018186C00FCDEFC0618C66CFEA1
:1013B0006C1860300C184400C0CCC60618C638EE55
:1013C000C618C03806380000C076C6FC187C10C6A7
:1013D000C618FE00000000FE000000000000000033
:1013E00000000000000000000000C00006003E00F9
:1013F000C0180CC038000000607CFC7E7E7C607EE3
:10140000C00000C618FCFC7C2006C6C0C6C660C66C
:10141000FC381CCC18D6C6C6007EC6C0C6C6FCC6E4
:10142000C6180CF818D6C6C600C6C6C0C6FC60C62C
:10143000C6180CCC18D6C6C600C6C6C0C6C0607ECC
:10144000C6180CC618D6C6C6007EFC7E7E7C60061A
:10145000C6180CC618D6C67C000000000000007C30
:1014600000007800000000000000000018000000EC
:101470000000000000000000FC7EFC7C18C6C6D600
:10148000C6C6FE3810380000C6C6C6C07EC6C6D660
:101490006CC60C3010183000C6C6C07C18C6C6D644
:1014A00038C63860100C5A00C6C6C00618C66CD6BE
:1014B0006CC6603010180C00C6C6C00618C638D6F8
:1014C000C67EC03810380000FC7EC07C187E107EBE
:1014D000C606FE0000000000C0060000000000007C
:1014E000007C000000000000FFFFFFFFFFFFFFFF88
:1014F000FFFFFFFFFFFFFFFFFFFFFFFFFFFFFFFFFC
:10150000FFFFFFFFFFFFFFFFFFFFFFFFFFFFFFFFEB
:10151000FFFFD55FF57FFFFFFFFFFFFFFFFFFFFF2F
:10152000FFFFD5FF7FFFFFFFFFFFFFFFFFFFFFFF75
:10153000FFFFFFFFFFFFFFFFD55FF57FFFFFFFFF0F
:10154000FFFFFFFFFFFFFFFFD5FDFFFFFFFFFFFFD7
:10155000FFFFFFFFFFFFFFFFFFFFFFFFFFFF555FE5
:10156000F57FFFFFFFFFFFFFFFFFFFFFFFFFD5FF3F
:10157000FFFFFFFFFFFFFFFFFFFFFFFFFFFFFFFF7B
:10158000FFFFFFFD555FF57FFFFFFFFFFFFFFFFF41
:10159000FFFFFFFFD5FFFFFFFFFFFFFFFFFFFFFF85
:1015A000FFFFFFFFFFFFFFFFFFF55D5FF57FFFFF21
:1015B000FFFFFFFFFFFFFFFFFFFFD5FFFFFFFFFF65
:1015C000FFFFFFFFFFFFFFFFFFFFFFFFFFFFFFD555
:1015D0007D5FF55FFFFFF57FFFD5FFFFFFD55FFF65
:1015E000D5FFFFFFFFFFFFFFFFFFFFFFFFFFFFFF35
:1015F000FFFFFFFFFF55FD5F55555FFF5557F55541
:101600005FFFF55555FFD5FFFFFFFFFFFFFFFFFF12
:10161000FFFFFFFFFFFFFFFFFFFFFF57FD5F555578
:101620005FFD5555555557FFD555557FD5FFFFFFE4
:10163000FFFFFFFFFFFFFFFFFFFFFFFFFFFFFFFFBA
:10164000FD57FD5F55555FF55555555555FF555F90
:10165000D55FD5FFFFFFFFFFFFFFFFFFFFFFFFFF8E
:10166000FFFFFFFFFFFFF55FFD5FF57FFFD55FF534
:1016700055FF55FF55FFF55FD5FFFFFFFFFFFFFF4C
:10168000FFFFFFFFFFFFFFFFFFFFFFFFD57FFD5FB6
:10169000F57FFFD57FFD57FFD5FD57FFFD57D5FFE0
:1016A000FFFFFFFFFFFFFFFFFFFFFFFFFFFFFFFF4A
:1016B000FFFF55FFFD5FF57FFFD5FFFD5FFFD57D88
:1016C00057FFFD57D5FFFFFFFFFFFFFFFFFFFFFFA6
:1016D000FFFFFFFFFFFFFFFD5555FD5FF57FFFD5C6
:1016E000FFFD5FFFD57D55555557D5FFFFFFFFFF28
:1016F000FFFFFFFFFFFFFFFFFFFFFFFFFFF5555558
:10170000FD5FF57FFFD5FFFD5FFFD57D5555555733
:10171000D5FFFFFFFFFFFFFFFFFFFFFFFFFFFFFF03
:10172000FFFFFFF55557FD5FF57FFFD5FFFD5FFF1D
:10173000D57D55555557D5FFFFFFFFFFFFFFFFFF35
:10174000FFFFFFFFFFFFFFFFFFD57FFFFD5FF57F7F
:10175000FFD5FFFD5FFFD57D5FFFFFFFD57FFFFF5B
:10176000FFFFFFFFFFFFFFFFFFFFFFFFFFFFFF5533
:10177000FFFFFD5FF55FFFD5FFFD5FFFD57D57FFE5
:10178000FFFFD57FFFFFFFFFFFFFFFFFFFFFFFFF13
:10179000FFFFFFFFFD57FFFFFD5FFD57FFD5FFFD7B
:1017A0005FFFD57F55FFFD5FF55FFFFFFFFFFFFF89
:1017B000FFFFFFFFFFFFFFFFFFFFF55FFFFFFD5F85
:1017C000FD555FD5FFFD5FFFD57F557FD55FF55593
:1017D0007FFFFFFFFFFFFFFFFFFFFFFFFFFFFFFF99
:1017E000D57FFFFFFD5FFF555FD5FFFD5FFFD57F15
:1017F000D555557FFD557FFFFFFFFFFFFFFFFFFF23
:10180000FFFFFFFFFFFF55FFFFFFFD5FFFD55FD528
:10181000FFFD5FFFD57FF55555FFFF557FFFFFFFAC
:10182000FFFFFFFFFFFFFFFFFFFFFFFF57FFFFFF70
:10183000FFFFFFFFFFFFFFFFFFFFFFFFFFD55FFF82
:10184000FFFFFFFFFFFFFFFFFFFFFFFFFFFFFFFFA8
:10185000FFFFFFFFFFFFFFFFFFFFFEAAAABFFFFF83
:10186000FFFFFFFFFFFFFFFFFFFFFFFFFFFFFFFF88
:10187000FFFFFFFFFFFFFFFFFFFFFFFFFFFFFFFF78
:10188000EAAAAAAFAFFFFFFFFFFFFFFFFFFFFFFFC7
:10189000FFFFFFFFFFFFFFFFFFFFFFFFFFFFFFFF58
:1018A000FFFFFFFFFFFFAAAAAAABFFFFFFFFFFFF9B
:1018B000FFFFFFFFFFFFFFFFFFFFFFFFFFFFFFFF38
:1018C000FFFFFFFFFFFFFFFFFFFFFFFEAAAAAAAA7D
:1018D000FFFFFFFFFFFFFFFFFFFFFFFFFFFFFFFF18
:1018E000FFFFFFFFFFFFFFFFFFFFFFFFFFFFFFFF08
:1018F000FFFAAAAAAAAAFFFFFF0FFFF0FFFFFFFF50
:10190000FFFFFFFFFFFFFFFFFFFFFFFFFFFFFFFFE7
:10191000FFFFFFFFFFFFFFEAABEAAAFABFFFFC03EE
:10192000FFC03FFFFFFFFFFFFFFFFFFFFFFFFFFFC6
:10193000FFFFFFFFFFFFFFFFFFFFFFFFFFAAAFFA61
:10194000ABFEBFFFFC03FFC03FFFFFFFFFFFFFFF3A
:10195000FFFFFFFFFFFFFFFFFFFFFFFFFFFFFFFF97
:10196000FFFFFFAABFFAAFFEAFFFFC03FFC03FFFC0
:10197000FFFFFFFFFFFFFFFFFFFFFFFFFFFFFFFF77
:10198000FFFFFFFFFFFFFFFFFEAAFFFEAFFFABFF62
:10199000FC00FF003F0FC0003F0000FF0000FF0001
:1019A000003C3FF0F0FC0003FFFFFFFFFFFFFEAA3B
:1019B000BFFEAFFFEBFFF000FF003F0F00000F0086
:1019C000003F0000FC00003C3FF0F0F00000FFFF93
:1019D000FFFFFFFFFEAABFFFABFFEAFFF0003C00E6
:1019E0003F0F00000F00003C00003C00003C3FF0B7
:1019F000F0F00000FFFFFFFFFFFFFEAFAFFFEBFFC8
:101A0000FABFF0303C0C0F0F03FFFF0FFC3C0FF050
:101A10003C0FFFFC3FF0F0F03FF0FFFFFFFFFFFF48
:101A2000FEAFABFFEAFFFEBFF0303C0C0F0F0FFF25
:101A3000FF0FFC3C3FFC3C3FFFFC0000F0F03FF0A0
:101A4000FFFFFFFFFFFFFEBFEBFFFAFFFEAFF03C23
:101A5000003C0F0F0FFFFF0FFC3C3FFC3C3FFFFC27
:101A60000000F0F03FF0FFFFFFFFFFFFFEFFFAFF77
:101A7000FEBFFFAFF03C003C0F0F0FFFFF00003C2C
:101A80003FFC3C3FFFFC0000F0F00000FFFFFFFFC9
:101A9000FFFFFFFFFAFFFEAFFFEFF03C003C0F0F30
:101AA0000FFFFF00003C3FFC3C3FFFFC3FF0F0F02D
:101AB0000003FFFFFFFFFFFFFFFFFABFFFAFFFFFC6
:101AC000F03F00FC0F0F03FFFF0FFC3C0FF03C0F3B
:101AD000FFFC3FF0F0F03FFFFFFFFFFFFFFFFFFFC6
:101AE000EAAFFEABFFFFF03F00FC0F0F00000F0F4F
:101AF000FC3C00003C00003C3FF0F0F03FFFFFFFEB
:101B0000FFFFFFFFFFFFAAAFFEAAFFFFF03FC3FCEE
:101B10000F0FC0000F0FFC3F0000FF00003C3FF024
:101B2000F0F03FFFFFFFFFFFFFFFFFFFAAABFAAAA6
:101B3000FFFFFCFFFFFF3FFFFFFFFFFFFFFFFFFF78
:101B4000FFFFFFFFFFFFFFFCFFFFFFFFFFFFFFFFA8
:101B5000FFFEAAAAEAAABFFFFFFFFFFFFFFFFFFFEA
:101B6000FFFFFFFFFFFFFFFFFFFFFFFFFFFFFFFF85
:101B7000FFFFFFFFFFFFFFFAAAAAAAAABFFFFFFF0E
:101B8000FFFFFFFFFFFFFFFFFFFFFFFFFFFFFFFF65
:101B9000FFFFFFFFFFFFFFFFFFFFFFFFFFFEAAAA00
:101BA000AAAABFFFFFFFFFFFFFFFFFFFFFFFFFFF2F
:101BB000FFFFFFFFFFFFFFFFFFFFFFFFFFFFFFFF35
:101BC000FFFFFFFFEAAAAAAAFFFFFFFFFFFFFFFF39
:101BD000FFFFFFFFFFFFFFFFFFFFFFFFFFFFFFFF15
:101BE000FFFFFFFFFFFFFFFFFFFFFEAAAAAFFFFF00
:101BF000FFFFFFFFFFFFFFFFFFFFFFFFFFFFFFFFF5
:101C0000FFFFFFFFFFFFFFFFBF0E11241FBECFEF3F
:101C1000D8E0DEBFCDBF11E0A0E0B1E0E6EFF7E233
:101C200002C005900D92A230B107D9F721E0A2E0E1
:101C3000B1E001C01D92AD31B207E1F71EE0C5E091
:101C4000DEE004C02197FE010E94F313C430D107E7
:101C5000C9F70E942F0E0C94F9130C94000061E058
:101C600080E00E94A41060E081E00E94A41066E081
:101C700082E00E94771061E080E00E94B41061E091
:101C800081E00E94CF1061E082E00E94CF1061E00D
:101C900083E00E9425110E94BD11789415BC85E057
:101CA00091E00E94560F85E091E00E94E00FFBCF8B
:101CB0001F920F920FB60F9211242F933F934F93C1
:101CC0005F936F937F938F939F93AF93BF93EF93A4
:101CD000FF9382E091E00E94C21180910401823062
:101CE00031F0883039F481E080931B0103C081E03A
:101CF00080931A01FF91EF91BF91AF919F918F91C6
:101D00007F916F915F914F913F912F910F900FBEF7
:101D10000F901F9018951F920F920FB60F921124DB
:101D20008F939F93AF93BF9380911601909117016A
:101D3000A0911801B09119010196A11DB11D8093C8
:101D4000160190931701A0931801B0931901BF9148
:101D5000AF919F918F910F900FBE0F901F9018958C
:101D60001F920F920FB60F9211248F9381E08093F0
:101D70001C018F910F900FBE0F901F901895E5E0FA
:101D8000F1E080EF90E09183808380E491E09383A1
:101D9000828312861386148615860895FC0140916D
:101DA00016015091170160911801709119018081FD
:101DB0009181A281B3810596A11DB11D48175907D4
:101DC0006A077B0770F0408351836283738380913D
:101DD00015018F5F823019F08093150102C01092B7
:101DE00015018091160190911701A0911801B091F1
:101DF000190144815581668177814C595F4F6F4F3E
:101E00007F4F84179507A607B707B0F084839583A3
:101E1000A683B783309114013F5F30931401209162
:101E200013012F5F20931301343011F41092140129
:101E3000263011F410921301408551856285738517
:101E400043585F4F6F4F7F4F84179507A607B7071B
:101E500070F080879187A287B387809100018F5FA0
:101E6000823019F0809300010895109200010895C6
:101E7000FC018091160190911701A0911801B09179
:101E8000190180839183A283B3838091160190917D
:101E90001701A0911801B091190184839583A6833D
:101EA000B78380879187A287B38708957F928F92A7
:101EB0009F92AF92BF92CF92DF92EF92FF920F93D9
:101EC0001F93CF93DF93EC010E94F21160E0CE01EB
:101ED0000E9447126FEF7FEFCE010E94A31277247A
:101EE0007A947F927F920F2EFFE18F2E912CF02D0E
:101EF0000F2EA12CF8EFBF2EF02DC12CD12C0F2EC0
:101F0000F8EEEF2EF4E1FF2EF02D00E610E020E3D6
:101F100031E046E450E068E070E0CE010E94211319
:101F20002FEF8BE792E9215080409040E1F700C00D
:101F3000000060E070E0CE010E94A3127F927F92C9
:101F40000F2E812CF8EF9F2EF02D0F2EA12CF8E7ED
:101F5000BF2EF02D0F2EF8E6EF2EF0E0FF2EF02D25
:101F600000EE10E020E431E040E150E060E070E09D
:101F7000CE010E9421132FEF89E698E12150804085
:101F80009040E1F700C0000088EE91E19D838C83D2
:101F90001F821E828FEF9FEF998788870F900F9087
:101FA0000F900F90DF91CF911F910F91FF90EF90C5
:101FB000DF90CF90BF90AF909F908F907F900895CB
:101FC000CF93DF93CDB7DEB72C970FB6F894DEBF73
:101FD0000FBECDBF6C012FEF81EE94E02150804009
:101FE0009040E1F700C00000CE0101960E94380F3A
:101FF0006894BB24B1F8CE0101960E94CE0E809168
:102000001B01882359F0F6018285815012F08287E6
:1020100002C0F601128610921B010FC080911A01B6
:10202000882359F0F60182858F5F833014F482870C
:1020300002C0F601B28610921A018091130181113B
:1020400032C0F6018285813091F08230F1F0811149
:10205000D2CFE12CF12C0EE010E026E030E040EA97
:1020600050E062E070E0C6010E94E812C4CFE12CAB
:10207000F12C0EE010E026E030E048EB50E062E0AA
:1020800070E0C6010E94E812B6CFE12CF12C0EE000
:1020900010E026E030E040ED50E062E070E0C60184
:1020A0000E94E812A8CF843009F0A5CFEE24EA946C
:1020B000FE2C0EE010E026E030E040EA50E062E066
:1020C00070E0C6010E94E81226E030E048EB50E0E4
:1020D00062E070E0C6010E94E81226E030E040EDC8
:1020E00050E062E070E0C6010E94E81284CF8130C7
:1020F00089F08230E1F0811126C024B181E090E0C6
:1021000002C0880F991F6A95E2F7822B84B985B1C6
:1021100085B9089527B181E090E002C0880F991F2A
:102120006A95E2F7822B87B988B188B908952AB1F8
:1021300081E090E002C0880F991F6A95E2F7822B38
:102140008AB98BB18BB908956195813039F08230AD
:1021500041F0811108C064B915B8089567B918B87D
:1021600008956AB91BB808959DB321E030E002C01C
:10217000220F331F8A95E2F7292B2DBB613039F0EE
:10218000623049F061110AC01092690008958AE036
:102190008093690008958FE08093690008958130ED
:1021A00099F18230B1F081114FC0611108C081E016
:1021B00080936E0014BC85E085BD16BC089582E056
:1021C00080936E0084BD85E085BD16BC8FEF87BD12
:1021D000089561110BC081E0809370001092B000EF
:1021E00084E08093B1001092B200089582E0809361
:1021F00070008093B00084E08093B1001092B20030
:1022000089EF8093B300089561110DC081E0809340
:102210006F001092800085E080938100109285000D
:1022200010928400089582E080936F0010928000E5
:102230008DE08093810010928500109284001092AE
:1022400089008FEF809388000895853009F45DC080
:102250002CF4833051F08430C1F00895873029F197
:102260000CF46FC08830C9F10895611107C084B5BE
:10227000816484BD8CE085BD16BC089584B58364FB
:1022800084BD8CE085BD16BC0895611107C084B57E
:10229000816184BD8CE085BD16BC089584B58361E1
:1022A00084BD8CE085BD16BC089561110BC0E0EBC8
:1022B000F0E080818168808386E08093B100109295
:1022C000B2000895E0EBF0E080818368808386E0CF
:1022D0008093B1001092B200089561110BC0E0EB41
:1022E000F0E080818162808386E08093B10010926B
:1022F000B2000895E0EBF0E080818362808386E0A5
:102300008093B1001092B200089561110DC0E0E811
:10231000F0E080818368808384E080938100109264
:102320008500109284000895E0E8F0E080818368E1
:1023300080838CE08093810010928500109284004D
:10234000089561110DC0E0E8F0E080818362808330
:1023500084E080938100109285001092840008959B
:10236000E0E8F0E08081836280838CE080938100EC
:102370001092850010928400089580E58CBD81E064
:102380008DBD0895FC0186B1806C80839181808130
:102390008095892382838081818308956EBD0DB4E9
:1023A00007FEFDCF08952A9828980E94CE11289AFA
:1023B00008952A9A28980E94CE11289A08951F936A
:1023C000CF93DF93EC01162F672F2A9A28980E944B
:1023D000CE11612FCE010E94CE11289ADF91CF91AC
:1023E0001F910895CF93DF93EC01289A29982FEF3E
:1023F00089EF90E0215080409040E1F700C000005C
:10240000299A2FEF89E698E1215080409040E1F72A
:1024100000C0000061E0CE010E94D3112FEF89EFD0
:1024200090E0215080409040E1F700C0000060EC57
:10243000CE010E94D3116BE2CE010E94D91166E356
:10244000CE010E94D31168E4CE010E94D9116AE343
:10245000CE010E94D31165E5CE010E94D91160E240
:10246000CE010E94D31161E1CE010E94D3112FEF62
:102470008DEE92E0215080409040E1F700C00000D6
:1024800069E2CE010E94D311DF91CF9108951F938D
:10249000CF93DF93EC01162F66E30E94D311113026
:1024A00089F01230A1F0111116C068E2CE010E942D
:1024B000D911888199812A813B81398328839B8323
:1024C0008A8309C068E4CE010E94D91104C068E87B
:1024D000CE010E94D911DF91CF911F910895AF9243
:1024E000BF92CF92DF92EF92FF920F931F93CF9301
:1024F000DF93EC015B017A0169016AE20E94D3116A
:10250000B501CE010E94DF11B601CE010E94DF119C
:102510006BE2CE010E94D311B701CE010E94DF1100
:10252000B801CE010E94DF116CE2CE010E94D311EE
:10253000DF91CF911F910F91FF90EF90DF90CF909F
:10254000BF90AF900895CF92DF92EF92FF920F93DA
:102550001F93CF93DF937C016B01FC0102811381F8
:1025600001501109208131812150310940E050E0B2
:1025700060E070E00E946F12F7018281938118166B
:102580001906ECF400E010E0F70180819181181643
:1025900019066CF4C0E0D0E0B601C7010E94DF115B
:1025A0002196F70180819181C817D907ACF30F5F9D
:1025B0001F4FF70182819381081719072CF3DF91D0
:1025C000CF911F910F91FF90EF90DF90CF900895E2
:1025D0008F929F92AF92BF92CF92DF92EF92FF9233
:1025E0000F931F93CF93DF936C01490158018A0128
:1025F0000A0D1B1D015011099B01280D391D215089
:1026000031090E946F121A141B0474F4181419046F
:102610003CF4E401B701C6010E94DF112197D1F714
:1026200081E0A81AB10891F7DF91CF911F910F9126
:10263000FF90EF90DF90CF90BF90AF909F908F90E2
:1026400008952F923F924F925F926F927F928F9256
:102650009F92AF92BF92CF92DF92EF92FF920F9331
:102660001F93CF93DF93CDB7DEB760970FB6F89483
:10267000DEBF0FBECDBF988B8F8729013801DA826C
:10268000C982BA86A9869C868B868A01060D171D8B
:10269000015011099B01240D351D215031090E9463
:1026A0006F12C30199230CF401969C01359527956F
:1026B0003E872D87121613060CF07CC0C2019923A9
:1026C0000CF40796FC01F595E795F595E795F595DA
:1026D000E795FE83ED83F887EF836E2C7F2C212C0A
:1026E000312C6894AA24A1F8B12C8F809884860C90
:1026F000971C7C826B824F8458882D813E811216F4
:1027000013060CF043C0EB80FC80F701C490689482
:10271000662462F8712CDC2CD694D694D694D69488
:10272000D694D69402E010E0D11006C069817A8177
:10273000C2010E94DF111AC0F1E0DF1206C06985F4
:102740007A85C2010E94DF1111C022E0D21206C0B8
:102750006B857C85C2010E94DF1108C033E0D31273
:1027600005C06DA17EA1C2010E94DF1101501109B7
:10277000D9F6CC0CCC0C81E0681A710861F69FEF99
:10278000E91AF90AE814F90409F0BFCFE1E0AE1A3A
:10279000B10809F0B2CF6B807C80FFEF2F1A3F0A9F
:1027A0002F813885620E731E8D859E852816390609
:1027B00009F097CF60960FB6F894DEBF0FBECDBF7D
:1027C000DF91CF911F910F91FF90EF90DF90CF900D
:1027D000BF90AF909F908F907F906F905F904F9041
:1027E0003F902F900895EE0FFF1F0590F491E02D7C
:0627F0000994F894FFCFEC
:0227F6000100E0
:00000001FF
