:100000000C9475060C9492060C9492060C9492062D
:100010000C9492060C9492060C9492060C94920600
:100020000C9492060C9492060C9492060C949206F0
:100030000C9492060C9492060C9492060C949206E0
:100040000C9492060C9492060C9492060C949206D0
:100050000C9492060C9492060C9492060C949206C0
:100060000C9492060C949206FFFFFFFFFFFFFFFF28
:10007000FFFFFFFFFFFFFFFFFFFFFFFFFFFFFFFF90
:10008000FFFFFFFFFFFFFFFFFFFFFFFFFFFFFFFF80
:10009000FFFFFFFFFFFFFFFFFFFFFFFFFFFFFFFF70
:1000A000FFFFFFFFFFFFFFFFFFFFFFFFFFFFFFFF60
:10031000FFFFFFFFFF557FD5FFFFFFFFFFFFFFFF41
:10032000FFFFFFFFFF57FDFFFFFFFFFFFFFFFFFF87
:10033000FFFFFFFFFFFFFFFFFFFFFFFFFF557FD521
:10034000FFFFFFFFFFFFFFFFFFFFFFFFFF57F7FF6D
:10035000FFFFFFFFFFFFFFFFFFFFFFFFFFFFFFFFAD
:10036000FFFFFFFFFD557FD5FFFFFFFFFFFFFFFFF3
:10037000FFFFFFFFFF57FFFFFFFFFFFFFFFFFFFF35
:10038000FFFFFFFFFFFFFFFFFFFFFFFFF5557FD5DB
:10039000FFFFFFFFFFFFFFFFFFFFFFFFFF57FFFF15
:1003A000FFFFFFFFFFFFFFFFFFFFFFFFFFFFFFFF5D
:1003B000FFFFFFFFD5757FD5FFFFFFFFFFFFFFFFAB
:1003C000FFFFFFFFFF57FFFFFFFFFFFFFFFFFFFFE5
:1003D000FFFFFFFFFFFFFFFFFFFFFFFF55F57FD58B
:1003E0007FFFFFD5FFFF57FFFFFF557FFF57FFFF41
:1003F000FFFFFFFFFFFFFFFFFFFFFFFFFFFFFFFF0D
:10040000FFFFFFFD57F57D55557FFD555FD5557FA6
:10041000FFD55557FF57FFFFFFFFFFFFFFFFFFFF10
:10042000FFFFFFFFFFFFFFFFFFFFFFFD5FF57D55B4
:10043000557FF5555555555FFF555555FF57FFFFEE
:10044000FFFFFFFFFFFFFFFFFFFFFFFFFFFFFFFFBC
:10045000FFFFFFF55FF57D55557FD5555555555730
:10046000FD557F557F57FFFFFFFFFFFFFFFFFFFF9A
:10047000FFFFFFFFFFFFFFFFFFFFFFD57FF57FD5EA
:10048000FFFF557FD557FD57FD57FFD57F57FFFF1E
:10049000FFFFFFFFFFFFFFFFFFFFFFFFFFFFFFFF6C
:1004A000FFFFFF55FFF57FD5FFFF55FFF55FFF57B6
:1004B000F55FFFF55F57FFFFFFFFFFFFFFFFFFFF48
:1004C000FFFFFFFFFFFFFFFFFFFFFD57FFF57FD59A
:1004D000FFFF57FFF57FFF55F55FFFF55F57FFFF04
:1004E000FFFFFFFFFFFFFFFFFFFFFFFFFFFFFFFF1C
:1004F000FFFFF55557F57FD5FFFF57FFF57FFF55F8
:10050000F55555555F57FFFFFFFFFFFFFFFFFFFF4B
:10051000FFFFFFFFFFFFFFFFFFFFD55557F57FD51B
:10052000FFFF57FFF57FFF55F55555555F57FFFF07
:10053000FFFFFFFFFFFFFFFFFFFFFFFFFFFFFFFFCB
:10054000FFFFD5555FF57FD5FFFF57FFF57FFF55BF
:10055000F55555555F57FFFFFFFFFFFFFFFFFFFFFB
:10056000FFFFFFFFFFFFFFFFFFFF55FFFFF57FD5F9
:10057000FFFF57FFF57FFF55F57FFFFFFF55FFFF9B
:10058000FFFFFFFFFFFFFFFFFFFFFFFFFFFFFFFF7B
:10059000FFFD57FFFFF57FD57FFF57FFF57FFF5525
:1005A000F55FFFFFFF55FFFFFFFFFFFFFFFFFFFFAF
:1005B000FFFFFFFFFFFFFFFFFFF55FFFFFF57FF589
:1005C0005FFF57FFF57FFF55FD57FFF57FD57FFF95
:1005D000FFFFFFFFFFFFFFFFFFFFFFFFFFFFFFFF2B
:1005E000FFD57FFFFFF57FF5557F57FFF57FFF555F
:1005F000FD55FF557FD555FFFFFFFFFFFFFFFFFFB5
:10060000FFFFFFFFFFFFFFFFFF55FFFFFFF57FFD30
:10061000557F57FFF57FFF55FF555555FFF555FFA2
:10062000FFFFFFFFFFFFFFFFFFFFFFFFFFFFFFFFDA
:10063000FD57FFFFFFF57FFF557F57FFF57FFF5504
:10064000FFD55557FFFD55FFFFFFFFFFFFFFFFFFE2
:10065000FFFFFFFFFFFFFFFFFD5FFFFFFFFFFFFF4C
:10066000FFFFFFFFFFFFFFFFFFFF557FFFFFFFFFC4
:10067000FFFFFFFFFFFFFFFFFFFFFFFFFFFFFFFF8A
:10068000FFFFFFFFFFFFFFFFFFFAAAAAFFFFFFFF29
:10069000FFFFFFFFFFFFFFFFFFFFFFFFFFFFFFFF6A
:1006A000FFFFFFFFFFFFFFFFFFFFFFFFFFFFFFFF5A
:1006B000FFAAAAAABEBFFFFFFFFFFFFFFFFFFFFFCA
:1006C000FFFFFFFFFFFFFFFFFFFFFFFFFFFFFFFF3A
:1006D000FFFFFFFFFFFFFFFFFEAAAAAAAFFFFFFF7A
:1006E000FFFFFFFFFFFFFFFFFFFFFFFFFFFFFFFF1A
:1006F000FFFFFFFFFFFFFFFFFFFFFFFFFFFFFFFF0A
:10070000FAAAAAAAABFFFFFFFFFFFFFFFFFFFFFF51
:10071000FFFFFFFFFFFFFFFFFFFFFFFFFFFFFFFFE9
:10072000FFFFFFFFFFFFFFFFEAAAAAAAABFFFFFC44
:100730003FFFC3FFFFFFFFFFFFFFFFFFFFFFFFFFC5
:10074000FFFFFFFFFFFFFFFFFFFFFFFFFFFFFFFFB9
:10075000AAAFAAABEAFFFFF00FFF00FFFFFFFFFF0A
:10076000FFFFFFFFFFFFFFFFFFFFFFFFFFFFFFFF99
:10077000FFFFFFFFFFFFFFFEAABFEAAFFAFFFFF098
:100780000FFF00FFFFFFFFFFFFFFFFFFFFFFFFFF68
:10079000FFFFFFFFFFFFFFFFFFFFFFFFFFFFFFFE6A
:1007A000AAFFEABFFABFFFF00FFF00FFFFFFFFFF46
:1007B000FFFFFFFFFFFFFFFFFFFFFFFFFFFFFFFF49
:1007C000FFFFFFFFFFFFFFFAABFFFABFFEAFFFF037
:1007D00003FC00FC3F0000FC0003FC0003FC0000E5
:1007E000F0FFC3C3F0000FFFFFFFFFFFFFFFFFFAA3
:1007F000AAFFFABFFFAFFFC003FC00FC3C00003CB7
:100800000000FC0003F00000F0FFC3C3C00003FFC2
:10081000FFFFFFFFFFFFFFFAAAFFFEAFFFABFFC026
:1008200000F000FC3C00003C0000F00000F0000084
:10083000F0FFC3C3C00003FFFFFFFFFFFFFFFFFA8E
:10084000BEBFFFAFFFEAFFC0C0F0303C3C0FFFFC73
:100850003FF0F03FC0F03FFFF0FFC3C3C0FFC3FF56
:10086000FFFFFFFFFFFFFFFABEAFFFABFFFAFFC0C6
:10087000C0F0303C3C3FFFFC3FF0F0FFF0F0FFFFEA
:10088000F00003C3C0FFC3FFFFFFFFFFFFFFFFFA3E
:10089000FFAFFFEBFFFABFC0F000F03C3C3FFFFCB6
:1008A0003FF0F0FFF0F0FFFFF00003C3C0FFC3FF15
:1008B000FFFFFFFFFFFFFFFBFFEBFFFAFFFEBFC0E5
:1008C000F000F03C3C3FFFFC0000F0FFF0F0FFFFC9
:1008D000F00003C3C00003FFFFFFFFFFFFFFFFFFA8
:1008E000FFEBFFFABFFFBFC0F000F03C3C3FFFFC56
:1008F0000000F0FFF0F0FFFFF0FFC3C3C0000FFFE8
:10090000FFFFFFFFFFFFFFFFFFEAFFFEBFFFFFC08C
:10091000FC03F03C3C0FFFFC3FF0F03FC0F03FFF1A
:10092000F0FFC3C3C0FFFFFFFFFFFFFFFFFFFFFF9D
:10093000FFAABFFAAFFFFFC0FC03F03C3C00003C45
:100940003FF0F00000F00000F0FFC3C3C0FFFFFF66
:10095000FFFFFFFFFFFFFFFFFEAABFFAABFFFFC0D5
:10096000FF0FF03C3F00003C3FF0FC0003FC0000A8
:10097000F0FFC3C3C0FFFFFFFFFFFFFFFFFFFFFF4D
:10098000FEAAAFEAABFFFFF3FFFFFCFFFFFFFFFF95
:10099000FFFFFFFFFFFFFFFFFFFFFFFFF3FFFFFF73
:1009A000FFFFFFFFFFFFFFFFFAAAABAAAAFFFFFFAF
:1009B000FFFFFFFFFFFFFFFFFFFFFFFFFFFFFFFF47
:1009C000FFFFFFFFFFFFFFFFFFFFFFFFFFFFFFFF37
:1009D000EAAAAAAAAAFFFFFFFFFFFFFFFFFFFFFF90
:1009E000FFFFFFFFFFFFFFFFFFFFFFFFFFFFFFFF17
:1009F000FFFFFFFFFFFFFFFFFAAAAAAAAAFFFFFF60
:100A0000FFFFFFFFFFFFFFFFFFFFFFFFFFFFFFFFF6
:100A1000FFFFFFFFFFFFFFFFFFFFFFFFFFFFFFFFE6
:100A2000FFAAAAAAABFFFFFFFFFFFFFFFFFFFFFF29
:100A3000FFFFFFFFFFFFFFFFFFFFFFFFFFFFFFFFC6
:100A4000FFFFFFFFFFFFFFFFFFFAAAAABFFFFFFFA5
:100A5000FFFFFFFFFFFFFFFFFFFFFFFFFFFFFFFFA6
:100A6000FFFFFFFFFFFFFFFFFFFFFFFFFFFFFFFF96
:100A7000FFFFFFFFFFFFFFFFFFFFFFFFFFFFFFFF86
:100A8000FFFFFFFFFFFFFFFFFFFFFFFFFFFFFFFF76
:100CE000FFFFFFFFFFFFFFFF9F0611241FBECFEF97
:100CF000D8E0DEBFCDBF21E0A0E0B1E001C01D9291
:100D0000A630B207E1F716E0C5E7D6E004C02197A8
:100D1000FE010E946E0AC437D107C9F70E949406EB
:100D20000C94740A0C94000061E080E00E947A0741
:100D30000E948A0780E091E00E94AA06FFCFE0E0CF
:100D4000F1E080EF90E09183808380E491E09383F1
:100D5000828308957F928F929F92AF92BF92CF929B
:100D6000DF92EF92FF920F931F93CF93DF93EC01EB
:100D70000E94B30760E0CE010E94080860E070E0C6
:100D8000CE010E947A080F2EE12CF8EFFF2EF02DF5
:100D90000FE110E028E530E040E050E066E470E06C
:100DA000CE010E94BF080F2EF0EEEF2EF7E0FF2ECF
:100DB000F02D2DE230E046E450E066E470E0CE0134
:100DC0000E94BF080F2EFFE1EF2EF12CF02D27E43B
:100DD00030E04CE850E066E470E0CE010E94BF08CD
:100DE0002FEF89E698E1215080409040E1F700C064
:100DF000000060E078EFCE010E947A082FEF89E6CC
:100E000098E1215080409040E1F700C0000060EE82
:100E100077E0CE010E947A082FEF89E698E1215011
:100E200080409040E1F700C000006FE170E0CE012B
:100E30000E947A082FEF89E698E121508040904087
:100E4000E1F700C000006FEF7FEFCE010E947A084B
:100E500077247A947F927F920F2EFFE18F2E912C30
:100E6000F02D0F2EA12CF8EFBF2EF02DC12CD12C80
:100E70000F2EF8E6EF2EF0E0FF2EF02D00E510E04B
:100E800020EA30E04EE150E060E070E0CE010E94E8
:100E9000F4082FEF89E698E1215080409040E1F777
:100EA00000C000007F927F9200EA10E020E431E071
:100EB0004EE150E060E070E0CE010E949C092FEF0F
:100EC00083E294EF215080409040E1F700C00000A1
:100ED0000F900F900F900F90DF91CF911F910F9176
:100EE000FF90EF90DF90CF90BF90AF909F908F904A
:100EF0007F9008956195813039F0823041F0811101
:100F000008C064B915B8089567B918B808956AB9E2
:100F10001BB8089580E58CBD81E08DBD08956EBD40
:100F20000DB407FEFDCF08952A9828980E948F07D8
:100F3000289A08952A9A28980E948F07289A089537
:100F40001F93CF93DF93EC01162F672F2A9A2898CF
:100F50000E948F07612FCE010E948F07289ADF9190
:100F6000CF911F910895CF93DF93EC01289A299890
:100F70002FEF89EF90E0215080409040E1F700C0D2
:100F80000000299A2FEF89E698E121508040904097
:100F9000E1F700C0000061E0CE010E9494072FEF4E
:100FA00089EF90E0215080409040E1F700C00000C0
:100FB00060ECCE010E9494076BE2CE010E949A077A
:100FC00066E3CE010E94940768E4CE010E949A076E
:100FD0006AE3CE010E94940765E5CE010E949A075C
:100FE00060E2CE010E94940761E1CE010E94940765
:100FF0002FEF89EF90E0215080409040E1F700C052
:10100000000069E2CE010E949407DF91CF9108951C
:101010001F93CF93DF93EC01162F66E30E94940792
:101020001130C1F01CF4112331F02CC01230B9F092
:101030001330D1F027C068E2CE010E949A07888160
:1010400099819D838C832A813B81398328839B836B
:101050008A8318C068E4CE010E949A0713C068E82A
:10106000CE010E949A070EC068EECE010E949A0738
:10107000888199819D838C832A813B813983288350
:101080009B838A83DF91CF911F910895AF92BF9286
:10109000CF92DF92EF92FF920F931F93CF93DF9344
:1010A000EC015B017A0169016AE20E949407B501D3
:1010B000CE010E94A007B601CE010E94A0076BE2FC
:1010C000CE010E949407B701CE010E94A007B8018B
:1010D000CE010E94A0076CE2CE010E949407DF912E
:1010E000CF911F910F91FF90EF90DF90CF90BF9025
:1010F000AF900895CF92DF92EF92FF920F931F93DC
:10110000CF93DF937C016B01FC01028113810150BD
:101110001109208131812150310940E050E060E027
:1011200070E00E944608F701828193811816190623
:10113000ECF400E010E0F7018081918118161906A7
:101140006CF4C0E0D0E0B601C7010E94A007219670
:10115000F70180819181C817D907ACF30F5F1F4F4A
:10116000F70182819381081719072CF3DF91CF9142
:101170001F910F91FF90EF90DF90CF900895AF9265
:10118000BF92CF92DF92EF92FF920F931F93CF9374
:10119000DF936C015901E8018A010C0F1D1F0150FA
:1011A00011099B012A0D3B1D215031090E9446085F
:1011B0001C161D0674F48E011A141B043CF4E50180
:1011C000B701C6010E94A0072197D1F7015011096C
:1011D00099F7DF91CF911F910F91FF90EF90DF90E2
:1011E000CF90BF90AF9008952F923F924F925F9211
:1011F0006F927F928F929F92AF92BF92CF92DF9227
:10120000EF92FF920F931F93CF93DF93CDB7DEB78B
:101210002A970FB6F894DEBF0FBECDBF3C0129015F
:1012200018870F831601BA82A9829C828B82040FD1
:10123000151F015011099B01240D351D2150310945
:101240000E9446082F813885121613060CF05BC0E9
:10125000C20199230CF40396FC01F595E795F595E9
:10126000E795FA87E987FE83ED83AE2CBF2C412CEE
:10127000512C29853A8512161306C4F5ED80FE809F
:10128000EA0CFB1C8501F80194906894CC24C2F808
:10129000D12C892D829586958695837029F4B1018C
:1012A000C3010E94A00717C0813031F469817A819F
:1012B000C3010E94A0070FC0823031F46B817C8192
:1012C000C3010E94A00707C0833029F46F8D78A165
:1012D000C3010E94A007990C990CF1E0CF1AD10824
:1012E000C1F60F5F1F4FE016F10669F62FEF421AA5
:1012F000520A8D819E81A80EB91EEF81F885E415F2
:10130000F50509F0B6CF2A960FB6F894DEBF0FBEEA
:10131000CDBFDF91CF911F910F91FF90EF90DF90A4
:10132000CF90BF90AF909F908F907F906F905F9085
:101330004F903F902F9008952F923F924F925F923F
:101340006F927F928F929F92AF92BF92CF92DF92D5
:10135000EF92FF920F931F93CF93DF93CDB7DEB73A
:1013600060970FB6F894DEBF0FBECDBF988B8F8706
:1013700029013801DA82C982BA86A9869C868B86C1
:101380008A01060D171D015011099B01240D351D01
:10139000215031090E944608C30199230CF401969B
:1013A0009C01359527953E872D87121613060CF064
:1013B0007CC0C20199230CF40796FC01F595E795D2
:1013C000F595E795F595E795FE83ED83F887EF832F
:1013D0006E2C7F2C212C312C6894AA24A1F8B12CDE
:1013E0008F809884860C971C7C826B824F845888EF
:1013F0002D813E81121613060CF043C0EB80FC8059
:10140000F701C4906894662462F8712CDC2CD694A1
:10141000D694D694D694D694D69402E010E0D11007
:1014200006C069817A81C2010E94A0071AC0F1E05A
:10143000DF1206C069857A85C2010E94A00711C02B
:1014400022E0D21206C06B857C85C2010E94A007F3
:1014500008C033E0D31205C06DA17EA1C2010E9475
:10146000A00701501109D9F6CC0CCC0C81E0681A08
:10147000710861F69FEFE91AF90AE814F90409F016
:10148000BFCFE1E0AE1AB10809F0B2CF6B807C802B
:10149000FFEF2F1A3F0A2F813885620E731E8D854C
:1014A0009E852816390609F097CF60960FB6F894F6
:1014B000DEBF0FBECDBFDF91CF911F910F91FF9087
:1014C000EF90DF90CF90BF90AF909F908F907F90E4
:1014D0006F905F904F903F902F900895EE0FFF1FF9
:0C14E0000590F491E02D0994F894FFCFE2
:00000001FF
