S012000041546D656761333238502E73726563F6
S11300000C94B2120C947C130C948B130C94DA128F
S11300100C94DA120C94DA120C94DA120C9457132E
S11300200C94DA120C94DA120C94DA120C94DA129C
S11300300C94DA120C94DA120C94DA120C94DA128C
S11300400C9408130C94DA120C94DA120C94DA124D
S11300500C94DA120C94DA120C94DA120C94DA126C
S11300600C94DA120C94DA12000000000000000F65
S1130070FF000000FAAAC00003AAAAB0000EAAFF5B
S1130080AC000EABFFEC0035AFFFFC00355FCF3C9E
S113009000355FCF3C00F55FFFFC00FF5CFF3C00D8
S11300A03FED003C0003AD507C0003AE507C000EDD
S11300B0A6609C000EAA60AC000EAA60AC00FAA573
S11300C0802C03555A002B0EAAA0000B2020D82008
S11300D020C0C000000040E040000007001C0038C1
S11300E00078007000F000F000F000F801F801FC66
S11300F0037F0E7FFE3FFC1FF807E00000000000B6
S11301000000000000000000000000001087F01F45
S1130110E3C8F51EA1080791FC7A9F90207E801009
S11301200480488510A7E80850200A801020008029
S113013010048048ED10A0080790507B8910503CB3
S113014080101FE3C88510A3CC00118C128970881D
S113015042CFF8030208F510E4281FD000228913C7
S1130160064280803FF2080010A3C80213FE400933
S113017010003C87F00043E87F1EA00006F0201F1B
S11301809FD0000080100FC0080100A3F8041020C5
S1130190108013FE2000100800080100A0080400CD
S11301A020108010003F80100FC0080100A0080735
S11301B0F0201F801000000000000000000000007C
S11301C0000000000000000000000000000000002B
S11301D0000000000000000000000000000000001B
S11301E0000000000000000000000000000000000B
S11301F000000000000000000000000000000000FB
S113020000000000000000000000000000000000EA
S113021000000000000000000000000000000000DA
S113022000000000000000000000000000000000CA
S113023000000000000000000000000000000000BA
S11302400000000000000000000000000000001E8C
S113025043F0FE084FD0007C84503F407F010204ED
S1130260214010023F405004048450214001028286
S1130270042143F0120040501C0484702140010406
S11302804204214200101E605004088A503F40017D
S11302901832041E43F1FF21425C041091500040C7
S11302A0250003F4004120001E4250042080000277
S11302B000251FF0000041207C000210044083E070
S11302C01FC0240101FC3F4FFC821FCFD0040084D7
S11302D0100200FF8101040040008200401004006D
S11302E084100500000101040000007C004010009F
S11302F00083E018C0000101FC00200000000000A1
S113030000000000000000000000000000000000E9
S113031000000000000000000000000000000000D9
S113032000000000000002000000000000000000C7
S113033000000000000000000000000000000000B9
S11303400000000000000000000000000040000069
S11303500000000000000000020000000000000097
S11303600000000000000000800000000000000009
S11303700000000001500000000000000000000028
S11303800000000000000000000000400000000029
S11303900000000100000000000000000040000018
S11303A00000000000000000000000000000000049
S11303B00000000000000000000000000000000039
S11303C00000000000000000000001000000000028
S11303D00000000000000000000000000000000019
S11303E00000050000000000000000000000000004
S11303F000000000000000000000000000000100F8
S113040000000000000000000000050000000000E3
S113041000000000000000000000000000000000D8
S11304200000000000000640000000000000000082
S113043000000000000000000000000000000000B8
S113044000000000000001000000000000000100A6
S11304500000000000000000000000000000002078
S11304600000000000000000000000000000040084
S11304700000000000000000000000000000000078
S11304800000000000000000000000000000000068
S11304900000000000001000000000000000000048
S11304A00000000000000000000002000000000046
S11304B000000400000000000000000000008000B4
S11304C00000000000000000000000000000000028
S11304D00000000000000000000000000000000018
S11304E00000000000000000000000000000000008
S11304F000000000001000000000000000000000E8
S113050000000000000000000000010000000000E6
S113051000000000000000000000000000100000C7
S113052000000000000000000000000000000000C7
S11305300000064000000000000000000000000071
S11305400000000001650000000000000000000041
S11305500000000000000000000001000000000096
S11305600000000000000000000000000010000077
S113057000000000000000000000000000000FFF69
S1130580FFF00FFFFFFF0FFFFFF000003FC003FC71
S113059003FFFFC003FFFFC03FFFFFC000000000D8
S11305A00000000000000FFFFFF00FFFFFFF0FFF30
S11305B0FFF000003FC003FC03FFFFC003FFFFC0C8
S11305C03FFFFFC0001000000000000000000FF01B
S11305D000FF0FF000000FF000FF00503FC003FCCD
S11305E03FC003FC3FC007FC3FC003FC00640000A5
S11305F00000000000000FF000FF0FF000000FF0FB
S113060000FF00503FC003FC3FC003FC3FC017FC89
S11306103FC003FC001000000000000080000FF049
S113062000FF0FF000000FF000FF00003FC203FCCA
S11306303FC003FC3FC007FC3FC003FC00000000B8
S11306400000000000000FF000FF0FF000000FF0AA
S113065000FF00003FC003FC3FC003FC3FC003FC9D
S11306603FC003FC000000000000000000800FF009
S113067000FF0FFFFF000FF000FF00003FFFFFFC33
S11306803FC003FC3FC003FC3FC003FC000000006C
S11306900000000000000FF000FF0FFFFF000FF844
S11306A000FF00003FFFFFFC3FC003FC7FC003FCD2
S11306B03FC003FC000000000000000000000FFF2A
S11306C0FFF00FF000000FF000FF00003FC003FC3C
S11306D03FC003FC3FC003FC3FC003FC000000001C
S11306E00000000000000FFFFFF00FF000000FF00B
S11306F000FF00003FC003FC3FC003FC3FC003FCFD
S11307003FC003FC000000000000000000000FF0E8
S113071000FF0FF000000FF000FF00003FC003FCDB
S11307203FC003FC3FC003FC3FC403FC00000000C7
S11307300000000000000FF010FF0FF000000FF0A9
S113074000FF00403FC003FC3FC003FC3FC003FC6C
S11307503FC003FC000000000000000000000FF098
S113076000FF0FFFFFFF0FFFFFF000103FC003FC6F
S113077013FFFFC003FFFFC03FFFFFC000000000E6
S11307800000000000000FF000FF0FFFFFFF0FFF4D
S1130790FFF000003FC003FC07FFFFC003FFFFC0E2
S11307A03FFFFFC000000000100000005550000093
S11307B000000040000004000040000100000000B0
S11307C00100001000010000000000000000000013
S11307D00000000555550005500000100000010000
S11307E00000000040004000004000040000400001
S11307F000000000000000000000001555554055A1
S11308005500000404000040000000001000100126
S113081000101001100000000000000000000000A3
S11308200000005555555155554000010100000088
S11308300000000004040400000404004400040058
S113084000000000000000000000005555555555FB
S1130850554000004040400000000000010111002C
S11308601001010011000100001000000000000050
S113087000000155555555555550000010103FFCCA
S11308800000040400404F400400400004400044C1
S113089000040000000000000000015555555555A6
S11308A05550000044043C0F7EAF3FFD3FFC111F38
S11308B0FF03FFD00111101100011000000000001F
S11308C000500155555555555550154011113D0FC2
S11308D03EAFBC4F7C4F3F4F07CF47C40444440452
S11308E04040400000000000005401555555555546
S11308F05551555444447C4FBEAFBC0F3C1F1F1F81
S113090003DF13C1011111011010000000000000E9
S113091000551455555555555545555511113FFE1E
S1130920BEAFBE0F7C0F4F4F47CF07C4444444446F
S11309304444400000000000005555555555555598
S11309405555555514447EAFBEAFBE9F3D1F1F1F66
S113095013D3FFD111111111111100000000000077
S11309600055555555555555555AA95555513EAFF0
S1130970AFFFBE8F7C4F4F5F47C457C444444444C9
S11309804444400000000000005555555555555548
S113099055AAAA95555455AAAAAAAAA11511111582
S11309A05117FF1111111111111110000000000055
S11309B0005540555555555556AAAAA55555555A4D
S11309C0AAAAAAA44544544554454544444444442D
S11309D0446AAA000000000000550005555555550D
S11309E056AAAAA555555556956AAAA51151151189
S11309F0551151511111111112AAAAA000000000A1
S1130A0000540001555555555AAAAAA9555555568D
S1130A10555AAAA544544544554454545444444452
S1130A204AAAA800000000000050000054055555D3
S1130A305AAAAAA9A95555555556AA9551551155BD
S1130A4055551555155511111AAAA000000000009E
S1130A5000400000400055555AAAAAAAAA55AA5512
S1130A605556AAAA945544555554455555154444CC
S1130A706AAAA000000000000050000000005555C4
S1130A805AAAAAAAAA9AAAA5555655AAA9155515A5
S1130A9055555155555551112AA400000000000028
S1130AA000550000000015555A55AAAAAAAAAAA9D9
S1130AB05555556AAA55554555555455556A944446
S1130AC06A900000000002AAA8554000055415557C
S1130AD055555AA956AAAAAA5555555AAA51555513
S1130AE05555551556AAA91A9550000000002AAA72
S1130AF0AA5550005555555555555695556AAAAAA7
S1130B0055555556AA945554555555555AAAAA693A
S1130B10554000000000AAAAAA5554015555555540
S1130B2055555655555AAAAA95555555AA9515552C
S1130B30155555515AAAAAA9554000000000AAAA61
S1130B40AA55550555555550001555555556AAAA3B
S1130B509555AA95AA955555559555546AAAAAA589
S1130B60554000000AA8AAAAAA55550015555500D3
S1130B7000015555555655AA955AAAA9AA955555F1
S1130B80556555552AAAAAA555400000AAAAAAAA9D
S1130B90AA55554001555400000055555555556A00
S1130BA0956AAAAAAA555555555995AA6AAAAAA5F5
S1130BB055500002AAAAAAAAAA5555415455540050
S1130BC0000015015555556A556AAAAAAAA5555695
S1130BD055566AAAAAAAAAA555500002AAAAAAAA60
S1130BE0AA55554555555000000010005555555A05
S1130BF0A56AAAAAAAA555559556AAAAAAAAAAA5B3
S1130C005554000AAAAAAAAAAA5555555500500037
S1130C1000000015555555AAAA6AAAAAAAAAA95558
S1130C2055AAAAAAAAAAAAA95540015AAAAAAAAA2E
S1130C30AA5555555000000000000155555556AAB7
S1130C40AA9AAA000AAAAA95595AAAAAAAAAAAAA10
S1130C505500155AAAAAAAAAAA555555400000003B
S1130C60015405555555556AAAAA8000002AAAA51B
S1130C705655666AAAAAAAAA5400555AAAAAAAAAA2
S1130C80AA555005000000000555455555555555C4
S1130C90AAAA00000002AAA9559599999999AAA906
S1130CA05550555AAAAAAAA556554001000000005D
S1130CB000055555555555555AA800000000AAA9D8
S1130CC059656666666AAAA55554555AAAAAAA958C
S1130CD05555000000000000000055555555555568
S1130CE056A8000000002A55559999AAA9AAAA95C0
S1130CF055555556AAAAAA555505000000000000EE
S1130D00000014055555555555A000000000255503
S1130D10555666AAAAAAAA9555555555AAAAAA55DA
S1130D205500000000000000000000005555555516
S1130D30002000000000055555559AAAAAAAAA55F4
S1130D40555555AAAAAAAA5555000000000000004E
S1130D5000000000555555500000000000000555E6
S1130D6055555AAAAAAAAA5555555AAAAAAAAA557D
S1130D70550000000000000000000000155555500B
S1130D800000000000000555555556AAAAAAAA5508
S1130D9055556AAAAAAAAA555500000000000000E9
S1130DA00000554015555554000000000000001582
S1130DB0555556AAFFFAAA555555AAAAAAAAAA95FC
S1130DC05500000000000000000555541555555508
S1130DD00000000000400001555555AFFFFFAA5523
S1130DE05555AAAAAAAAAA55550000000000000158
S1130DF054155555155555550000000005000000C3
S1130E00155555BFFFFFEA955556AAAAAAAA9555A6
S1130E1055FFC000000000155555555555555555FD
S1130E204000005514000000155555FFFFFFFA95CA
S1130E3056AAAAAAAAA9555555FFC03FFC03C055F6
S1130E4055555557D5555555400005555400000086
S1130E50055555FFFFFFFAA56AAAAAAAAAA55555E2
S1130E6055FFC0F00003C07FF5FFF003D5550155D1
S1130E700550155550000000055555FFFFFFFEBFF6
S1130E80AAAAAAA55A95555555FFC0F0003FFD558D
S1130E907DF53C3FFD50001515545555500000009C
S1130EA0040154FFFFFFFEFFAAAAAA555695555503
S1130EB055FFC03FF003C17FFDF40003C0400000B4
S1130EC05554555010000000000057FFFFFFFFFF6E
S1130ED0AAAAA9555555555555FFC0003C03C1F064
S1130EE03DF40003C000000015555500000000004B
S1130EF0000055553FFFFFFFAAAAAAA55555555511
S1130F0055FFC0003C03C0F03CF00003C000005596
S1130F1045555500000000000055155553FFFFFFCF
S1130F20EAAAAAA955555555AAFFC0FFF003C03F28
S1130F30FCF00003C0000555555554555000000001
S1130F400005555554FFFFFAAAAAAAAA5555556A91
S1130F50AAFFC000000000000000000000001555BA
S1130F60555555555500000000015005553FFFEA01
S1130F70AAAAAAAA555556AAAA0000000000000071
S1130F80000000000000155555555555554000000A
S1130F9000010000557FFFEAAAAAAAAA555556AA3D
S1130FA0AA000055000000000000000000151555BF
S1130FB0555555555550000000000000554C556AD4
S1130FC0AAAAAAA955555AAAAA0055555000000024
S1130FD0000000000000555555555555555000006A
S1130FE000000000155555556AAAAAAAA5555AAA83
S1130FF0AAFFD5555400000000000000000005556C
S11310005555555555540000000000001005555520
S1131010555AAAAAAA555AAAAAFFC03FFD0055408C
S113102000000015400001555555555555540540CF
S1131030000000000000015555AAAAA955555AAA56
S1131040AAFFC0F0007FFD7FF0FFF17FF40001559F
S113105055555555555455540000000000002AAA12
S1131060AAAAAA555555AAAAAAFFC0F000F015F5D8
S11310703CF03DF57D000055555555555555555594
S11310800000556AAAAAAAAAAAAAA955555AAAAAA0
S1131090AAFFC03FF0F000F53DF005F57D400040AB
S11310A015555555555555555555555AA556AAAA2C
S11310B0AAAAA555556AAAAAAAFFC0003CF000F541
S11310C07DF515FFF54540000555555555555555C4
S11310D05555555A55556AAAAAAAA55555A555A9AF
S11310E055FFC0003CF000F03DF515F55555540092
S11310F001555555555555555555555955555AAA92
S1131100AAAA95555595556555FFC0FFF03FFC3F7C
S1131110F0F5557FF55555055155555555555555CA
S113112055555555555556AAAAAA9555555555552B
S113113055FFC000000000000000155000015515C7
S1131140545555555555555555555555555555564B
S1131150AAAA9555555555555500000000000000A4
S1131160000000000000015555555555555555557D
S113117055555555555555556AA5555555555555B6
S11311805500000000000000000000000000000501
S11311905555555555540155555555555555555550
S11311A05A55555555555555550000000000000039
S11311B000000000000000000555555555000000D2
S11311C0155550155555555559555555555555554C
S11311D055FFC000000000000000000000000000F7
S11311E000015555000000000005400155555555B6
S11311F0555555555555555555FFD57FFD5555559F
S113120055557D57D557D555555555555556AAAAB3
S1131210AAAAAAAAAAAAAAAAAAA55555555555552D
S113122055FFD5F555FFF57FF57FFD555557D55538
S11312305555555555555A556AAAAAABFAAAAAAA9C
S1131240A55555555555555555FFD5F555F57DF5C8
S11312507DF57D5FD57FFD55555555555AAAAAAAEA
S1131260AAAAABFFFEAAAAAAAAAAAAA95555555585
S113127055FFD5F555F555F57DF57D57D557D5551C
S1131280AAAAAAAAAAAAAAAAAAAAAAAAAAAAAAAABA
S1131290AAAAAA955555555555FFD5F555F555FFA7
S11312A0F5F57D57D557D5555556AAAAAAAAAAAA7F
S11312B0AAAAABFFAAAAAAAAAAAAAAAAAAAAAAAA34
S11312C0AAFFD5F555F555F555F57D57D557D5559F
S11312D0555556AAAAAAAAAAABFFFFFFFFEAAAAAD3
S11312E0AAAAAAAAAAAAA95555FFD57FFDF5557F92
S11312F0F57FFD57D55BE556AAAAAAAAAAAAAAAA67
S1131300AAAAFFFFFEAAAAAAAAAAAAAAAAA95555E6
S113131055FFD5555555555555555AAAAAAAAAAAA1
S1131320AAAAAAAAAAAAAAAAAAFFFFFFFFFFABFA1F
S1131330AAAAAAAAAAAAAAAAAA555555555555555C
S113134055555556AAAAAAAAAAAAAAAAAAAAAAAA4C
S1131350AAAAAAAAAAAAAAAAAAAAAAAAAAAAAAAAE9
S1131360AA555555555555AAAA9555AAAAAAAAAA41
S1131370AAAAAAAAAAAAAABFFFFFFFFFFAAAAAAA10
S1131380AAAAAAAAAAAAAAAAAA55555556AAAAAA0C
S1131390AAAAAAAAAAAAAAAAAAAAAAAAAFEBFFFFB9
S11313A0FFFFFFFFFFFFEAAAAAAAAAAAAAAAAAAA5B
S11313B0AAAAAA555556AAAAAAAAAAAAAAAAAAAA87
S11313C0AAAAAAAAAAAAABFFFFFFEAAAAAAAAAAA39
S11313D0AAAAAAAAAAAAAAAAAAAAAAA9555556957D
S11313E056AAAAAAAAAAAAAAAAAAAAAAAAAAAAAAAD
S11313F0BFFFFFFAAAAAAAAAAAAAAAAAAAAAAAAA3A
S1131400AAA55955555AAAAAAAAAAAAAAAAAAAAA88
S1131410AAAAAAAAAAAAAAAAAABFFFFFFFFEAAAAC0
S1131420AAAAAAAAAAAAAAAAAAAAAAAAAAAAAAAA18
S1131430AAAAAAAAAAAAAAAAAAAAAAAABFFFFFFFF4
S1131440FFFFFFFFFEAAAAAAAAAAAAAAAAAAAAAA50
S1131450AAAAAAAAAAAAAAAAAAAAAAAAAAAAAAAAE8
S1131460AAFFFFFFFFFFFFFFFFFFFFFEAAAABFFFC8
S1131470FFFFAFAAAAAAAAAAAAFFFFFFFFFFFFFFC6
S1131480FFFFFFFFFFFFFFFFFFFFFFFFFFFFFFFF68
S1131490FFFFFFFFFFFFFFFFFFFFFFFFFFFFFFFF58
S11314A0FFFFFFD55FF57FFFFFFFFFFFFFFFFFFF9C
S11314B0FFFFFFD5FF7FFFFFFFFFFFFFFFFFFFFFE2
S11314C0FFFFFFFFFFFFFFFFFFD55FF57FFFFFFF7C
S11314D0FFFFFFFFFFFFFFFFFFD5FDFFFFFFFFFF44
S11314E0FFFFFFFFFFFFFFFFFFFFFFFFFFFFFF55B2
S11314F05FF57FFFFFFFFFFFFFFFFFFFFFFFFFD54C
S1131500FFFFFFFFFFFFFFFFFFFFFFFFFFFFFFFFE7
S1131510FFFFFFFFFD555FF57FFFFFFFFFFFFFFFAD
S1131520FFFFFFFFFFD5FFFFFFFFFFFFFFFFFFFFF1
S1131530FFFFFFFFFFFFFFFFFFFFF55D5FF57FFF8D
S1131540FFFFFFFFFFFFFFFFFFFFFFD5FFFFFFFFD1
S1131550FFFFFFFFFFFFFFFFFFFFFFFFFFFFFFFF97
S1131560D57D5FF55FFFFFF57FFFD5FFFFFFD55FFB
S1131570FFD5FFFFFFFFFFFFFFFFFFFFFFFFFFFFA1
S1131580FFFFFFFFFFFF55FD5F55555FFF5557F503
S1131590555FFFF55555FFD5FFFFFFFFFFFFFFFF29
S11315A0FFFFFFFFFFFFFFFFFFFFFFFF57FD5F553B
S11315B0555FFD5555555557FFD555557FD5FFFFFB
S11315C0FFFFFFFFFFFFFFFFFFFFFFFFFFFFFFFF27
S11315D0FFFD57FD5F55555FF55555555555FF555D
S11315E05FD55FD5FFFFFFFFFFFFFFFFFFFFFFFF9B
S11315F0FFFFFFFFFFFFFFF55FFD5FF57FFFD55F97
S1131600F555FF55FF55FFF55FD5FFFFFFFFFFFFC2
S1131610FFFFFFFFFFFFFFFFFFFFFFFFFFD57FFD82
S11316205FF57FFFD57FFD57FFD5FD57FFFD57D5EC
S1131630FFFFFFFFFFFFFFFFFFFFFFFFFFFFFFFFB6
S1131640FFFFFF55FFFD5FF57FFFD5FFFD5FFFD572
S11316507D57FFFD57D5FFFFFFFFFFFFFFFFFFFF94
S1131660FFFFFFFFFFFFFFFFFD5555FD5FF57FFF08
S1131670D5FFFD5FFFD57D55555557D5FFFFFFFFBE
S1131680FFFFFFFFFFFFFFFFFFFFFFFFFFFFF5551A
S113169055FD5FF57FFFD5FFFD5FFFD57D555555A2
S11316A057D5FFFFFFFFFFFFFFFFFFFFFFFFFFFF18
S11316B0FFFFFFFFF55557FD5FF57FFFD5FFFD5F8A
S11316C0FFD57D55555557D5FFFFFFFFFFFFFFFFA2
S11316D0FFFFFFFFFFFFFFFFFFFFD57FFFFD5FF56C
S11316E07FFFD5FFFD5FFFD57D5FFFFFFFD57FFF48
S11316F0FFFFFFFFFFFFFFFFFFFFFFFFFFFFFFFFF6
S113170055FFFFFD5FF55FFFD5FFFD5FFFD57D57FB
S1131710FFFFFFD57FFFFFFFFFFFFFFFFFFFFFFF7F
S1131720FFFFFFFFFFFD57FFFFFD5FFD57FFD5FFE5
S1131730FD5FFFD57F55FFFD5FF55FFFFFFFFFFFF7
S1131740FFFFFFFFFFFFFFFFFFFFFFF55FFFFFFD51
S11317505FFD555FD5FFFD5FFFD57F557FD55FF5F5
S1131760557FFFFFFFFFFFFFFFFFFFFFFFFFFFFFAF
S1131770FFD57FFFFFFD5FFF555FD5FFFD5FFFD501
S11317807FD555557FFD557FFFFFFFFFFFFFFFFF0F
S1131790FFFFFFFFFFFFFF55FFFFFFFD5FFFD55F6B
S11317A0D5FFFD5FFFD57FF55555FFFF557FFFFF43
S11317B0FFFFFFFFFFFFFFFFFFFFFFFFFF57FFFFDD
S11317C0FFFFFFFFFFFFFFFFFFFFFFFFFFFFD55FEF
S11317D0FFFFFFFFFFFFFFFFFFFFFFFFFFFFFFFF15
S11317E0FFFFFFFFFFFFFFFFFFFFFFFEAAAABFFFF0
S11317F0FFFFFFFFFFFFFFFFFFFFFFFFFFFFFFFFF5
S1131800FFFFFFFFFFFFFFFFFFFFFFFFFFFFFFFFE4
S1131810FFEAAAAAAFAFFFFFFFFFFFFFFFFFFFFF33
S1131820FFFFFFFFFFFFFFFFFFFFFFFFFFFFFFFFC4
S1131830FFFFFFFFFFFFFFAAAAAAABFFFFFFFFFF07
S1131840FFFFFFFFFFFFFFFFFFFFFFFFFFFFFFFFA4
S1131850FFFFFFFFFFFFFFFFFFFFFFFFFEAAAAAA94
S1131860AAFFFFFFFFFFFFFFFFFFFFFFFFFFFFFFD9
S1131870FFFFFFFFFFFFFFFFFFFFFFFFFFFFFFFF74
S1131880FFFFFAAAAAAAAAFFFFFF0FFFF0FFFFFFBC
S1131890FFFFFFFFFFFFFFFFFFFFFFFFFFFFFFFF54
S11318A0FFFFFFFFFFFFFFFFEAABEAAAFABFFFFC5F
S11318B003FFC03FFFFFFFFFFFFFFFFFFFFFFFFF2F
S11318C0FFFFFFFFFFFFFFFFFFFFFFFFFFFFAAAFC9
S11318D0FAABFEBFFFFC03FFC03FFFFFFFFFFFFFAC
S11318E0FFFFFFFFFFFFFFFFFFFFFFFFFFFFFFFF04
S11318F0FFFFFFFFAABFFAAFFEAFFFFC03FFC03F2D
S1131900FFFFFFFFFFFFFFFFFFFFFFFFFFFFFFFFE3
S1131910FFFFFFFFFFFFFFFFFFFEAAFFFEAFFFABCE
S1131920FFFC00FF003F0FC0003F0000FF0000FF6E
S113193000003C3FF0F0FC0003FFFFFFFFFFFFFE51
S1131940AABFFEAFFFEBFFF000FF003F0F00000F48
S113195000003F0000FC00003C3FF0F0F00000FFFE
S1131960FFFFFFFFFFFEAABFFFABFFEAFFF0003C53
S1131970003F0F00000F00003C00003C00003C3F13
S1131980F0F0F00000FFFFFFFFFFFFFEAFAFFFEB43
S1131990FFFABFF0303C0C0F0F03FFFF0FFC3C0FAE
S11319A0F03C0FFFFC3FF0F0F03FF0FFFFFFFFFFC4
S11319B0FFFEAFABFFEAFFFEBFF0303C0C0F0F0F92
S11319C0FFFF0FFC3C3FFC3C3FFFFC0000F0F03FFE
S11319D0F0FFFFFFFFFFFFFEBFEBFFFAFFFEAFF0DC
S11319E03C003C0F0F0FFFFF0FFC3C3FFC3C3FFF54
S11319F0FC0000F0F03FF0FFFFFFFFFFFFFEFFFAE7
S1131A00FFFEBFFFAFF03C003C0F0F0FFFFF0000D5
S1131A103C3FFC3C3FFFFC0000F0F00000FFFFFFF8
S1131A20FFFFFFFFFFFAFFFEAFFFEFF03C003C0FAC
S1131A300F0FFFFF00003C3FFC3C3FFFFC3FF0F07A
S1131A40F00003FFFFFFFFFFFFFFFFFABFFFAFFF41
S1131A50FFF03F00FC0F0F03FFFF0FFC3C0FF03CB7
S1131A600FFFFC3FF0F0F03FFFFFFFFFFFFFFFFF22
S1131A70FFEAAFFEABFFFFF03F00FC0F0F00000FCB
S1131A800FFC3C00003C00003C3FF0F0F03FFFFF47
S1131A90FFFFFFFFFFFFFFAAAFFEAAFFFFF03FC358
S1131AA0FC0F0FC0000F0FFC3F0000FF00003C3F85
S1131AB0F0F0F03FFFFFFFFFFFFFFFFFFFAAABFACD
S1131AC0AAFFFFFCFFFFFF3FFFFFFFFFFFFFFFFF3A
S1131AD0FFFFFFFFFFFFFFFFFCFFFFFFFFFFFFFF15
S1131AE0FFFFFEAAAAEAAABFFFFFFFFFFFFFFFFF57
S1131AF0FFFFFFFFFFFFFFFFFFFFFFFFFFFFFFFFF2
S1131B00FFFFFFFFFFFFFFFFFAAAAAAAAABFFFFF7A
S1131B10FFFFFFFFFFFFFFFFFFFFFFFFFFFFFFFFD1
S1131B20FFFFFFFFFFFFFFFFFFFFFFFFFFFFFEAA17
S1131B30AAAAAABFFFFFFFFFFFFFFFFFFFFFFFFFF0
S1131B40FFFFFFFFFFFFFFFFFFFFFFFFFFFFFFFFA1
S1131B50FFFFFFFFFFEAAAAAAAFFFFFFFFFFFFFFA5
S1131B60FFFFFFFFFFFFFFFFFFFFFFFFFFFFFFFF81
S1131B70FFFFFFFFFFFFFFFFFFFFFFFEAAAAAFFF6C
S1131B80FFFFFFFFFFFFFFFFFFFFFFFFFFFFFFFF61
S1131B90FFFFFFFFFFFFFFFFFFFFFFFFFFFFFFFF51
S1131BA0FFFFFFFFFFFFFFFFFFFFFFFFFFFFFFFF41
S1131BB0FFAAAAAAAAAAAAAAAAFFFFFFFFFFFFFFD9
S1131BC0FFAAAAAAAAAAAAAAAAAAAAAAAAAAAAAA1C
S1131BD0AAFFFFFFFFFFFFFFFFAAAAAAAAAAAAAAB9
S1131BE0AAAAAAAAAAAAAAAAAAAAAAAAAAAAAAAA51
S1131BF0AAAAAAAAAAAAAAAAAA666666666666661D
S1131C0066999999999999999966666666666666D8
S1131C10669999999999999999555555555555553F
S1131C205555555555555555555555555555555560
S1131C3055555555555555555544444444444444C7
S1131C4044111111111111111144444444444444E8
S1131C504411111111111111110030000010000074
S1131C6000000000000000000000786C283C6620A2
S1131C703018305418000000060078247C600C50A2
S1131C8010301838180000000C0078002838183478
S1131C90003018107E007E00180030007C0C3048A4
S1131CA0003018381800000030000000287866342E
S1131CB000183054180000006000300000100000CC
S1131CC000000000003000300000000000000000B0
S1131CD00000000000100000003818FCFC06FE7C28
S1131CE0FE7C7C00000000007C4C380606C6C0C0A8
S1131CF006C6C60000180030C6C618063CC6FCFC62
S1131D00067CC63030307C1806C6187C06C606C66B
S1131D100CC6C6000060000C06C618C006C606C67F
S1131D2018C67E0000307C183C6418C006FE06C647
S1131D3030C606303018003000383CFEFC06FC7C0F
S1131D40307C7C0010000000300000000000000027
S1131D500000000000000000007C7CFC7EFCFEFE15
S1131D607CC63C1EC6C0C6C67CC6C6C6C0C6C0C0ED
S1131D70C6C61806C6C0EEE6C6C6C6C6C0C6C0C03D
S1131D80C0C61806CCC0FEF6C6D6C6FCC0C6F8FC53
S1131D90DEFE1806F8C0D6DEC6DCFEC6C0C6C0C06D
S1131DA0C6C61806CCC0C6CEC6C0C6C6C0C6C0C04D
S1131DB0C6C618C6C6C0C6C6C67CC6FC7EFCFEC067
S1131DC07EC63C7CC6FEC6C67C0000000000000047
S1131DD0000000000000000000FC7CFC7E7EC6C603
S1131DE0C6C666FE0000000000C6C6C6C018C6C649
S1131DF0C6C666063860381000C6C6C6C018C6C651
S1131E00C66C660C3030183800C6C6C67C18C6C608
S1131E10D6383C383018186C00FCDEFC0618C66C4A
S1131E20FE6C1860300C184400C0CCC60618C638C6
S1131E30EEC618C03806380000C076C6FC187C1000
S1131E40C6C618FE00000000FE00000000000000EE
S1131E500000000000000000000000C00006003E7A
S1131E6000C0180CC038000000607CFC7E7E7C60E2
S1131E707EC00000C618FCFC7C2006C6C0C6C66036
S1131E80C6FC381CCC18D6C6C6007EC6C0C6C6FC66
S1131E90C6C6180CF818D6C6C600C6C6C0C6FC60AE
S1131EA0C6C6180CCC18D6C6C600C6C6C0C6C06006
S1131EB07EC6180CC618D6C6C6007EFC7E7E7C6024
S1131EC006C6180CC618D6C67C0000000000000028
S1131ED07C000078000000000000000000180000F2
S1131EE0000000000000000000FC7EFC7C18C6C658
S1131EF0D6C6C6FE3810380000C6C6C6C07EC6C6E2
S1131F00D66CC60C3010183000C6C6C07C18C6C6C5
S1131F10D638C63860100C5A00C6C6C00618C66C3F
S1131F20D66CC6603010180C00C6C6C00618C63879
S1131F30D6C67EC03810380000FC7EC07C187E10E7
S1131F407EC606FE0000000000C00600000000007F
S1131F5000007C000000000000A00AA82A1554FE1E
S1131F607F3E7C2A683E7C3E7C0100010005101601
S1131F70545AA55BE55BE5169400FB0F6B351CD941
S1131F8047D55CD55C35700FC00EB03FFCBEBEFAC1
S1131F90AFB05E68691AA40AA0003FF00000EAAF7F
S1131FA00003ABFEC003AFFFB00EAF3CB00EAF3CBE
S1131FB0F00E7FFFF00D7FFFF00D73FCF00D740049
S1131FC0F03DB541F0F5B901F0FEBA02F03E9A00D9
S1131FD06C0EAA00AC0EAA006C0EAA00300EAA0069
S1131FE0300EAA00700DAA10700E68117003943D93
S1131FF0C000E83300003CF00000030000000FFCC8
S11320000000FAAB0003ABFEC00EAFFFB00EAF3C56
S1132010B00EBF3CF00E7FFFF00D7FFFF00D73FCA0
S1132020F00D7400F00DB540F00DB501F03DB902AE
S1132030F03E9A02700EAA00B00EAA00AC0EAA00DE
S11320402C0EAA002C0EAA005C0EAA10700D68318A
S1132050700E943DC003E83300003CF00000030020
S113206000003FFC0000EAAB0003ABFEC003AFFF7F
S1132070B00EBF3CF03ABF3CF03A7FFFF03A7FFF2E
S1132080F00D73FCF00D7400F00D7400F00DB5410B
S1132090F00EB901F00EBA02F00E9A00B00EAA00CA
S11320A0B00EAA00300EAA00300DAA00700E6A20ED
S11320B05C0E68115C03943F7000E830C0003CF093
S11320C00000030000003FF00000EAAF0003ABFE95
S11320D0C003AFFFB00EAF3CF00EAF3CF03A7FFF51
S11320E0F03A7FFFF03A73FCF03A7400F03DB5002B
S11320F0F03EB541F00EBA02F00E9A02700EAA003C
S1132100B00EAA00B00EAA00300EAA00300EAA002B
S1132110700DAA20700E68117003983F7000E430AF
S1132120C00038F000000F000000000000000000B4
S11321300FFC0000F0FAABC003FFAAAAB003EAAA9E
S1132140AAAC00FAAAAAFC000D6AAFFF000D5D5FFD
S1132150FF0003D7FF3C000035573C0000F557FC57
S11321600003AA57F0003EAA607000EAA980700339
S1132170AAA980C00EAA9602C00E95680700396A03
S11321808003000EB550030003CD400C0000000096
S1132190FFC000000FAAB000003AAAAC00F3EAAAFC
S11321A0FC03FEAAAAFF03EAAAABFF00F5AA9FFC60
S11321B0000D555F3C0003F75F3C000039F7F00069
S11321C000E954700003AA9870000EAA60C0003A97
S11321D0AA60C000EAA980C003AAA980C00EAA967A
S11321E000C0395568C3000EAA833C0003FC0C00F0
S11321F00000000FFFF000003AAAAC0000EAAAFFBA
S11322000003AAABFF003FAAABFF00FEAAAF3C004D
S1132210FAAAB73C003D55D7FC0003D5D7F000031C
S1132220A95470000EAA60B0003AA980B0003AA682
S113223002B000EAA602C000EA9800C000EA9800D2
S1132240C0039558F0C000EAA30CC0003C0C030086
S113225000033000000000FFFFC00003AAAAB00082
S11322600EAAAAAC003AAAAAFF00EAAAAFFF03E6A4
S1132270ABFFFC03FD9F573C00FF57573C000FA5E5
S113228057FC003AA953F000EAA680C003AA9800BC
S1132290C003AA6002B00EA98002B00DA9800AB0E2
S11322A00E698002C0039580030000EA0000C000AC
S11322B03F0170C00000FFCC300003FFFC00003E73
S11322C0AAABC003EAAAAAB00FAAAAAAAC0FF6AA9C
S11322D0ABFF03CDAFAFFF000375FFFC0000D55784
S11322E03C0000D5573C0003E557FC003EA963F0D1
S11322F003EAA680C00EAA9800C03AAA6002C036BB
S1132300A98002C039A6000AC00E56400AC003AB19
S113231050030000FCC0030000003A8300000000EA
S1132320000000000FFC0000F0FAABC003FFAAAAF3
S1132330B003EAAAAAAC00D6AAABFC003D6ABFFF70
S1132340000D5D5FFF0003D7FCFC0000355CFC0062
S113235000F55FFC0003A94FF0003EA9807000EA7D
S1132360A6007003AAA600700EAA5802C00E55A0BB
S11323700AC039AA0003000EB550030003CD4C0C6B
S11323800000000000003C000000FFC00000FABC98
S113239000003AAB00003AAAC000EAAAB000EAAAD8
S11323A0B003AAAFAC03AABFAC036ABFDC035AFFF5
S11323B0DC0357CF1C03D7CF3C0EA4FFD73AA900A8
S11323C057EAA95055EAA95055DAA98055E6A980DB
S11323D0573956005C0EA800F003F000C0000C0052
S11323E0C00003C0C00000C3000000C3000000CC54
S11323F0000000CC0000003000000000000003C01A
S113240000000FFF00000FABC00003AAC0003EAAEB
S1132410B000FAAAB003EAAAAC03AAAFAC035AAF5D
S1132420EC035ABFEC00D7FFDC0037CF1C00D7CF3A
S11324303C0FA4FFD73AA90055EAA95055EAAA507F
S113244057DAAA605CE555805C3AAA00700FF00088
S1132450C0003000C0000C00C00003C0C00000C3B6
S1132460000000C3000000CF000000CC00000030DA
S1132470000000F0000003FC00000FBC00003EABB5
S11324800000FAAAC000EAAAC003EAAAC003AAABE1
S1132490B0036AAFB000DAAFAC00D6FF6C00D7FF70
S11324A0DC0037CF1C0FD7CF3F3AA4FFD5EAA900F1
S11324B055EAA95055DAAA5055E6AA60573955A0ED
S11324C07C0EAA00C003F000C0003000C0000C0065
S11324D0C00003C0C00000C3000000C3000000CC63
S11324E0000000CC00000030000003C000000FF02A
S11324F000000FB000003EAC0000FAAB0000EAABF5
S11325000000EAAAC000EAAEB000EAAFAC00EABF3D
S1132510AC00DAFFAC00DAFFDC0357CF1C03D7CFE3
S11325203C0EA4FFD73AA90055EAA95055DAAA509F
S113253055E6AA6055396A60570E9580FC03EA0097
S1132540C0003000C0000C00C00003C0C00000C3C5
S1132550000000C3000000CC000000CC00000030EC
S113256000009A1311241FBECFEFD8E0DEBFCDBF09
S113257011E0A0E0B1E0E2E3FBE502C005900D92BA
S1132580A83FB107D9F722E0A8EFB1E001C01D923E
S1132590A235B207E1F712E1C2EBD2E104C0219700
S11325A0FE010E944C2DC13BD107C9F70E94DC12E9
S11325B00C94972D0C94000061E080E00E94FE27AB
S11325C060E081E00E94FE2766E082E00E94D1275D
S11325D061E080E00E940E2861E081E00E940E2804
S11325E060E080E00E94292861E082E00E942928BE
S11325F00E947F28789488EF91E00E94FF2288EF60
S113260091E00E94382088EF91E00E940221F3CFEC
S11326101F920F920FB60F9211242F933F934F9353
S11326205F936F937F938F939F93AF93BF93EF9336
S1132630FF930E94842880915102882339F180916C
S113264051028430C1F028F4813089F0823059F08D
S11326501DC08031A1F08032B1F08830B9F481E03E
S113266080934C0213C081E080934B020FC081E041
S113267080934A020BC081E08093490207C081E045
S11326808093480203C081E080934702FF91EF9159
S1132690BF91AF919F918F917F916F915F914F9176
S11326A03F912F910F900FBE0F901F9018951F927E
S11326B00F920FB60F9211248F939F93AF93BF93F2
S11326C08091410290914202A0914302B091440250
S11326D00196A11DB11D8093410290934202A093E3
S11326E04302B0934402BF91AF919F918F910F9099
S11326F00FBE0F901F9018951F920F920FB60F9256
S113270011248F9381E080934E028F910F900FBE1E
S11327100F901F9018951F920F920FB60F921124CD
S11327208F9381E080934D028F910F900FBE0F9095
S11327301F901895E8EFF1E080EF90E0918380839B
S113274080E491E093838283128A08958F929F920A
S1132750AF92BF92CF92DF92EF92FF920F931F93AB
S1132760CF93DF93EC01822F90E080979C0112F4C9
S1132770215F3F4F4901959487949594879495944C
S11327808794959487949694982C88249794879406
S11327908F709078992324F40197806F9F6F01962E
S11327A0880E991E8A01015F1F4F9B01215F3F4FD5
S11327B0CE010E944729540180E8880E911C689438
S11327C0CC24C1F8D12CEC81FD81EA0DFB1D1491C0
S11327D06894EE24E3F8F12C11235CF46885798580
S11327E0CE010E94B72868857985CE010E94B7285A
S11327F00AC06E817F81CE010E94B7286E817F81DD
S1132800CE010E94B728110F81E0E81AF10821F7E0
S113281081E0C81AD108B9F680E1A80EB11CA81449
S1132820B90469F6DF91CF911F910F91FF90EF905A
S1132830DF90CF90BF90AF909F908F900895CF92EC
S1132840DF92EF92FF920F931F93CF93DF937C015C
S1132850EB016A01F9012081222371F08F010F5FDE
S11328601F4FA601BE01C7010E94A6136096F8017E
S113287021918F012111F5CFDF91CF911F910F91FC
S1132880FF90EF90DF90CF9008952F923F924F9258
S11328905F926F927F928F929F92AF92BF92CF92EC
S11328A0DF92EF92FF920F931F93CF93DF93CDB7F5
S11328B0DEB727970FB6F894DEBF0FBECDBF9A835D
S11328C08983B62EA72E5C834B83680179010A3075
S11328D011052105310588F191E09D83412C512C8E
S11328E03201439409C09D81892F90E09F838E8398
S11328F01816190654F157C08D818F5F8D83440CCF
S1132900551C661C771CD301C201880F991FAA1F8E
S1132910BB1F880F991FAA1FBB1F480E591E6A1E92
S11329207B1EC701B601A30192010E941F2D2A300C
S113293031054105510500F7D6CF81E090E09F8332
S11329408E83412C512C320143940B2D1A2DA12C32
S1132950B12CC701B601A30192010E941F2D262E9E
S1132960372E882E992E205D4B815C81B801898198
S11329709A810E94A613C22CD32CE82CF92CC301F3
S1132980B2012AE030E040E050E00E941F2D29010E
S11329903A019FEFA91AB90A005F1F4F8E819F81E8
S11329A0A816B906B4F227960FB6F894DEBF0FBE88
S11329B0CDBFDF91CF911F910F91FF90EF90DF90EA
S11329C0CF90BF90AF909F908F907F906F905F90CB
S11329D04F903F902F900895809141029091420230
S11329E0A0914302B091440240913D0250913E02B5
S11329F060913F02709140024B5F5F4F6F4F7F4F7A
S1132A0084179507A607B70790F080933D0290932B
S1132A103E02A0933F02B0934002209134022F5F04
S1132A20233019F02093340202C0109234024091F2
S1132A30390250913A0260913B0270913C024C5928
S1132A405F4F6F4F7F4F84179507A607B70718F19D
S1132A508093390290933A02A0933B02B0933C02D4
S1132A60409133024F5F40933302309132023F5F13
S1132A7030933202209131022F5F209331024A3089
S1132A8011F410923302343011F4109232022630D1
S1132A9011F4109231024091350250913602609146
S1132AA037027091380243585F4F6F4F7F4F84173E
S1132AB09507A607B707D8F080933502909336029E
S1132AC0A0933702B0933802809145029091460258
S1132AD001969093460280934502809100018F5F96
S1132AE0823019F080930001089510920001089536
S1132AF08091410290914202A0914302B09144021C
S1132B0080933D0290933E02A0933F02B093400213
S1132B108093390290933A02A0933B02B0933C0213
S1132B208093350290933602A0933702B093380213
S1132B3008952F923F924F925F926F927F928F925D
S1132B409F92AF92BF92CF92DF92EF92FF920F9338
S1132B501F93CF93DF93EC010F2EF0EE6F2E7724AB
S1132B607A94F02D0F2EFFEE4F2EFBE75F2EF02D03
S1132B700F2EFFE12F2E312CF02D0E94EC148F85A7
S1132B80882309F422C188898111F7CF27EE31E027
S1132B904EE150E068E770E0CE010E941F1428E384
S1132BA031E041E450E066E470E0CE010E941F147D
S1132BB02E8941E450E066E670E0CE010E94A6133F
S1132BC02F8941E450E066E770E0CE010E94A6132D
S1132BD0288D41E450E066E870E0CE010E94A6131F
S1132BE00A8D1B8D20E030E041E450E066EA70E09D
S1132BF0CE010E94451421E031E04FE550E066E447
S1132C0070E0CE010E941F142C8D4FE550E066E663
S1132C1070E0CE010E94A6132D8D4FE550E066E7CB
S1132C2070E0CE010E94A6132E8D4FE550E066E8B9
S1132C3070E0CE010E94A61308A119A120E030E0A3
S1132C404FE550E066EA70E0CE010E94451423E0AF
S1132C5031E04DE750E066E470E0CE010E941F14BD
S1132C602AA14DE750E066E670E0CE010E94A6136B
S1132C702BA14DE750E066E770E0CE010E94A61359
S1132C802CA14DE750E066E870E0CE010E94A61347
S1132C900EA11FA120E030E04DE750E066EA70E0AD
S1132CA0CE010E94451425E031E04BE950E066E492
S1132CB070E0CE010E941F1428A54BE950E066E69F
S1132CC070E0CE010E94A61329A54BE950E066E707
S1132CD070E0CE010E94A6132AA54BE950E066E8F5
S1132CE070E0CE010E94A6130CA51DA520E030E0E3
S1132CF04BE950E066EA70E0CE010E94451427E0FB
S1132D0031E049EB50E066E470E0CE010E941F140C
S1132D102EA549EB50E066E670E0CE010E94A613B2
S1132D202FA549EB50E066E770E0CE010E94A613A0
S1132D3028A949EB50E066E870E0CE010E94A61392
S1132D400AA91BA920E030E049EB50E066EA70E0F4
S1132D50CE010E9445142FEF81EE94E02150804073
S1132D609040E1F700C0000080914E02882309F4EE
S1132D7004CF1F821E828FEF9FEF998788872FEFE2
S1132D802F932F930F2E812CF8EF9F2EF02D0F2EC3
S1132D90A12CF8E7BF2EF02DC12CD12C0F2EF9EF6A
S1132DA0EF2EF2E0FF2EF02D00EE10E020E431E0F3
S1132DB040E150E060E070E0CE010E94A32A0E944E
S1132DC095281F860F900F90D8CE8889882309F400
S1132DD025C1809147028111A8C01F821E82798675
S1132DE0688629E031E040E150E06EE170E0CE0118
S1132DF00E941F1429E131E044E250E060E170E0F8
S1132E00CE010E941F141F821E820FEF1FEF19872D
S1132E10088727E231E044E250E060EF70E0CE0141
S1132E200E941F141F821E82598648862BE231E0BD
S1132E3048E350E06EE170E0CE010E941F141F824F
S1132E401E821987088723E331E048E350E06EE9E6
S1132E5070E0CE010E941F141F821E8280E098EF52
S1132E60998788872AE331E048E550E068E270E01A
S1132E70CE010E941F141F821E821987088729E42D
S1132E8031E04EE650E060E070E0CE010E941F1495
S1132E902DE431E04EE650E06AE370E0CE010E949A
S1132EA01F1421E531E04EE650E064E770E0CE0106
S1132EB00E941F142CE531E04EE650E06EE171E013
S1132EC0CE010E941F142FE531E042E850E068E093
S1132ED070E0CE010E941F1423E731E046E950E080
S1132EE06CE370E0CE010E941F1420E831E04AEA4E
S1132EF050E062E370E0CE010E941F141F821E8224
S1132F00398628862EE831E04AEC50E065E070E02E
S1132F10CE010E941F1424E931E04AEC50E06FE531
S1132F2070E0CE010E941F1440C0E12CF12C04E19A
S1132F3010E020E431E04EE650E060E070E0CE01C5
S1132F400E94C02928E130E042E850E060E070E0EF
S1132F50CE010E94C02928E130E042E850E068E256
S1132F6071E0CE010E94C0290EE110E020E431E0BE
S1132F704EEB50E060E070E0CE010E94C029AA242C
S1132F80AA94BA2CC12CD12C0F2EFBEFEF2EF0E01B
S1132F90FF2EF02D0CE310E020E131E042E850E098
S1132FA068E170E0CE010E94F9298FEF91EE24E0F0
S1132FB0815090402040E1F700C0000080914E0213
S1132FC0882309F4DACD1F821E828FEF9FEF998741
S1132FD088878F938F930F2E812CF8EF9F2EF02DDF
S1132FE00F2EA12CF8E7BF2EF02DC12CD12C0F2EC3
S1132FF0F9EFEF2EF2E0FF2EF02D00EE10E020E4CA
S113300031E040E150E060E070E0CE010E94A32A8C
S11330100E949528188A0F900F90AFCD80914C0292
S1133020882309F473C08A8581508A87882314F41D
S11330301A8607C08130F9F020F0823009F441C0CB
S113304059C0E12CF12C0EE010E026E030E040EA1B
S113305050E062E070E0CE010E94C029EE24EA94C0
S1133060FE2C26E030E048EB50E062E070E0CE0158
S11330700E94C0293FC0EE24EA94FE2C0EE010E02A
S113308026E030E040EA50E062E070E0CE010E94C9
S1133090C029E12CF12C26E030E048EB50E062E05E
S11330A070E0CE010E94C029EE24EA94FE2C26E0B2
S11330B030E040ED50E062E070E0CE010E94C029B3
S11330C019C0EE24EA94FE2C0EE010E026E030E075
S11330D048EB50E062E070E0CE010E94C029E12C90
S11330E0F12C26E030E040ED50E062E070E0CE01EB
S11330F00E94C0299FEF21EE84E09150204080403F
S1133100E1F700C0000010924C0278C080914B029D
S1133110882309F473C08A858F5F8A8783301CF003
S113312092E09A8747C08130F9F020F0823009F0AC
S11331305AC040C0E12CF12C0EE010E026E030E053
S113314040EA50E062E070E0CE010E94C029EE2423
S1133150EA94FE2C26E030E048EB50E062E070E0B8
S1133160CE010E94C0293FC0EE24EA94FE2C0EE05A
S113317010E026E030E040EA50E062E070E0CE018A
S11331800E94C029E12CF12C26E030E048EB50E00D
S113319062E070E0CE010E94C029EE24EA94FE2C85
S11331A026E030E040ED50E062E070E0CE010E94A5
S11331B0C02919C0EE24EA94FE2C0EE010E026E0AB
S11331C030E048EB50E062E070E0CE010E94C0299C
S11331D0E12CF12C26E030E040ED50E062E070E0BC
S11331E0CE010E94C0292FEF81EE94E0215080404F
S11331F09040E1F700C0000010924B028A858130B4
S113320069F1823009F463C08111B7CC8091310235
S113321081110EC0E12CF12C0EE010E026E030E02C
S113322040EA50E062E070E0CE010E94C02910C084
S1133230843071F4EE24EA94FE2C0EE010E026E0D3
S113324030E040EA50E062E070E0CE010E94C02924
S113325080914E02882309F490CC6AC08091310297
S113326081110EC0E12CF12C0EE010E026E030E0DC
S113327048EB50E062E070E0CE010E94C02910C02B
S1133280843071F4EE24EA94FE2C0EE010E026E083
S113329030E048EB50E062E070E0CE010E94C029CB
S11332A080914E02882309F468CCE12CF12C08ECBF
S11332B010E022ED30E044E150E067E370E0CE013D
S11332C00E94C0290E94952821E02F8756CC809126
S11332D0310281110EC0E12CF12C0EE010E026E049
S11332E030E040ED50E062E070E0CE010E94C02981
S11332F010C0843071F4EE24EA94FE2C0EE010E049
S113330026E030E040ED50E062E070E0CE010E9443
S1133310C02980914E02882309F42FCC60E070E02C
S1133320CE010E947B290E94952881E0888B25CCC0
S1133330DF91CF911F910F91FF90EF90DF90CF908D
S1133340BF90AF909F908F907F906F905F904F90C1
S11333503F902F9008956F927F928F929F92AF9299
S1133360BF92CF92DF92EF92FF920F931F93CF936E
S1133370DF93CDB7DEB7CC59D1090FB6F894DEBFD1
S11333800FBECDBF4C010F2EF0EFCF2ED12CF02D60
S1133390DA82C98200E411E01C830B8386E08F8308
S11333A019861A861C86DE86CD86188B0F870F2E0B
S11333B0F3E0BF2EF02DBA8EAA24A394AE8E1F8EF6
S11333C01BA21CA2CE010D960E94D925DEA2CDA27D
S11333D018A70FA3BAAAAEAA1FAA1BAE1CAECE0191
S11333E085960E94D925DEAECDAE21961FAF0EAFD5
S11333F021972B96BFAE2B972F96AFAE2F97609643
S11334001FAE609764961FAE649765961FAE65976E
S1133410CE01CD960E94D9256796DFAECEAE6797D2
S113342069961FAF0EAF699788E2A3968FAFA397F3
S1133430A7961FAEA797A8961FAEA897AC961FAEE7
S1133440AC978CEC90E06B969FAF8EAF6B9782E35A
S113345090E06D969FAF8EAF6D9788E490E06F9685
S11334609FAF8EAF6F97AF96DFAECEAEAF97E196BC
S11334701FAF0EAFE1978AE0EB968FAFEB97EF9615
S11334801FAEEF97C158DF4F1882CF57D040CD57AA
S1133490DF4F1882C358D04086ED90E0E3969FAF8B
S11334A08EAFE3978AEF90E0E5969FAF8EAFE597F6
S11334B088E590E0E7969FAF8EAFE797CB57DF4F55
S11334C0D982C882C558D040C957DF4F19830883B1
S11334D0C758D040CE56DF4FB882C259D040CA56E2
S11334E0DF4F1882C659D040C956DF4F1882C759DA
S11334F0D040C556DF4F1882CB59D04081ED90E0C3
S1133500C757DF4F99838883C958D04086E990E034
S1133510C557DF4F99838883CB58D0408EE690E01F
S1133520C357DF4F99838883CD58D040682C792CBA
S113353023EA31E040E150E06AE070E0C4010E9417
S11335401F14AA24AA94BA2CC12CD12C0F2EFBED43
S1133550EF2EF0E0FF2EF02D00E210E020E230E04C
S113356048E250E06AEF70E0C4010E94F9290F2E8E
S1133570F7E0BF2EF02D6894AA24A3F8CE018B5A4D
S11335809F4F0E941A26CE0183599F4F0E941A26EC
S1133590CE018B579F4F0E941A26F4018389811113
S11335A014C08091450290914602059728F4CE01FB
S11335B00D960E941A2615C0CE010D960E941A2659
S11335C0CE0185960E941A260CC0CE010D960E944B
S11335D01A26CE0185960E941A26CE01CD960E9407
S11335E01A260091450210914602F40185859685BC
S11335F08017910709F4FEC11687058720E030E0A3
S113360040E150E06CE670E0862D972D0E94451451
S113361010924802F4018489882379F184858F5FAC
S113362084879189911114C08B303CF11486E12C6C
S1133630F12C00E110E020E630E048E250E06CE6D6
S113364070E0862D972D0E94C029F401148A15C0BC
S113365085319CF0F4011486E12CF12C00E110E09A
S113366020E630E048E250E06CE670E0862D972DCD
S11336700E94C029F401118A148AF40185898823DF
S1133680C9F083858F5F853114F483874CC1F401BD
S11336901386E12CF12C00E110E020E930E040E158
S11336A050E060EB70E0862D972D0E94C029F40154
S11336B0158A39C1F40185859685228D338D2817A5
S11336C03907E8F42C5E3F4F82179307C0F42AEAC7
S11336D031E040E150E06CEB70E0862D972D0E94C4
S11336E01F142EEA31E040E150E060EF70E0862DD7
S11336F0972D0E941F1481E0F401858B14C1F401FD
S113370020A131A12817390798F52C5E3F4F821765
S1133710930770F5268940E150E06CEB70E0862D4C
S1133720972D0E94A613F401278940E150E06CEC28
S113373070E0862D972D0E94A613F401208D40E1A0
S113374050E06CED70E0862D972D0E94A613F401D5
S1133750028D138D20E030E040E150E060EF70E036
S1133760862D972D0E94451481E0F401858BDBC0E2
S1133770F40126A137A12817390798F52C5E3F4F8D
S11337808217930770F5248D40E150E06CEB70E0F4
S1133790862D972D0E94A613F401258D40E150E05B
S11337A06CEC70E0862D972D0E94A613F401268DF3
S11337B040E150E06CED70E0862D972D0E94A61339
S11337C0F40100A111A120E030E040E150E060EFFD
S11337D070E0862D972D0E94451481E0F401858BBD
S11337E0A2C0F40124A535A52817390798F52C5E45
S11337F03F4F8217930770F522A140E150E06CEB34
S113380070E0862D972D0E94A613F40123A140E1B8
S113381050E06CEC70E0862D972D0E94A613F40105
S113382024A140E150E06CED70E0862D972D0E94BC
S1133830A613F40106A117A120E030E040E150E016
S113384060EF70E0862D972D0E94451481E0F4010D
S1133850858B69C0F40122A933A92817390798F583
S11338602C5E3F4F8217930770F520A540E150E08E
S11338706CEB70E0862D972D0E94A613F40121A510
S113388040E150E06CEC70E0862D972D0E94A61369
S1133890F40122A540E150E06CED70E0862D972DF7
S11338A00E94A613F40104A515A520E030E040E130
S11338B050E060EF70E0862D972D0E94451481E062
S11338C0F401858B30C0449770F5F40126A540E1DE
S11338D050E06CEB70E0862D972D0E94A613F40146
S11338E027A540E150E06CEC70E0862D972D0E94F6
S11338F0A613F40120A940E150E06CED70E0862DA0
S1133900972D0E94A613F40102A913A920E030E028
S113391040E150E060EF70E0862D972D0E94451441
S113392081E0F401858BF4018189811163C085856F
S113393096859C01285C31092531310590F425EBED
S113394031E048E250E06CE670E0862D972D0E944D
S11339501F1484E08A8F8AAB81E0F401818B848B0D
S113396049C09C01205931402531310590F425EBA3
S113397031E048E250E06CE670E0862D972D0E941D
S11339801F1485E08A8F8AAB81E0F401818B848BDC
S113399031C09C01285532402531310590F425EB86
S11339A031E048E250E06CE670E0862D972D0E94ED
S11339B01F1486E08A8F8AAB81E0F401818B848BAB
S11339C019C0885E93404597A8F42CEB31E048E297
S11339D050E06CE670E0862D972D0E941F14BA8E7D
S11339E0BAAA2B96BFAE2B97AF8281E0F401818BEC
S11339F0838B848B8C8581110AC189A19AA18997B3
S1133A00829708F050C08CA18823B9F1E12CF12CE5
S1133A1004E110E024E130E040EA50E060E570E0C9
S1133A20862D972D0E94C02900E110E020E630E0A9
S1133A3048E250E06CE670E0862D972D0E94C02984
S1133A4023EC31E048E250E06CE670E0862D972DDF
S1133A500E941F1480914502909146020A96909309
S1133A6046028093450281E0F401848B1BA21CA2D0
S1133A70CE010D960E94D92516C027EC31E044E60C
S1133A8050E06AE570E0C4010E941F14FFEF27EACA
S1133A9081E6F15020408040E1F700C0000081E061
S1133AA0F401818B17C189AD9AAD8997829708F08B
S1133AB050C08CAD8823B9F1E12CF12C04E110E065
S1133AC024E130E040EA50E060E570E0862D972D77
S1133AD00E94C02900E110E020E630E048E250E016
S1133AE06CE670E0862D972D0E94C02923EC31E00E
S1133AF048E250E06CE670E0862D972D0E941F147A
S1133B0080914502909146020A96909346028093D2
S1133B10450281E0F401848B1BAE1CAECE01859678
S1133B200E94D92516C027EC31E044E650E06AE54E
S1133B3070E0C4010E941F14FFEF27EA81E6F150F0
S1133B4020408040E1F700C0000081E0F401818B57
S1133B50C1C063968EAD9FAD63978997829708F035
S1133B6056C065968FAD65978823D9F1E12CF12C69
S1133B7004E110E024E130E040EA50E060E570E068
S1133B80862D972D0E94C02900E110E020E630E048
S1133B9048E250E06CE670E0862D972D0E94C02923
S1133BA023EC31E048E250E06CE670E0862D972D7E
S1133BB00E941F1480914502909146020A969093A8
S1133BC046028093450281E0F401848B64961FAE23
S1133BD0649765961FAE6597CE01CD960E94D92550
S1133BE016C027EC31E044E650E06AE570E0C40119
S1133BF00E941F14FFEF27EA81E6F1502040804025
S1133C00E1F700C0000081E0F401818B63C0809182
S1133C104702811107C00E94EC14CE0101960E9454
S1133C20B227ACCC21ED31E044E650E068E770E027
S1133C30862D972D0E941F1480914802882309F431
S1133C409DCC27ED31E044E650E068E770E0862D36
S1133C50972D0E941F14FFEF2DE389E4F1502040BB
S1133C608040E1F700C000000F2EF5E0CF2ED12CEC
S1133C70F02D2DED31E044E650E068E770E0862D4C
S1133C80972D0E941F149FEFE1EEF4E09150E04065
S1133C90F040E1F700C00000E12CF12C00E110E05D
S1133CA020E530E044E650E068E770E0862D972D8B
S1133CB00E94C0292FEF81EE94E021508040904073
S1133CC0E1F700C00000E1E0CE1AD10891F60E94AD
S1133CD0952854CCC456DF4F0FB6F894DEBF0FBE00
S1133CE0CDBFDF91CF911F910F91FF90EF90DF90A7
S1133CF0CF90BF90AF909F908F907F906F900895DA
S1133D008F929F92AF92BF92CF92DF92EF92FF92E7
S1133D100F931F93CF93DF93EC01C82EDD2EE12C7C
S1133D20F12C00EA10E022ED30E044E150E067E3DA
S1133D3070E00E94C02923EE31E042E350E06AE5DE
S1133D4070E0CE010E941F140D851E8520E030E036
S1133D5044E650E066EA70E0CE010E94451481E436
S1133D608CAB8DAB8EAB8C870F2EF1E49F2EF02D98
S1133D700F2EF3E08F2EF02D6894AA24A5F80F2EB1
S1133D80FAE5BF2EF02D0E94EC142CA944E650E075
S1133D9066E670E08C2D9D2D0E94A6132DA944E6A5
S1133DA050E066E770E08C2D9D2D0E94A6132EA98D
S1133DB044E650E066E870E08C2D9D2D0E94A61329
S1133DC080914A02882399F08C858150803214F0C6
S1133DD08C8701C0BC862FEF81EE94E02150804097
S1133DE09040E1F700C0000010924A02A9C08091FF
S1133DF04902882399F08C858F5F8B3514F48C8766
S1133E0001C0AC862FEF81EE94E0215080409040B9
S1133E10E1F700C000001092490292C0809147026D
S1133E20882309F48DC09C868A858F5F8A878430B5
S1133E3014F08A866AC0813021F138F0823009F4A6
S1133E4048C0833009F06FC060C0EE24EA94FE2CB1
S1133E5008E010E020E130E048E750E066E670E07A
S1133E608C2D9D2D0E94C029E12CF12C20E130E005
S1133E7048E750E066E770E08C2D9D2D0E94C02934
S1133E8052C0E12CF12C08E010E020E130E048E7DA
S1133E9050E066E670E08C2D9D2D0E94C029EE2432
S1133EA0EA94FE2C20E130E048E750E066E770E059
S1133EB08C2D9D2D0E94C029E12CF12C20E130E0B5
S1133EC048E750E066E870E08C2D9D2D0E94C029E3
S1133ED02AC0E12CF12C08E010E020E130E048E7B2
S1133EE050E066E770E08C2D9D2D0E94C029EE24E1
S1133EF0EA94FE2C20E130E048E750E066E870E008
S1133F008C2D9D2D0E94C0290EC0E12CF12C08E0BF
S1133F1010E020E130E048E750E066E870E08C2DE6
S1133F209D2D0E94C0292FEF81EE94E02150804006
S1133F309040E1F700C0000010924802109247023E
S1133F408A85813099F11CF4882341F01CCF82309A
S1133F5009F454C0833009F479C015CF8C858CAB37
S1133F608091310281110FC0E12CF12C08E010E0A6
S1133F7020E130E048E750E066E670E08C2D9D2DAE
S1133F800E94C02900CF843009F0FDCEEE24EA94CB
S1133F90FE2C08E010E020E130E048E750E066E65F
S1133FA070E08C2D9D2D0E94C029EDCE8C858DABAB
S1133FB08091310281110FC0E12CF12C08E010E056
S1133FC020E130E048E750E066E770E08C2D9D2D5D
S1133FD00E94C029D8CE843009F0D5CEEE24EA94CC
S1133FE0FE2C08E010E020E130E048E750E066E70E
S1133FF070E08C2D9D2D0E94C029C5CE8C858EAB82
S11340008091310281110FC0E12CF12C08E010E005
S113401020E130E048E750E066E870E08C2D9D2D0B
S11340200E94C029B0CE843009F0ADCEEE24EA94CB
S1134030FE2C08E010E020E130E048E750E066E8BC
S113404070E08C2D9D2D0E94C0299DCE8091480248
S1134050882309F498CEDF91CF911F910F91FF909F
S1134060EF90DF90CF90BF90AF909F908F90089586
S11340703F924F925F926F927F928F929F92AF92F4
S1134080BF92CF92DF92EF92FF920F931F93CF9341
S1134090DF932C01782E652C60E070E00E947B2970
S11340A08FEF8F938F930F2E812CF8EF9F2EF02D8F
S11340B00F2EA12CF8E7BF2EF02DC12CD12C0F2EE2
S11340C0F8E6EF2EF0E0FF2EF02D08E210E028E2F3
S11340D030E04CE850E068E270E0C2010E94A32A9C
S11340E027ED31E044E650E068E770E0C2010E9449
S11340F01F142FEF8DE399E4215080409040E1F7A5
S113410000C000000F900F90C5E0D0E02DED31E02D
S113411044E650E068E770E0872D962D0E941F1456
S1134120EFEFF1EE24E0E150F0402040E1F700C071
S11341300000E12CF12C00E110E020E530E044E641
S113414050E068E770E0872D962D0E94C0298FEF1C
S113415091EEE4E081509040E040E1F700C00000BF
S11341602197A1F633243A943F923F920F2E812C4B
S1134170F8E79F2EF02D0F2EA12CF8E3BF2EF02D83
S1134180C12CD12C0F2EF9E9EF2EFBE1FF2EF02DDF
S113419000E310E020E430E044EB50E0BE01872D62
S11341A0962D0E94A32AC05CDF4F0F900F90C0345D
S11341B0F1E0DF07C9F60E9495280E947815F20104
S11341C012861386148616861586118A138A148A13
S11341D0158A1092460210924502C2010E94AB1940
S11341E0DF91CF911F910F91FF90EF90DF90CF90CF
S11341F0BF90AF909F908F907F906F905F904F9003
S11342003F900895CF92DF92EF92FF920F931F9306
S1134210CF93DF93EC012D853E858AA99BA9821754
S1134220930708F0CEC06894CC24C2F8D12C2DEEAC
S113423031E044E650E06AE570E0CE010E941F14CC
S11342402FEF84E39CE0215080409040E1F700C0D0
S11342500000E12CF12C00E110E020E930E044E61C
S113426050E06AE570E0CE010E94C0292FEF84E39C
S11342709CE0215080409040E1F700C0000021E024
S1134280C21AD108A1F60E9495280E947815CE0181
S11342900E94801E6D857E858A8D9B8D861797076B
S11342A0C8F48AE090E00E94812D6CA98EE690E02B
S11342B00E946F2D6DA98FE690E00E946F2D6EA96C
S11342C080E790E00E946F2D60E081E790E00E941B
S11342D06F2D77C088A199A186179707C8F484E148
S11342E090E00E94812D6CA988E790E00E946F2DD8
S11342F06DA989E790E00E946F2D6EA98AE790E08E
S11343000E946F2D60E08BE790E00E946F2D59C0F2
S11343108EA19FA186179707C8F48EE190E00E94B2
S1134320812D6CA982E890E00E946F2D6DA983E82D
S113433090E00E946F2D6EA984E890E00E946F2D9A
S113434060E085E890E00E946F2D3BC08CA59DA5A0
S113435086179707C8F488E290E00E94812D6CA923
S11343608CE890E00E946F2D6DA98DE890E00E948A
S11343706F2D6EA98EE890E00E946F2D60E08FE8AB
S113438090E00E946F2D1DC08AA99BA986179707EC
S1134390C0F482E390E00E94812D6CA986E990E04C
S11343A00E946F2D6DA987E990E00E946F2D6EA980
S11343B088E990E00E946F2D60E089E990E00E9416
S11343C06F2DDF91CF911F910F91FF90EF90DF90B0
S11343D0CF9008956CED75E08AE090E00E94812D05
S11343E068EE73E084E190E00E94812D60E273E066
S11343F08EE190E00E94812D64EF71E088E290E00C
S11344000E94812D6CE271E082E390E00E94812D94
S11344106BE48EE690E00E946F2D60E58FE690E0FD
S11344200E946F2D6FE480E790E00E946F2D60E0A2
S113443081E790E00E946F2D61E488E790E00E949C
S11344406F2D62E489E790E00E946F2D63E48AE7B0
S113445090E00E946F2D60E08BE790E00E946F2D4A
S113446064E482E890E00E946F2D65E483E890E0C4
S11344700E946F2D66E484E890E00E946F2D60E056
S113448085E890E00E946F2D67E48CE890E00E943C
S11344906F2D68E48DE890E00E946F2D69E48EE84A
S11344A090E00E946F2D60E08FE890E00E946F2DF5
S11344B06AE486E990E00E946F2D6BE487E990E05E
S11344C00E946F2D6CE488E990E00E946F2D60E0FB
S11344D089E990E00E946F2D61E088EC90E00E94F1
S11344E06F2D0895CF93DF93EC018AE090E00E9452
S11344F0692D9B8F8A8F84E190E00E94692D99A396
S113450088A38EE190E00E94692D9FA38EA388E288
S113451090E00E94692D9DA78CA782E390E00E9401
S1134520692D9BAB8AAB8EE690E00E94612D8E8B49
S11345308FE690E00E94612D8F8B80E790E00E94CF
S1134540612D888F81E790E00E94612D898F88E733
S113455090E00E94612D8C8F89E790E00E94612D8C
S11345608D8F8AE790E00E94612D8E8F8BE790E01B
S11345700E94612D8F8F82E890E00E94612D8AA3B2
S113458083E890E00E94612D8BA384E890E00E9470
S1134590612D8CA385E890E00E94612D8DA38CE8A9
S11345A090E00E94612D88A78DE890E00E94612D23
S11345B089A78EE890E00E94612D8AA78FE890E099
S11345C00E94612D8BA786E990E00E94612D8EA741
S11345D087E990E00E94612D8FA788E990E00E940E
S11345E0612D88AB89E990E00E94612D89AB88EC4C
S11345F090E00E94612D88AFDF91CF9108958F9252
S11346009F92AF92BF92CF92DF92EF92FF920F935D
S11346101F93CF93DF93EC018989811143C0CE01AD
S11346200E94CA2860E0CE010E941F296FEF7FEF2D
S1134630CE010E947B298FEF8F938F930F2EFFE182
S11346408F2E912CF02D0F2EA12CF8EFBF2EF02DD4
S1134650C12CD12C0F2EF9E7EF2EF4E1FF2EF02D13
S113466000E610E020E331E046E450E068E070E06A
S1134670CE010E94A32A2FEF8BE792E921508040BC
S11346809040E1F700C0000089E59CE19D838C83A4
S11346901F821E828FEF9FEF9987888781E0898B25
S11346A00F900F90CE010E94722288AD813031F0BC
S11346B0CE010E94EA21CE010E94722260E070E0E5
S11346C0CE010E947B298FEF8F938F930F2E812C25
S11346D0F8EF9F2EF02D0F2EA12CF8E7BF2EF02D12
S11346E0C12CD12C0F2EF9EFEF2EF2E0FF2EF02D7E
S11346F000EE10E020E431E040E150E060E070E0E2
S1134700CE010E94A32A2FEF81EE94E02150804035
S11347109040E1F700C000000E9495280E9478159F
S11347201A861B861C861E861D86198A1B8A1C8A6D
S11347301D8A1092460210924502CE010E949915DC
S11347400F900F90DF91CF911F910F91FF90EF90F9
S1134750DF90CF90BF90AF909F908F9008958F92ED
S11347609F92AF92BF92CF92DF92EF92FF920F93FC
S11347701F93CF93DF93EC018E859F85803321E0D7
S11347809207E4F560E371E0681B790B7D8B6C8B19
S11347908FEF8F938F930F2EFFEE8F2EFBE79F2EBD
S11347A0F02D0F2EF7EEAF2EF9E3BF2EF02DC12C16
S11347B0D12C0F2EF9E8EF2EFFE1FF2EF02D00E1B2
S11347C010E020E130E044EA50E0CE010E94A32A48
S11347D02D85022E000C330B2E5F3F4F8E859F8557
S11347E060E471E0681B790BE12CF12C44EA50E0A1
S11347F0CE010E94C0290F900F900EC0E12CF12C25
S113480000E110E028E130E044EA50E060E070E0CC
S1134810CE010E94C0291E8ADF91CF911F910F9172
S1134820FF90EF90DF90CF90BF90AF909F908F90CC
S113483008958F929F92AF92BF92CF92DF92EF92A0
S1134840FF920F931F93CF93DF93EC018E859F8587
S1134850803321E09207E4F560E371E0681B790B93
S11348607D8B6C8B8FEF8F938F930F2EFFEE8F2E9C
S1134870FBE79F2EF02D0F2EF7EEAF2EF9E3BF2EA0
S1134880F02DC12CD12C0F2EF9E7EF2EFFE1FF2ED6
S1134890F02D00E110E020E130E044EA50E0CE01E8
S11348A00E94A32A2D85022E000C330B2E5F3F4F4E
S11348B08E859F8560E471E0681B790BE12CF12CF7
S11348C044EA50E0CE010E94C0290F900F9041C0ED
S11348D08FEF8F938F930F2EF0EE8F2E99249A944F
S11348E0F02D0F2EA12CF8EFBF2EF02DC12CD12CC2
S11348F00F2EF9E6EF2EFFE1FF2EF02D00E110E080
S113490020E130E044EA50E060E070E0CE010E9433
S1134910A32AE12CF12C24E030E044EA50E060E1E9
S113492070E0CE010E94C02980E391E09F878E87CA
S11349308C858F5F8C870F900F908A3154F028E11B
S113494030E044EA50E060E070E0CE010E94C0290B
S11349501E8ADF91CF911F910F91FF90EF90DF900E
S1134960CF90BF90AF909F908F9008958F929F9219
S1134970AF92BF92CF92DF92EF92FF920F931F9369
S1134980CF93DF93EC018E859F85803321E09207DE
S1134990E4F560E371E0681B790B7D8B6C8B8FEF22
S11349A08F938F930F2E812CF8EF9F2EF02D0F2EC7
S11349B0A12CF8E7BF2EF02DC12CD12C0F2EF9E538
S11349C0EF2EFFE1FF2EF02D00E110E020E130E0BA
S11349D044EA50E0CE010E94A32A2D85022E000C49
S11349E0330B2E5F3F4F8E859F8560E471E0681B1B
S11349F0790BE12CF12C44EA50E0CE010E94C0294D
S1134A0081E08F8B0F900F900FC0E12CF12C00E10F
S1134A1010E028E130E044EA50E060E070E0CE01CC
S1134A200E94C0291E8A1F8ADF91CF911F910F9186
S1134A30FF90EF90DF90CF90BF90AF909F908F90BA
S1134A400895CF93DF93FC01209134028285082ED0
S1134A50000C990B422F50E084179507A9F0228788
S1134A60223071F4258586859785820F911D27FD57
S1134A709A9597878687138A868981110BC022C0ED
S1134A8086898823F9F024C086898823D9F083890C
S1134A9081111EC0EF018089843020F4CF010E946F
S1134AA0AF230DC09CEF980F923020F4CF010E94E9
S1134AB0B62405C0863018F0CF010E94192481E085
S1134AC08B8B06C0908980913302981301C0128A9F
S1134AD0DF91CF910895AF92BF92CF92DF92EF9280
S1134AE0FF920F931F93CF93DF93FC012091340225
S1134AF08285082E000C990B422F50E084179507ED
S1134B00B1F0228783858F5F8387213009F046C007
S1134B10958598170CF042C0138686859785019673
S1134B2097878687138A8689882399F106C08689A0
S1134B30882379F18389811131C0EF0166817781FE
S1134B4086859785681B790B161617068CF4E48006
S1134B50F58040855185AA24AA94BA2CC12CD12C65
S1134B600AE010E020E130E0CF010E94F9290EC0F4
S1134B7040855185E12CF12C0AE010E024E130E07D
S1134B8060E070E0CF010E94C0291E8A81E08B8B17
S1134B9005C080E391E097838683128ADF91CF91E9
S1134BA01F910F91FF90EF90DF90CF90BF90AF9047
S1134BB008958F929F92AF92BF92CF92DF92EF921D
S1134BC0FF92CF93DF93EC011D8A1C8A1A861C8600
S1134BD01F861E868090410290904202A09043025C
S1134BE0B0904402A0913402B0E0A50194010E9467
S1134BF0412D0F2EFAE0CF2ED12CE12CF12CF02DEB
S1134C00A70196010E941F2DA62FB0E0A5019401D3
S1134C100E94412DA70196010E941F2D688BDF91F0
S1134C20CF91FF90EF90DF90CF90BF90AF909F9087
S1134C308F900895CF93DF93EC018A89811106C088
S1134C40CE010E94D92581E08A8B8E8B89898823A5
S1134C5021F0CE010E94212503C0CE010E946B25C4
S1134C60DF91CF9108954F925F926F927F928F92CE
S1134C709F92AF92BF92CF92DF92EF92FF920F93E7
S1134C801F93CF93DF93FC01209134028481082E7B
S1134C90000C990B422F50E084179507E9F1248307
S1134CA021113DC012863F01C0E0D0E0DD24DA943A
S1134CB00F2EF8EF4F2EF02D5524539420913102EE
S1134CC030E02C173D0719F5DF92DF924F921F92C7
S1134CD00F2E812CF8E79F2EF02DA12CB12CCC2E79
S1134CE00F2EF9E2EF2EF1E2FF2EF02D08E210E094
S1134CF028E230E04CE850E068E270E0C3010E9432
S1134D00752BF30152860F900F900F900F90219600
S1134D10C630D10599F603C08285882321F2DF913C
S1134D20CF911F910F91FF90EF90DF90CF90BF90A4
S1134D30AF909F908F907F906F905F904F90089569
S1134D402F923F924F925F926F927F928F929F9297
S1134D50AF92BF92CF92DF92EF92FF920F931F9385
S1134D60CF93DF93EC01209134028C81082E000C48
S1134D70990B422F50E08417950709F4BFC02C8388
S1134D802111C0C08985882361F09F818E81890F9C
S1134D908233FCF08D818F5F8D838830D9F419863E
S1134DA019C08F819E81891B8F8318169CF0E12C7A
S1134DB0F12C09E110E028E230E043E750E068E23A
S1134DC070E0CE010E94C02910924E0218861B8604
S1134DD099C08F831A86612C712C0F2EFAE74F2EFF
S1134DE0512CF02DDD24DA940F2EF2E72F2E312CE6
S1134DF0F02D8091320290E08615970509F075C078
S1134E0089858823C9F18F81A201481B510987FD37
S1134E105395DF92DF9288EF8F931F920F2E812C90
S1134E20F8E79F2EF02DA12CB12CC62C0F2EF9E9FA
S1134E30EF2EFFE1FF2EF02D02E310E020E230E040
S1134E4068E270E0CE010E94752B8F814CEA50E03D
S1134E50481B510987FD5395E12CF12C08E010E023
S1134E6020E230E068E270E0CE010E94C0290F9099
S1134E700F900F900F9037C08F81A201481B5109EA
S1134E8087FD5395DF92DF9288EF8F931F920F2E49
S1134E90812CF8E79F2EF02DA12CB12CC62C0F2EBF
S1134EA0F1E8EF2EF3E2FF2EF02D0CE310E020E208
S1134EB030E068E270E0CE010E944A2C8F81A101AB
S1134EC0481B510987FD5395E12CF12C08E010E0B3
S1134ED020E230E068E270E0CE010E94C0290F9029
S1134EE00F900F900F9081E08A878FEF681A780AED
S1134EF084E06816710409F07CCF04C08A85882395
S1134F0009F469CFDF91CF911F910F91FF90EF903A
S1134F10DF90CF90BF90AF909F908F907F906F90D5
S1134F205F904F903F902F900895EF92FF920F93D0
S1134F301F93CF93DF93EC01E12CF12C08E210E0F6
S1134F4028E230E04CE850E068E270E00E94C029BA
S1134F501C821D821F82DF91CF911F910F91FF90C0
S1134F60EF900895CF93DF93EC0180914E02882354
S1134F7059F08885811108C0CE010E94952781E0EF
S1134F80888789878B8707C08B85811104C0CE01F0
S1134F900E94332603C0CE010E94A026DF91CF9148
S1134FA00895813089F08230E1F0811126C024B166
S1134FB081E090E002C0880F991F6A95E2F7822B86
S1134FC084B985B185B9089527B181E090E002C024
S1134FD0880F991F6A95E2F7822B87B988B188B93F
S1134FE008952AB181E090E002C0880F991F6A9564
S1134FF0E2F7822B8AB98BB18BB908956195813020
S113500039F0823041F0811108C064B915B80895AF
S113501067B918B808956AB91BB808959DB321E01B
S113502030E002C0220F331F8A95E2F7292B2DBBF3
S1135030613039F0623049F061110AC010926900A0
S113504008958AE08093690008958FE08093690051
S11350500895813099F18230B1F081114FC061110E
S113506008C081E080936E0014BC85E085BD16BC49
S1135070089582E080936E0084BD85E085BD16BCF2
S11350808FEF87BD089561110BC081E0809370009C
S11350901092B00084E08093B1001092B2000895A1
S11350A082E0809370008093B00084E08093B1002C
S11350B01092B20089EF8093B300089561110DC07E
S11350C081E080936F001092800085E080938100DE
S11350D01092850010928400089582E080936F00FE
S11350E0109280008DE080938100109285001092D0
S11350F08400109289008FEF80938800089580E5E2
S11351008CBD81E08DBD089586B1806C8093500282
S11351108091500290914F0280958923809351028F
S11351208091500280934F02089510924E02109283
S11351304D0210924C0210924B0210924A021092AD
S11351404902109248021092470208956EBD0DB4B0
S113515007FEFDCF08952A9828980E94A628289A29
S113516008952A9A28980E94A628289A08951F9399
S1135170CF93DF93EC01162F672F2A9A28980E9469
S1135180A628612FCE010E94A628289ADF91CF91EC
S11351901F910895CF93DF93EC01289A29982FEF5C
S11351A089EF90E0215080409040E1F700C000007A
S11351B0299A2FEF89E698E1215080409040E1F749
S11351C000C0000061E0CE010E94AB282FEF89EF00
S11351D090E0215080409040E1F700C0000060EC76
S11351E0CE010E94AB286BE2CE010E94B12866E397
S11351F0CE010E94AB2868E4CE010E94B1286AE384
S1135200CE010E94AB2865E5CE010E94B12860E280
S1135210CE010E94AB2861E1CE010E94AB282FEFA2
S11352208DEE92E0215080409040E1F700C00000F4
S113523069E2CE010E94AB28DF91CF9108951F93BC
S1135240CF93DF93EC01162F66E30E94AB28113055
S113525089F01230A1F0111116C068E2CE010E944B
S1135260B128888199812A813B81398328839B8352
S11352708A8309C068E4CE010E94B12804C068E8AA
S1135280CE010E94B128DF91CF911F910895AF9272
S1135290BF92CF92DF92EF92FF920F931F93CF931F
S11352A0DF93EC015B017A0169016AE20E94AB2899
S11352B0B501CE010E94B728B601CE010E94B728DD
S11352C06BE2CE010E94AB28B701CE010E94B72841
S11352D0B801CE010E94B7286CE2CE010E94AB282F
S11352E0DF91CF911F910F91FF90EF90DF90CF90BE
S11352F0BF90AF900895CF92DF92EF92FF920F93F9
S11353001F93CF93DF937C016B01FC010281138116
S113531001501109208131812150310940E050E0D0
S113532060E070E00E944729F7018281938118169A
S11353301906ECF400E010E0F70180819181181661
S113534019066CF4C0E0D0E0B601C7010E94B7288A
S11353502196F70180819181C817D907ACF30F5FBB
S11353601F4FF70182819381081719072CF3DF91EE
S1135370CF911F910F91FF90EF90DF90CF90089500
S11353808F929F92AF92BF92CF92DF92EF92FF9251
S11353900F931F93CF93DF936C01490158018A0146
S11353A00A0D1B1D015011099B01280D391D2150A7
S11353B031090E9447291A141B0474F4181419049F
S11353C03CF4E401B701C6010E94B7282197D1F744
S11353D081E0A81AB10891F7DF91CF911F910F9145
S11353E0FF90EF90DF90CF90BF90AF909F908F9001
S11353F008953F924F925F926F927F928F929F9205
S1135400AF92BF92CF92DF92EF92FF920F931F93CE
S1135410CF93DF93CDB7DEB72A970FB6F894DEBFEC
S11354200FBECDBF4C0139011A830983040F151F28
S1135430015011099B01260D371D215031090E948D
S1135440472989819A8199230CF401969C01359509
S1135450279538872F83121613060CF05CC0C301FE
S113546099230CF40F96FC01F595E795F595E795CE
S1135470F595E795F595E795FC83EB83FE83ED833E
S11354806E2C7F2C1A8219826894EE24E1F8F12C98
S11354904D805E80460C571C2B813C8112161306EE
S11354A03CF58301F801349028E030E03A872987FD
S11354B033204CF4B501C4010E94B728B501C401DE
S11354C00E94B72808C0B601C4010E94B728B601DB
S11354D0C4010E94B728330C89859A8501979A875D
S11354E08987892B29F70F5F1F4F04151505D1F6FE
S11354F091E0E91AF10881F6E981FA813196FA839B
S1135500E9832D813E81620E731E8F819885E81791
S1135510F90709F0B9CF2A960FB6F894DEBF0FBE8B
S1135520CDBFDF91CF911F910F91FF90EF90DF904E
S1135530CF90BF90AF909F908F907F906F905F902F
S11355404F903F9008952F923F924F925F926F92A7
S11355507F928F929F92AF92BF92CF92DF92EF92FF
S1135560FF920F931F93CF93DF93CDB7DEB760976E
S11355700FB6F894DEBF0FBECDBF988B8F8729017D
S11355803801DA82C982BA86A9869C868B868A010A
S1135590060D171D015011099B01240D351D2150C5
S11355A031090E944729C30199230CF401969C01F7
S11355B0359527953E872D87121613060CF07CC06F
S11355C0C20199230CF40796FC01F595E795F5952E
S11355D0E795F595E795FE83ED83F887EF836E2CC9
S11355E07F2C212C312C6894AA24A1F8B12C8F8013
S11355F09884860C971C7C826B824F8458882D81FA
S11356003E81121613060CF043C0EB80FC80F701B8
S1135610C4906894662462F8712CDC2CD694D694D9
S1135620D694D694D694D69402E010E0D11006C055
S113563069817A81C2010E94B7281AC0F1E0DF12A1
S113564006C069857A85C2010E94B72811C022E08C
S1135650D21206C06B857C85C2010E94B72808C09F
S113566033E0D31205C06DA17EA1C2010E94B72808
S113567001501109D9F6CC0CCC0C81E0681A7108E0
S113568061F69FEFE91AF90AE814F90409F0BFCFAB
S1135690E1E0AE1AB10809F0B2CF6B807C80FFEF75
S11356A02F1A3F0A2F813885620E731E8D859E85C1
S11356B02816390609F097CF60960FB6F894DEBF26
S11356C00FBECDBFDF91CF911F910F91FF90EF904F
S11356D0DF90CF90BF90AF909F908F907F906F900E
S11356E05F904F903F902F9008952F923F924F924A
S11356F05F926F927F928F929F92AF92BF92CF925E
S1135700DF92EF92FF920F931F93CF93DF93CDB766
S1135710DEB72E970FB6F894DEBF0FBECDBF9E87BF
S11357208D8729013801BA82A9829A8689868A01DD
S1135730060D171D015011099B01240D351D215023
S113574031090E944729C30199230CF401969C0155
S1135750359527953C872B87121613060CF081C0CC
S1135760C20199230CF40796FC01F595E795F5958C
S1135770E795F595E795FE83ED83F887EF83370189
S1135780FC2D24E6F202600C711C1124212C312C16
S11357906894AA24A1F8B12C8F809884860C971C55
S11357A07C826B824D845E848D819E8118161906DD
S11357B00CF043C0EB80FC80F701C490689466242D
S11357C062F8712CDC2CD694D694D694D694D694C4
S11357D0D69402E010E0D11006C069817A81C2013A
S11357E00E94B7281AC0F1E0DF1206C069857A85E5
S11357F0C2010E94B72811C022E0D21206C06BA1D8
S11358007CA1C2010E94B72808C033E0D31205C0AE
S11358106DA17EA1C2010E94B72801501109D9F6D9
S1135820CC0CCC0C81E0681A710861F69FEFE91A80
S1135830F90A8E149F0409F0BFCFE1E0AE1AB10853
S113584009F0B2CF6B807C80FFEF2F1A3F0A2F81C3
S11358503885620E731E8B859C852816390609F0DF
S113586097CF2E960FB6F894DEBF0FBECDBFDF9153
S1135870CF911F910F91FF90EF90DF90CF90BF9049
S1135880AF909F908F907F906F905F904F903F90DC
S11358902F9008952F923F924F925F926F927F9232
S11358A08F929F92AF92BF92CF92DF92EF92FF922C
S11358B00F931F93CF93DF93CDB7DEB72E970FB619
S11358C0F894DEBF0FBECDBF9E878D8729013801B6
S11358D0BA82A9829A8689868A01060D171D01500B
S11358E011099B01240D351D215031090E944729BE
S11358F0C30199230CF401969C01359527953C87A7
S11359002B87121613060CF081C0C20199230CF4E4
S11359100796FC01F595E795F595E795F595E795D7
S1135920FE83ED83F887EF833701FC2D28E7F2022D
S1135930600C711C1124212C312C6894AA24A1F828
S1135940B12C8F809884860C971C7C826B824D844A
S11359505E848D819E81181619060CF043C0EB807D
S1135960FC80F701C4906894662462F8712CDC2CE6
S1135970D694D694D694D694D694D69402E010E0D5
S1135980D11006C069817A81C2010E94B7281AC069
S1135990F1E0DF1206C069857A85C2010E94B7284A
S11359A011C022E0D21206C06BA17CA1C2010E94E8
S11359B0B72808C033E0D31205C06DA17EA1C2018F
S11359C00E94B72801501109D9F6CC0CCC0C81E007
S11359D0681A710861F69FEFE91AF90A8E149F0498
S11359E009F0BFCFE1E0AE1AB10809F0B2CF6B8085
S11359F07C80FFEF2F1A3F0A2F813885620E731EB9
S1135A008B859C852816390609F097CF2E960FB6FC
S1135A10F894DEBF0FBECDBFDF91CF911F910F91E0
S1135A20FF90EF90DF90CF90BF90AF909F908F90BA
S1135A307F906F905F904F903F902F900895A1E2D8
S1135A401A2EAA1BBB1BFD010DC0AA1FBB1FEE1FF4
S1135A50FF1FA217B307E407F50720F0A21BB30B3F
S1135A60E40BF50B661F771F881F991F1A9469F7BB
S1135A7060957095809590959B01AC01BD01CF0117
S1135A8008950E94522DA59F900DB49F900DA49F40
S1135A90800D911D11240895EE0FFF1F0590F491C0
S1135AA0E02D0994A29FB001B39FC001A39F700D84
S1135AB0811D1124911DB29F700D811D1124911D12
S1135AC00895F999FECF92BD81BDF89A992780B5C2
S1135AD00895A8E1B0E042E050E00C94892D262F0F
S1135AE0F999FECF92BD81BDF89A019700B40216D0
S1135AF039F01FBA20BD0FB6F894FA9AF99A0FBE7E
S1135B0008950196272F0E94702D0C946F2DDC01AF
S1135B10CB01FC01F999FECF06C0F2BDE1BDF89AB4
S1135B20319600B40D9241505040B8F70895F8945E
S1055B30FFCFA1
S1135B3201320033003400350047616D652044654D
S1135B427369676E656420260050726F6772616DB7
S1135B526D656420427900434C4A00476974687554
S1135B62623A0076696E6539310053706563696122
S1135B726C205468616E6B730054686500317374F1
S1135B820047656E65726174696F6E004F66004D01
S1135B9265646963616C20456E67696E65657269E7
S1135BA26E670053747564656E747320416E64008D
S1135BB250726F666573736F727320696E004B6FF8
S1135BC272656100506F6C79746563686E696373A2
S1135BD22E2E0053636F72653A004E65770052654C
S1135BE2636F72640053706565642B00426C6F636B
S1135BF26B2B002B31300047414D45204F56455207
S1135C020050617573650052656164790053746173
S1135C127274004E65772053636F7265004E455768
S10B5C222053434F52450000DA
S9030000FC
